:03000000020003F8
:0C000300787FE4F6D8FD75811902004AF0
:1000CB0010083F065B4F666D7D077F6F777C395E4F
:0600DB007971021800001B
:0B00E200EF1FAC0670011E4C70F622F0
:10008F00D2A074082519F8E6F58020B10B30B1FD28
:10009F000519E51970020518E51920E008451860E3
:1000AF0004D2A0800BE51930E00645186002C2A00B
:0C00BF00E519540F2408F8E6F58080CE07
:10000F0002008FE493A3F8E493A34003F68001F278
:10001F0008DFF48029E493A3F85407240CC8C333F2
:10002F00C4540F4420C8834004F456800146F6DFC1
:10003F00E4800B01020408102040809000CBE47E86
:10004F00019360BCA3FF543F30E509541FFEE493B6
:10005F00A360010ECF54C025E060A840B8E493A37D
:10006F00FAE493A3F8E493A3C8C582C8CAC583CAA8
:10007F00F0A3C8C582C8CAC583CADFE9DEE780BE60
:0100E100001E
:00000001FF
