:020000040800F2
:10000000E804002049010008A90300085303000880
:10001000A503000833020008E709000800000000FB
:10002000000000000000000000000000450500087E
:1000300037020008000000003104000859060008DB
:100040006301000863010008630100086301000800
:1000500063010008630100086301000863010008F0
:1000600063010008630100086301000863010008E0
:1000700063010008630100086301000863010008D0
:1000800063010008630100086301000863010008C0
:1000900063010008630100086301000863010008B0
:1000A00063010008630100086301000863010008A0
:1000B0006301000863010008630100086301000890
:1000C0006301000863010008630100086301000880
:1000D00063010008F90600086301000863010008D5
:1000E0006301000863010008630100086301000860
:1000F0006301000863010008630100086301000850
:10010000630100086301000863010008630100083F
:10011000630100086301000863010008630100082F
:10012000630100086301000863010008630100081F
:10013000DFF810D000F04CF8004800475D0D0008D3
:10014000AFF30080E80400200648804706480047D7
:10015000FEE7FEE7FEE7FEE7FEE7FEE7FEE7FEE777
:10016000FEE7FEE799060008310100082DE9F05F7F
:100170000546002092469B46884606468146402416
:100180001BE0284641464746224600F042F85346C7
:100190005A46C01A914110D311461846224600F023
:1001A00029F82D1A67EB01084F462246012000214D
:1001B00000F020F817EB00094E41201EA4F10104C5
:1001C000DFDC484631462A464346BDE8F09F000042
:1001D000064C074D06E0E06840F0010394E8070094
:1001E00098471034AC42F6D3FFF7A6FFE00D0008A5
:1001F000000E0008202A04DB203A00FA02F1002059
:1002000070479140C2F1200320FA03F31943904054
:100210007047202A04DB203A21FA02F000217047BF
:1002200021FA02F3D040C2F120029140084319465E
:10023000704700BFFEE770472DE9F04102460025F8
:100240000026002000230024002791F803C00CF0B2
:100250000F0591F803C00CF0100CBCF1000F03D097
:1002600091F802C04CEA050591F800C0BCF1000FFE
:1002700031D0146800202BE04FF0010C0CFA00F391
:10028000B1F800C00CEA03069E4220D183004FF073
:100290000F0C0CFA03F7BC4305FA03FC4CEA040408
:1002A00091F803C0BCF1280F06D14FF0010C0CFAF5
:1002B00000FCC2F814C00AE091F803C0BCF1480F7A
:1002C00005D14FF0010C0CFA00FCC2F810C0401C24
:1002D0000828D1D31460B1F800C0BCF1FF0F34DDA1
:1002E000546800202EE000F1080C4FF0010808FAD5
:1002F0000CF3B1F800C00CEA03069E4221D1830042
:100300004FF00F0C0CFA03F7BC4305FA03FC4CEA60
:10031000040491F803C0BCF1280F05D100F1080CCA
:1003200008FA0CF8C2F8148091F803C0BCF1480F29
:1003300007D100F1080C4FF0010808FA0CF8C2F8D8
:100340001080401C0828CED35460BDE8F0810161C4
:10035000704700BFFEE7000008B50121482000F00B
:1003600069F82020ADF8000010208DF8030003206C
:100370008DF8020069460948FFF75EFF2021074813
:10038000FFF7E5FF2020ADF8000069460448FFF7BD
:1003900053FF20210248FFF7DAFF08BD000C01409F
:1003A0000018014000BFFEE77047000070B5002153
:1003B00000230F22C47804B3154C246804F4E064CD
:1003C000C4F5E064210AC1F10403CA40447804FA88
:1003D00003F184781440214309010E4C0678A1559D
:1003E000047804F01F050124AC4005786D11AD00C0
:1003F00005F1E025C5F8004109E0047804F01F0587
:100400000124AC40044D0678761145F8264070BDB5
:100410000CED00E000E400E080E100E0024901436F
:10042000024A1160704700000000FA050CED00E080
:100430007047000029B1064A92690243044B9A6151
:1004400004E0034A92698243014B9A6170470000BD
:100450000010024030B500210022002400232D4D61
:100460006D6805F00C0121B1042905D0082923D1BC
:1004700005E0294D056022E0274D05601FE0254D70
:100480006D6805F47012234D6D6805F48034022503
:1004900005EB92421CB9214D554305600BE01D4D03
:1004A0006D6805F400351DB11C4D5543056002E033
:1004B000194D5543056002E0174D056000BF00BFB0
:1004C000144D6D6805F0F0010909154D6B5C056868
:1004D000DD4045600F4D6D6805F4E061090A104D7F
:1004E0006B5C4568DD4085600A4D6D6805F46051C0
:1004F000C90A0B4D6B5C4568DD40C560054D6D68F4
:1005000005F44041890B074D6B5CC568B5FBF3F5FD
:10051000056130BD0010024000127A0000093D0064
:10052000000000201000002005490968817004497E
:10053000091D096841700249083109680170704756
:10054000E8F7FF1F704710B500F002F810BD00007B
:100550000CB50020019000903348006840F48030D2
:100560003149086000BF3048006800F40030009056
:100570000198401C0190009818B90198B0F5A06F3F
:10058000F1D12948006800F4003010B1012000903A
:1005900001E0002000900098012843D12348006822
:1005A00040F01000214908600846006820F0030070
:1005B00008600846006840F0020008601A48406879
:1005C000194948600846406848600846406840F459
:1005D000806048600846406820F47C104860084607
:1005E000406840F4E81048600846006840F08070B9
:1005F000086000BF0C48006800F000700028F9D0C7
:100600000948406820F003000749486008464068F0
:1006100040F00200486000BF0348406800F00C0052
:100620000828F9D10CBD0000001002400020024053
:10063000042808D14FF0E021096941F004014FF08E
:10064000E022116107E04FF0E021096921F0040187
:100650004FF0E022116170477047000010B504466A
:100660006FF00400FFF7E4FFE11704EB5171C1F3F1
:10067000C701074A11701046007800EB4001C1EB3A
:10068000C0104FF6FF7101EAC0000249088010BD9A
:10069000140000201600002010B51348006840F038
:1006A00001001149086008464068104908400E4999
:1006B0004860084600680E4908400B490860084633
:1006C000006820F4802008600846406820F4FE009E
:1006D00048604FF41F008860FFF735FF4FF000605F
:1006E0000449086010BD0000001002400000FFF83F
:1006F000FFFFF6FE08ED00E010B5002440F22551A2
:100700001D4800F0ACF8012834D11B4800F062F914
:10071000C4B21A48008800F4004058BB174800884B
:1007200000F4804060B10A2C03D0002013490880F7
:1007300020E01248008840F400401049088019E089
:100740000D2C06D10D48008840F480400B490880EC
:1007500010E00A480088C0F30D0009490C5407480E
:100760000088401C0549088008460088C72801DD2C
:100770000020088010BD0000003801401800002053
:100780002000002010B586B0044601210420FFF7A8
:1007900051FE01218803FFF74DFE4FF40070ADF8C4
:1007A000140018208DF8170003208DF8160005A9F5
:1007B0001C48FFF741FD4FF48060ADF814000420A1
:1007C0008DF8170005A91748FFF736FD01940020A2
:1007D000ADF80800ADF80C00ADF80A000C20ADF83B
:1007E0000E000020ADF8100001A90F4800F086F8B7
:1007F000012240F225510C4800F05BF825208DF8CD
:10080000000003208DF801008DF8020001208DF812
:1008100003006846FFF7CAFD0121034800F006F80F
:1008200006B010BD000801400038014021B18289A6
:1008300042F40052828104E082894DF6FF731A402F
:100840008281704702460020B1F5007F00D100BFD1
:1008500013880B400BB1012000E00020704770B5F9
:100860000246002400230025002040F66A16B1420B
:1008700000D100BFC1F3421501F01F03012606FAA3
:1008800003F3012D02D19689334006E0022D02D1F7
:10089000168A334001E0968A33400C12012606FA8C
:1008A00004F41688344013B10CB1012000E000209C
:1008B00070BDF0B50346002400260025002040F658
:1008C0006A17B94200D100BF1846C1F3421401F0C3
:1008D0001F06012707FA06F5012C01D10C3004E0B0
:1008E000022C01D1103000E014301AB107682F43F8
:1008F000076002E00768AF430760F0BD2DE9F047ED
:1009000086B005460E460024A24600BFA146002739
:10091000B08900B100BF2F462C8A4CF6FF7004400E
:10092000F08804432C82AC894EF6F3100440B08862
:1009300031890843718908430443AC81AC8A4FF67E
:10094000FF400440B0890443AC8201A8FFF782FD58
:100950001F48874202D1DDF810A001E0DDF80CA0AD
:10096000A88900F4004040B10AEBCA0000EB0A106D
:1009700031684900B0FBF1F807E00AEBCA0000EB70
:100980000A1031688900B0FBF1F86420B8FBF0F080
:1009900004012009642101FB1089A88900F40040AA
:1009A00040B1322000EBC900B0FBF1F000F00700CD
:1009B000044308E0322000EB09106421B0FBF1F0A1
:1009C00000F00F0004432C8106B0BDE8F087000062
:1009D0000038014001468888C0F308007047C1F321
:1009E00008028280704700BFFEE700000FB4054B8D
:1009F00010B503A9044A029800F018F810BC5DF87D
:100A000014FB0000390D00081C00002002E008C89B
:100A1000121F08C1002AFAD170477047002001E078
:100A200001C1121F002AFBD1704700002DE9FF4FC2
:100A30008DB09B460F460446002606E025280BD0C5
:100A40005A460F999047641C761C20780028F5D1EF
:100A500011B03046BDE8F08F0025A8460122984924
:100A600000E0054314F8013F203B02FA03F008427E
:100A7000F7D120782E2817D114F8010F45F004057E
:100A80002A280ED06FF02F022078A0F1300109291A
:100A90000AD808EB880102EB410100EB0108641C55
:100AA000F2E757F8048B641C20786C280DD004DC26
:100AB0004C2812D06A2811D104E074280DD07A286D
:100AC0000CD10AE045F4001507E0617845F4801583
:100AD000814202D1641C05F58015641C20786928C8
:100AE00044D008DC0028B3D0582867D063280FD042
:100AF000642808D13AE0702865D0732812D0752890
:100B00005AD078285AD05A460F999047761CD5E08B
:100B100017F8040B8DF8000000208DF80100E9465D
:100B2000012003E057F8049B4FF0FF3069074FF0B6
:100B3000000501D40AE06D1C45450DDA8542FADB5B
:100B400019F805100029F6D106E06D1C8542FCDB82
:100B500019F805100029F8D12E4404E019F8010B0A
:100B60005A460F9990476D1EF8D2A7E00A2000213F
:100B7000CDE90801C5F3025002280CD001CFC117FE
:100B8000021E71F100020CDA0023D0EB030063EBCC
:100B900001012D2208E0FF1D27F00707F7E80201F9
:100BA000EEE72A0504D52B228DF8282001223CE00F
:100BB000EA073AD02022F7E70A2000E010200021BF
:100BC000CDE9080107E01020002145F00405CDE93A
:100BD00008014FF00808C5F30250022810D001CFD9
:100BE00000214FF0000A2A0720D52278702A0DD064
:100BF000DDE908C38CF0100C5CEA030C0CD015E0A6
:100C0000FF1D27F00707F7E80201EAE740228DF809
:100C100028204FF0010A0CE050EA010306D03023EF
:100C20008DF828308DF82920022292462278582A01
:100C300004D024A20DF120090B9209E026A2F9E7C5
:100C4000DDE90823FFF792FA0B9B9B5C09F8013D55
:100C500050EA0102F4D1ADEB09002030089068079A
:100C600001D44FF001080899884503DD0898A8EBE6
:100C7000000000E000208046002506E00AA85A4651
:100C8000405D0F9990476D1C761C5545F6DB04E0DE
:100C900030205A460F999047761CB8F10001A8F110
:100CA0000108F5DC05E019F8010B5A460F99904749
:100CB000761C0899481E08900029F4DC641CC4E6E0
:100CC0000928010030313233343536373839616222
:100CD00063646566000000003031323334353637E6
:100CE0003839414243444546000000000146114A5C
:100CF00012884A434FF0E0235A6100229A611A4653
:100D0000126942F001021A6100BF4FF0E02210693F
:100D100000F001021AB100F48032002AF5D04FF041
:100D2000E022126922F001024FF0E0231A61002252
:100D30009A6170471600002070B504460D46A1B2B6
:100D40000548FFF74CFE00BF40210348FFF77AFD3E
:100D50000028F9D0204670BD0038014008B50024B5
:100D60004820FFF77BFC4FF4A060FFF757FBFFF72D
:100D7000F3FA4FF4E130FFF705FD6846FFF7D4FBC7
:100D80001EE09DF802309DF801209DF800100DA096
:100D9000FFF72CFE6420FFF7A9FF601CC4B21420EB
:100DA00094FBF0F100FB114038B90C48006808B919
:100DB000012000E00020094908600A20FFF796FFA3
:100DC000DFE7000053544DB5C44944BAC53A25582D
:100DD0002D25582D25580D0A000000009481214230
:100DE000000E000800000020200000000C0A00088F
:100DF000200E000820000020C80400001C0A000883
:100E000000000000010203040102030406070809B0
:100E100002040608000000000000000000000000BE
:0400000508000131BD
:00000001FF
