:0300000002009A61
:0C009A00787FE4F6D8FD75811D0200E1BE
:1001B80010080000003E004100410041003E0000E0
:0201C800000035
:0B01CB00EF1FAC0670011E4C70F62206
:10019A00D3EF9400EE940040147D6E7C00ED1D7048
:0D01AA00011CED4C70F7EF1F70E61E80E3A6
:0101B7002225
:10017100E4FBFAEFC4131313540124FF92B4EF25E7
:10018100E0FFC2B600D2B6000BBB00010AEB640867
:080191004A70E0C2B500D2B5CE
:010199002243
:02000300A9074B
:10000500E4FFFEE51BC4131313540124FF92B4E56A
:100015001B25E0F51BC2B600D2B6000FBF00010ECE
:10002500EF64084E70DDE4FEFFEBC41313135401B7
:1000350024FF92B4EB25E0FBC2B600D2B6000FBF99
:1000450000010EEF64084E70E0E4FEFFEDC41313EB
:1000550013540124FF92B4ED25E0FDC2B600D2B6DB
:10006500000FBF00010EEF64084E70E0E4FEFFE9EB
:10007500C4131313540124FF92B4E925E0F9C2B661
:1000850000D2B6000FBF00010EEF64084E70E0C24B
:04009500B500D2B52B
:010099002244
:10012600E4F51CF51D75807FF51CF51DE51D451CC8
:10013600600DAF807801EF08800103D8FDF580E5FA
:100146001D25E02408F808E6FF1201717F017E00F4
:1001560012019AE4FF120171051DE51D7002051CCE
:0B016600C39408E51C940040C380B562
:1000A600020126E493A3F8E493A34003F68001F249
:1000B60008DFF48029E493A3F85407240CC8C3335B
:1000C600C4540F4420C8834004F456800146F6DF2A
:1000D600E4800B01020408102040809001B8E47E01
:1000E600019360BCA3FF543F30E509541FFEE4931F
:1000F600A360010ECF54C025E060A840B8E493A3E6
:10010600FAE493A3F8E493A3C8C582C8CAC583CA10
:10011600F0A3C8C582C8CAC583CADFE9DEE780BEC8
:0101CA000034
:00000001FF
