:020000040800F2
:10000000E0100020A9020008E74F0008C7440008DC
:10001000E54F00083D1E0008A9640008000000002C
:100020000000000000000000000000009B540008D9
:100030003F1E000800000000855100089D54000884
:10004000C3020008C3020008C3020008C30200087C
:10005000C3020008C3020008C3020008C30200086C
:10006000C3020008C3020008C3020008C30200085C
:10007000C3020008C3020008C3020008C30200084C
:10008000C302000800000000C3020008C302000809
:10009000C3020008C3020008C3020008C30200082C
:1000A000C3020008C3020008C3020008C30200081C
:1000B00019550008C3020008C3020008C302000863
:1000C000C3020008C3020008C3020008C3020008FC
:1000D000C3020008E1620008C3020008C30200086E
:1000E000C3020008C3020008C3020008C3020008DC
:1000F000C3020008C3020008C30200080000000099
:1001000000000000C302000800000000C302000855
:10011000C302000800000000C3020008C302000878
:10012000C3020008C3020008C3020008C30200089B
:10013000C30200080000000000000000C302000825
:10014000C3020008C3020008000000000000000015
:10015000000000000000000000000000000000009F
:10016000000000000000000000000000C3020008C2
:10017000C3020008000000000000000000000000B2
:1001800000000000C30200080000000000000000A2
:10019000000000000000000000000000000000005F
:1001A0000000000000000000C3020008C3020008B5
:1001B000C3020008C3020008C302000800000000D8
:1001C00000000000C3020008000000000000000062
:1001D000C3020008C302000800F002F800F055F85E
:1001E0000AA090E8000C82448344AAF10107DA4592
:1001F00001D100F04AF8AFF2090EBAE80F0013F08F
:10020000010F18BFFB1A43F001031847C47F000019
:10021000E47F0000103A24BF78C878C1FAD85207AA
:1002200024BF30C830C144BF04680C607047000070
:100230000023002400250026103A28BF78C1FBD8EF
:10024000520728BF30C148BF0B607047662906F0CF
:100250005E86642900F0FE80732900F0DE850020B0
:1002600070471FB506F04EFE00F086FE0400002029
:10027000002106F0B7F9401C60600020002106F064
:100280009BF9E0601FBD10B510BD01F0A1F911464A
:10029000FFF7E7FF06F038F901F0BFF903B4FFF705
:1002A000F2FF03BC01F0C2F9094880470948004742
:1002B000FEE7FEE7FEE7FEE7FEE7FEE7FEE7FEE716
:1002C000FEE7FEE704480549054A064B7047000073
:1002D00009550008D9010008E00A0020E0100020BC
:1002E000E00C0020E00C002053EA020C00F06980D2
:1002F0002DE9F04B4FF00006002B1FBFB3FA83F53A
:1003000003FA05F424FA05F65E4012BF1643B2FA6A
:1003100082F502FA05F4C5F120051EBF22FA05FC9C
:1003200044EA0C04203556EA044C4FEA144418BF42
:10033000641C4FF000084FF00009904271EB030C71
:1003400039D3002919BFB1FA81F701FA07F6B0FADB
:1003500080F700FA07F6C7F120071EBF20FA07FC56
:1003600046EA0C062037B6FBF4FCA7EB0507103F66
:1003700007F01F0BCBF120060CFA0BFB2CFA06F64C
:1003800044BFB3460026202FA4BF5E464FF0000BAB
:100390005BEA060C08BF4FF0010B19EB0B09ABFB36
:1003A000027C48EB0608C01B06FB02CC0BFB03CC0F
:1003B00071EB0C01C1E70B46024641464846BDE8D9
:1003C000F08B13B54FF000004FF00001AFF3008049
:1003D000BDE81C40704700000FB41CB5074B06AACF
:1003E0007B4469460090059800F0EDFC00206946CA
:1003F00000F0FCFC1CBC5DF814FB0000090A0000C6
:1004000070B50C460546012A05D02878800600D52F
:10041000EA69002302E0012305E05B1C934202D25B
:10042000E05C0028F9D1A869E618C01AA861286A1A
:10043000184428622846AFF3008004E0D5E9012182
:1004400014F8010B9047B442F8D32846AFF300806C
:1004500070BD00002DE9F0410646002410687529A2
:10046000314616A510D0AFF30080002802DA4042D2
:1004700013A507E031688A0701D512A502E04907F4
:1004800004D511A5012401E0AFF3008000210A2268
:1004900006F1240709E0B0FBF2FCB0FBF2F302FB2B
:1004A0001C00303078541846491C0028F3D12346EC
:1004B0002A463046BDE8F04100F018BA00000000BE
:1004C0002D0000002B000000200000002DE9F04767
:1004D0004FF0000A89460446C0F820A02046E16893
:1004E0008847002876D0252806D0D4E901219047F6
:1004F000206A401C2062F1E7E16820460025884719
:10050000C4F81CA006460027C4F818A02A2E09D05B
:10051000304605F0F2FF38B304EB8708303EC8F8E8
:10052000186019E059F8041B204604EB870291611A
:10053000E1688847012F064618D1E069002820DAD3
:1005400025F020051DE0D8F8180000EB800006EB30
:1005500040003038C8F818002046E1688847064651
:1005600005F0CBFF0028EED1012F0AD02E2E08D1A6
:100570002046E16888477F1C0646022F45F020058B
:10058000C4DBA069002803DA404245F00105A06100
:10059000E80701D025F01005B6B1A6F141001928F1
:1005A00002D8203645F400654A463146204625608B
:1005B0004D46FFF74BFE58B1012806D0ED1D25F042
:1005C000070000F1080989E704E005F1040985E75F
:1005D00030468AE7206ABDE8F08700000FB400B516
:1005E0008DB010A9099000910B904FF0FF300A9048
:1005F00000200C90064878440690064878446A46E5
:1006000007900F9909A800F021FC0DB05DF814FBCC
:10061000730800008B0800002DE9FF5F1D464FF0B6
:10062000FF3B91464FF000085F46D5E90146A969B6
:1006300001987F1C8847296A824688470028F6D19E
:10064000BAF1FF3F0CD0002E24F4C06419DD60061F
:1006500014D5BAF12B0F09D0BAF12D0F0ED103E04A
:10066000584604B0BDE8F09F44F48064A96901983D
:100670007F1C8847761E8246002E02DDBAF1300FBD
:1006800003D0B9F1000F26D032E0A969761E019897
:100690007F1C44F400748847002E824605DDBAF1C1
:1006A000780F06D0BAF1580F03D0B9F1000F10D06F
:1006B0001EE0B9F1000F02D0B9F1100F18D1A969ED
:1006C000761E01987F1C24F400748847824610200F
:1006D00002E0082000E00A20814609E0A96908FB41
:1006E0000908761E01987F1C44F4007488478246EE
:1006F000002E05DD4946504600F093FB0028EDDA58
:10070000E96901988847A00502D46FF00100A8E7C5
:10071000E00725D1600613D5600502D5C8F10000B9
:1007200000E0404629680A1D2A600968220501D5B3
:10073000087015E0220701D5088011E008600FE07D
:100740002868011D29600068210502D580F8008015
:1007500006E0210702D5A0F8008001E0C0F8008083
:1007600038467EE770B5064600F0BCF804680546DA
:1007700030460A22002100F099FB2C6070BD000079
:10078000014A00F0CBBB00006C00002010B5431CF8
:1007900002E010F8011B71B18107FAD14FF001326C
:1007A00002C88C1A8C4314EAC211F9D0C01A0A0686
:1007B00003D0C01E10BDC01A10BD0A0401D0801E97
:1007C00010BD0902FCD0401E10BD4FF000020429EC
:1007D000C0F0128010F0030C00F01B80CCF1040C70
:1007E000BCF1020F18BF00F8012BA8BF20F8022BA4
:1007F000A1EB0C0100F00DB85FEAC17C24BF00F84A
:10080000012B00F8012B48BF00F8012B70474FF077
:10081000000200B5134694469646203922BFA0E850
:100820000C50A0E80C50B1F12001BFF4F7AF09075C
:1008300028BFA0E80C5048BF0CC05DF804EB89004D
:1008400028BF40F8042B08BF704748BF20F8022B90
:1008500011F0804F18BF00F8012B70474FF0013C9A
:1008600050F8042B51F8043B9A4221D1A2EB0C031F
:10087000934313EACC1317D150F8042B51F8043BDF
:100880009A4215D1A2EB0C03934313EACC130BD17C
:1008900050F8042B51F8043B9A4209D1A2EB0C0307
:1008A000934313EACC13DBD04FF00000704700BF36
:1008B000D01A01BAB1FA81F101F0180122FA01F05F
:1008C000CB40C1F12001DBB2C0B2C01A2CFA01F357
:1008D000D11A914311EAC311E6D1704770477047AE
:1008E0007047000000487047800A00202DE9F0475B
:1008F0000D4699469246044600F124080168880690
:1009000004D5E06921F01001216000E00120A84237
:1009100001DD471B00E00027A1697A1902EB0900FD
:10092000081AA0612078C00602D42046AFF30080E8
:10093000002608E0D4E901211AF806009047206A51
:10094000401C761C20624E45F4DB2078C0060AD598
:100950002046AFF3008006E0D4E901213020904723
:10096000206A401C2062381EA7F10107F4DC07E072
:10097000D4E9012118F805009047206A401C206244
:10098000281EA5F10105F3DC2046AFF30080207896
:10099000000602D50220BDE8F0870120FBE7704782
:1009A0002DE9FF4F0C461E464FF0FF378BB0D2E9C2
:1009B0000001DDF860800A908A46C1F30A5505B946
:1009C0003D46002108464FF00000BAF1000F00F448
:1009D000400005DA00EB80004FF4400101EA5000CE
:1009E0004FEA9059B9F1010F00DDB9460A9850EA73
:1009F0004A000ED044F61050A5F2FF3545432F149F
:100A0000B8F1000F1ED07542291E1EDDC9F100028B
:100A10001CE0B8F1010F4FF0000001D0302103E0DD
:100A2000F24305E02154401CB042FBDB304600227B
:100A3000002121540B99C1F80880C1E900200FB0B2
:100A4000BDE8F08FBD1B6D1CDEE74A4600DA694247
:100A500006A800F02DFD06AB93E8070003AB83E882
:100A6000070050460A9900F0E8FD8DE80700A0F560
:100A700000501F3800900398002D0ADD42F21F013C
:100A80004A460844002303A90390684601F051F840
:100A900009E0A0F500504A461F38002303A903903F
:100AA000684601F05BF88DE807000004000C03D0F5
:100AB0004FF0FF30410800E01046B8F1000F03D0BE
:100AC0000022009215461EE0751E05D400F058FA6B
:100AD000303262556D1EF9D5B3460122084302D06B
:100AE00000227F1C04E02078302801D100227F1EE4
:100AF000002A099784D01DE0112D07DA00F040FA92
:100B0000303262556D1C50EA0102F5D1084302D023
:100B10000098C8B10EE00021681E05E0235C625C0D
:100B200063542254401E491C8142F7DBAB46A81B8C
:100B3000401E0990002004F80B000B98099AC0F899
:100B40000880C0E9002B7AE711264FF0000857E72C
:100B50002DE9F04F88460446D21D22F0070191B0DE
:100B6000D1E90001CDE90A0105F09FFC02460B988E
:100B7000C00F01D02D2007E02068810701D52B2070
:100B800002E0202101EAC000032A099001D0072ACF
:100B900005DB03464146204600F040FA0BE1207891
:100BA000800601D5E06900E00620B8F1650F8146B6
:100BB00006D0B8F1660F18D0B8F1670F70D131E0E8
:100BC0000020B9F1110F009001DB112301E009F1C0
:100BD00001030AAA01A90CA8FFF7E2FEDDE90C70E7
:100BE000002609F10105834647E001204B460090AD
:100BF0004FF000470AAA01A90CA8FFF7D1FEDDE9D2
:100C00000DB00C995D46002610B909F101000D18D0
:100C1000B9EB050003D4C0F1FF3609F10105A5EBDE
:100C200009002BE0B9F1010F01DA4FF001090020B2
:100C3000B9F1110F0090484601DD112300E0034691
:100C40000AAA01A90CA8FFF7ABFEDDE90C704D461E
:100C500000268346207800070AD4AB4500DA5D46BB
:100C600001A8012D04DD411911F8011C302907D01C
:100C70004F4502DA17F1040F04DA012082460FE033
:100C80006D1EEEE7002F02DCED1B3E4403E0781CF6
:100C9000A84200DD7D1CB81B00F1010A4FF000479F
:100CA0002078000703D4AA4501DB4FF0FF3A00216A
:100CB000B7F1004F0DF143088DF8431024D0022006
:100CC0002B23002F01DA7F422D230A21021EA0F1DF
:100CD000010000DC5FB197FBF1FC97FBF1F201FB37
:100CE0001C7C17460CF1300C08F801CDEEE7A8F19A
:100CF000010003702188090501D5452100E0652127
:100D0000A0F1010800F8011C09980FA9A1EB080740
:100D1000FF1D00B10120411901EBEA70A1693844BF
:100D2000081A401EA0612078C00602D42046AFF306
:100D30000080099828B1D4E901219047206A401C1D
:100D400020622078C00622D52046AFF300801EE046
:100D5000002E04DBB34502DD01A8805D00E03020F9
:100D6000D4E901219047206A401C2062761CAAF138
:100D700001005FEA000A0AD100F0FEF8C0680168CD
:100D8000405CD4E901219047206A401C2062281E63
:100D9000A5F10105DCDC07E0D4E9012118F8010B1D
:100DA0009047206A401C2062381EA7F10107F3DC3F
:100DB0002046AFF30080032011B041E601694A1CD0
:100DC00002610878704700B58FB0CDE9013100218C
:100DD000059105497944CDE9031011466846FFF7AE
:100DE00075FB0FB000BD0000E5FFFFFF0A6802F8C9
:100DF000010B0A60704710B5436913B1AFF300806F
:100E000001E0FFF7FDFA012010BD127800F1240186
:100E10000A7000224A700122EDE711684FF0FF329C
:100E2000E9E73A2800D2303820F02002412A01D3E5
:100E3000A2F13700884201D34FF0FF307047000025
:100E4000026811441378016018467047D160054963
:100E500079445161044979441162002111611146BC
:100E600000F01CB9EDFFFFFFB1010000426842B184
:100E7000016811F8013B23B1521EC0E90012184667
:100E800070470121C160881E704742685AB1C3682B
:100E9000016843B983688B4205D0491E521CC0E9E2
:100EA0000012002070474FF0FF3070472DE9F047E7
:100EB00091460F4680460446002614F8015B2DB18A
:100EC00000F052F80068405DC007F6D12B2D02D02B
:100ED0002D2D18D0641E4A463946204600F098FA57
:100EE00027B13968A14201D1C7F800804FF0020450
:100EF00071050BD54042002803DDFFF7F3FC0460C9
:100F0000A007BDE8F08746F48066E4E70028F8DA39
:100F1000FFF7E8FC04606FF00040F2E72DE9F041D4
:100F200015460E46040002D12C6804B90BA42046D5
:100F300000F040FB0444207870B127463146384623
:100F400000F028FB0444207810B1002004F8010BC5
:100F500038462C60BDE8F0810027F9E7000000006A
:100F600000487047800A002010B500F005F8001D09
:100F700010BD00BF7156000000487047A00A002055
:100F800030B5B0F10A024FEA900E71F100034EEA5B
:100F9000817EB0EB0E0061EB91014FEA101E4EEA2C
:100FA000017E10EB0E0041EB11114FEA102E4EEABC
:100FB000016E10EB0E0041EB11214FEA104E4EEA8C
:100FC000014E10EB0E0041EB1141401841F10001C0
:100FD0004FEAD00040EA41704FEAD10110EB8005A2
:100FE0004FEA810444EA907444EB01046D1944EB28
:100FF0000404521BA3414FF0000348BF0A3200D53E
:1010000030BD401C41F1000130BD10B50446FFF772
:10101000ABFF0068005D00F0010010BD2DE9F0415C
:101020001F46044603260168072A01F4006004DB1A
:1010300008B116A505E016A503E008B115A500E066
:1010400015A521F010002060A069C01EA0610FB19D
:10105000401EA0612046AFF300804FB1D4E90121CA
:1010600038469047206A401C2062C01C206206E07F
:10107000206AFAE7D4E9012115F8010B9047761EA2
:10108000F8D22046AFF30080BDE8F0814E414E001B
:101090006E616E00494E4600696E66002DE9F34FA1
:1010A0004FF0000A0C4656468DB001200C9001F11D
:1010B0000C000B9062690B9801219047051E2DD002
:1010C000252D2CD0216A8847C0B162690B98012177
:1010D0009047216A88470028F7D16269411E0B9822
:1010E000904700E0761CA1690D988847216A8847DF
:1010F0000028F7D1E1690D988847DBE7A1690D98D1
:101100008847A842074601D1761CD3E7E1690D98CC
:1011100088477F1C02D1BAF1000F6FD06CE1626981
:101120000B9800273D46394690472A2804D162692A
:101130000B98012190470125DFF8D08262690B9856
:1011400001219047A0F130010A290AD24745E5DC88
:1011500007EB870100EB4107303FDFD445F0100576
:10116000ECE7E90601D46FF000476C280AD04C2860
:1011700014D0682815D06A280DD074281CD07A287D
:101180001AD01DE062690B98012190476C2802D0AB
:1011900045F0040514E045F002050DE045F020059A
:1011A0000AE062690B9801219047682802D045F057
:1011B000080505E045F4006562690B980121904738
:1011C000C4E9015765283DD019DC58287AD00CDCD9
:1011D000452837D004DC252826D041289ED131E08F
:1011E00046282FD0472899D12CE05B2877D061285A
:1011F00028D063287CD0642823D15AE0F7E06F28F8
:1012000048D008DC66281DD067281BD0692821D06B
:101210006E2816D127E0702845D0732868D075282D
:1012200047D078280DD14DE0A1690D988847252831
:1012300005463FF469AFE1690D9888476D1C3FF49E
:101240006AAFD9E00D9923466A466FF00100AFF30B
:101250000080C6E045F0400023464FF00002606089
:10126000A80736D43EE0E8077FF447AF2068011DA9
:1012700021600068290501D506701BE7290701D503
:10128000068017E7A90703D5F117C0E9006111E748
:1012900006600FE745F0400023464FF0080260600B
:1012A000A80716D41EE040F60E0125EA0100606092
:1012B00016E045F0400023464FF00A026060A807A0
:1012C00007D40FE045F040006060A80708D523462A
:1012D00010220D996FF00100AFF3008081E007E06C
:1012E000102223460D996FF00100FFF795F978E081
:1012F0004FF0000963284F46C8464B46CB4602D004
:101300005B2807D039E02079C00601D40120A06015
:10131000012732E06269D4F80CB00B9801219047A4
:101320005E2807D14FF0010949466269D4F80CB034
:101330000B989047216939B900210A4603AB43F85D
:101340002120491C0829FADBD8B3216949B308F1E7
:10135000010862690B98012190475D28F4D1B9F129
:10136000000F09D0002003A951F82020D24341F8F2
:101370002020401C0828F7DB03AB206900282079D7
:101380004FEA40701ED05B462246CDF80080CDE982
:1013900001970D9900286FF0010020DAAFF300806B
:1013A0001FE0C11703AA00EBD1614B1121F01F010F
:1013B00002EB8302411A1368012088400343136043
:1013C000C7E719E00D99224600286FF00100009749
:1013D00002DAAFF3008004E0AFF3008001E0AFF386
:1013E000008000280ADA401C06D10C9820B14FF08A
:1013F000FF300FB0BDE8F08F5046FAE7E90701D1A2
:101400000AF1010A064400200C9053E6CCCCCC0C27
:101410002DE9F05F824615468B4600270AF101044C
:10142000B9460078302801D09DB113E014F8010BC3
:101430000127782803D0582801D045B10AE00DB122
:10144000102D07D1002714F8010B102502E0082504
:1014500000E00A250026B0460EE005FB080005FB6B
:1014600006F101271FFA80F801EB1046B6F5803F20
:1014700000D3B94614F8010B2946FFF7D2FC002827
:10148000EBDABBF1000F05D00FB1641E00E054464B
:10149000CBF80040B9F1000F06D0FFF723FA022184
:1014A0000160C81EBDE8F09F48EA0640FAE7000068
:1014B0002DE9F047814616468AB0354878440DC874
:1014C0008DE80D0032487844801C03AC0DC884E8D8
:1014D0000D0041F69B300844372190FBF1F290FB60
:1014E000F1F5A5F1800501FB12041B3C02D5644215
:1014F000012000E00020DFF898A080460027FA4491
:10150000AAF1BE0A0EE0E0070AD03246684607EBB1
:10151000470101230AEB810100F020FB8DE8070061
:1015200064107F1C002CEED1194F7F44AE3F19E0B0
:10153000E80715D007EB04100DF1180A90E80E002B
:101540008AE80E00C068F04201D19819089032462E
:10155000012306A903A800F001FB03AB83E8070001
:101560006D10641C002DE3D14FF001033246694633
:10157000B8F1000F03A802D000F0DBFA01E000F0A0
:10158000EDFAC9E90001C9F808200AB0BDE8F08702
:10159000E06C000030B503461D781DB10A4603E03B
:1015A000AC4201D1181A30BD12F8014B002CF7D112
:1015B0005B1CF1E730B503461D783DB10A4612F8D1
:1015C000014B1CB1AC42FAD15B1CF5E7181A30BDD7
:1015D0007546FFF7C5FCAE4605006946534620F048
:1015E0000700854618B020B5FEF76CFEBDE8204028
:1015F0004FF000064FF000074FF000084FF0000BCF
:1016000021F00701AC46ACE8C009ACE8C009ACE881
:10161000C009ACE8C0098D46704710B50446AFF369
:1016200000802046BDE81040FEF738BE0149182072
:10163000ABBEFEE72600020070475FEA400C08BF21
:1016400091F0000F4FEA8C234FEAC12243EA515137
:101650004FEA1C5018BF00F5F0404FEA300018BFA9
:1016600041F000415FEA6C5C00F02980BCF1FF3F73
:1016700008BF40F080407047130C06BF12044FF0C3
:10168000100C4FF0000C130E04BF12020CF1080CEA
:10169000130F04BF12010CF1040C930F04BF92004E
:1016A0000CF1020CD30F04BF52000CF1010C1146D7
:1016B0004FF00002A0F11F00A0EB0C00704711F0EA
:1016C000004F08BF704731F000413FF4D5AF0B0C1D
:1016D00006BF09044FF0100C4FF0000C0B0E04BFB6
:1016E00009020CF1080C0B0F04BF09010CF1040CEA
:1016F0008B0F04BF89000CF1020CCB0F04BF490013
:101700000CF1010CCCF12003A0EB0C0022FA03F346
:1017100002FA0CF241EA030100F10100704720F0E7
:101720007F4C80EA030023F07F47ACEB070303F50F
:101730007C5300F0004003F1FF032DE980494FEA9C
:10174000154B09B44FEA144325EA0B4E24EA03482B
:101750000FF2042606EB132749083E785FEA3202AF
:1017600003FB0667C7F5000707FB06F64FEA543789
:101770004FEAD64606F1020607FB066CCCF1005C88
:101780004FEA1C472CEA074C07FB06F40CFB06F556
:1017900004EB15464FEA961634BF00204FF0004088
:1017A0004FEAD13706FB07FC4FEA1C4C0CFB0BF74A
:1017B000D21B03FB0CF761EB07010CFB0EF7B0EB40
:1017C000074072EB17420CFB08F734BFA2EB07424D
:1017D000B2EB074261EB17414FEA0C444FEA910725
:1017E00006FB07FC4FEA1C4C0CFB0BF7B0EBC740A9
:1017F00072EB573203FB0CF734BFA2EBC742B2EBDC
:10180000C74261EB57310CFB0EF7B0EBC70072EB30
:1018100057720CFB08F734BFA2EBC702B2EBC7024A
:1018200061EB5771039F4FEA816141EA921104EB2A
:10183000CC044FEAD1374FEA826206FB07FC42EA4A
:1018400090124FEA80604FEA1C4C0CFB0BF7D21B46
:1018500003FB0CF761EB07010CFB0EF7B0EB074045
:1018600072EB17420CFB08F734BFA2EB0742B2EB56
:10187000074261EB17414FEA8C554FEA910704EBA1
:101880009C2406FB07FC4FEA1C4C0CFB0BF7B0EB4F
:10189000C74072EB573203FB0CF734BFA2EBC742D1
:1018A000B2EBC74261EB57310CFB0EF7B0EBC70050
:1018B00072EB57720CFB08F734BFA2EBC702B2EB16
:1018C000C70261EB577115EB4C254FEA816141EA84
:1018D00092114FEA82624FEAD13742EA901206FB38
:1018E00007FC44F100044FEA80604FEA1C4C0CFBFB
:1018F0000BF7D21B03FB0CF761EB07010CFB0EF798
:10190000B0EB074072EB17420CFB08F734BFA2EBB9
:101910000742B2EB074261EB174115EB1C154FEA8A
:10192000813141EA92414FEA823242EA90424FEAE3
:1019300080304FEA0C7644F1000448EA03434EEA53
:101940000B484FF0000EB2EB080C71EB030724BFFD
:10195000624639464EEB0E0E4FF0000B0018524116
:1019600049414BEB0B0BB2EB080C71EB03077BF11E
:10197000000B24BF624639464EEB0E0E4FF0000BB3
:101980000018524149414BEB0B0BB2EB080C71EBC9
:1019900003077BF1000B24BF624639464EEB0E0E67
:1019A00051EA020718BF46F0010616EB0E7655F114
:1019B000000254F1000103D5BDE88901BDE80088AB
:1019C000BDE88901BDE80048B619524141EB01016B
:1019D000A3F10103704780807F7E7D7C7B7A7978DC
:1019E000777676757473727171706F6E6E6D6C6CE4
:1019F0006B6A6A6968686766666564646363626186
:101A00006160605F5F5E5E5D5D5C5C5B5B5A5A5906
:101A10005958585757565655555554545353525272
:101A20005251515050504F4F4F4E4E4D4D4D4C4CCA
:101A30004C4B4B4B4A4A4A49494948484847474713
:101A40004746464645454544444444434343434250
:101A5000424242414141002B9C4630D477002BD07A
:101A60001CB54FEA370703B44FF010004FF01001D8
:101A7000BAF1000F06D0BCF1000FDCBF40F0080047
:101A800040F008014FF000000FBCBDE810400BF122
:101A9000010BBBF1010F08BF5FEA170722BF12F16C
:101AA000010211F101014FF0004143F1000300F088
:101AB000004043EA00007047F9D35708D0E746EAF0
:101AC000064613F1400F4FEA16461FDD13F1200FB3
:101AD000DFBF16430A46002120335B42BED0C3F16C
:101AE000200746EA064602FA07F74FEA164646EA94
:101AF0000706C3F1200722FA03F201FA07F721FAD9
:101B000003F14FF0000342EA0702A7E746EA0206A4
:101B100046EA06464FEA164646EA0106BCBF46EAD2
:101B20000646360C4FF000034FF000024FF0000164
:101B300094E72DE9804C9A46934670B491E83800BA
:101B400007C831EA400C48BF34EA430C03D5FFF71D
:101B5000E6FDFFF780FFF0BCBDE8008C2DE9804C6E
:101B60009A46934670B491E8380007C810F0804F49
:101B700008BF13F0804F03D100F005F8FFF76BFFAB
:101B8000F0BCBDE8008C20F07F4780EA030023F022
:101B90007F4C07EB0C03A3F57C5300F00040A3F14E
:101BA000FE0392F0000F00F0B38095F0000F00F0FC
:101BB00077802DE901494FEA11404FEA144621EAA6
:101BC000004800FB06FC24EA064708FB06F607FB74
:101BD00008F800FB07F718EB06484CEB164C4FEAE9
:101BE000124B18EB07484FEA15464CEB174022EA18
:101BF0000B4E0BFB06FC25EA06470EFB06F607FB21
:101C00000EFE0BFB07F71EEB064E4CEB164C4FF08F
:101C100000061EEB074E4CEB174B18EB0B0840F180
:101C2000000018EB0E0B58EB000840F100008F1A73
:101C30004FF000013CBFC943661B14BFB5EB040C59
:101C400000213CBFC943F61B4FEA17444EEA8E0EF3
:101C500027EA04454FEA1C4704FB07622CEA074CBD
:101C600005FB07F70CFB05F604FB0CFC16EB07461F
:101C700042EB174216EB0C4642EB1C421BEB0606EE
:101C800058EB0202414146EA9E0601D5BDE80189B2
:101C9000B619524141EB0101A3F10103BDE80189ED
:101CA0004FEA14454FEA114724EA054621EA074C5A
:101CB00005FB07F406FB07F70CFB06F105FB0CFC24
:101CC00011EB074144EB17444FEA124711EB0C416B
:101CD00044EB1C4422EA074C05FB07F206FB07F71E
:101CE0000CFB06F605FB0CFC16EB074642EB174215
:101CF00016EB0C4642EB1C456A1854F1000148BF34
:101D00007047B619524141EB0101A3F1010370473D
:101D100095F0000F37D04FEA11424FEA144721EAFD
:101D2000024624EA074C02FB07F106FB07F70CFB0F
:101D300006F402FB0CFC14EB074441EB17414FEA9D
:101D4000154714EB0C4441EB1C4125EA074C02FB00
:101D500007F506FB07F70CFB06F602FB0CFC16EB7F
:101D6000074645EB174516EB0C4645EB1C4212198E
:101D700051F1000148BF7047B619524141EB0101D2
:101D8000A3F1010370474FEA14454FEA114724EAD3
:101D9000054621EA074C05FB07F106FB07F70CFB9C
:101DA00006F24FF0000605FB0CFC12EB074241EB7C
:101DB000174112EB0C4251EB1C4148BF704792187F
:101DC00041EB0101A3F101037047000070B5044627
:101DD000006881688268C1F3400112F0010F28D0C9
:101DE00039BB816801F00D01012914D18168124AC3
:101DF0001140891C816021680320086000F03CFDCF
:101E0000054612E000F038FD401B02280DD920687D
:101E10008068C00709D0E06D40F01000E065206EDA
:101E200040F001002066012070BD20688068C00776
:101E3000E8D1002070BD0000C0FFFF7FFEE77047C3
:101E4000002240F6B83306E00021491C89B29942CD
:101E5000FBD3521C92B28242F6D3704772B6FEE7B1
:101E6000F8B500260446009690F858000D46012863
:101E70000BD0012084F858002046FFF7A7FF01008F
:101E8000E06D04D040F010002AE00220F8BD20F4FC
:101E9000885040F00200E06520688268134B1A40C9
:101EA00005F080431A4342F000428260104A2068E5
:101EB0000EE0009B5B1C0093934209D3E06D20F081
:101EC000020040F01000E06584F858600120F8BD81
:101ED0008368DB0FEDD1E06D20F0020040F00100DF
:101EE000E06584F858600846F8BD0000C0FFFF3F79
:101EF00002DE04002DE9F84F00270446009790F811
:101F00005800DFF8E0930D46B846012811D00126AD
:101F100084F85860206802F095FE60B1E06D40F0F2
:101F20002000E0655FF0010784F858803846BDE87E
:101F3000F88F0220FBE7D5E900210C23206803EA93
:101F400091131844036B01F01F014FF01F0C0CFAA2
:101F500001FCC2F3846223EA0C038A401343036347
:101F6000206802F06FFE8246206802F067FE5AEA9F
:101F700000003CD1AA6829682068B2F1004F37D030
:101F800002F064FE2068416921F00041416120684F
:101F90006969C268C2F3C102520091402A69042AE9
:101FA00031D000EB82002B68026EDFF83CC303F0F7
:101FB000F84302EA0C020B431A4342F00041016667
:101FC00020682A69A96900EB8200026E22F0807203
:101FD0000A430266297F22682869012910D000215E
:101FE00002EB8000026E22F000720A4302667DE07E
:101FF000002202F02BFE2068416941F00041C5E754
:102000004FF00071ECE7002102F012FE400320685F
:102010004FF0000172D002F00BFE90FAA0F0B0FA7F
:1020200080F1286842036ED090FAA0F0B0FA80F0F8
:10203000814204D100221146206802F016FE0121DF
:10204000206802F0F5FD400320684FF001015DD0EB
:1020500002F0EEFD90FAA0F0B0FA80F12868420399
:1020600059D090FAA0F0B0FA80F0814204D1002259
:102070000121206802F0F9FD0221206802F0D8FD5C
:10208000400320684FF0020148D002F0D1FD90FAE1
:10209000A0F0B0FA80F12868420344D090FAA0F092
:1020A000B0FA80F0814204D100220221206802F0BF
:1020B000DCFD0321206802F0BBFD400320684FF0E7
:1020C000030133D002F0B4FD90FAA0F0B0FA80F131
:1020D000286842032FD090FAA0F0B0FA80F0814235
:1020E00004D100220321206802F0BFFD206881682E
:1020F00011F0010F22D0ACE000E004E002F098FD06
:10210000C0F384618DE7C0F3846091E702F090FD35
:10211000C0F38461A2E7C0F38460A6E702F088FD03
:10212000C0F38461B7E7C0F38460BBE702F080FDD1
:10213000C0F38461CCE7C0F38460D0E72A7B2968D0
:1021400050F8B03FC1F3120C23EA0C0302F0180C54
:10215000664A22FA0CF20A4013430360E9684945D3
:1021600077D1286841031CD090FAA0F1B1FA81F12F
:10217000491C01F01F0109294FEA403132D80029DA
:1021800012D000BF90FAA0F1B1FA81F101F1010182
:1021900001F01F0106FA01F609D100BFC0F3846106
:1021A00009E0C0F38461E3E7C0F38461EEE790FAED
:1021B000A0F1B1FA81F101F1010101F01F0146EA3C
:1021C000816102D1C0F3846003E090FAA0F0B0FA1C
:1021D00080F000F1010000F01F0000EB400041EA38
:1021E000005132E000290ED090FAA0F1B1FA81F14D
:1021F00001F1010101F01F0106FA01F606D100BF4D
:10220000C0F3846106E0C0F38461F1E790FAA0F1C5
:10221000B1FA81F101F1010101F01F0146EA81618A
:1022200002D1C0F3846003E090FAA0F0B0FA80F02D
:1022300000F1010000F01F002D4A00EB400002EB0E
:10224000005041EA000141F00071AA68206802F0E4
:10225000FDFC28482A6802423FF466AE26488168A1
:10226000264B01F0E0719A4202D0254B9A421CD1D4
:102270000B021AD42268B2F1A04F7FF455AE8268E7
:1022800041F4000122F0E0720A4382601D481E49B9
:102290000068B0FBF1F0401C00EB4000800000E063
:1022A000401E00900028FBD13EE6184D184BAA4274
:1022B00007D1CD0105D422689A42F5D041F0807152
:1022C00009E0144DAA42EFD14A02EDD422689A42A5
:1022D000EAD041F48001826822F0E0720A43826011
:1022E00022E6000000007F4000F0FF03FFFF070030
:1022F000000020FE0000088000030050000021C301
:102300001000C09068000020400D0300000052C77C
:1023100000010050000084CB0068006C7047000092
:10232000F8B54FF0000504002E46009502D0E06D90
:1023300010B107E00120F8BD204600F0EFF8266656
:1023400084F8586020688168C1F3407119B18168D0
:102350006A4A1140816020688168C1F3007189B9BF
:102360008168674A114041F0805181606548664943
:102370000068B0FBF1F04000801C00E0401E0090BF
:102380000028FBD120688168C1F3007141B9E16D7B
:1023900041F01001E165216E41F001012166012546
:1023A00002F050FCE16DC90600D430B1E06D40F0A0
:1023B0001000E06501252846F8BDE06D20F480702E
:1023C00040F00200E0652068806810F0010F11D134
:1023D0004FF0A04080684D4900F00100896801F08D
:1023E0000101084306D14A486168826822F47C12E0
:1023F0000A438260E168E06B627F0843A16841EABA
:102400004231084394F8241040EA0140012904D1E4
:10241000218D404A02EB41410843E16A29B101F4B0
:102420007871226B014342EA01002168CA683A4B85
:102430001A400243CA6020680169626B21F0406162
:1024400011430161206802F0FDFB0646206802F09E
:10245000F5FB30432ED1207F94F83810800340EAFA
:1024600041022068C16844F2020399431143C160EC
:1024700020690028206801690AD041F48031016197
:10248000206850F8C01F22696FF30D01114307E067
:1024900021F480310161206850F8C01F6FF30D01F5
:1024A000016094F8400001280CD02068016921F0F7
:1024B00001010161606901282068016B21F00F01B1
:1024C00011D013E0D4E911010843D4E913121143E8
:1024D000084321680A6940F2FC739A43104340F0B4
:1024E00001000861E6E7226A521E11430163E06DB4
:1024F00020F0020040F00100E0655CE7C0FFFF5FF4
:10250000C0FFFF7F68000020400D03000001005065
:10251000000300500000FEFF0740F0FF10B598B028
:102520000446142111A8FEF772F944216846FEF70B
:102530006EF915492068884223D1C40140050094F2
:102540000F90684600F096FA08B1FFF787FC0F4835
:10255000C16C41F40051C164C16C01F40051169189
:10256000C16C41F00201C164C06C11A900F002000D
:1025700016900320CDE9114000201390044800F08C
:102580008DF818B010BD000000010050001002408E
:102590000004004810B590F8253000210122022BDC
:1025A00003D00421C163012122E003681C6824F0E8
:1025B0000E041C60836C1C6824F480741C60036827
:1025C0001C6824F001041C6090F84430046C03F093
:1025D0001F0302FA03F36360D0E913345C60436DB8
:1025E00033B11C6824F480741C60D0E916345C603C
:1025F00080F82520002280F82420084610BD70B500
:1026000090F82520002401212346022A07D0042225
:10261000C26380F8251080F82430012429E0026884
:10262000156825F00E0515600268156825F001058E
:102630001560826C156825F48075156090F844204B
:10264000056C02F01F0201FA02F26A60D0E913255C
:102650005560426D32B1156825F480751560D0E97A
:102660001625556080F8251080F82430816B01B163
:102670008847204670BD000070B5044600F0FCF8A5
:102680000546601C02D004484068044400F0F4F899
:10269000401BA042FAD370BD5C0000202DE9FC4F26
:1026A000DFF8A0A1002301250AF1040B03244FF059
:1026B0000F0C0BF1040EBDE005FA03F632406FD0AB
:1026C0004F68012F05D0022F03D0112F01D0122FF8
:1026D00017D1D0F808905F0004FA07F829EA080932
:1026E0000097D1F80C8008FA07F848EA0908C0F802
:1026F00008804768B7430E79C6F300169E403E43F4
:102700004660C6684FEA430804FA08F7BE430197DB
:102710008F6807FA08F73743C7604E68022E01D06A
:10272000122E13D1DE0800EB86060096366A5F078C
:10273000FF0E0CFA07F926EA0906D1F8109009FAFB
:1027400007F949EA0609009EC6F820900668019F2D
:10275000BE430F7907F0030707FA08F7374307600E
:102760004E68F60065D5384E376E47F0010737667C
:10277000366E23F0030706F001060096334E3E4402
:10278000B146B6689F074FEA17780CFA08F7BE43C0
:10279000B0F1904F05D02E4FB84204D1012717E079
:1027A00047E0002714E02B4FB84201D102270FE089
:1027B000294FB84201D103270AE0284FB84201D17E
:1027C000042705E0264FB84201D1052700E006277F
:1027D00007FA08F73743C9F80870DAF80060574677
:1027E000D1F8048096435FEAC83800D516433E60AE
:1027F000DBF800605F46D1F8048096435FEA8838D2
:1028000000D516433E60DEF800607746D1F80480BC
:1028100096435FEAC82800D516433E60094F0C373F
:102820003E68D1F8048096435FEA882800D51643B5
:102830003E605B1C0A6832FA03F67FF43DAFBDE8E8
:10284000FC8F000000040140001002400000014025
:102850000004004800080048000C00480010004830
:10286000001400480069084000D0012070470AB1F8
:10287000816170478162704701488068704700003D
:102880005C00002002488168426811448160704702
:102890005C00002010B50024032000F073F80F2026
:1028A00000F008F808B1012401E000F025F8204606
:1028B00010BD000070B50E4E05460024706898B13A
:1028C0004FF47A71B1FBF0F00A490968B1FBF0F0FE
:1028D00000F064FD40B9102D06D200222946501E9A
:1028E00000F030F8356000E00124204670BD0000A3
:1028F0005C000020680000200A4882B0016E41F0B0
:1029000001010166016E01F001010091816D41F04C
:1029100080518165806D00F08050009002B000F021
:10292000A1B8000000100240002809DB00F01F02DF
:10293000012191404009800000F1E020C0F8001121
:1029400070470000F0B40E4B1B680C46C3F3022323
:10295000C3F10705042D00D90425191D072901D24B
:10296000002300E0DB1E012606FA05F1491E214086
:1029700099409E40761E16403143F0BC03F0ADBD39
:102980000CED00E0064900F0070208684FF6FF036F
:10299000184040EA0220034A1043086070470000D4
:1029A0000CED00E00000FA052B492C4B0A6832219F
:1029B0004A432B4940B1B0F5007F086829D020F484
:1029C000C06040F480602CE00868C0F34120022819
:1029D00004D051F8800F20F4807022E0D1F88000FC
:1029E00020F48070C1F88000086820F4C06040F4D2
:1029F00000700860B2FBF3F0401C00E0401E4A6922
:102A0000520501D50028F9D1486940050AD50320AF
:102A10007047C0F34120022806D051F8800F40F4DF
:102A20008070086000207047D1F8800040F480700A
:102A3000C1F88000086820F4C06040F400700860AD
:102A4000B2FBF3F0401C00E0401E4A695205DBD5A2
:102A50000028F9D1D8E700006800002040420F00AC
:102A6000007000400248816841F4804181607047F5
:102A7000007000402DE9F8430446006800269D4D93
:102A800000035ED5A86D0027C00008D4A86D40F0F3
:102A90008050A865A86D012700F080500090DFF8F5
:102AA0005892D9F8001041F48071C9F80010FFF76E
:102AB000E3FE804606E000BFFFF7DEFEA0EB080065
:102AC00002282BD8D9F80000C005F5D5D5F890001C
:102AD00010F4407014D0216C814211D0D5F89000D0
:102AE000D5F8901020F4407041F48031C5F8901072
:102AF000D5F8901021F48031C5F89010C5F89000F9
:102B0000C00711D0FFF7B8FE804641F2883907E0D0
:102B1000FFF7B2FEA0EB0801494501D903260BE0FF
:102B2000D5F890008007F3D5D5F89000216C20F4FB
:102B300040700843C5F890001FB1A86D20F0805088
:102B4000A8652078C00707D0D5F88800616820F014
:102B500003000843C5F888002078800707D5D5F81A
:102B60008800A16820F00C000843C5F88800207890
:102B7000400707D5D5F88800E16820F03000084309
:102B8000C5F888002078000707D5D5F888002169A6
:102B900020F0C0000843C5F888002078800607D5DB
:102BA000D5F88800616920F440600843C5F88800C2
:102BB0002078400607D5D5F88800A16920F4405058
:102BC0000843C5F888002078000607D5D5F88800A6
:102BD000E16920F440400843C5F888002088C0051A
:102BE00007D5D5F88800216A20F440300843C5F89D
:102BF00088002088800507D5D5F88800616A20F410
:102C000040200843C5F88800208840050FD5D5F836
:102C10008800A16A20F440100843C5F88800A06A23
:102C2000B0F5801F03D1E86840F48010E860208888
:102C300000050FD5D5F88800E16A20F4400008436C
:102C4000C5F88800E06AB0F5800F03D1E86840F469
:102C50008010E8602088C0040FD5D5F88800216B6B
:102C600020F040700843C5F88800206BB0F1807FE9
:102C700003D1E86840F48010E86020884FF00061DC
:102C800080040ED5D5F88800626B20F040601043B8
:102C9000C5F88800606B884203D1E86840F4801072
:102CA000E860208840040ED5D5F88800A26B20F09B
:102CB00040601043C5F88800A06B884203D1E868E3
:102CC00040F48010E860208800040FD5D5F8880013
:102CD000E16B20F040500843C5F88800E06BB0F18C
:102CE000805F03D1E86840F48030E8603046BDE89A
:102CF000F883000000100240007000402DE9F0470A
:102D00000E4605004FF0000725D0DFF8AC81D8F85B
:102D1000000000F00F00B0420CD2D8F8001021F0F3
:102D20000F013143C8F80010D8F8000000F00F0080
:102D3000B04210D12968614CC80741F2883A5AD094
:102D40006868DFF87C91032808D0022820682DD01D
:102D5000400500282CDB0120BDE8F08720688001B9
:102D6000F9D5E06800F00302E068C0F30310401CEE
:102D7000032A19D0534A00BFB2FBF0F0E268C2F355
:102D800006225043E268C2F34162521C5200B0FB7B
:102D9000F2F0484517D9A06810F0F00F0CD0880762
:102DA00011D5A86840B10EE0474AE5E78003D0E7B7
:102DB00000F0B6F8484506D9A06820F0F00040F0D1
:102DC0008000A0608027A068696820F003000843A5
:102DD000A060FFF751FD814606E000BFFFF74CFD04
:102DE000A0EB090151453AD8A068696800F00C00D1
:102DF000B0EB810FF2D12868810714D5400703D5C5
:102E0000A06840F4E060A0602878000705D5A068BD
:102E100020F4605040F4E060A060A068A96820F051
:102E2000F000084304E0802F03D1A06820F0F000F8
:102E3000A060D8F80010404601F00F01B14216D949
:102E4000016821F00F0131430160FFF715FD0746CE
:102E500007E000BFFFF710FDC11B514501D903205A
:102E60007AE7D8F8000000F00F00B042F2D12878DD
:102E7000400705D5A068E96820F4E0600843A06039
:102E80002878000706D5A068296920F4605040EA38
:102E9000C100A06000F044F8A1680C4AC1F303111E
:102EA000515C01F01F01C8400949086009480068E9
:102EB000BDE8F047FFF7FEBC0020024000100240D2
:102EC00000B4C4040024F40000366E010A81000836
:102ED000680000205C0000200548064900688968F9
:102EE000054AC1F30221515C01F01F01C84070473F
:102EF00068000020001002401A81000805480649B9
:102F000000688968054AC1F3C221515C01F01F01C4
:102F1000C840704768000020001002401A81000875
:102F2000184910B58868C0F381021748012A0BD0F0
:102F30008A68164BC2F38102022A06D08A68C2F35D
:102F40008102032A03D0002010BD184610BDCA68B4
:102F500002F00304CA68C2F30312521C032C02D00D
:102F6000B0FBF2F001E0B3FBF2F0CA68C968C2F34B
:102F700006225043C1F34161491C4900B0FBF1F006
:102F800010BD0000001002400024F40000366E0165
:102F90002DE9F84304007AD02078FA4DC00747D0D5
:102FA000A868E96800F00C0001F003010C2802D0C9
:102FB000082817D001E0032914D06068B0F5803FDD
:102FC00017D0B0F5A02F286817D020F480302860E3
:102FD000286820F4802028606068E0B1FFF74CFC8E
:102FE000064614E02868800322D560680028D2D005
:102FF0001EE0286840F48030EDE740F4802028602F
:10300000F7E700BFFFF738FC801B642870D82868FA
:103010008003F7D50CE0FFF72FFC064605E000BF64
:10302000FFF72AFC801B6428F0D828688003F7D4B7
:10303000207880074CD5A868E96800F00C0001F002
:1030400003010C2802D004280DD001E002290AD087
:10305000E068002828682BD040F480702860FFF7D3
:103060000BFC064619E02868400502D5E0680028F8
:1030700091D06868217C20F0FE4040EA01606860E1
:10308000C1480068FFF716FC002800D120E076E177
:10309000FFF7F2FB801B0228B8D828684005F7D557
:1030A0006868217C20F0FE4040EA016068600FE023
:1030B00020F480702860FFF7DFFB064605E000BFC4
:1030C000FFF7DAFB801B0228A0D828684005F7D458
:1030D0002078000729D560690028D5F8940013D01E
:1030E00040F00100C5F89400FFF7C6FB064606E075
:1030F00090E000BFFFF7C0FB801B022886D8D5F800
:1031000094008007F6D510E020F00100C5F8940087
:10311000FFF7B2FB064604E0FFF7AEFB801B022878
:1031200078D8D5F894008007F6D42078400761D588
:10313000A86D0026C00008D4A86D40F08050A86596
:10314000A86D012600F08050009090480168C905E4
:1031500011D40168804641F480710160FFF78CFB57
:10316000074604E0FFF788FBC01B022852D8D8F8B6
:103170000000C005F6D5A068012815D00528D5F8AF
:10318000900016D020F00100C5F89000D5F890000E
:1031900020F00400C5F89000A06841F28838B8B16A
:1031A000FFF76AFB07460EE0D5F8900040F00100FB
:1031B000F0E740F00400C5F89000F5E7FFF75CFB8E
:1031C000C11B414526D8D5F890008007F6D50CE004
:1031D000FFF752FB074604E0FFF74EFBC11B4145DA
:1031E00018D8D5F890008007F6D41EB1A86D20F04D
:1031F0008050A8652078800629D5A0690028D5F8D8
:10320000980013D040F00100C5F89800FFF734FB98
:10321000064606E077E000BFFFF72EFB801B022882
:1032200077D8D5F898008007F6D510E020F0010097
:10323000C5F89800FFF720FB064604E0FFF71CFBEB
:10324000801B022865D8D5F898008007F6D4E0697D
:10325000F0B3A968C1F38101032961D0022828686D
:1032600020F0807028600BD0E86820F00300E86050
:10327000E86847490840E860FFF7FEFA04464BE07B
:10328000FFF7FAFA064604E0FFF7F6FA801B022879
:103290003FD828688001F7D4F4E908016FF00F02E5
:1032A00002EB01110843218A5204490802EB415103
:1032B000A26841EA02210843217D4FF07E4249087D
:1032C00002EB41610843217B40EAC160E96800E00C
:1032D00062E0304A11400843E860286840F080709E
:1032E0002860E86840F08070E860FFF7C5FA04469F
:1032F00005E000BFFFF7C0FA001B022809D82868C4
:103300008001F7D548E004E0FFF7B6FA001B022879
:1033100002D90320BDE8F88328688001F4D43BE09B
:103320000128F7D0E868226A00F00301914226D113
:10333000616A00F0F0020901103991421FD1A26ABE
:1033400000F4FE41B1EB022F19D194F82C2000F0CB
:103350007841B1EBC26F12D1218E00F4C00249084E
:103360004905A1F50011914209D194F8341000F0FB
:10337000C06049084906A1F1007181420CD00120CA
:10338000C8E70000001002405C0000200070004010
:10339000FFFFEEFE0C809F010020BBE710B5401E32
:1033A000B0F1807F01D3012010BD4FF0E0246061B7
:1033B0000F21601703F091F80020A0610720206121
:1033C000002010BD7047704770470000F0B590F8BE
:1033D0003C20012A4AD0012280F83C20CA688B6830
:1033E00022F440721A434B6822F480621A430B683D
:1033F00022F400621A430B6922F480521A434B698B
:1034000022F400521A430B6B22F480421A430B8BB6
:1034100022F4702242EA0342154C03680026154D3F
:10342000A34201D0AB4203D1CF6922F080523A438C
:10343000A34201D0AB4214D10F8D22F4700242EAB4
:1034400007520F6A22F080723A434F6A22F00072EC
:103450003A43A34201D0AB4203D1C96A22F00052E1
:103460000A435A6480F83C600020F0BD0220F0BDA1
:10347000002C014000340140704770477047000045
:10348000F0B590F83C20012A3AD0012580F83C5054
:10349000022280F83D2003685A689C68194E1A4F32
:1034A000B34201D0BB4204D122F4700C4A6842EA14
:1034B0000C02DFF858C002EA0C02D1F800C04CEA56
:1034C000020CC3F804C00268B2420DD0B2F1804FC2
:1034D0000AD00F4B9A4207D00E4B9A4204D0BA4200
:1034E00002D00D4B9A4204D1896824F0800319431D
:1034F000916080F83D50002180F83C100846F0BDF6
:103500000220F0BD002C0140003401408FFFFFFD80
:10351000000400400008004000400140704710B522
:10352000040003D094F83D0010B107E0012010BD65
:10353000002084F83C00204600F022F8022084F8A5
:103540003D00211D206801F0EDFF012084F84800B6
:1035500084F83E0084F83F0084F8400084F841007D
:1035600084F8420084F8430084F8440084F845005D
:1035700084F8460084F8470084F83D00002010BD20
:1035800008B50C4A01680C48914207D1016E41F41C
:1035900000310166006E00F4003009E0074A9142F4
:1035A00007D1016E41F480210166006E00F4802095
:1035B000009008BD00440140001002400048014056
:1035C00090F83D10012901D001207047022180F8B8
:1035D0003D1000680F4988420ED0B0F1804F0BD0EB
:1035E0000D49884208D00D49884205D00C498842CF
:1035F00002D00C49884207D181680B4A1140062944
:1036000006D0B1F5803F03D0016841F001010160AF
:1036100000207047002C01400004004000080040DA
:1036200000340140004001400700010070B5002156
:103630002DED048B00F05BFC00EB800019490001CC
:10364000B1FBF0F5184CA079012806D09FED170BBF
:1036500084ED0C0BBDEC048B70BD207903F0E4F914
:1036600041EC180B284603F0DFF99FED120B41ECFB
:10367000190B53EC102B94ED0E0B51EC100B03F0C7
:1036800023FA53EC192B03F01FFA9FED0C1B53EC9C
:10369000112B03F071F853EC182B02F0B9FFC4E9B9
:1036A0000C01D7E700B4C4040800002000000000AB
:1036B000000000001F85EB51B81E0940000000000B
:1036C000000059402DE9F041054690F83C000C46B9
:1036D000012836D0012085F83C008AB3042A42D064
:1036E0002868082A51D0D4E90023E168066A26F444
:1036F00080560662C669076A26F4407646EA0323C6
:103700004FF6FF7606EA013123F4704319434FF474
:10371000204627F4204306EA02321A43C1610262BE
:103720002868C16921F44061C1612868C169A26843
:1037300041EA0221C161002085F83C00BDE8F0812A
:1037400001E00220FAE7D4E90012E368286802F0F9
:10375000E5F82868816921F00C0181612868816998
:10376000A26811430FE0D4E90012E368286802F070
:103770000BF92868816921F44061816128688169B9
:10378000A26841EA02218161D5E7D4E90027267BBE
:10379000016A21F480710162C169036A21F00301A9
:1037A000394321F0F00731074FF4206647EA1161F1
:1037B00023F4206306EA02221A43C16102622868E8
:1037C000C16921F00C01C1612868C169A268114377
:1037D000B0E710B5040003D094F83D0010B107E045
:1037E000012010BD002084F83C00204600F022F8A3
:1037F000022084F83D00211D206801F093FE012085
:1038000084F8480084F83E0084F83F0084F84000C3
:1038100084F8410084F8420084F8430084F84400AE
:1038200084F8450084F8460084F8470084F83D0099
:10383000002010BD10B586B0044614216846FCF780
:10384000E6FF2068B0F1804F27D11548816D41F027
:1038500001018165816D01F001010591C16C41F0AB
:103860000101C164C06C694600F0010005904FF48D
:10387000004000900220019000200290039001205F
:1038800004904FF09040FEF709FF002211461C20E3
:10389000FFF758F81C20FFF747F806B010BD0000EE
:1038A0000010024010B5044679B1042912D008294D
:1038B00015D00C2918D0102919D094F8430000BF56
:1038C00094F84720012817D114E094F83E0094F8AA
:1038D0004420F7E794F83F0094F84520F2E794F885
:1038E000400094F84620EDE794F84100E8E794F8AA
:1038F0004200E5E7012A01D0012010BD022071B18C
:10390000042915D008291CD00C2948D0102949D0E9
:1039100084F8430084F847000C291BD145E084F863
:103920003E0084F844002068C26842F0020210E0C1
:1039300084F83F0084F845002068C26842F0040221
:1039400007E084F8400084F846002068C26842F02E
:103950000802C2600122206801F03CFE154920687F
:1039600088420ED0B0F1804F0BD01349884208D066
:103970001249884205D01249884202D01149884232
:1039800007D18168104A1140062906D0B1F5803F61
:1039900003D0016841F001010160002010BD84F8EE
:1039A0004100B7E784F84200B4E72068C26842F0FB
:1039B0001002CEE7002C0140000400400008004047
:1039C00000340140004001400700010070B504468A
:1039D000006801694FF00005C943890715D4C16823
:1039E000C943890711D4E91E0161012020772068AD
:1039F00080698007204602D0FFF718FE04E000F03F
:103A00001FF9204600F0F2F9257720680169C943C3
:103A1000490717D4C168C943490713D46FF004019B
:103A20000161022020772068806910F4407F2046E1
:103A300002D0FFF7FBFD04E000F002F9204600F0A1
:103A4000D5F9257720680169C943090716D4C168EB
:103A5000C943090712D46FF00801016104202077DF
:103A60002068C0698007204602D0FFF7DFFD04E030
:103A700000F0E6F8204600F0B9F9257720680169E2
:103A8000C943C90617D4C168C943C90613D46FF026
:103A900010010161082020772068C06910F4407F80
:103AA000204602D0FFF7C2FD04E000F0C9F820462E
:103AB00000F09CF9257720680169C943C90708D13E
:103AC000C168C943C90704D1891E0161204600F0BD
:103AD0000DFA20680169C943090609D4C168C943C0
:103AE000090605D46FF0800101612046FFF76BFCE9
:103AF00020680169C943C90509D4C168C9430906D9
:103B000005D46FF4807101612046FFF75BFC2068EB
:103B10000169C943490609D4C168C943490605D4A6
:103B20006FF040010161204600F0F6F9206801695C
:103B3000C943890609D4C168C943890605D46FF011
:103B4000200101612046FFF73FFC20680169C9435D
:103B5000C90209D4C168C943C90205D46FF48011F0
:103B600001612046FFF789FC20680169C943890289
:103B700009D4C168C943890205D46FF400110161F9
:103B80002046FFF779FC20680169C943490209D43E
:103B9000C168C943490205D46FF480010161204620
:103BA000FFF76CFC20680169C94309020BD4C168A6
:103BB000C943090207D46FF4000101612046BDE842
:103BC0007040FFF7ABBC70BD30B587B00446142120
:103BD0006846FCF71CFE2468164D00231649022295
:103BE0004FF09040AC420ED1CC6C44F00104CC6458
:103BF000C96C01F00101059180218DE80E00CDE92D
:103C00000332694611E00D4DAC4210D1CC6C44F04A
:103C10000104CC64C96C01F00101059140218DE8DB
:103C20000E000121CDE903316946FEF737FD07B0EB
:103C300030BD00000004004000100240004401407C
:103C4000704770B5044690F83C000D4601280BD033
:103C5000012084F83C000C2A45D007DC5AB1042A24
:103C60001BD0082A78D12CE0022070BD102A4ED03B
:103C7000142A71D15DE0206801F0BAFC20688169E6
:103C800041F0080181612068816921F004018161AE
:103C9000206881692A69114311E0206801F0F6FC6F
:103CA0002068816941F4006181612068816921F4A3
:103CB00080618161206881692A6941EA022181610C
:103CC0004AE0206801F02AFD2068C16941F008013E
:103CD000C1612068C16921F00401C1612068C16926
:103CE0002A69114311E0206801F060FD2068C16974
:103CF00041F40061C1612068C16921F48061C16142
:103D00002068C1692A6941EA0221C16124E0206872
:103D100001F094FD2068016D41F008010165206803
:103D2000016D21F0040101652068016D2A691143CC
:103D300011E0206801F0BAFD2068016D41F40061D6
:103D400001652068016D21F4806101652068016DC5
:103D50002A6941EA02210165002084F83C0070BD17
:103D600010B5040003D094F83D0010B107E0012025
:103D700010BD002084F83C00204600F023F802200B
:103D800084F83D00211D206801F0CCFB012084F85F
:103D9000480084F83E0084F83F0084F8400084F82E
:103DA000410084F8420084F8430084F8440084F819
:103DB000450084F8460084F8470084F83D00002060
:103DC00010BD000008B500680649884208D10648C1
:103DD000816D41F002018165806D00F0020000906C
:103DE00008BD0000000400400010024070470000C1
:103DF00030B50446022269B1042912D0082917D02F
:103E00000C291CD0102921D094F84300012824D07B
:103E1000012030BD94F83E000128F9D184F83E20FD
:103E20001DE094F83F000128F2D184F83F2016E00D
:103E300094F840000128EBD184F840200FE094F87A
:103E400041000128E4D184F8412008E094F84200C0
:103E50000128DDD184F8422001E084F843200122CA
:103E6000206801F0B7FB194B20681949194A98429C
:103E700009D0884207D0904205D0174DA84202D001
:103E8000164DA84203D1456C45F4004545642068B1
:103E900098420CD0B0F1804F09D0114B984206D017
:103EA000104B984203D0884201D0904207D18168DC
:103EB0000D4A1140062906D0B1F5803F03D00168B4
:103EC00041F001010160002030BD0000002C0140E4
:103ED00000340140004001400044014000480140DE
:103EE000000400400008004007000100704702463F
:103EF000002041B1042909D008290AD00C2901D198
:103F00001068006C70471068406B70471068806BD9
:103F100070471068C06B7047704790F88010012997
:103F200018D0012180F880102421C0F8841050F8A6
:103F3000641B0A680B6823F001030B6022F0005138
:103F40000022026050F8643C19602021016202776F
:103F500010467047022070477047704770B504469E
:103F600090F8800001281DD0012084F880002420D2
:103F7000C4F8840020680568026822F0010202602B
:103F80002068826822F060620A438260204601F065
:103F900017FD206805602020C4F88400002084F804
:103FA000800070BD022070BD70B5044690F880009E
:103FB00001281DD0012084F880002420C4F884004A
:103FC00020680568026822F00102026020688268A9
:103FD00022F060420A438260204601F0F1FC206832
:103FE00005602020C4F88400002084F8800070BDA3
:103FF000022070BD70477047704700002DE9F04106
:1040000003680446D86919689A6840F60F05284283
:104010004FF0000509D186067ED501F0200602F09A
:1040200080573E4378D0216FFFE0924E924F16406A
:104030000F40374370D0C70709D0CF0507D50127F8
:104040001F62D4F88C3043F00103C4F88C3083072E
:104050000AD5D30708D0276802233B62D4F88C30F6
:1040600043F00403C4F88C3043070AD5D30708D0C3
:10407000276804233B62D4F88C3043F00203C4F871
:104080008C3003070CD501F02003334308D0266899
:1040900008233362D4F88C3043F00803C4F88C3022
:1040A00003050BD54B0109D526684FF40063336235
:1040B000D4F88C3043F02003C4F88C30D4F88C3022
:1040C000002B34D0800609D501F0200002F0805189
:1040D000084303D0216F09B120468847D4F88C00EB
:1040E00021688968490602D410F0280F21D02046A3
:1040F00001F026FD20688168490615D5816821F008
:1041000040018160E06F78B15C498163E06FFEF748
:1041100076FA00280BD000E011E0E06F816B00E040
:104120002046BDE8F04108472046FFF765FFBDE89F
:10413000F0812046FFF760FFC4F88C50F7E7E76E88
:104140002026012F5CD1C7065AD5CF0658D510209E
:1041500018622068816849062FD5E26F11684968A6
:104160000904090CE3D0B4F85C308B42DFD9A4F821
:104170005E1011680968890618D4016821F48071FD
:1041800001602068816821F00101816020688168F8
:1041900021F040018160C4F88860E566206801680C
:1041A00021F010010160E06FFEF7F4F9B4F85C0053
:1041B000B4F85E10401A81B21EE0B4F85C10B4F896
:1041C0005E20891AB4F85E2089B2002AAFD0002997
:1041D000ADD0026822F49072026020688268254B9C
:1041E000DB431A408260C4F88860E5662567206872
:1041F000026822F0100202602046FFF7ADFE96E74B
:10420000C70209D5570207D54FF48010186220461F
:10421000BDE8F041FFF7EFBE07060AD501F08007C1
:1042200002F40002174304D0616F00297FF478AFD5
:104230007DE742060CD54A060AD51968204621F0CA
:1042400040011960C4F88460656700F03BF96EE7CF
:10425000020206D54A0004D52046BDE8F041FFF72A
:10426000C9BEC001CBD50029C9DA2046BDE8F0415E
:10427000FFF773BE01000010200100042D5B000851
:1042800010B5040003D0D4F8840010B107E0012079
:1042900010BD002084F88000204600F027F824207C
:1042A000C4F884002068016821F001010160204603
:1042B00001F01EFE0128EBD0A06A10B1204601F0EB
:1042C000A1FB2068416821F4904141602068816829
:1042D00021F02A0181602068016841F0010101603C
:1042E0002046BDE8104001F0F1BB000010B598B0C9
:1042F0000446142111A8FCF78AFA44216846FCF709
:1043000086FA1B492068884230D101200024CDE97B
:1043100000046846FEF7AEFB08B1FDF79FFD1548A7
:10432000016E41F480410166016E01F480411691F5
:10433000C16C41F00101C164C06C11A900F0010021
:1043400016904FF4C06011900220CDE912040720AE
:10435000CDE914404FF09040FEF7A0F9002211463D
:104360002520FEF7EFFA2520FEF7DEFA18B010BD83
:10437000003801400010024010B4D0F88830202BE3
:104380001BD1B9B1B2B190F88030012B15D0012307
:1043900080F880300023C366094C0368A34206D02E
:1043A0005C68240203D51C6844F080641C6010BC67
:1043B00001F0D8BE012010BC70470220FBE70000CE
:1043C0000080004030B40C4A0168914211D10B4981
:1043D0000B4C0A78CB79A354521C0A7001224A7004
:1043E000084A002111600549012230BCC91DFFF7B0
:1043F000C3BF30BC704700000038014008000020F7
:1044000070000020244801402DE9F8430446D0F80C
:1044100084001F4616460D46202851D1DDB1D6B185
:1044200094F8800001284BD0012084F880004FF0E0
:104430000008C4F88C802120C4F884001834FEF7EA
:104440001BFAA6878146E68754F8100C183CB0F595
:10445000805F03D004E00120BDE8F883206920B12B
:104460002E46002584F8808010E00026FAE780219F
:10447000204601F0E3FEB8B9C6B116F8010B216879
:104480008862B4F85600401EA4F85600B4F85600EE
:104490004B464FF0000200970028E8D14FF0400152
:1044A000204601F0CBFE30B10320D5E735F8020BF2
:1044B000C0F30800E3E72020C4F884000020CBE725
:1044C0000220C9E77047FEE710B500F075F8314CDF
:1044D0002072E27A20EA0201424082436172A272B3
:1044E000E072012902D002290CD017E0606900288F
:1044F00007D0A079401CC0B2A071032801D10120CF
:10450000A07110BDE0780321401CC0B2B0FBF1F2F5
:1045100001FB1200E070002000F09CF8607A032894
:104520000FD00428EDD1E0780128EAD1607980B17C
:1045300020790A30C0B220716428E2D90A202071A3
:1045400010BDE0780128FBD1607980F00100607136
:1045500010BD9FED110B53EC102B94ED0E0B51EC95
:10456000100B02F055F841EC100B9FED0D1B84ED84
:104570000E0B53EC112B02F0DBFB9FED0B1B53ECEE
:10458000112B02F09FFBE3D29FED090B84ED0E0B84
:1045900010BD0000080000209A9999999999B93F97
:1045A0000000000000000040FCA9F1D24D62503F25
:1045B000000000000000F03F70B50E4D0024012106
:1045C0002846FEF74FF900B9012402212846FEF7DC
:1045D00049F900B9022404212846FEF743F900B93D
:1045E000032401214FF09040FEF73CF900B9042468
:1045F000204670BD0004004800B585B0142168460F
:10460000FCF705F94FF6FF70009000200321CDE97B
:104610000201019069460248FEF740F805B000BD6E
:104620000008004800B585B014216846FCF7EFF893
:104630004FF6FF70009001200190032003900020AE
:10464000029069460248FEF729F805B000BD000057
:10465000000800482DE9F0410A4E804630680024E9
:1046600085B22146204600F03FFA00F07DFA4FF473
:104670009637404600F04CFA641CBC42F9D33560D2
:10468000BDE8F0811408004870B586B01421684672
:10469000FCF7BDF81E48C16C41F00401C164C16C57
:1046A00001F004010591C16C41F00101C164C16CCC
:1046B00001F001010591C16C41F00201C164C06CBF
:1046C000032500F0020005904FF4487001240026F5
:1046D00003958DE8510069460E48FDF7DFFF200283
:1046E00003958DE851004FF0904469462046FDF750
:1046F000D5FFFFF797FFA06940F48070A0610548DF
:104700001830016841F40871016006B070BD000006
:10471000001002400004004830B5074D2B68203AD5
:104720009CB2D2B2054B02EB420203EB021200F044
:1047300027F82C6030BD000014080048126F0008F4
:104740002DE9F043DFF8348081460E46D8F80000AA
:10475000002587B240F23F1407E021464846FFF7A4
:10476000DBFF103C6D1CA4B2761C32780AB1142D0C
:10477000F3D3C8F80070BDE8F083000014080048C7
:104780002DE9F04791468A460026044600F0ACF930
:10479000DFF84080012700BF00F0E6F95FF0000578
:1047A00039F8160007FA05F10842404601D1408861
:1047B00000E0008800F0ACF96D1C102DF0D3641CF3
:1047C000E4B25146204600F08FF9761C182EE3D350
:1047D000BDE8F0870000002070B50D4E306885B24E
:1047E000FFF752FF002000F037F90A4CA080A088A4
:1047F000A0F50241303907D000F04EFD002000F056
:104800002BF9A080356070BD00F0BDFCF6E700001C
:10481000140800480000002010B54648026846A170
:104820004A48FBF7D9FD4949D820FFF789FF484C92
:10483000E07810B3012865D0022862D145A1434831
:10484000FBF7CAFD41491820FFF77AFF94ED100BE2
:1048500046A153EC102B3D48FBF7BEFD3B494820D9
:10486000FFF76EFFA28946A13848FBF7B5FDBDE80A
:10487000104036496020FFF763BF46A13348FBF77D
:10488000ABFD32491820FFF75BFF3148A179483072
:1048900050F8212045A12D48FBF79EFD2B494820CB
:1048A000FFF74EFF2A4846A1183043880288274860
:1048B000FBF792FD25496020FFF742FF244845A100
:1048C0001C30438802882148FBF786FD1F49782069
:1048D000FFF736FF94ED0C0B43A153EC102B1B4854
:1048E000FBF77AFD19499020FFF72AFFA27844A12F
:1048F0001648FBF771FD1549A820FFF721FF00209E
:10490000607110BD43A11148FBF766FD0F491820E7
:10491000FFF716FF94ED0E0B44A153EC102B0B4840
:10492000FBF75AFD09494820FFF70AFF227945A104
:104930009AE7000024480140202020202020202049
:104940002564202020202020200000004008002096
:104950000800002020202020202020205245434411
:1049600020202020202020200000000020202020C7
:104970002054533D252E3166202020202020000089
:10498000202020202054543D256420202020202059
:1049900000000000202020202020202044415441FD
:1049A0002020202020202020000000002020202087
:1049B0002053543D2573202020202020202000005B
:1049C000202020202043503D25642C2564202020D9
:1049D00020200000202020202054503D25642C253C
:1049E0006420202020200000202020202053453D4E
:1049F000252E3166202020202020202000000000CD
:104A00002020202020524E3D2564202020202020E0
:104A10002020000020202020202020205041524132
:104A20002020202020202020000000002020202006
:104A300020523D252E3166202020202020202020BD
:104A4000200000002020202020423D25642020203E
:104A5000202020202020200070B51D490A6842F443
:104A600000720A600A6842F480720A60184C103CB6
:104A7000226842F020022260164A1060086840F066
:104A80002000086000BF00BF00BF206840F0200089
:104A90002060206840F480702060FFF7ADFD4FF08B
:104AA0009041886A40F48070886200BF00BF00BFF8
:104AB0000848001F006885B2886940F480708861EA
:104AC000FFF7B0FD206840F400702060284670BDFC
:104AD000280400481408004801B5BDF80000014949
:104AE000488008BD0000002010B50C46014620207B
:104AF00000F068F82146BDE81040212000F062B8BF
:104B000001B5BDF800000149088008BD0000002083
:104B1000134A116841F400711160114910390B6892
:104B200043F480730B600B6843F020030B600D4B64
:104B30001860106840F02000106000BF00BF00BF88
:104B4000086840F020000860086840F48070086041
:104B500000BF00BF00BF086840F4007008607047E5
:104B600028040048140800481449086840F40070FC
:104B70000860086840F480700860104810380268C7
:104B800042F0200202600E4B22221A600A6842F0B4
:104B900020020A6000BF00BF00BF016841F0200191
:104BA0000160016841F48071016000BF00BF00BF77
:104BB000016841F40071016070470000280400485A
:104BC00014080048184B10B51A6842F400721A60B5
:104BD0001A6842F480721A60134A103A146844F05A
:104BE00020041460114C2060186840F02000186008
:104BF00000BF00BF00BF106840F0200010601068C8
:104C000040F4807010602160186840F02000186047
:104C100000BF00BF00BF106840F0200010601068A7
:104C200040F48070106010BD28040048140800484B
:104C300000EB8100006E00F0F84070478068C0F320
:104C4000C00070478068C0F380007047042303EA07
:104C5000D15310B518444369C1F3045107248C4063
:104C6000A3438A401343436110BD00EB8100016EF2
:104C700021F00041114301667047000030B589B052
:104C800020216846FBF7C3FD19481849002401603C
:104C90004902C0E90114C46004250461C0E9054566
:104CA000047744770121016280F82440C4620463E0
:104CB00080F83840C46380F84040FDF731FB08B10C
:104CC000FDF7CCF80B4800900620CDE901047F20C9
:104CD0000594CDE9030569460548FDF70BF9002861
:104CE00001D0FDF7BBF809B030BD00000001005055
:104CF000540800200080F03EF0B587B014216846CB
:104D0000FBF785FD2D48C16C41F00401C164C16C05
:104D100001F004010591C16C41F02001C164C16C36
:104D200001F020010591C16C41F00101C164C16C29
:104D300001F001010591C16C41F00201C164C16C37
:104D400001F002010591C16C41F00801C164C06C21
:104D50001B4E00F008004FF47F44059001222146CD
:104D60003046FDF784FD174F002204213846FDF739
:104D70007EFD0125CDE900450024029469463046B8
:104D80000394FDF78BFCCDE9005469464FF0904049
:104D90000295FDF783FC07208DE8310069460A483B
:104DA000FDF77CFC04200090CDE9015469463846AB
:104DB0000394FDF773FC07B0F0BD00000010024043
:104DC00000080048000C00480004004810B594B0EA
:104DD0001C210DA8FBF71BFD34216846FBF717FDCE
:104DE0001F481E490024016040F21F31C0E9011430
:104DF0006321C0E9031444618461FEF790FB08B1AC
:104E0000FDF72CF81648FEF7ABFF08B1FDF726F8C2
:104E10006020CDE90D040F94109411941294002297
:104E20000DA90F481394FEF70CFF08B1FDF716F813
:104E300000944FF40050CDE904400194029403948F
:104E40000694694606480C94FEF7C0FA08B1FDF7CF
:104E500005F80348FEF7B8FE14B010BD0044014049
:104E6000580900200C4810B50A49016041F63F710D
:104E7000416000214FF6FF72C0E9021201614161F9
:104E80008161FEF74CFB002803D0BDE81040FCF721
:104E9000E5BF10BD00480140A409002010B588B04E
:104EA00000241848059406940494009401940294F4
:104EB0004FF08041039401604F21C0E90114611E4D
:104EC000C0E903148461FEF784FC08B1FCF7C6FF57
:104ED000049404A90B480694FEF7D2FA08B1FCF733
:104EE000BDFF0120CDE9004002940022694605483B
:104EF0000394FEF7E7FB002801D0FCF7AFFF08B0F2
:104F000010BD0000C008002010B58AB0002407942E
:104F100008941C2168460994FBF779FC164815494A
:104F2000016040F21F31C0E901146321C0E903149C
:104F30008461FEF715FF08B1FCF790FF079407A9FD
:104F40000D480994FEF79CFA08B1FCF787FF602032
:104F5000CDE9000402940422694607480494FEF750
:104F600070FE08B1FCF77AFF0348FEF72DFE0AB089
:104F700010BD0000000400400C090020184810B5C6
:104F8000164901604FF416514160002181600C22E6
:104F9000C160C0E904128161C16101624162816244
:104FA000FFF76EF908B1FCF759FF00210C48FEF736
:104FB000FBFF08B1FCF752FF00210948FEF7CEFFC6
:104FC00008B1FCF74BFF0648FEF7A7FF002803D007
:104FD000BDE81040FCF742BF10BD000000380140A2
:104FE000F0090020FEE7FEE72DE9F0415148524C60
:104FF000524D2DED0C8B8179012902D000202060CB
:1050000087E0036A4E484F4F40F21F3100685A262E
:105010009FED4D9B9FED4EAB9FED4FBB9FED50CB5A
:105020009FED51DB012B07D0C722022B06D0032BAB
:1050300008D0042B08D00AE0816200E08262386860
:10504000816204E0816200E08262386882624848DE
:10505000FDF762F901F0E8FC9FED461B53EC112BC4
:1050600001F032FD9FED451B53EC112B01F02CFD9F
:1050700041EC180B53EC192B01F0EAFC03D20A2087
:105080002060052045E053EC192B51EC180B01F082
:1050900019FE0AD853EC1A2B51EC180B01F0D8FC6E
:1050A00003D21E202060192033E053EC1A2B51EC60
:1050B000180B01F007FE0AD853EC1B2B51EC180B10
:1050C00001F0C6FC03D2322020602D2021E053ECF9
:1050D0001B2B51EC180B01F0F5FD0AD853EC1C2BDF
:1050E00051EC180B01F0B4FC03D2462020604120A3
:1050F0000FE053EC1C2B51EC180B01F0E3FD0DD825
:1051000053EC1D2B51EC180B01F0A2FC06D22660CB
:1051100055202860BDEC0C8BBDE8F08153EC1D2BB5
:1051200051EC180B01F0CEFDF4D85F2020602E600A
:10513000F0E700000800002034440140380400403B
:10514000580900200C090020000000000000E03F8A
:10515000000000000000F03F000000000000F83FE9
:1051600000000000000000400000000000000440BB
:10517000540800206666666666660A400000000005
:105180000000303F704730B501210020FFF71AFDC5
:105190004FF47A70FCF754FE00210120FFF712FD56
:1051A00041F290711020FFF70DFD4FF41C5160206B
:1051B000FFF708FD01216120FFF704FD02214620D1
:1051C000FFF700FD48F210011320FFF7FBFC48F247
:1051D000FE011220FFF7F6FC4FF4A0610220FFF75A
:1051E000F1FC41F230010320FFF7ECFC40F2033404
:1051F00021463020FFF7E6FC21463120FFF7E2FC94
:1052000021463220FFF7DEFCE51E29463320FFF75A
:10521000D9FC03213420FFF7D5FC21463520FFF7C8
:10522000D1FC14213620FFF7CDFC21463720FFF7B3
:10523000C9FC21463820FFF7C5FC21463920FFF77D
:10524000C1FC29463A20FFF7BDFC03213B20FFF7B4
:10525000B9FC21463C20FFF7B5FC4FF4A0513D209E
:10526000FFF7B0FC4FF400719220FFF7ABFC214632
:105270009320FFF7A7FC40F60D019020FFF7A2FC5A
:1052800041F218010320FFF79DFCBDE8304040F2D9
:1052900073110720FFF796BC10B543F20801E32015
:1052A000FFF790FC1221E720FFF78CFC41F231213F
:1052B000EF20FFF787FC00210120FFF783FC4FF46C
:1052C000E0610220FFF77EFC41F230010320FFF78E
:1052D00079FC00210420FFF775FC40F2072108202B
:1052E000FFF770FC00210920FFF76CFC00210A2069
:1052F000FFF768FC00210C20FFF764FC00210D2063
:10530000FFF760FC00210F20FFF75CFC002110205C
:10531000FFF758FC07211120FFF754FC0021122051
:10532000FFF750FC00211320FFF74CFCC820FDF7CD
:10533000A3F941F290611020FFF744FC40F22721CD
:105340001120FFF73FFC3220FDF796F91D211220B6
:10535000FFF738FC3220FDF78FF94FF4006113207E
:10536000FFF730FC14212920FFF72CFC0B212B2008
:10537000FFF728FC3220FDF77FF900212020FFF7FE
:1053800021FC00212120FFF71DFC07213020FFF721
:1053900019FC40F207713120FFF714FC062132207E
:1053A000FFF710FC40F204713520FFF70BFC41F6CB
:1053B00004713620FFF706FC04213720FFF702FCBA
:1053C00000213820FFF7FEFB40F206713920FFF77D
:1053D000F9FB40F201713C20FFF7F4FB0F213D2067
:1053E000FFF7F0FB00215020FFF7ECFBEF215120ED
:1053F000FFF7E8FB00215220FFF7E4FB40F23F11EA
:105400005320FFF7DFFB4FF41C516020FFF7DAFB5E
:1054100001216120FFF7D6FB00216A20FFF7D2FBB4
:1054200000218020FFF7CEFB00218120FFF7CAFB7F
:1054300000218220FFF7C6FB00218320FFF7C2FB7B
:1054400000218420FFF7BEFB00218520FFF7BAFB77
:1054500010219020FFF7B6FB00219220FFF7B2FB4E
:1054600003219320FFF7AEFB4FF488719520FFF7DF
:10547000A9FB00219720FFF7A5FB00219820FFF74B
:10548000A1FB41F218010320FFF79CFBBDE810408F
:1054900040F273110720FFF795BB7047FDF7F2B993
:1054A00010B594B038216846FBF7B1F914210EA865
:1054B000FBF7ADF94FF40070FDF776FA012000908C
:1054C0000004019002200324CDE907041421CDE952
:1054D0000A100C900D9009946846FDF759FD08B12B
:1054E00072B6FEE70F20CDE90E0400201090119057
:1054F000129002210EA8FDF701FC002801D072B61F
:10550000FEE714B010BD00000248016841F47001CC
:105510000160704788ED00E00148FEF757BA0000CF
:10552000C00800202DE9F0430268234B234D244E90
:10553000244C4FF08049984207D0484505D0A842F6
:1055400003D0B04201D0A04203D122F070074A68D4
:105550003A431D4FDFF874C0DFF8748098420DD0D5
:1055600048450BD0A84209D0B04207D0A04205D090
:10557000B84203D0604501D0404503D122F44075C4
:10558000CA682A434D6922F080022A4302608A6871
:10559000C2620A688262984207D0A04205D0B8422F
:1055A00003D0604501D0404501D109690163012163
:1055B0004161BDE8F0830000002C01400004004080
:1055C0000008004000340140004001400044014018
:1055D0000048014010B501F01F030121046A994001
:1055E0008C430462016A9A401143016210BD0000BD
:1055F0002DE9F043026A22F001020262056A436863
:1056000082691C4C25F0020522400C6822F003023E
:1056100014438A68194E2A43174D194FDFF864C0A6
:10562000DFF86490A84207D0B04205D0B84203D05A
:10563000604501D0484506D122F00808CA6842EA10
:10564000080222F00402A84207D0B04205D0B842B6
:1056500003D0604501D0484505D14D6923F440731E
:105660001D438B692B434360846149684163026237
:10567000BDE8F0838FFFFEFF002C014000340140A5
:10568000004001400044014000480140F0B5026A7A
:1056900022F010020262056A42688369194C1B4EAF
:1056A00023400C6823F4407343EA042425F02003CC
:1056B0008D6843EA0513144DA84201D0B04206D1CB
:1056C000CF6823F0800343EA071323F04003A84286
:1056D0000AD0B04208D00E4DA84205D00D4DA842C8
:1056E00002D00D4DA84207D14D6922F4406242EA32
:1056F00085028D6942EA850242608461496881635E
:105700000362F0BDFF8FFFFE002C0140003401401A
:10571000004001400044014000480140F0B5026AE9
:1057200022F480720262056A4368C269194C1B4EFA
:1057300022400C6822F00302144325F400728D68A5
:1057400042EA0522144DA84201D0B04206D1CF68EA
:1057500022F4006242EA072222F48062A8420AD0C0
:10576000B04208D00E4DA84205D00E4DA84202D03E
:105770000D4DA84207D14D6923F4405343EA051368
:105780008D6943EA05134360C4614968C1630262DD
:10579000F0BD00008FFFFEFF002C014000340140EF
:1057A000004001400044014000480140F0B5026A59
:1057B00022F480520262056A4268C369194C1B4E8A
:1057C00023400C6823F4407343EA042425F4005377
:1057D0008D6843EA0533144DA84201D0B04206D18A
:1057E000CF6823F4004343EA073323F48043A842FD
:1057F0000AD0B04208D00E4DA84205D00D4DA842A7
:1058000002D00D4DA84207D14D6922F4404242EA30
:1058100085128D6942EA85124260C461496801645B
:105820000362F0BDFF8FFFFE002C014000340140F9
:1058300000400140004401400048014030B5026A88
:1058400022F480320262046A4268036D114D2B40DB
:105850000D681D4324F400330C8943EA04430E4CC5
:10586000A0420BD00D4CA04208D00D4CA04205D058
:105870000C4CA04202D00C4CA04204D14C6922F442
:10588000803242EA0422426005654968816403620D
:1058900030BD00008FFFFEFF002C014000340140AE
:1058A00000400140004401400048014030B5026A18
:1058B00022F480120262046A4268036D114D24F4DE
:1058C00000142B400D6843EA05230D8944EA055472
:1058D0000D4DA8420BD00D4DA84208D00C4DA8424A
:1058E00005D00C4DA84202D00B4DA84204D14D6901
:1058F00022F4802242EA8522426003654968C1643D
:10590000046230BDFF8FFFFE002C014000340140D7
:1059100000400140004401400048014070B5046A65
:1059200024F0010404628469056A124EB0420ED06C
:10593000B0F1804F0BD0104EB04208D00F4EB042A5
:1059400005D00F4EB04202D00E4EB04203D124F02B
:105950000304144301E044F001041A0724F0F004A6
:1059600044EA126225F00A0301F00A011943826138
:10597000016270BD002C014000040040000800409E
:10598000003401400040014030B5046A24F01004A6
:1059900004628469056A24F4407444EA022222F411
:1059A00070444FF6FF7202EA03322243A02425F02E
:1059B000A00304EA011119438261016230BD0000B5
:1059C00030B5416EB9B1026891689268C1F3426125
:1059D0000B4B520F9C5CE50003F10804A25CB5FB85
:1059E000F2F2A0F86A205A5C615CD200B2FBF1F1DD
:1059F000A0F8681030BD0121A0F86A10F8E7000097
:105A0000FA80000890F82810C90706D001684A6893
:105A1000C36A22F400321A434A6090F828108907BA
:105A200006D501684A68036B22F480321A434A6043
:105A300090F82810490706D501684A68436B22F49C
:105A400080221A434A6090F82810090706D5016899
:105A50004A68836B22F400421A434A6090F8281087
:105A6000C90606D501688A68C36B22F480521A43BE
:105A70008A6090F82810890606D501688A68036C48
:105A800022F400521A438A6090F82810490611D572
:105A900001684A68436C22F480121A434A60416CE0
:105AA000B1F5801F06D101684A68836C22F4C002F8
:105AB0001A434A6090F82810090606D501684A681A
:105AC000C06C22F4002202434A607047F8B50026F9
:105AD0000446C0F88C60FCF7CFFE054620680068DD
