:020000040800F2
:10000000080400204901000805030008B1020008A7
:1000100001030008910100088505000800000000A8
:10002000000000000000000000000000D1030008F4
:1000300095010008000000008D030008E504000899
:10004000B1050008630100086301000863010008AE
:1000500063010008630100086301000863010008F0
:1000600063010008630100086301000863010008E0
:1000700063010008630100086301000863010008D0
:1000800063010008630100086301000863010008C0
:1000900063010008630100086301000863010008B0
:1000A00063010008630100086301000863010008A0
:1000B0006301000863010008630100086301000890
:1000C0006301000863010008630100086301000880
:1000D0006301000863010008630100086301000870
:1000E0006301000863010008630100086301000860
:1000F0006301000863010008630100086301000850
:10010000630100086301000863010008630100083F
:10011000630100086301000863010008630100082F
:10012000630100086301000863010008630100081F
:10013000DFF810D000F01AF800480047D906000890
:10014000AFF30080080400200648804706480047B7
:10015000FEE7FEE7FEE7FEE7FEE7FEE7FEE7FEE777
:10016000FEE7FEE72505000831010008064C074DB3
:1001700006E0E06840F0010394E807009847103477
:10018000AC42F6D3FFF7D8FF10070008300700088D
:1001900000BFFEE770472DE9F0410246002500262A
:1001A000002000230024002791F803C00CF00F0565
:1001B00091F803C00CF0100CBCF1000F03D091F8C3
:1001C00002C04CEA050591F800C0BCF1000F31D027
:1001D000146800202BE04FF0010C0CFA00F3B1F88A
:1001E00000C00CEA03069E4220D183004FF00F0CA2
:1001F0000CFA03F7BC4305FA03FC4CEA040491F83B
:1002000003C0BCF1280F06D14FF0010C0CFA00FC22
:10021000C2F814C00AE091F803C0BCF1480F05D140
:100220004FF0010C0CFA00FCC2F810C0401C08286A
:10023000D1D31460B1F800C0BCF1FF0F34DD5468B5
:1002400000202EE000F1080C4FF0010808FA0CF332
:10025000B1F800C00CEA03069E4221D183004FF0A2
:100260000F0C0CFA03F7BC4305FA03FC4CEA040438
:1002700091F803C0BCF1280F05D100F1080C08FA71
:100280000CF8C2F8148091F803C0BCF1480F07D1F4
:1002900000F1080C4FF0010808FA0CF8C2F81080C1
:1002A000401C0828CED35460BDE8F081016170473E
:1002B00000BFFEE708B50121482000F079F82020B2
:1002C000ADF8000010208DF8030003208DF8020027
:1002D00069460948FFF75FFF20210748FFF7E6FF5F
:1002E0002020ADF8000069460448FFF754FF2021A4
:1002F0000248FFF7DBFF08BD000C01400018014079
:1003000000BFFEE77047000070B5002100230F22F8
:10031000C47804B3154C246804F4E064C4F5E064C4
:10032000210AC1F10403CA40447804FA03F1847835
:100330001440214309010E4C0678A155047804F0BD
:100340001F050124AC4005786D11AD0005F1E025D5
:10035000C5F8004109E0047804F01F050124AC4011
:10036000044D0678761145F8264070BD0CED00E08E
:1003700000E400E080E100E002490143024A11602C
:10038000704700000000FA050CED00E07047000027
:1003900029B1064AD2690243044BDA6104E0034AF8
:1003A000D2698243014BDA617047000000100240BD
:1003B00029B1064A92690243044B9A6104E0034A58
:1003C00092698243014B9A6170470000001002401D
:1003D000704710B500F002F810BD00000CB5002009
:1003E000019000903348006840F480303149086043
:1003F00000BF3048006800F4003000900198401CB5
:100400000190009818B90198B0F5A06FF1D1294872
:10041000006800F4003010B10120009001E00020DD
:1004200000900098012843D12348006840F0100054
:10043000214908600846006820F00300086008466B
:10044000006840F0020008601A4840681949486096
:100450000846406848600846406840F4806048604C
:100460000846406820F47C1048600846406840F424
:10047000E81048600846006840F08070086000BFDF
:100480000C48006800F000700028F9D00948406866
:1004900020F00300074948600846406840F0020029
:1004A000486000BF0348406800F00C000828F9D1FC
:1004B0000CBD00000010024000200240042808D1BA
:1004C0004FF0E021096941F004014FF0E022116191
:1004D00007E04FF0E021096921F004014FF0E0222C
:1004E000116170477047000010B504466FF00400BA
:1004F000FFF7E4FFE11704EB5171C1F3C701074AAD
:1005000011701046007800EB4001C1EBC0104FF6AF
:10051000FF7101EAC0000249088010BD0000002000
:100520000200002010B51348006840F00100114996
:10053000086008464068104908400E49486008466F
:1005400000680E4908400B4908600846006820F41E
:10055000802008600846406820F4FE0048604FF4A0
:100560001F008860FFF735FF4FF000600449086006
:1005700010BD0000001002400000FFF8FFFFF6FE73
:1005800008ED00E000BFFEE7002001490860704769
:10059000082C004040F08001014A116070470000C3
:1005A000002C00400120014908607047A4800542EA
:1005B00010B57F2000F032F8FFF7E6FF044800682E
:1005C00008B9012000E000200149086010BD0000CA
:1005D0009401234208B50121C802FFF7D9FE5F202C
:1005E00000F030F84FF4C07000F020F800208DF8D3
:1005F000000002208DF8010003208DF80200012088
:100600008DF803006846FFF77FFE7F20FFF7C2FFEB
:10061000FFF7BAFFFFF7C6FF08BD000000F07F013B
:10062000014A116070470000002C00400021044A7C
:10063000126822F4C0710143014A11607047000042
:10064000042C004008B5002100910749096821F0F9
:100650007F01009100F07F01009A11430091024A4E
:100660000099116008BD0000042C004002E008C899
:10067000121F08C1002AFAD170477047002001E01C
:1006800001C1121F002AFBD1704700000146114A28
:1006900012884A434FF0E0235A6100229A611A46B9
:1006A000126942F001021A6100BF4FF0E0221069A6
:1006B00000F001021AB100F48032002AF5D04FF0A8
:1006C000E022126922F001024FF0E0231A610022B9
:1006D0009A617047020000204820FFF705FF4FF4A1
:1006E000A060FFF749FEFFF7E5FD0020064908601E
:1006F0004FF4FA70FFF7CAFF01200449C1F89401D2
:10070000FFF768FF00BFFEE794812142008021428D
:100710003007000800000020040000006C060008FC
:100720003407000804000020040400007C060008D0
:0407300000000000C5
:0400000508000131BD
:00000001FF
