:020000040800F2
:10000000280B0020A9020008D741000897380008F3
:10001000D5410008D31D0008C555000800000000A8
:10002000000000000000000000000000EF44000895
:10003000D51D000800000000D9410008F144000867
:10004000C3020008C3020008C3020008C30200087C
:10005000C3020008C3020008C3020008C30200086C
:10006000C3020008C3020008C3020008C30200085C
:10007000C3020008C3020008C3020008C30200084C
:10008000C302000800000000C3020008C302000809
:10009000C3020008C3020008C3020008C30200082C
:1000A000C3020008C3020008C3020008C30200081C
:1000B000C3020008C3020008C3020008C30200080C
:1000C000C3020008C3020008C3020008C3020008FC
:1000D000C3020008F5520008C3020008C30200086A
:1000E000C3020008C3020008C3020008C3020008DC
:1000F000C3020008C3020008C30200080000000099
:1001000000000000C302000800000000C302000855
:10011000C302000800000000C3020008C302000878
:10012000C3020008C3020008C3020008C30200089B
:10013000C30200080000000000000000C302000825
:10014000C3020008C3020008000000000000000015
:10015000000000000000000000000000000000009F
:10016000000000000000000000000000C3020008C2
:10017000C3020008000000000000000000000000B2
:1001800000000000C30200080000000000000000A2
:10019000000000000000000000000000000000005F
:1001A0000000000000000000C3020008C3020008B5
:1001B000C3020008C3020008C302000800000000D8
:1001C00000000000C3020008000000000000000062
:1001D000C3020008C302000800F002F800F055F85E
:1001E0000AA090E8000C82448344AAF10107DA4592
:1001F00001D100F04AF8AFF2090EBAE80F0013F08F
:10020000010F18BFFB1A43F001031847F4730000F5
:1002100014740000103A24BF78C878C1FAD8520785
:1002200024BF30C830C144BF04680C607047000070
:100230000023002400250026103A28BF78C1FBD8EF
:10024000520728BF30C148BF0B607047662906F0CF
:100250006080642900F02481732900F0A8860020C2
:1002600070471FB506F050F800F0EAFE04000020C9
:10027000002105F07BFB401C60600020002105F0A0
:100280005FFBE0601FBD10B510BD01F09BF911468A
:10029000FFF7E7FF05F018FB01F0C2F903B4FFF721
:1002A000F2FF03BC01F0C6F909488047094800473E
:1002B000FEE7FEE7FEE7FEE7FEE7FEE7FEE7FEE716
:1002C000FEE7FEE704480549054A064B7047000073
:1002D0005D450008D901000828050020280B0020F2
:1002E000280700202807002053EA020C00F069804C
:1002F0002DE9F04B4FF00006002B1FBFB3FA83F53A
:1003000003FA05F424FA05F65E4012BF1643B2FA6A
:1003100082F502FA05F4C5F120051EBF22FA05FC9C
:1003200044EA0C04203556EA044C4FEA144418BF42
:10033000641C4FF000084FF00009904271EB030C71
:1003400039D3002919BFB1FA81F701FA07F6B0FADB
:1003500080F700FA07F6C7F120071EBF20FA07FC56
:1003600046EA0C062037B6FBF4FCA7EB0507103F66
:1003700007F01F0BCBF120060CFA0BFB2CFA06F64C
:1003800044BFB3460026202FA4BF5E464FF0000BAB
:100390005BEA060C08BF4FF0010B19EB0B09ABFB36
:1003A000027C48EB0608C01B06FB02CC0BFB03CC0F
:1003B00071EB0C01C1E70B46024641464846BDE8D9
:1003C000F08B13B54FF000004FF00001AFF3008049
:1003D000BDE81C40704700000FB41CB5074B06AACF
:1003E0007B4469460090059800F0B7FD00206946FF
:1003F00000F0C6FD1CBC5DF814FB00009D0B000066
:1004000070B5044685690068C10601D5302600E054
:100410002026C00707D070BDD4E90121304690479F
:10042000206A401C20626D1EF6D570BD70B5044672
:1004300085690078C00707D170BDD4E9012120206B
:100440009047206A401C20626D1EF6D570BD70B5C5
:100450000C460546012A05D02878800600D5EA69B1
:10046000002302E0012305E05B1C934202D2E05C22
:100470000028F9D1A869E618C01AA861286A1844AA
:1004800028622846FFF7BCFF04E0D5E9012114F8F3
:10049000010B9047B442F8D32846FFF7C7FF70BD61
:1004A0002DE9F0410646002410687529314616A54D
:1004B00010D0AFF30080002802DA404213A507E015
:1004C00031688A0701D512A502E0490704D511A5B4
:1004D000012401E0AFF3008000210A2206F1240785
:1004E00009E0B0FBF2FCB0FBF2F302FB1C00303081
:1004F00078541846491C0028F3D123462A46304632
:10050000BDE8F04100F0BBBA000000002D00000083
:100510002B000000200000002DE9F05F8946044612
:100520004FF0000ADFF824B1FB44C0F820A02046B9
:10053000E168884700287DD0252806D0D4E901212C
:100540009047206A401C2062F1E700255F46204664
:10055000E16888472028064607DB312E05D2B81906
:1005600010F8200C08B10543F1E7A80701D525F0E4
:100570000405C4F81CA00027C4F818A02A2E09D02E
:10058000304605F0D5F838B304EB8708303EC8F89C
:10059000186019E059F8041B204604EB87029161AA
:1005A000E1688847012F064618D1E069002820DA63
:1005B00025F020051DE0D8F8180000EB800006EBC0
:1005C00040003038C8F818002046E16888470646E1
:1005D00005F0AEF80028EED1012F0AD02E2E08D15A
:1005E0002046E16888477F1C0646022F45F020051B
:1005F000C4DBA069002803DA404245F00105A06190
:10060000E80701D025F01005A6B1A6F14100192890
:1006100002D8203645F400654A463146204625601A
:100620004D46FFF713FE60B1012807D0ED1D25F000
:10063000070000E007E000F1080978E705F1040988
:1006400075E730467AE7206ABDE8F09F2C7000001D
:100650000FB400B58DB010A9099000910B904FF028
:10066000FF300A9000200C90064878440690064817
:1006700078446A4607900F9909A800F0B1FC0DB0C4
:100680005DF814FB93090000AB0900002DE9FF5F42
:100690001D464FF0FF3B91464FF000085F46D5E9FD
:1006A0000146A96901987F1C8847296A82468847C4
:1006B0000028F6D1BAF1FF3F0CD0002E24F4C0641C
:1006C00019DD600614D5BAF12B0F09D0BAF12D0F40
:1006D0000ED103E0584604B0BDE8F09F44F48064B6
:1006E000A96901987F1C8847761E8246002E02DD8C
:1006F000BAF1300F03D0B9F1000F26D032E0A9696A
:10070000761E01987F1C44F400748847002E8246B0
:1007100005DDBAF1780F06D0BAF1580F03D0B9F160
:10072000000F10D01EE0B9F1000F02D0B9F1100F88
:1007300018D1A969761E01987F1C24F4007488479B
:100740008246102002E0082000E00A20814609E0ED
:10075000A96908FB0908761E01987F1C44F40074FF
:1007600088478246002E05DD4946504600F023FCAE
:100770000028EDDAE96901988847A00502D46FF0F6
:100780000100A8E7E00725D1600613D5600502D572
:10079000C8F1000000E0404629680A1D2A60096887
:1007A000220501D5087015E0220701D5088011E067
:1007B00008600FE02868011D29600068210502D546
:1007C00080F8008006E0210702D5A0F8008001E053
:1007D000C0F8008038467EE72DE9FF5F4FF0000843
:1007E0009946144646469169D2E901A7DDF838B02A
:1007F00001988847054659EA0B0005D009E0A16930
:100800000198761C88470546216A284688470028B3
:10081000F5D1681C03D05FEACA7005D015E04FF02F
:10082000FF3004B0BDE8F09F2068011D2160D0F8C2
:1008300000800AE05FEACA7001D108F8015BA16993
:10084000761C01987F1E88470546002F1ADD681C1C
:1008500018D0B9F1000F0DD0E81705EBD0604211A8
:1008600020F01F0059F822102A1A0120904001425E
:10087000E0D107E0BBF1000FDCD12846216A8847B0
:100880000028D7D0E16901988847BBF1000F07D154
:10089000002E05DD5FEACA7002D1002188F8001041
:1008A000A068B84203DDBBF1000F03D017B16FF0B1
:1008B0000100B6E73046B4E740EA0103024630B52E
:1008C0009B0710D14FF0013400E008C208C91D1B7E
:1008D0009D4315EAC41FF8D013F0FF0102F8011B75
:1008E0000DD01B0AF8E711F8013B002B02F8013B81
:1008F00005D011F8013B002B02F8013BF3D130BDCC
:1009000010B5203AC0F00B80B1E81850203AA0E8AA
:100910001850B1E81850A0E81850BFF4F5AF5FEADE
:10092000027C24BFB1E81850A0E8185044BF18C991
:1009300018C0BDE810405FEA827C24BF51F8043B38
:1009400040F8043B08BF7047D20728BF31F8023B8C
:1009500048BF11F8012B28BF20F8023B48BF00F820
:10096000012B70474FF000020429C0F0128010F0F4
:10097000030C00F01B80CCF1040CBCF1020F18BF7B
:1009800000F8012BA8BF20F8022BA1EB0C0100F00E
:100990000DB85FEAC17C24BF00F8012B00F8012BE1
:1009A00048BF00F8012B70474FF0000200B5134616
:1009B00094469646203922BFA0E80C50A0E80C507F
:1009C000B1F12001BFF4F7AF090728BFA0E80C5030
:1009D00048BF0CC05DF804EB890028BF40F8042B29
:1009E00008BF704748BF20F8022B11F0804F18BF96
:1009F00000F8012B704700004FF0013C50F8042B29
:100A000051F8043B9A4221D1A2EB0C03934313EA21
:100A1000CC1317D150F8042B51F8043B9A4215D14E
:100A2000A2EB0C03934313EACC130BD150F8042B25
:100A300051F8043B9A4209D1A2EB0C03934313EA09
:100A4000CC13DBD04FF00000704700BFD01A01BAC2
:100A5000B1FA81F101F0180122FA01F0CB40C1F1A5
:100A60002001DBB2C0B2C01A2CFA01F3D11A9143B3
:100A700011EAC311E6D170477047704770472DE9FE
:100A8000F0470D4699469246044600F12408016855
:100A9000880604D5E06921F01001216000E0012002
:100AA000A84201DD471B00E00027A1697A1902EB8B
:100AB0000900081AA0612078C00602D42046FFF77A
:100AC0009FFC002608E0D4E901211AF806009047AF
:100AD000206A401C761C20624E45F4DB2078C0065C
:100AE0000AD52046FFF78CFC06E0D4E9012130202E
:100AF0009047206A401C2062381EA7F10107F4DCF1
:100B000007E0D4E9012118F805009047206A401C4D
:100B10002062281EA5F10105F3DC2046FFF786FCC4
:100B20002078000602D50220BDE8F0870120FBE70F
:100B300070472DE9FF4F0C461E464FF0FF378BB034
:100B4000D2E90001DDF860800A908A46C1F30A55B7
:100B500005B93D46002108464FF00000BAF1000FEC
:100B600000F4400005DA00EB80004FF4400101EA98
:100B700050004FEA9059B9F1010F00DDB9460A98CB
:100B800050EA4A000ED044F61050A5F2FF35454316
:100B90002F14B8F1000F1ED07542291E1EDDC9F1B9
:100BA00000021CE0B8F1010F4FF0000001D030212D
:100BB00003E0F24305E02154401CB042FBDB304629
:100BC0000022002121540B99C1F80880C1E90020BE
:100BD0000FB0BDE8F08FBD1B6D1CDEE74A4600DAA2
:100BE000694206A800F078FC06AB93E8070003AB67
:100BF00083E8070050460A9900F023FD8DE80700BE
:100C0000A0F500501F3800900398002D0ADD42F235
:100C10001F014A460844002303A90390684600F0D8
:100C20008CFF09E0A0F500504A461F38002303A9B5
:100C30000390684600F096FF8DE807000004000C62
:100C400003D04FF0FF30410800E01046B8F1000F2C
:100C500003D00022009215461EE0751E05D400F058
:100C6000F3F9303262556D1EF9D5B34601220843BF
:100C700002D000227F1C04E02078302801D100221D
:100C80007F1E002A099784D01DE0112D07DA00F09D
:100C9000DBF9303262556D1C50EA0102F5D1084390
:100CA00002D00098C8B10EE00021681E05E0235C68
:100CB000625C63542254401E491C8142F7DBAB4600
:100CC000A81B401E0990002004F80B000B98099AFD
:100CD000C0F80880C0E9002B7AE711264FF0000821
:100CE00057E72DE9F04F88460446D21D22F0070150
:100CF00091B0D1E90001CDE90A0104F064FC02469B
:100D00000B98C00F01D02D2007E02068810701D586
:100D10002B2002E0202101EAC000032A099001D023
:100D2000072A05DB03464146204600F0DBF90BE1CC
:100D30002078800601D5E06900E00620B8F1650F53
:100D4000814606D0B8F1660F18D0B8F1670F70D1A0
:100D500031E00020B9F1110F009001DB112301E017
:100D600009F101030AAA01A90CA8FFF7E2FEDDE9D7
:100D70000C70002609F10105834647E001204B462F
:100D800000904FF000470AAA01A90CA8FFF7D1FE76
:100D9000DDE90DB00C995D46002610B909F101009E
:100DA0000D18B9EB050003D4C0F1FF3609F10105B8
:100DB000A5EB09002BE0B9F1010F01DA4FF00109B1
:100DC0000020B9F1110F0090484601DD112300E029
:100DD00003460AAA01A90CA8FFF7ABFEDDE90C70D7
:100DE0004D4600268346207800070AD4AB4500DA3A
:100DF0005D4601A8012D04DD411911F8011C3029BF
:100E000007D04F4502DA17F1040F04DA01208246B9
:100E10000FE06D1EEEE7002F02DCED1B3E4403E009
:100E2000781CA84200DD7D1CB81B00F1010A4FF0C0
:100E300000472078000703D4AA4501DB4FF0FF3AB2
:100E40000021B7F1004F0DF143088DF8431024D075
:100E500002202B23002F01DA7F422D230A21021EBC
:100E6000A0F1010000DC5FB197FBF1FC97FBF1F210
:100E700001FB1C7C17460CF1300C08F801CDEEE7A5
:100E8000A8F1010003702188090501D5452100E082
:100E90006521A0F1010800F8011C09980FA9A1EB38
:100EA0000807FF1D00B10120411901EBEA70A1699B
:100EB0003844081A401EA0612078C00602D420469B
:100EC000FFF79EFA099828B1D4E901219047206ADA
:100ED000401C20622078C00622D52046FFF790FAF9
:100EE0001EE0002E04DBB34502DD01A8805D00E0BA
:100EF0003020D4E901219047206A401C2062761CF2
:100F0000AAF101005FEA000A0AD100F099F8C0686E
:100F10000168405CD4E901219047206A401C2062AE
:100F2000281EA5F10105DCDC07E0D4E9012118F851
:100F3000010B9047206A401C2062381EA7F1010770
:100F4000F3DC2046FFF772FA032011B041E60000FF
:100F500001694A1C02610878704700B58FB0CDE97D
:100F600001310021059105497944CDE9031011466D
:100F70006846FFF7D1FA0FB000BD0000E5FFFFFFA4
:100F80000A6802F8010B0A60704710B5436913B193
:100F9000AFF3008001E0FFF75AFA012010BD12788C
:100FA00000F124010A7000224A700122EDE7116865
:100FB0004FF0FF32E9E73A2800D2303820F0200223
:100FC000412A01D3A2F13700884201D34FF0FF300C
:100FD000704700000268114413780160184670479A
:100FE000D160054979445161044979441162002175
:100FF0001161114600F0B6B8EDFFFFFFE5000000FB
:10100000426842B1016811F8013B23B1521EC0E9A8
:101010000012184670470121C160881E704742685F
:101020005AB1C368016843B983688B4205D0491E31
:10103000521CC0E90012002070474FF0FF3070478B
:1010400000487047E404002030B5B0F10A024FEACE
:10105000900E71F100034EEA817EB0EB0E0061EB61
:1010600091014FEA101E4EEA017E10EB0E0041EB9B
:1010700011114FEA102E4EEA016E10EB0E0041EBFB
:1010800011214FEA104E4EEA014E10EB0E0041EBDB
:101090001141401841F100014FEAD00040EA41708F
:1010A0004FEAD10110EB80054FEA810444EA9074C5
:1010B00044EB01046D1944EB0404521BA3414FF0AF
:1010C000000348BF0A3200D530BD401C41F1000189
:1010D00030BD10B5044600F09BFA0068005D00F0DA
:1010E000010010BD2DE9F0411F46044603260168AA
:1010F000072A01F4006004DB08B116A505E016A577
:1011000003E008B115A500E015A521F0100020604E
:10111000A069C01EA0610FB1401EA0612046FFF76C
:101120006FF94FB1D4E9012138469047206A401C3D
:101130002062C01C206206E0206AFAE7D4E901219F
:1011400015F8010B9047761EF8D22046FFF76EF98E
:10115000BDE8F0814E414E006E616E00494E460082
:10116000696E66002DE9F34F4FF0000A0C465646B3
:101170008DB001200C9001F10C000B9062690B986E
:1011800001219047051E2DD0252D2CD0216A88479E
:10119000C0B162690B9801219047216A88470028F5
:1011A000F7D16269411E0B98904700E0761CA16957
:1011B0000D988847216A88470028F7D1E1690D9882
:1011C0008847DBE7A1690D988847A842074601D107
:1011D000761CD3E7E1690D9888477F1C02D1BAF1EC
:1011E000000F6FD06CE162690B9800273D463946CD
:1011F00090472A2804D162690B9801219047012564
:10120000DFF8D08262690B9801219047A0F130018C
:101210000A290AD24745E5DC07EB870100EB4107C5
:10122000303FDFD445F01005ECE7E90601D46FF05C
:1012300000476C280AD04C2814D0682815D06A289A
:101240000DD074281CD07A281AD01DE062690B9842
:10125000012190476C2802D045F0040514E045F0C8
:1012600002050DE045F020050AE062690B980121B6
:101270009047682802D045F0080505E045F4006570
:1012800062690B9801219047C4E9015765283DD058
:1012900019DC58287AD00CDC452837D004DC252806
:1012A00026D041289ED131E046282FD0472899D119
:1012B0002CE05B2877D0612828D063287CD0642874
:1012C00023D15AE0F7E06F2848D008DC66281DD00B
:1012D00067281BD0692821D06E2816D127E07028F6
:1012E00045D0732868D0752847D078280DD14DE0B7
:1012F000A1690D988847252805463FF469AFE16943
:101300000D9888476D1C3FF46AAFD9E00D992346CC
:101310006A466FF00100AFF30080C6E045F0400080
:1013200023464FF000026060A80736D43EE0E8078D
:101330007FF447AF2068011D21600068290501D5B1
:1013400006701BE7290701D5068017E7A90703D513
:10135000F117C0E9006111E706600FE745F04000B2
:1013600023464FF008026060A80716D41EE040F63E
:101370000E0125EA0100606016E045F040002346BA
:101380004FF00A026060A80707D40FE045F0400064
:101390006060A80708D5234610220D996FF0010060
:1013A000AFF3008081E007E0102223460D996FF033
:1013B0000100FFF76BF978E04FF0000963284F4612
:1013C000C8464B46CB4602D05B2807D039E020798F
:1013D000C00601D40120A060012732E06269D4F880
:1013E0000CB00B98012190475E2807D14FF00109FE
:1013F00049466269D4F80CB00B989047216939B915
:1014000000210A4603AB43F82120491C0829FADBD6
:10141000D8B3216949B308F1010862690B98012129
:1014200090475D28F4D1B9F1000F09D0002003A93D
:1014300051F82020D24341F82020401C0828F7DB37
:1014400003AB2069002820794FEA40701ED05B462C
:101450002246CDF80080CDE901970D9900286FF064
:10146000010020DAAFF300801FE0C11703AA00EBF0
:10147000D1614B1121F01F0102EB8302411A136865
:101480000120884003431360C7E719E00D99224605
:1014900000286FF00100009702DAAFF3008004E04B
:1014A000FFF79AF901E0AFF3008000280ADA401C48
:1014B00006D10C9820B14FF0FF300FB0BDE8F08F8F
:1014C0005046FAE7E90701D10AF1010A0644002073
:1014D0000C9053E6CCCCCC0C2DE9F0478146164657
:1014E0008AB0354878440DC88DE80D0032487844FC
:1014F000801C03AC0DC884E80D0041F69B30084405
:10150000372190FBF1F290FBF1F5A5F1800501FB8D
:1015100012041B3C02D56442012000E00020DFF8E9
:1015200098A080460027FA44AAF1BE0A0EE0E00720
:101530000AD03246684607EB470101230AEB8101D6
:1015400000F010FB8DE8070064107F1C002CEED12A
:10155000194F7F44AE3F19E0E80715D007EB0410A0
:101560000DF1180A90E80E008AE80E00C068F042FB
:1015700001D1981908903246012306A903A800F06A
:10158000F1FA03AB83E807006D10641C002DE3D172
:101590004FF0010332466946B8F1000F03A802D0AC
:1015A00000F0CBFA01E000F0DDFAC9E90001C9F86A
:1015B00008200AB0BDE8F0870061000000487047CD
:1015C000C40400207546FFF7F9FFAE4605006946E2
:1015D000534620F00700854618B020B5FEF772FE8E
:1015E000BDE820404FF000064FF000074FF0000824
:1015F0004FF0000B21F00701AC46ACE8C009ACE8A5
:10160000C009ACE8C009ACE8C0098D4670470000CD
:1016100010B5FFF715FD001D10BD00BF51430000C0
:1016200010B50446AFF300802046BDE81040FEF739
:1016300035BE000001491820ABBEFEE726000200BF
:1016400070475FEA400C08BF91F0000F4FEA8C230F
:101650004FEAC12243EA51514FEA1C5018BF00F52E
:10166000F0404FEA300018BF41F000415FEA6C5C87
:1016700000F02980BCF1FF3F08BF40F08040704778
:10168000130C06BF12044FF0100C4FF0000C130E99
:1016900004BF12020CF1080C130F04BF12010CF16D
:1016A000040C930F04BF92000CF1020CD30F04BF83
:1016B00052000CF1010C11464FF00002A0F11F0086
:1016C000A0EB0C00704711F0004F08BF704731F0DD
:1016D00000413FF4D5AF0B0C06BF09044FF0100CCE
:1016E0004FF0000C0B0E04BF09020CF1080C0B0F9D
:1016F00004BF09010CF1040C8B0F04BF89000CF12D
:10170000020CCB0F04BF49000CF1010CCCF12003FB
:10171000A0EB0C0022FA03F302FA0CF241EA0301F7
:1017200000F10100704720F07F4C80EA030023F0B5
:101730007F47ACEB070303F57C5300F0004003F157
:10174000FF032DE980494FEA154B09B44FEA1443D2
:1017500025EA0B4E24EA03480FF2042606EB132772
:1017600049083E785FEA320203FB0667C7F50007C7
:1017700007FB06F64FEA54374FEAD64606F1020653
:1017800007FB066CCCF1005C4FEA1C472CEA074CC7
:1017900007FB06F40CFB06F504EB15464FEA96161C
:1017A00034BF00204FF000404FEAD13706FB07FC62
:1017B0004FEA1C4C0CFB0BF7D21B03FB0CF761EB45
:1017C00007010CFB0EF7B0EB074072EB17420CFB66
:1017D00008F734BFA2EB0742B2EB074261EB1741B7
:1017E0004FEA0C444FEA910706FB07FC4FEA1C4CFA
:1017F0000CFB0BF7B0EBC74072EB573203FB0CF757
:1018000034BFA2EBC742B2EBC74261EB57310CFBCE
:101810000EF7B0EBC70072EB57720CFB08F734BF42
:10182000A2EBC702B2EBC70261EB5771039F4FEA0D
:10183000816141EA921104EBCC044FEAD1374FEABF
:10184000826206FB07FC42EA90124FEA80604FEA90
:101850001C4C0CFB0BF7D21B03FB0CF761EB0701D5
:101860000CFB0EF7B0EB074072EB17420CFB08F7CE
:1018700034BFA2EB0742B2EB074261EB17414FEADC
:101880008C554FEA910704EB9C2406FB07FC4FEABA
:101890001C4C0CFB0BF7B0EBC74072EB573203FB51
:1018A0000CF734BFA2EBC742B2EBC74261EB573132
:1018B0000CFB0EF7B0EBC70072EB57720CFB08F78E
:1018C00034BFA2EBC702B2EBC70261EB577115EB55
:1018D0004C254FEA816141EA92114FEA82624FEA58
:1018E000D13742EA901206FB07FC44F100044FEAAC
:1018F00080604FEA1C4C0CFB0BF7D21B03FB0CF770
:1019000061EB07010CFB0EF7B0EB074072EB1742DF
:101910000CFB08F734BFA2EB0742B2EB074261EBC6
:10192000174115EB1C154FEA813141EA92414FEA0C
:10193000823242EA90424FEA80304FEA0C7644F11C
:10194000000448EA03434EEA0B484FF0000EB2EBA6
:10195000080C71EB030724BF624639464EEB0E0EAE
:101960004FF0000B0018524149414BEB0B0BB2EB0F
:10197000080C71EB03077BF1000B24BF624639466C
:101980004EEB0E0E4FF0000B0018524149414BEB4D
:101990000B0BB2EB080C71EB03077BF1000B24BFC0
:1019A000624639464EEB0E0E51EA020718BF46F06A
:1019B000010616EB0E7655F1000254F1000103D535
:1019C000BDE88901BDE80088BDE88901BDE800489F
:1019D000B619524141EB0101A3F101037047808028
:1019E0007F7E7D7C7B7A7978777676757473727179
:1019F00071706F6E6E6D6C6C6B6A6A696868676631
:101A000066656464636362616160605F5F5E5E5DC2
:101A10005D5C5C5B5B5A5A59595858575756565536
:101A200055555454535352525251515050504F4F98
:101A30004F4E4E4D4D4D4C4C4C4B4B4B4A4A4A49E8
:101A4000494948484847474747464646454545442B
:101A50004444444343434342424242414141002BB8
:101A60009C4630D477002BD01CB54FEA370703B41F
:101A70004FF010004FF01001BAF1000F06D0BCF18A
:101A8000000FDCBF40F0080040F008014FF00000FC
:101A90000FBCBDE810400BF1010BBBF1010F08BFFB
:101AA0005FEA170722BF12F1010211F101014FF0A5
:101AB000004143F1000300F0004043EA000070479A
:101AC000F9D35708D0E746EA064613F1400F4FEA2C
:101AD00016461FDD13F1200FDFBF16430A46002113
:101AE00020335B42BED0C3F1200746EA064602FA25
:101AF00007F74FEA164646EA0706C3F1200722FA1F
:101B000003F201FA07F721FA03F14FF0000342EA6A
:101B10000702A7E746EA020646EA06464FEA1646E5
:101B200046EA0106BCBF46EA0646360C4FF0000303
:101B30004FF000024FF0000194E72DE9804C9A46E7
:101B4000934670B491E8380007C831EA400C48BFAA
:101B500034EA430C03D5FFF7E6FDFFF780FFF0BC46
:101B6000BDE8008C2DE9804C9A46934670B491E80C
:101B7000380007C810F0804F08BF13F0804F03D122
:101B800000F005F8FFF76BFFF0BCBDE8008C20F01B
:101B90007F4780EA030023F07F4C07EB0C03A3F59B
:101BA0007C5300F00040A3F1FE0392F0000F00F020
:101BB000B38095F0000F00F077802DE901494FEADE
:101BC00011404FEA144621EA004800FB06FC24EAD3
:101BD000064708FB06F607FB08F800FB07F718EBBB
:101BE00006484CEB164C4FEA124B18EB07484FEAED
:101BF00015464CEB174022EA0B4E0BFB06FC25EA80
:101C000006470EFB06F607FB0EFE0BFB07F71EEB67
:101C1000064E4CEB164C4FF000061EEB074E4CEBFD
:101C2000174B18EB0B0840F1000018EB0E0B58EBAC
:101C3000000840F100008F1A4FF000013CBFC9437B
:101C4000661B14BFB5EB040C00213CBFC943F61B57
:101C50004FEA17444EEA8E0E27EA04454FEA1C4726
:101C600004FB07622CEA074C05FB07F70CFB05F6A3
:101C700004FB0CFC16EB074642EB174216EB0C4636
:101C800042EB1C421BEB060658EB0202414146EABE
:101C90009E0601D5BDE80189B619524141EB01010B
:101CA000A3F10103BDE801894FEA14454FEA11474A
:101CB00024EA054621EA074C05FB07F406FB07F773
:101CC0000CFB06F105FB0CFC11EB074144EB174440
:101CD0004FEA124711EB0C4144EB1C4422EA074C3B
:101CE00005FB07F206FB07F70CFB06F605FB0CFCF1
:101CF00016EB074642EB174216EB0C4642EB1C452F
:101D00006A1854F1000148BF7047B619524141EBBF
:101D10000101A3F10103704795F0000F37D04FEA9E
:101D200011424FEA144721EA024624EA074C02FB1B
:101D300007F106FB07F70CFB06F402FB0CFC14EBA7
:101D4000074441EB17414FEA154714EB0C4441EBB4
:101D50001C4125EA074C02FB07F506FB07F70CFBC5
:101D600006F602FB0CFC16EB074645EB174516EB97
:101D70000C4645EB1C42121951F1000148BF704757
:101D8000B619524141EB0101A3F1010370474FEA3B
:101D900014454FEA114724EA054621EA074C05FBA2
:101DA00007F106FB07F70CFB06F24FF0000605FBF8
:101DB0000CFC12EB074241EB174112EB0C4251EBCA
:101DC0001C4148BF7047921841EB0101A3F1010388
:101DD0007047FEE77047002240F6B83306E0002166
:101DE000491C89B29942FBD3521C92B28242F6D36B
:101DF000704772B6FEE710B590F825300021012239
:101E0000022B03D00421C163012122E003681C6876
:101E100024F00E041C60836C1C6824F480741C6025
:101E200003681C6824F001041C6090F84430046CC2
:101E300003F01F0302FA03F36360D0E913345C601C
:101E4000436D33B11C6824F480741C60D0E91634EF
:101E50005C6080F82520002280F82420084610BD10
:101E600070B590F82520002401212346022A07D0CE
:101E70000422C26380F8251080F82430012429E070
:101E80000268156825F00E0515600268156825F0D2
:101E900001051560826C156825F48075156090F851
:101EA0004420056C02F01F0201FA02F26A60D0E9D8
:101EB00013255560426D32B1156825F480751560A3
:101EC000D0E91625556080F8251080F82430816B04
:101ED00001B18847204670BD70B5044600F0FCF89B
:101EE0000546601C02D004484068044400F0F4F841
:101EF000401BA042FAD370BD580000202DE9FC4FD2
:101F0000DFF8A0A1002301250AF1040B03244FF000
:101F10000F0C0BF1040EBDE005FA03F632406FD052
:101F20004F68012F05D0022F03D0112F01D0122F9F
:101F300017D1D0F808905F0004FA07F829EA0809D9
:101F40000097D1F80C8008FA07F848EA0908C0F8A9
:101F500008804768B7430E79C6F300169E403E439B
:101F60004660C6684FEA430804FA08F7BE43019783
:101F70008F6807FA08F73743C7604E68022E01D012
:101F8000122E13D1DE0800EB86060096366A5F0734
:101F9000FF0E0CFA07F926EA0906D1F8109009FAA3
:101FA00007F949EA0609009EC6F820900668019FD5
:101FB000BE430F7907F0030707FA08F737430760B6
:101FC0004E68F60065D5384E376E47F00107376624
:101FD000366E23F0030706F001060096334E3E44AA
:101FE000B146B6689F074FEA17780CFA08F7BE4368
:101FF000B0F1904F05D02E4FB84204D1012717E021
:1020000047E0002714E02B4FB84201D102270FE030
:10201000294FB84201D103270AE0284FB84201D125
:10202000042705E0264FB84201D1052700E0062726
:1020300007FA08F73743C9F80870DAF8006057461E
:10204000D1F8048096435FEAC83800D516433E6055
:10205000DBF800605F46D1F8048096435FEA883879
:1020600000D516433E60DEF800607746D1F8048064
:1020700096435FEAC82800D516433E60094F0C37E7
:102080003E68D1F8048096435FEA882800D516435D
:102090003E605B1C0A6832FA03F67FF43DAFBDE890
:1020A000FC8F0000000401400010024000000140CD
:1020B0000004004800080048000C004800100048D8
:1020C000001400480069084000D0012070470AB1A0
:1020D00081617047816270470148806870470000E5
:1020E00058000020024881684268114481607047AE
:1020F0005800002010B50024032000F073F80F20D2
:1021000000F008F808B1012401E000F025F82046AD
:1021100010BD000070B50E4E05460024706898B1E1
:102120004FF47A71B1FBF0F00A490968B1FBF0F0A5
:1021300000F064FD40B9102D06D200222946501E41
:1021400000F030F8356000E00124204670BD00004A
:1021500058000020640000200A4882B0016E41F05F
:1021600001010166016E01F001010091816D41F0F4
:1021700080518165806D00F08050009002B000F0C9
:10218000A1B8000000100240002809DB00F01F0287
:10219000012191404009800000F1E020C0F80011C9
:1021A00070470000F0B40E4B1B680C46C3F30223CB
:1021B000C3F10705042D00D90425191D072901D2F3
:1021C000002300E0DB1E012606FA05F1491E21402E
:1021D00099409E40761E16403143F0BC03F00BBA86
:1021E0000CED00E0064900F0070208684FF6FF0317
:1021F000184040EA0220034A10430860704700007C
:102200000CED00E00000FA052B492C4B0A68322146
:102210004A432B4940B1B0F5007F086829D020F42B
:10222000C06040F480602CE00868C0F341200228C0
:1022300004D051F8800F20F4807022E0D1F88000A3
:1022400020F48070C1F88000086820F4C06040F479
:1022500000700860B2FBF3F0401C00E0401E4A69C9
:10226000520501D50028F9D1486940050AD5032057
:102270007047C0F34120022806D051F8800F40F487
:102280008070086000207047D1F8800040F48070B2
:10229000C1F88000086820F4C06040F40070086055
:1022A000B2FBF3F0401C00E0401E4A695205DBD54A
:1022B0000028F9D1D8E700006400002040420F0058
:1022C000007000400248816841F48041816070479D
:1022D000007000402DE9F8430446006800269D4D3B
:1022E00000035ED5A86D0027C00008D4A86D40F09B
:1022F0008050A865A86D012700F080500090DFF89D
:102300005892D9F8001041F48071C9F80010FFF715
:10231000E3FE804606E000BFFFF7DEFEA0EB08000C
:1023200002282BD8D9F80000C005F5D5D5F89000C3
:1023300010F4407014D0216C814211D0D5F8900077
:10234000D5F8901020F4407041F48031C5F8901019
:10235000D5F8901021F48031C5F89010C5F89000A0
:10236000C00711D0FFF7B8FE804641F2883907E078
:10237000FFF7B2FEA0EB0801494501D903260BE0A7
:10238000D5F890008007F3D5D5F89000216C20F4A3
:1023900040700843C5F890001FB1A86D20F0805030
:1023A000A8652078C00707D0D5F88800616820F0BC
:1023B00003000843C5F888002078800707D5D5F8C2
:1023C0008800A16820F00C000843C5F88800207838
:1023D000400707D5D5F88800E16820F030000843B1
:1023E000C5F888002078000707D5D5F8880021694E
:1023F00020F0C0000843C5F888002078800607D583
:10240000D5F88800616920F440600843C5F8880069
:102410002078400607D5D5F88800A16920F44050FF
:102420000843C5F888002078000607D5D5F888004D
:10243000E16920F440400843C5F888002088C005C1
:1024400007D5D5F88800216A20F440300843C5F844
:1024500088002088800507D5D5F88800616A20F4B7
:1024600040200843C5F88800208840050FD5D5F8DE
:102470008800A16A20F440100843C5F88800A06ACB
:10248000B0F5801F03D1E86840F48010E860208830
:1024900000050FD5D5F88800E16A20F44000084314
:1024A000C5F88800E06AB0F5800F03D1E86840F411
:1024B0008010E8602088C0040FD5D5F88800216B13
:1024C00020F040700843C5F88800206BB0F1807F91
:1024D00003D1E86840F48010E86020884FF0006184
:1024E00080040ED5D5F88800626B20F04060104360
:1024F000C5F88800606B884203D1E86840F480101A
:10250000E860208840040ED5D5F88800A26B20F042
:1025100040601043C5F88800A06B884203D1E8688A
:1025200040F48010E860208800040FD5D5F88800BA
:10253000E16B20F040500843C5F88800E06BB0F133
:10254000805F03D1E86840F48030E8603046BDE841
:10255000F883000000100240007000402DE9F047B1
:102560000E4605004FF0000725D0DFF8AC81D8F803
:10257000000000F00F00B0420CD2D8F8001021F09B
:102580000F013143C8F80010D8F8000000F00F0028
:10259000B04210D12968614CC80741F2883A5AD03C
:1025A0006868DFF87C91032808D0022820682DD0C5
:1025B000400500282CDB0120BDE8F0872068800161
:1025C000F9D5E06800F00302E068C0F30310401C96
:1025D000032A19D0534A00BFB2FBF0F0E268C2F3FD
:1025E00006225043E268C2F34162521C5200B0FB23
:1025F000F2F0484517D9A06810F0F00F0CD088070A
:1026000011D5A86840B10EE0474AE5E78003D0E75E
:1026100000F0B6F8484506D9A06820F0F00040F078
:102620008000A0608027A068696820F0030008434C
:10263000A060FFF751FD814606E000BFFFF74CFDAB
:10264000A0EB090151453AD8A068696800F00C0078
:10265000B0EB810FF2D12868810714D5400703D56C
:10266000A06840F4E060A0602878000705D5A06865
:1026700020F4605040F4E060A060A068A96820F0F9
:10268000F000084304E0802F03D1A06820F0F000A0
:10269000A060D8F80010404601F00F01B14216D9F1
:1026A000016821F00F0131430160FFF715FD074676
:1026B00007E000BFFFF710FDC11B514501D9032002
:1026C0007AE7D8F8000000F00F00B042F2D1287885
:1026D000400705D5A068E96820F4E0600843A060E1
:1026E0002878000706D5A068296920F4605040EAE0
:1026F000C100A06000F044F8A1680C4AC1F30311C6
:10270000515C01F01F01C840094908600948006890
:10271000BDE8F047FFF7FEBC002002400010024079
:1027200000B4C4040024F40000366E0140750008B3
:1027300064000020580000200548064900688968A8
:10274000054AC1F30221515C01F01F01C8407047E6
:10275000640000200010024050750008054806493A
:1027600000688968054AC1F3C221515C01F01F016C
:10277000C8407047640000200010024050750008F7
:10278000184910B58868C0F381021748012A0BD098
:102790008A68164BC2F38102022A06D08A68C2F305
:1027A0008102032A03D0002010BD184610BDCA685C
:1027B00002F00304CA68C2F30312521C032C02D0B5
:1027C000B0FBF2F001E0B3FBF2F0CA68C968C2F3F3
:1027D00006225043C1F34161491C4900B0FBF1F0AE
:1027E00010BD0000001002400024F40000366E010D
:1027F0002DE9F84304007AD02078FA4DC00747D07D
:10280000A868E96800F00C0001F003010C2802D070
:10281000082817D001E0032914D06068B0F5803F84
:1028200017D0B0F5A02F286817D020F4803028608A
:10283000286820F4802028606068E0B1FFF74CFC35
:10284000064614E02868800322D560680028D2D0AC
:102850001EE0286840F48030EDE740F480202860D6
:10286000F7E700BFFFF738FC801B642870D82868A2
:102870008003F7D50CE0FFF72FFC064605E000BF0C
:10288000FFF72AFC801B6428F0D828688003F7D45F
:10289000207880074CD5A868E96800F00C0001F0AA
:1028A00003010C2802D004280DD001E002290AD02F
:1028B000E068002828682BD040F480702860FFF77B
:1028C0000BFC064619E02868400502D5E0680028A0
:1028D00091D06868217C20F0FE4040EA0160686089
:1028E000C1480068FFF716FC002800D120E076E11F
:1028F000FFF7F2FB801B0228B8D828684005F7D5FF
:102900006868217C20F0FE4040EA016068600FE0CA
:1029100020F480702860FFF7DFFB064605E000BF6B
:10292000FFF7DAFB801B0228A0D828684005F7D4FF
:102930002078000729D560690028D5F8940013D0C5
:1029400040F00100C5F89400FFF7C6FB064606E01C
:1029500090E000BFFFF7C0FB801B022886D8D5F8A7
:1029600094008007F6D510E020F00100C5F894002F
:10297000FFF7B2FB064604E0FFF7AEFB801B022820
:1029800078D8D5F894008007F6D42078400761D530
:10299000A86D0026C00008D4A86D40F08050A8653E
:1029A000A86D012600F08050009090480168C9058C
:1029B00011D40168804641F480710160FFF78CFBFF
:1029C000074604E0FFF788FBC01B022852D8D8F85E
:1029D0000000C005F6D5A068012815D00528D5F857
:1029E000900016D020F00100C5F89000D5F89000B6
:1029F00020F00400C5F89000A06841F28838B8B112
:102A0000FFF76AFB07460EE0D5F8900040F00100A2
:102A1000F0E740F00400C5F89000F5E7FFF75CFB35
:102A2000C11B414526D8D5F890008007F6D50CE0AB
:102A3000FFF752FB074604E0FFF74EFBC11B414581
:102A400018D8D5F890008007F6D41EB1A86D20F0F4
:102A50008050A8652078800629D5A0690028D5F87F
:102A6000980013D040F00100C5F89800FFF734FB40
:102A7000064606E077E000BFFFF72EFB801B02282A
:102A800077D8D5F898008007F6D510E020F001003F
:102A9000C5F89800FFF720FB064604E0FFF71CFB93
:102AA000801B022865D8D5F898008007F6D4E06925
:102AB000F0B3A968C1F38101032961D00228286815
:102AC00020F0807028600BD0E86820F00300E860F8
:102AD000E86847490840E860FFF7FEFA04464BE023
:102AE000FFF7FAFA064604E0FFF7F6FA801B022821
:102AF0003FD828688001F7D4F4E908016FF00F028D
:102B000002EB01110843218A5204490802EB4151AA
:102B1000A26841EA02210843217D4FF07E42490824
:102B200002EB41610843217B40EAC160E96800E0B3
:102B300062E0304A11400843E860286840F0807045
:102B40002860E86840F08070E860FFF7C5FA044646
:102B500005E000BFFFF7C0FA001B022809D828686B
:102B60008001F7D548E004E0FFF7B6FA001B022821
:102B700002D90320BDE8F88328688001F4D43BE043
:102B80000128F7D0E868226A00F00301914226D1BB
:102B9000616A00F0F0020901103991421FD1A26A66
:102BA00000F4FE41B1EB022F19D194F82C2000F073
:102BB0007841B1EBC26F12D1218E00F4C0024908F6
:102BC0004905A1F50011914209D194F8341000F0A3
:102BD000C06049084906A1F1007181420CD0012072
:102BE000C8E70000001002405800002000700040BC
:102BF000FFFFEEFE0C809F010020BBE710B5401EDA
:102C0000B0F1807F01D3012010BD4FF0E02460615E
:102C10000F21601702F0EFFC0020A0610720206167
:102C2000002010BDF0B590F83C20012A4AD00122C6
:102C300080F83C20CA688B6822F440721A434B68C3
:102C400022F480621A430B6822F400621A430B6973
:102C500022F480521A434B6922F400521A430B6B40
:102C600022F480421A430B8B22F4702242EA034280
:102C7000154C03680026154DA34201D0AB4203D189
:102C8000CF6922F080523A43A34201D0AB4214D123
:102C90000F8D22F4700242EA07520F6A22F080720E
:102CA0003A434F6A22F000723A43A34201D0AB424A
:102CB00003D1C96A22F000520A435A6480F83C608A
:102CC0000020F0BD0220F0BD002C01400034014086
:102CD000F0B590F83C20012A3AD0012580F83C500C
:102CE000022280F83D2003685A689C68194E1A4FEA
:102CF000B34201D0BB4204D122F4700C4A6842EACC
:102D00000C02DFF858C002EA0C02D1F800C04CEA0D
:102D1000020CC3F804C00268B2420DD0B2F1804F79
:102D20000AD00F4B9A4207D00E4B9A4204D0BA42B7
:102D300002D00D4B9A4204D1896824F080031943D4
:102D4000916080F83D50002180F83C100846F0BDAD
:102D50000220F0BD002C0140003401408FFFFFFD38
:102D600000040040000800400040014010B504008D
:102D700003D094F83D0010B107E0012010BD002001
:102D800084F83C00204600F023F8022084F83D003F
:102D9000211D206801F0EAFB012084F8480084F836
:102DA0003E0084F83F0084F8400084F8410084F835
:102DB000420084F8430084F8440084F8450084F815
:102DC000460084F8470084F83D00002010BD000054
:102DD00008B50C4A01680C48914207D1816D41F059
:102DE00002018165806D00F0020009E0074A91420E
:102DF00007D1016E41F480210166006E00F480204D
:102E0000009008BD0004004000100240004801404E
:102E100090F83D10012901D001207047022180F86F
:102E20003D1000680F4988420ED0B0F1804F0BD0A2
:102E30000D49884208D00D49884205D00C49884286
:102E400002D00C49884207D181680B4A11400629FB
:102E500006D0B1F5803F03D0016841F00101016067
:102E600000207047002C0140000400400008004092
:102E700000340140004001400700010070B50446E5
:102E800090F83C00012814D0012584F83C50022021
:102E900084F83D0022689068344B184020F47F404D
:102EA00090600868702827D010DC10F00F0F03D056
:102EB0004AE04FF0020070BD4FEA2012072A43D2C9
:102EC000DFE802F05050505048313900284BC21A08
:102ED000984247D009DCB0F5805F35D0B0F5005F8F
:102EE00015D0B0F1101F2FD13CE0102A3AD0202A83
:102EF00038D0502A28D135E0CB68D1E901212068AB
:102F000001F099FB2068816841F0770109E0CB6806
:102F1000D1E90121206801F08EFB2068816841F42D
:102F20008041816010E0CA684968206801F02EFD88
:102F30005021206806E0CA684968206801F037FD22
:102F40006021206801F082FB84F83D50002084F865
:102F50003C0070BDCA684968206801F017FD402137
:102F60002068EFE7226801461046EBE788FFCEFFB6
:102F70002000100010B586B0044614216846FDF705
:102F800013FD0E492068884216D10D48C16C41F0EE
:102F90000101C164C06C694600F001000590802009
:102FA00000900220019000200290039001200490E4
:102FB0004FF09040FEF7A2FF06B010BD0048014060
:102FC0000010024070B5044690F83C000D46012800
:102FD0000BD0012084F83C000C2A45D007DC5AB104
:102FE000042A1BD0082A78D12CE0022070BD102AB8
:102FF0004ED0142A71D15DE0206801F031FB2068C9
:10300000816941F0080181612068816921F0040132
:103010008161206881692A69114311E0206801F00B
:103020006DFB2068816941F40061816120688169DC
:1030300021F480618161206881692A6941EA022165
:1030400081614AE0206801F0A1FB2068C16941F07C
:103050000801C1612068C16921F00401C1612068D3
:10306000C1692A69114311E0206801F0D7FB20688B
:10307000C16941F40061C1612068C16921F48061C6
:10308000C1612068C1692A6941EA0221C16124E065
:10309000206801F00BFC2068016D41F0080101651A
:1030A0002068016D21F0040101652068016D2A6925
:1030B000114311E0206801F031FC2068016D41F4FA
:1030C000006101652068016D21F48061016520685F
:1030D000016D2A6941EA02210165002084F83C0063
:1030E00070BD10B5040003D094F83D0010B107E0A6
:1030F000012010BD002084F83C00204600F022F89A
:10310000022084F83D00211D206801F02FFA0120E3
:1031100084F8480084F83E0084F83F0084F84000BA
:1031200084F8410084F8420084F8430084F84400A5
:1031300084F8450084F8460084F8470084F83D0090
:10314000002010BD7047000030B50446022269B16E
:10315000042912D0082917D00C291CD0102921D0FD
:1031600094F84300012824D0012030BD94F83E009B
:103170000128F9D184F83E201DE094F83F00012891
:10318000F2D184F83F2016E094F840000128EBD1FA
:1031900084F840200FE094F841000128E4D184F83D
:1031A000412008E094F842000128DDD184F8422053
:1031B00001E084F843200122206801F02FFA194B26
:1031C00020681949194A984209D0884207D090428C
:1031D00005D0174DA84202D0164DA84203D1456C28
:1031E00045F400454564206898420CD0B0F1804F0A
:1031F00009D0114B984206D0104B984203D0884218
:1032000001D0904207D181680D4A1140062906D0AD
:10321000B1F5803F03D0016841F001010160002059
:1032200030BD0000002C014000340140004001404E
:1032300000440140004801400004004000080040F4
:103240000700010030B504460D460068002201F079
:10325000E5F9224B41F2111120688A0098420BD007
:103260001F4B984208D01F4B984205D01E4B9842E6
:1032700002D01E4B984209D1036A0B4206D1036A61
:10328000134203D1436C23F4004343642068036A70
:103290000B4206D1016A114203D1016821F00101FC
:1032A000016001205DB1042D0CD0082D0DD00C2D36
:1032B0000ED0102D0FD084F84300002030BD84F8CC
:1032C0003E00FAE784F83F00F7E784F84000F4E7AF
:1032D00084F84100F1E784F84200EEE7002C014059
:1032E00000340140004001400044014000480140DA
:1032F00090F88010012918D0012180F88010242135
:10330000C0F8841050F8641B0A680B6823F00103AE
:103310000B6022F000510022026050F8643C1960FA
:1033200020210162027710467047022070477047E3
:10333000704770B5044690F8800001281DD0012028
:1033400084F880002420C4F884002068056802689E
:1033500022F0010202602068826822F060620A4363
:103360008260204601F036FB206805602020C4F80A
:103370008400002084F8800070BD022070BD70B50C
:10338000044690F8800001281DD0012084F88000B8
:103390002420C4F8840020680568026822F0010235
:1033A00002602068826822F060420A438260204600
:1033B00001F010FB206805602020C4F88400002084
:1033C00084F8800070BD022070BD70477047704760
:1033D0002DE9F04103680446D86919689A6840F6F7
:1033E0000F0528424FF0000509D186067ED501F071
:1033F000200602F080573E4378D0216FFFE0924EC6
:10340000924F16400F40374370D0C70709D0CF0501
:1034100007D501271F62D4F88C3043F00103C4F8AC
:103420008C3083070AD5D30708D0276802233B6274
:10343000D4F88C3043F00403C4F88C3043070AD529
:10344000D30708D0276804233B62D4F88C3043F0BC
:103450000203C4F88C3003070CD501F0200333437A
:1034600008D0266808233362D4F88C3043F0080370
:10347000C4F88C3003050BD54B0109D526684FF4F1
:1034800000633362D4F88C3043F02003C4F88C30EE
:10349000D4F88C30002B34D0800609D501F0200000
:1034A00002F08051084303D0216F09B120468847BC
:1034B000D4F88C0021688968490602D410F0280FDE
:1034C00021D0204601F046FB20688168490615D5C9
:1034D000816821F040018160E06F78B15C498163CF
:1034E000E06FFEF7BDFC00280BD000E011E0E06FBC
:1034F000816B00E02046BDE8F04108472046FFF719
:1035000066FFBDE8F0812046FFF761FFC4F88C50EC
:10351000F7E7E76E2026012F5CD1C7065AD5CF0604
:1035200058D5102018622068816849062FD5E26FAF
:10353000116849680904090CE3D0B4F85C308B4287
:10354000DFD9A4F85E1011680968890618D40168EB
:1035500021F4807101602068816821F0010181609F
:103560002068816821F040018160C4F88860E566C8
:103570002068016821F010010160E06FFEF73BFC5C
:10358000B4F85C00B4F85E10401A81B21EE0B4F8E2
:103590005C10B4F85E20891AB4F85E2089B2002A63
:1035A000AFD00029ADD0026822F49072026020688A
:1035B0008268254BDB431A408260C4F88860E56668
:1035C00025672068026822F0100202602046FFF79B
:1035D000AEFE96E7C70209D5570207D54FF4801013
:1035E00018622046BDE8F041FFF7F0BE07060AD595
:1035F00001F0800702F40002174304D0616F002934
:103600007FF478AF7DE742060CD54A060AD51968E3
:10361000204621F040011960C4F88460656700F01D
:1036200039F96EE7020206D54A0004D52046BDE806
:10363000F041FFF7CABEC001CBD50029C9DA204648
:10364000BDE8F041FFF774BE010000102001000446
:10365000414B000810B5040003D0D4F8840010B129
:1036600007E0012010BD002084F88000204600F013
:1036700027F82420C4F884002068016821F00101A3
:103680000160204601F03EFC0128EBD0A06A10B199
:10369000204601F0C1F92068416821F49041416061
:1036A0002068816821F02A0181602068016841F06A
:1036B000010101602046BDE8104001F011BA000090
:1036C00010B598B00446142111A8FDF76DF94421F6
:1036D0006846FDF769F91B492068884230D101200E
:1036E0000024CDE900046846FEF7F4FD08B1FEF7BA
:1036F00080FB1548016E41F480410166016E01F4C2
:1037000080411691C16C41F00101C164C06C11A9E6
:1037100000F0010016904FF4C06011900220CDE936
:1037200012040720CDE914404FF09040FEF7E6FB6D
:10373000002211462520FEF735FD2520FEF724FD49
:1037400018B010BD003801400010024010B4D0F88D
:103750008830202B1BD1B9B1B2B190F88030012B49
:1037600015D0012380F880300023C366094C03681C
:10377000A34206D05C68240203D51C6844F0806430
:103780001C6010BC01F0F8BC012010BC7047022086
:10379000FBE700000080004030B40B4A0168914212
:1037A00010D10A4A0021116009490122094C4A71CD
:1037B0000A790B7BA354521C0A71012230BC0C31D4
:1037C000FFF7C4BF30BC70470038014024040040FC
:1037D000080000207B0100202DE9F8430446D0F8C2
:1037E00084001F4616460D46202851D1DDB1D6B1C2
:1037F00094F8800001284BD0012084F880004FF01D
:103800000008C4F88C802120C4F884001834FEF726
:1038100063FCA6878146E68754F8100C183CB0F587
:10382000805F03D004E00120BDE8F883206920B167
:103830002E46002584F8808010E00026FAE78021DB
:10384000204601F005FDB8B9C6B116F8010B216894
:103850008862B4F85600401EA4F85600B4F856002A
:103860004B464FF0000200970028E8D14FF040018E
:10387000204601F0EDFC30B10320D5E735F8020B0E
:10388000C0F30800E3E72020C4F884000020CBE761
:103890000220C9E77047FEE710B52DED048B00F05C
:1038A00091F8414C2072E17A20EA0102A27280EA8A
:1038B000010282436272012807D131B9A07880F0F9
:1038C0000100A070002000F0CBF8A07801284AD1B8
:1038D000207A9FED369B022802D0032817D042E0C1
:1038E000E07AE8BB94ED0E0B53EC192B51EC100B66
:1038F00002F052F8C4E90E0194ED100B53EC192BB1
:1039000051EC100B02F048F8C4E910013CE0E07AF9
:103910009FED288B20BB94ED0E0B53EC192B51EC33
:10392000100B02F007FC41EC100B53EC182B84ED4C
:103930000E0B02F083FA01D284ED0E8B94ED100B86
:1039400053EC192B51EC100B02F0F4FB41EC100B73
:1039500053EC182B84ED100B02F070FA03D200E048
:1039600012E084ED108B207A04280DD1E07A58B94A
:10397000E07890F00100E0700BD01049142008604E
:1039800000210F48FFF7E0FB207AE072BDEC048BCA
:1039900010BD00210A48FFF755FC002280214FF09E
:1039A0009040FEF794FBEFE70800002000000000C5
:1039B0000000E03F0000000000000000344801402B
:1039C000E803002070B50E4D002401212846FEF7C3
:1039D00079FB00B9012402212846FEF773FB00B9E8
:1039E000022404212846FEF76DFB00B903240121BF
:1039F0004FF09040FEF766FB00B90424204670BDEE
:103A00000004004800B585B014216846FCF7CCFFDF
:103A10004FF6FF70009000200321CDE902010190D4
:103A200069460248FEF76AFA05B000BD0008004882
:103A300000B585B014216846FCF7B6FF4FF6FF705D
:103A4000009001200190032003900020029069461D
:103A50000248FEF753FA05B000BD00000008004818
:103A60002DE9F0410A4E80463068002485B2214697
:103A7000204600F0B7F900F0F5F94FF496374046CC
:103A800000F0C4F9641CBC42F9D33560BDE8F08194
:103A90001408004870B586B014216846FCF784FF0E
:103AA0001E48C16C41F00401C164C16C01F0040105
:103AB0000591C16C41F00101C164C16C01F00101CB
:103AC0000591C16C41F00201C164C06C032500F096
:103AD000020005904FF448700124002603958DE8FC
:103AE000510069460E48FEF709FA200203958DE859
:103AF00051004FF0904469462046FEF7FFF9FFF76A
:103B000097FFA06940F48070A061054818300168F3
:103B100041F40871016006B070BD00000010024061
:103B20000004004830B5074D2B68203A9CB2D2B251
:103B3000054B02EB420203EB021200F027F82C6067
:103B400030BD000014080048166300082DE9F0435A
:103B5000DFF8348081460E46D8F80000002587B291
:103B600040F23F1407E021464846FFF7DBFF103CD8
:103B70006D1CA4B2761C32780AB1142DF3D3C8F8A8
:103B80000070BDE8F0830000140800482DE9F047FC
:103B900091468A460026044600F024F9DFF840806A
:103BA000012700BF00F05EF95FF0000539F816004C
:103BB00007FA05F10842404601D1408800E000883C
:103BC00000F024F96D1C102DF0D3641CE4B25146B2
:103BD000204600F007F9761C182EE3D3BDE8F087E5
:103BE0000000002070B50D4E306885B2FFF752FF1F
:103BF000002000F0AFF80A4CA080A088A0F5024198
:103C0000303907D000F072FB002000F0A3F8A0804C
:103C1000356070BD00F0E1FAF6E7000014080048D6
:103C20000000002010B5234CA07808B322A128483A
:103C3000FCF7D2FB26491820FFF788FF94ED0E0B06
:103C400024A153EC102B2248FCF7C6FB2049482046
:103C5000FFF77CFF94ED100B22A153EC102B1C48B6
:103C6000FCF7BAFB1A497820BDE81040FFF76EBF99
:103C700020A11748FCF7B0FB15491820FFF766FF95
:103C8000A27922A11248FCF7A7FB11494820FFF7AF
:103C90005DFFE27923A10E48FCF79EFB0C497820DA
:103CA000FFF754FF227825A10948FCF795FB084946
:103CB000A820D9E708000020202020202020205024
:103CC00061726120202020202020202000000000A0
:103CD00068000020202020434E42523A252E3266B2
:103CE00000000000202020564E42523A252E326617
:103CF000000000002020202020202044617461204A
:103D00002020202020202020000000002020204310
:103D10004E42523A2530316420202020202020209D
:103D200020202000202020564E42523A2530316477
:103D3000202020202020202020202000202020497A
:103D4000444C453A2530316420202020202020207A
:103D50002020200070B51D490A6842F400720A60F4
:103D60000A6842F480720A60184C103C226842F0E3
:103D700020022260164A1060086840F020000860A7
:103D800000BF00BF00BF206840F020002060206816
:103D900040F480702060FFF735FE4FF09041886A54
:103DA00040F48070886200BF00BF00BF0848001F59
:103DB000006885B2886940F480708861FFF738FE3A
:103DC000206840F400702060284670BD2804004838
:103DD0001408004801B5BDF800000149488008BD3D
:103DE0000000002010B50C460146202000F068F8C5
:103DF0002146BDE81040212000F062B801B5BDF8B1
:103E000000000149088008BD00000020134A116825
:103E100041F400711160114910390B6843F480734B
:103E20000B600B6843F020030B600D4B18601068AB
:103E300040F02000106000BF00BF00BF086840F0E5
:103E400020000860086840F48070086000BF00BF70
:103E500000BF086840F400700860704728040048FC
:103E6000140800481449086840F4007008600868A5
:103E700040F48070086010481038026842F0200258
:103E800002600E4B22221A600A6842F020020A6089
:103E900000BF00BF00BF016841F020010160016860
:103EA00041F48071016000BF00BF00BF016841F4B0
:103EB00000710160704700002804004814080048A1
:103EC000184B10B51A6842F400721A601A6842F46E
:103ED00080721A60134A103A146844F02004146087
:103EE000114C2060186840F02000186000BF00BF2F
:103EF00000BF106840F020001060106840F480702F
:103F000010602160186840F02000186000BF00BFFA
:103F100000BF106840F020001060106840F480700E
:103F2000106010BD280400481408004810B5094C62
:103F3000207808B1012100E00021012000F00CF8F8
:103F4000E07828B10121BDE81040022000F004B85B
:103F50000021F8E70800002010B50A000B4B0C4CBC
:103F60004FEA002101D0002200E001221846FEF7AE
:103F7000AEF8012204212046FEF7A9F820460022CF
:103F8000BDE810400421FEF7A2B800000008004878
:103F9000000C0048F0B587B014216846FCF704FD1A
:103FA0002D48C16C41F00401C164C16C01F00401F1
:103FB0000591C16C41F02001C164C16C01F0200188
:103FC0000591C16C41F00101C164C16C01F00101B6
:103FD0000591C16C41F00201C164C16C01F00201A4
:103FE0000591C16C41F00801C164C06C1B4E00F02A
:103FF00008004FF47F440590012221463046FEF729
:1040000066F8174F002204213846FEF760F80125B4
:10401000CDE9004500240294694630460394FDF73B
:104020006DFFCDE9005469464FF090400295FDF7D1
:1040300065FF07208DE8310069460A48FDF75EFFFD
:1040400004200090CDE90154694638460394FDF7F9
:1040500055FF07B0F0BD0000001002400008004806
:10406000000C00480004004810B594B01C210DA8B5
:10407000FCF79AFC34216846FCF796FC1F481E4961
:104080000024016040F28F11C0E901146321C0E9EE
:10409000031444618461FEF769FE08B1FDF7A9FECF
:1040A0001648FFF71EF808B1FDF7A3FE6020CDE922
:1040B0000D040F9410941194129400220DA90F482E
:1040C0001394FEF77FFF08B1FDF793FE00944FF4C1
:1040D0000050CDE90440019402940394069469468B
:1040E00006480C94FEF79EFD08B1FDF782FE0348DA
:1040F000FEF740FF14B010BD00480140E803002067
:1041000010B588B0002418480094019402940394D8
:104110000494059413490694016041F63F71C0E987
:1041200001144FF6FF71C0E903148461FEF71EFE0F
:1041300008B1FDF75EFE4FF48050009069460A48D2
:10414000FEF79CFE08B1FDF754FE049404A906484E
:104150000694FEF7BDFD002801D0FDF74AFE08B029
:1041600010BD0000000400409C030020184810B55A
:10417000164901604FF416514160002181600C2204
:10418000C160C0E904128161C16101624162816262
:10419000FFF760FA08B1FDF72CFE00210C48FFF78D
:1041A000EEF808B1FDF725FE00210948FFF7C1F838
:1041B00008B1FDF71EFE0648FFF79AF8002803D065
:1041C000BDE81040FDF715BE10BD000000380140ED
:1041D00034040020FEE7FEE7704730B501210020DF
:1041E000FFF76EFE4FF47A70FDF7F5FD0021012018
:1041F000FFF766FE41F290711020FFF761FE4FF469
:104200001C516020FFF75CFE01216120FFF758FE82
:1042100002214620FFF754FE48F210011320FFF759
:104220004FFE48F2FE011220FFF74AFE4FF4A06154
:104230000220FFF745FE41F230010320FFF740FE68
:1042400040F2033421463020FFF73AFE2146312068
:10425000FFF736FE21463220FFF732FEE51E2946E3
:104260003320FFF72DFE03213420FFF729FE2146DE
:104270003520FFF725FE14213620FFF721FE2146C9
:104280003720FFF71DFE21463820FFF719FE214693
:104290003920FFF715FE29463A20FFF711FE0321CA
:1042A0003B20FFF70DFE21463C20FFF709FE4FF4AF
:1042B000A0513D20FFF704FE4FF400719220FFF75C
:1042C000FFFD21469320FFF7FBFD40F60D019020F6
:1042D000FFF7F6FD41F218010320FFF7F1FDBDE8FD
:1042E000304040F273110720FFF7EABD10B543F2EA
:1042F0000801E320FFF7E4FD1221E720FFF7E0FDCE
:1043000041F23121EF20FFF7DBFD00210120FFF713
:10431000D7FD4FF4E0610220FFF7D2FD41F23001FA
:104320000320FFF7CDFD00210420FFF7C9FD40F277
:1043300007210820FFF7C4FD00210920FFF7C0FD79
:1043400000210A20FFF7BCFD00210C20FFF7B8FD7B
:1043500000210D20FFF7B4FD00210F20FFF7B0FD75
:1043600000211020FFF7ACFD07211120FFF7A8FD69
:1043700000211220FFF7A4FD00211320FFF7A0FD6C
:10438000C820FDF7A9FD41F290611020FFF798FDCC
:1043900040F227211120FFF793FD3220FDF79CFD0D
:1043A0001D211220FFF78CFD3220FDF795FD4FF403
:1043B00000611320FFF784FD14212920FFF780FD01
:1043C0000B212B20FFF77CFD3220FDF785FD00211E
:1043D0002020FFF775FD00212120FFF771FD072147
:1043E0003020FFF76DFD40F207713120FFF768FDC7
:1043F00006213220FFF764FD40F204713520FFF7FB
:104400005FFD41F604713620FFF75AFD0421372085
:10441000FFF756FD00213820FFF752FD40F20671EC
:104420003920FFF74DFD40F201713C20FFF748FDB8
:104430000F213D20FFF744FD00215020FFF740FDF4
:10444000EF215120FFF73CFD00215220FFF738FDFE
:1044500040F23F115320FFF733FD4FF41C51602011
:10446000FFF72EFD01216120FFF72AFD00216A20C0
:10447000FFF726FD00218020FFF722FD002181208B
:10448000FFF71EFD00218220FFF71AFD0021832087
:10449000FFF716FD00218420FFF712FD0021852083
:1044A000FFF70EFD10219020FFF70AFD002192205A
:1044B000FFF706FD03219320FFF702FD4FF48871FB
:1044C0009520FFF7FDFC00219720FFF7F9FC002164
:1044D0009820FFF7F5FC41F218010320FFF7F0FCEC
:1044E000BDE8104040F273110720FFF7E9BC7047A8
:1044F000FDF7F8BD10B594B038216846FCF754FAC2
:1045000014210EA8FCF750FA4FF40070FDF77CFE62
:10451000012000900004019002200324CDE907044B
:104520001421CDE90A100C900D9009946846FEF70D
:104530005FF908B172B6FEE70F20CDE90E04002046
:1045400010901190129002210EA8FEF707F8002893
:1045500001D072B6FEE714B010BD00000248016839
:1045600041F470010160704788ED00E02DE9F043EF
:104570000268234B234D244E244C4FF0804998422F
:1045800007D0484505D0A84203D0B04201D0A04290
:1045900003D122F070074A683A431D4FDFF874C018
:1045A000DFF8748098420DD048450BD0A84209D05E
:1045B000B04207D0A04205D0B84203D0604501D038
:1045C000404503D122F44075CA682A434D6922F060
:1045D00080022A4302608A68C2620A688262984244
:1045E00007D0A04205D0B84203D0604501D0404575
:1045F00001D10969016301214161BDE8F083000037
:10460000002C01400004004000080040003401403C
:1046100000400140004401400048014010B501F055
:104620001F030121046A99408C430462016A9A4085
:104630001143016210BD10B5846842EA032224F4DC
:104640007F440A432243826010BD00008268034B0E
:104650001A400A4342F00701816070478FFFCFFF85
:104660002DE9F043026A22F001020262056A436802
:1046700082691C4C25F0020522400C6822F00302DE
:1046800014438A68194E2A43174D194FDFF864C046
:10469000DFF86490A84207D0B04205D0B84203D0FA
:1046A000604501D0484506D122F00808CA6842EAB0
:1046B000080222F00402A84207D0B04205D0B84256
:1046C00003D0604501D0484505D14D6923F44073BE
:1046D0001D438B692B4343608461496841630262D7
:1046E000BDE8F0838FFFFEFF002C01400034014045
:1046F000004001400044014000480140F0B5026A1A
:1047000022F010020262056A42688369194C1B4E4E
:1047100023400C6823F4407343EA042425F020036B
:104720008D6843EA0513144DA84201D0B04206D16A
:10473000CF6823F0800343EA071323F04003A84225
:104740000AD0B04208D00E4DA84205D00D4DA84267
:1047500002D00D4DA84207D14D6922F4406242EAD1
:1047600085028D6942EA85024260846149688163FD
:104770000362F0BDFF8FFFFE002C014000340140BA
:10478000004001400044014000480140F0B5026A89
:1047900022F480720262056A4368C269194C1B4E9A
:1047A00022400C6822F00302144325F400728D6845
:1047B00042EA0522144DA84201D0B04206D1CF688A
:1047C00022F4006242EA072222F48062A8420AD060
:1047D000B04208D00E4DA84205D00E4DA84202D0DE
:1047E0000D4DA84207D14D6923F4405343EA051308
:1047F0008D6943EA05134360C4614968C16302627D
:10480000F0BD00008FFFFEFF002C0140003401408E
:10481000004001400044014000480140F0B5026AF8
:1048200022F480520262056A4268C369194C1B4E29
:1048300023400C6823F4407343EA042425F4005316
:104840008D6843EA0533144DA84201D0B04206D129
:10485000CF6823F4004343EA073323F48043A8429C
:104860000AD0B04208D00E4DA84205D00D4DA84246
:1048700002D00D4DA84207D14D6922F4404242EAD0
:1048800085128D6942EA85124260C46149680164FB
:104890000362F0BDFF8FFFFE002C01400034014099
:1048A00000400140004401400048014030B5026A28
:1048B00022F480320262046A4268036D114D2B407B
:1048C0000D681D4324F400330C8943EA04430E4C65
:1048D000A0420BD00D4CA04208D00D4CA04205D0F8
:1048E0000C4CA04202D00C4CA04204D14C6922F4E2
:1048F000803242EA042242600565496881640362AD
:1049000030BD00008FFFFEFF002C0140003401404D
:1049100000400140004401400048014030B5026AB7
:1049200022F480120262046A4268036D114D24F47D
:1049300000142B400D6843EA05230D8944EA055411
:104940000D4DA8420BD00D4DA84208D00C4DA842E9
:1049500005D00C4DA84202D00B4DA84204D14D69A0
:1049600022F4802242EA8522426003654968C164DC
:10497000046230BDFF8FFFFE002C01400034014077
:1049800000400140004401400048014010B5036A66
:10499000046A24F001040462846924F0F00444EA07
:1049A000021423F00A020A438461026210BD10B5AA
:1049B000036A23F0100303628369046A23F47043DB
:1049C00043EA023224F0A00343EA0111826101624A
:1049D00010BD000030B5416EB9B1026891689268AF
:1049E000C1F342610B4B520F9C5CE50003F10804DC
:1049F000A25CB5FBF2F2A0F86A205A5C615CD200BE
:104A0000B2FBF1F1A0F8681030BD0121A0F86A10E6
:104A1000F8E700003075000890F82810C90706D0A4
:104A200001684A68C36A22F400321A434A6090F867
:104A30002810890706D501684A68036B22F4803282
:104A40001A434A6090F82810490706D501684A6859
:104A5000436B22F480221A434A6090F82810090719
:104A600006D501684A68836B22F400421A434A6003
:104A700090F82810C90606D501688A68C36B22F42D
:104A800080521A438A6090F82810890606D501687A
:104A90008A68036C22F400521A438A6090F8281046
:104AA000490611D501684A68436C22F480121A4302
:104AB0004A60416CB1F5801F06D101684A68836C79
:104AC00022F4C0021A434A6090F82810090606D55D
:104AD00001684A68C06C22F4002202434A607047B1
:104AE000F8B500260446C0F88C60FDF7F5FA0546D7
:104AF000206800686FF07E47000708D52B4600222B
:104B00004FF400112046009700F0A2FB60B9206826
:104B1000006840070AD52B4600224FF4800120464A
:104B2000009700F095FB08B10320F8BD2020C4F8E1
:104B30008400C4F8880044F86C6F00202675F8BD26
:104B400010B5806A0021A0F85E10A0F85610FEF79C
:104B50003EFC10BD01680A6822F490720A60016888
:104B60008A68094B1A408A60C16E012904D1016824
:104B70000A6822F010020A602021C0F88810002183
:104B8000C166016770470000FEFFFFEF70B5B0F827
:104B90006010D0F8882004460068222A04D0816979
:104BA00041F00801816170BD406AA26D084010802B
:104BB000A06D801CA065B4F85E00401EA4F85E00E5
:104BC000B4F85E000028EED12068016821F49071ED
:104BD00001602068816821F0010181602020C4F813
:104BE000880000252567E06E012804D02046FEF7E6
:104BF000D3FDE56670BD2068016821F010010160F9
:104C0000B4F85C102046FEF792FBF2E72DE9F0477E
:104C10000446B0F860600068C569D0F800A0D0F81C
:104C20000880D4F88810222905D0816941F0080154
:104C30008161BDE8F087B4F868704FF000095BE06F
:104C40002068406AA16D30400880A06D801CA0657E
:104C5000B4F85E00401EA4F85E002068C5696907CC
:104C600030D0E9070AD05FEACA5107D501210162B5
:104C7000D4F88C0040F00100C4F88C00A8070BD5D4
:104C80005FEAC87008D0216802200862D4F88C005E
:104C900040F00400C4F88C0068070BD55FEAC870C8
:104CA00008D0216804200862D4F88C0040F002008B
:104CB000C4F88C00D4F88C0020B12046FEF787FBA6
:104CC000C4F88C90B4F85E00B0B92068016821F493
:104CD0008071016020688168194A1140816020203C
:104CE000C4F88800C4F87090E06E01281CD02046FB
:104CF000FEF752FDC4F86C900FB1A806A0D4B4F82A
:104D00005E00002895D0B4F86810814291D92068DF
:104D1000816821F0805181600A482067206801681D
:104D200041F02001016084E72068016821F0100152
:104D30000160B4F85C102046FEF7F9FADAE70000EB
:104D4000FEFFFFEF8D4B000870B5B0F86010D0F893
:104D5000882004460068222A04D0816941F00801B5
:104D6000816170BD406A0840A16D0870A06D401C53
:104D7000A065B4F85E00401EA4F85E00B4F85E00C2
:104D80000028EED12068016821F49071016020684C
:104D9000816821F0010181602020C4F8880000258D
:104DA0002567E06E012804D02046FEF7F5FCE56695
:104DB00070BD2068016821F010010160B4F85C103A
:104DC0002046FEF7B4FAF2E72DE9F0470446B0F8C2
:104DD00060600068C569D0F800A0D0F80880D4F8F9
:104DE0008810222905D0816941F008018161BDE860
:104DF000F087B4F868704FF000095BE02068406A03
:104E0000A16D30400870A06D401CA065B4F85E0034
:104E1000401EA4F85E002068C569690730D0E90724
:104E20000AD05FEACA5107D501210162D4F88C008B
:104E300040F00100C4F88C00A8070BD55FEAC870E9
:104E400008D0216802200862D4F88C0040F00400E9
:104E5000C4F88C0068070BD55FEAC87008D02168D9
:104E600004200862D4F88C0040F00200C4F88C00E2
:104E7000D4F88C0020B12046FEF7A9FAC4F88C9033
:104E8000B4F85E00B0B92068016821F48071016057
:104E900020688168194A114081602020C4F8880088
:104EA000C4F87090E06E01281CD02046FEF774FC18
:104EB000C4F86C900FB1A806A0D4B4F85E00002826
:104EC00095D0B4F86810814291D92068816821F0AA
:104ED000805181600A4820672068016841F0200104
:104EE000016084E72068016821F010010160B4F8D6
:104EF0005C102046FEF71BFADAE70000FEFFFFEF2A
:104F0000494D00082DE9F041044601688068226996
:104F1000E3691043626900251A431043DFF82CC28D
:104F20000A688B4B1A4002430A6020684168E268B5
:104F300021F44051114341602168A069614501D0CD
:104F4000226A10438A68834B1A4002438A602068B1
:104F5000C16A626A21F00F011143C1627E49236870
:104F60007E488B420DD1D0F8880010F0030006D0A7
:104F7000012855D0022842D003283FD152E0012019
:104F80003DE077498B420BD1D0F8880010F00C003F
:104F900035D0042833D0082840D00C282ED141E049
:104FA00070498B420BD1D0F8880010F0300026D029
:104FB000102835D0202831D030281FD132E06A495E
:104FC0008B420BD1D0F8880010F0C00017D04028D9
:104FD00026D0802822D0C02810D123E063450DD1EF
:104FE000D0F8880010F4406009D0B0F5806F17D079
:104FF000B0F5006F12D0B0F5406F13D010205B4AAF
:105000005B4F00264FF40041634539D160B102285F
:105010000DD004280DD0082831D10EE00220EEE793
:105020000420ECE70820EAE7FDF786FB03E01146E1
:1050300003E0FDF7A5FB01007DD0606A37F8102082
:105040006768B1FBF2F007EB470383426CD8B0EB23
:10505000073F69D8002308461946FBF745F90902BE
:1050600041EA106102027808101871413A460023A3
:10507000FBF73AF93F4AA0F54071914259D953E004
:10508000E3694FF6EF788B422DD109284CD2DFE847
:1050900000F005080D4B274B4B4B0E00FDF74CFB6A
:1050A00001E0FDF75BFB010001D144E01146606ABD
:1050B00037F81000B1FBF0F04100606801EB5001DF
:1050C000B1FBF0F080B2A0F1100141452CD84FF6B1
:1050D000F0710140C0F3420001432068C1602AE042
:1050E000FDF74EFBDFE709281ED2DFE800F00508D8
:1050F0000D1D1F1D1D1D0E00FDF71EFB01E0FDF720
:105100002DFB010001D116E01146606A37F810004E
:10511000B1FBF0F1606801EB5001B1FBF0F080B23F
:10512000A0F11001414504D9012504E0FDF728FB59
:10513000E7E72168C8600120A4F86A0024F8680F36
:105140002846A660E660BDE8F081000000800040CF
:10515000F369FFCFFFF4FF11003801400010024057
:105160000044004000480040004C00400024F4008F
:1051700018750008FFFC0F0070B58165A0F85C2071
:10518000A0F85E200021016783684FF48056FF2459
:10519000B34204D10369D3B940F2FF131DE07F2568
:1051A0009BB1B3F1805F15D0A0F86010C0F88C10EF
:1051B0002223C0F8883003689C6844F001049C6096
:1051C000436EB3F1005F0ED027E0036943B9A0F846
:1051D0006040EBE703691BB13F23A0F86030E5E7CF
:1051E000A0F86050E2E7B0F86830934215D88268C2
:1051F000B24201D1026972B1114A026780F880108F
:1052000001680A6842F480720A600068816841F0AF
:10521000805181600FE00B4AEFE78268B24201D112
:10522000026952B1084A026780F88010006801687C
:1052300041F490710160002070BD044AF3E7000062
:10524000C94D00080D4C0008494D00088D4B000861
:105250002DE9F0479A4617460E4604464FF00009DE
:105260004FF02008089D39E0681C37D0FCF734FF68
:10527000A0EB0A00A84222D80DB3206801684907B4
:105280002CD5C069C043000528D421684FF40060C4
:1052900008622068016821F4D0710160206881688B
:1052A00021F001018160C4F88480C4F88880C4F8CA
:1052B0008C8000BF84F880900320BDE8F0872068D0
:1052C000016821F4D07101602068816821F001013A
:1052D0008160C4F88480C4F88880EBE72068C069E6
:1052E00036EA000004D00020B842BDD00020E4E738
:1052F0000120F9E70148FEF76BB8000034040020F4
:10530000F0B5964C89B06079002877D09448006851
:105310000F2873D92179934800F068FA00286ED0DD
:1053200004F124031A1F111F02AD081F85E80F00A6
:10533000011F0838CDE900010D330C328AA18948DC
:10534000FBF786F92069632859DC60690C2856DC74
:105350008C4901EB8000A16950F8040C88424EDBB7
:10536000E06917284BDC206A3B2848DC606A3B2850
:1053700045DCA079E179421804F13101481F00F0C1
:105380005DFA0546804F401C3AD0A81C79D004F144
:10539000180004AE0FC886E80F0005EBC50207EB46
:1053A0008206D4E90423D6E907018DE80F0006F14F
:1053B0000C000FC800F0ECF9411C62D000F027FD92
:1053C0009FED721B53EC112B00F09AFB41EC100B7C
:1053D00000F022F951EC100B00F0EAFCA0626DA184
:1053E00004F12C00FBF708FB002857D06BA104F157
:1053F0002C00FBF701FB002862D072E0ABE040E03C
:10540000607808287ED2554862A12C30FBF7F4FA68
:1054100030B1524861A12C30FBF7EEFA20B109E01F
:10542000A079401CA07102E0E079401CE071207876
:10543000401E20706078494900EBC00007EB8000F7
:105440002C31FBF739FA6078444900EBC00007EBD8
:1054500080003131401DFBF72FFA6178226901EBA2
:10546000C10007EB8000491CC26062690261A26949
:105470004261E2698261226AC261626A02626170AB
:1054800059E0384847A1FF38FAF7A6FF35493223DB
:10549000FF22FF394548FEF79FF94CE0A06A00F073
:1054A000B6FC94ED0E1B53EC112B00F003FDC4E988
:1054B00012012078401C2070A079401EA07110E0DD
:1054C000A06A00F0A4FC94ED101B53EC112B00F02B
:1054D000F1FCC4E912012078401C2070E079401EE4
:1054E000E07194ED120B731D8DED020BA06A00901C
:1054F0001C4832462EA1FF38FAF76EFF3223FF22F6
:10550000184900E015E0FF392848FEF765F909E081
:1055100005EBC50007EB800000F124012422FBF716
:10552000EFF96D1C60788542F2DBC0B2401E6070FE
:1055300001E0AD1CA5D000256571FF210948FBF7EE
:1055400011FA257109B00549BDE8F04001220C317E
:105550001648FEF7FBB809B0F0BD000008000020B7
:10556000240400407B0100202534733A2534733A2B
:10557000253264253264253264253264253264255F
:1055800032640000E87400087C0200200000000083
:105590000020AC40434E425200000000564E4252A2
:1055A000000000004572726F720D0A003404002082
:1055B0002534733A2534733A25643A252E32660D24
:1055C0000A000000FEE703B401984100009850EA89
:1055D000C12018BF04204A0D18BF40F0010040F25E
:1055E000FF72B2EB515F08BF40F00200012808BF14
:1055F000052002B070470907090E002804DB00F1FE
:10560000E02080F80014704700F00F0000F1E02067
:1056100080F8141D704700002DE9F0412DED020BBC
:105620009FED3D0B2DED028B9FED3D8BDDE902548F
:10563000C4F30A50A0F2FF36142E37DA002E18DA1F
:1056400053EC102B9DED020B51EC100B00F0A4F964
:1056500053EC182B00F02CFD57D2002CBCBF4FF0A0
:105660000044002551DB54EA050018BF2E4C1BD125
:105670004BE02E4820FA06F704EA070028431FD023
:1056800053EC102B9DED020B51EC100B00F084F944
:1056900053EC182B00F00CFD37D2002C03DD4FF437
:1056A0008010F0400444BC4300252EE0332E07DC7C
:1056B000A6F114004FF0FF3121FA00F73D4206D168
:1056C0009DED020BBDEC028B02B0BDE8F08153EC06
:1056D000102B9DED020B51EC100B00F01FFD53EC55
:1056E000182B00F0E5FC10D2002C0DDD142E08BFA5
:1056F000641C09D0C6F13400012101FA00F02844ED
:10570000A84238BF641C0546BD43CDE902549DED57
:10571000020BD7E7000000009C7500883CE4377E50
:1057200000000000000000000000F03FFFFF0F003D
:1057300030380A2801D2012070470020704700004D
:10574000F0B50E4605461346012400F5FA6706E05B
:10575000204600F0A5F8034403F26D13641CBC421C
:10576000F6DB0124094F0CE007EB8400022C50F813
:10577000040C034404D1284600F092F800B15B1CED
:10578000641CB442F0DB1846F0BD0000E874000869
:105790002DE9F04F1C46DDE90DA6DDE90B8BDDF8A8
:1057A0002490109DFFF7CCFF0746524659464046CD
:1057B000FFF7C6FFC11B4FF0FF3015D4341B13D4C5
:1057C0000F9AB2EB09020FD40A9BEB1A0CD44FF4D8
:1057D00061604443C2EB021004EB800040F2A3225C
:1057E0001844514300EBC110BDE8F08F162921D1B8
:1057F0000178432901D056291CD141784E2919D16D
:105800008178422916D1C178522913D101793A29D8
:1058100010D1417A3A290DD1074A0A21127905E0BF
:10582000435C303B0A2B05D2491CC9B29142F7D3E5
:105830000120704700207047080000202DE9F04744
:1058400017468A4681464FF0FF360025DFF84C8028
:105850001EE000BF05EBC50108EB81000446494688
:10586000FBF7CAF820B9601D5146FBF7C5F828B10F
:10587000601D5146FBF7C0F810B108E02E4606E067
:1058800020464946FBF7B8F808B16FF001066D1CD9
:10589000BD42DFDB3046BDE8F08700007C0200201F
:1058A000810705D1642190FBF1F201FB120141B99E
:1058B0004FF4C87190FBF1F201FB120008B1002017
:1058C0007047012070470000FCF714FCFEF712FE41
:1058D000FEF760FBFEF7C8FBFEF748FCFEF710FC86
:1058E000FEF780F90020FEF7BBF80020FEF772FA01
:1058F0004FF6FF70FEF782FA0D491420086000226F
:1059000080214FF09040FCF7E2FB0A48FDF780FA57
:10591000012209490948FDF719FF00BFFEF782F986
:10592000FDF7BAFFFFF7ECFCFEF700FBF6E700001F
:10593000344801409C03002014000020340400205F
:1059400010B500290AD00878002807D00548784407
:10595000FBF752F8002801D0002010BD024878441F
:1059600010BD0000D21C0000CA1C000010B50029A8
:105970000AD00878002807D005487844FBF73CF89F
:10598000002801D0002010BD0248784410BD00005E
:10599000C21C0000BA1C000010B591EA030F48BFFA
:1059A00083F0004300F1CE83841A71EB030C05D21F
:1059B000121943EB0C03001B61EB0C01DFF824E12F
:1059C0004FEA1154A4EB135C1EEA430F18BF9EEA82
:1059D000445F73D023EA0E03DCF1200E21EA045168
:1059E00043F4801332D322FA0CFE10EB0E0023FA9C
:1059F0000CFE41EB0E01CCF1200E03FA0EFE10EB73
:105A00000E0051F10001B1F5801FCCF1200E32D211
:105A100001EB045112FA0EF2BDE8104058BF704776
:105A2000401C38BF5FEA420218BF7047002814BF0D
:105A300020F0010041F100014FEA410313F5001F7E
:105A400038BF7047A1F1C04100F02CBB012A43EBE5
:105A50000302ACF1200CDCF11F0E32BF4FF0000E40
:105A600023FA0CF310EB030041EB0451B4EB115F8C
:105A7000D0D0A1EB045101F5801149085FEA300054
:105A800001EB04510ED350F1000038BF12FA0EFEA4
:105A900008D1BDE81040C9E7401C38BF5FEA4202A8
:105AA000CAD1C3E7BDE810404FEA410313F5001F18
:105AB00038BF7047A1F1C04100F0F4BA9EEA445FDC
:105AC00008D011EA5E0FBDE8104004BF01F00041AC
:105AD00000207047BDE8104070B500F095FA00BF97
