:020000040800F2
:10000000E007002089020008BF2C00085F1B0008E1
:10001000BD2C0008070600081B3600080000000081
:10002000000000000000000000000000793000081F
:100030000906000800000000C12C00087B30000801
:10004000A3020008A3020008A3020008A3020008FC
:10005000A3020008A3020008A3020008A3020008EC
:10006000A3020008A3020008A3020008A3020008DC
:10007000A3020008A3020008A3020008A3020008CC
:10008000A302000800000000A3020008A302000869
:10009000A3020008A3020008A3020008A3020008AC
:1000A000A3020008A3020008A3020008A30200089C
:1000B000F5300008A302000801310008A30200087F
:1000C000A3020008A3020008A3020008A30200087C
:1000D000A3020008A3020008A3020008A30200086C
:1000E000A3020008A3020008A3020008A30200085C
:1000F000A3020008A3020008A302000800000000F9
:1001000000000000A302000800000000A302000895
:10011000A302000800000000A3020008A3020008D8
:10012000A3020008A3020008A3020008A30200081B
:10013000A30200080000000000000000A302000865
:10014000A3020008A3020008000000000000000055
:10015000000000000000000000000000000000009F
:10016000000000000000000000000000A3020008E2
:10017000A3020008000000000000000000000000D2
:1001800000000000A30200080000000000000000C2
:10019000000000000000000000000000000000005F
:1001A0000000000000000000A3020008A3020008F5
:1001B000A3020008A3020008A30200080000000038
:1001C00000000000A3020008000000000000000082
:1001D000A3020008A302000800F002F800F044F8AF
:1001E0000AA090E8000C82448344AAF10107DA4592
:1001F00001D100F039F8AFF2090EBAE80F0013F0A0
:10020000010F18BFFB1A43F0010318479C4600007A
:10021000BC460000103A24BF78C878C1FAD852070B
:1002200024BF30C830C144BF04680C607047000070
:100230000023002400250026103A28BF78C1FBD8EF
:10024000520728BF30C148BF0B607047642900F0D7
:10025000AD80732900F09981002070471FB503F02D
:100260001DFA1FBD10B510BD00F093F91146FFF740
:10027000F5FF03F0E9F900F0B1F903B4FFF7F2FF7D
:1002800003BC00F0B9F9000009488047094800475D
:10029000FEE7FEE7FEE7FEE7FEE7FEE7FEE7FEE736
:1002A000FEE7FEE704480549054A064B7047000093
:1002B000E5300008D9010008E0010020E007002037
:1002C000E0030020E00300200FB41CB5074B06AA92
:1002D0007B4469460090059800F02DF9002069469E
:1002E00000F03CF91CBC5DF814FB00008902000022
:1002F0002DE9F0410E460446002020622046E168C8
:10030000884730B3252805D0D4E901219047206AD9
:10031000401CF2E7E168204600278847050018D016
:10032000A5F14100192802D820354FF40067324664
:10033000294620462760FFF789FF40B1012804D0F5
:10034000F61D26F007060836D8E7361DD6E72846FC
:10035000DAE7206ABDE8F08170B50C460546012A4F
:1003600005D02878800600D5EA69002302E0012341
:1003700005E05B1C934202D2E05C0028F9D1A86939
:10038000E618C01AA861286A184428622846AFF304
:10039000008004E0D5E9012114F8010B9047B44234
:1003A000F8D32846AFF3008070BD00002DE9F0417E
:1003B0000646002410687529314616A510D0AFF303
:1003C0000080002802DA404213A507E031688A075E
:1003D00001D512A502E0490704D511A5012401E0C9
:1003E000AFF3008000210A2206F1240709E0B0FBE8
:1003F000F2FCB0FBF2F302FB1C00303078541846DC
:10040000491C0028F3D123462A463046BDE8F04176
:1004100000F032B8000000002D0000002B000000AA
:10042000200000004FF0000200B5134694469646A7
:10043000203922BFA0E80C50A0E80C50B1F12001F7
:10044000BFF4F7AF090728BFA0E80C5048BF0CC0A5
:100450005DF804EB890028BF40F8042B08BF704703
:1004600048BF20F8022B11F0804F18BF00F8012B75
:1004700070477047704770472DE9F0470D46994621
:100480009246044600F124080168880604D5E06914
:1004900021F01001216000E00120A84201DD471B8E
:1004A00000E00027A1697A1902EB0900081AA0618F
:1004B0002078C00602D42046AFF30080002608E072
:1004C000D4E901211AF806009047206A401C761CE6
:1004D00020624E45F4DB2078C0060AD52046AFF3F3
:1004E000008006E0D4E9012130209047206A401CBA
:1004F0002062381EA7F10107F4DC07E0D4E90121EE
:1005000018F805009047206A401C2062281EA5F1BB
:100510000105F3DC2046AFF300802078000602D509
:100520000220BDE8F0870120FBE7000001694A1CBA
:1005300002610878704700B58FB0CDE90131002124
:10054000059105497944CDE9031011466846FFF746
:10055000CFFE0FB000BD0000E5FFFFFF0A6802F804
:10056000010B0A60704710B5436913B1AFF3008007
:1005700001E0FFF7F1FE012010BD127800F1240127
:100580000A7000224A700122EDE711684FF0FF3235
:10059000E9E7754600F02CF8AE460500694653467B
:1005A00020F00700854618B020B5FFF77BFEBDE8B8
:1005B00020404FF000064FF000074FF000084FF0CA
:1005C000000B21F00701AC46ACE8C009ACE8C0095B
:1005D000ACE8C009ACE8C0098D46704710B50446C8
:1005E000AFF300802046BDE81040FFF746BE000094
:1005F000004870478001002001491820ABBEFEE78B
:10060000260002007047FEE77047002240F6B8332C
:1006100006E00021491C89B29942FBD3521C92B2D8
:100620008242F6D3704770B50D46044601F02CFBAC
:10063000A02001F0EAFA01F05DFB204601F0E5FAA6
:1006400001F058FB01F03BFB01F01EFBA12001F083
:10065000DCFA01F04FFB01F099FA2870012401F057
:10066000BCFA01F093FA2855641C032CF7DB01F067
:10067000F3FABDE8704001F022BB70B50D460446A8
:1006800001F002FBA02001F0C0FA01F033FB20468C
:1006900001F0BBFA01F02EFB284601F0B6FA01F09A
:1006A00029FB01F00CFBBDE87040142000F002B8FB
:1006B00072B6FEE770B5044600F0FCF80546601C13
:1006C00002D004484068044400F0F4F8401BA04203
:1006D000FAD370BD2C0000202DE9FC4FDFF8A0A15B
:1006E000002301250AF1040B03244FF00F0C0BF13A
:1006F000040EBDE005FA03F632406FD04F68012FBB
:1007000005D0022F03D0112F01D0122F17D1D0F80E
:1007100008905F0004FA07F829EA08090097D1F861
:100720000C8008FA07F848EA0908C0F8088047680A
:10073000B7430E79C6F300169E403E434660C66836
:100740004FEA430804FA08F7BE4301978F6807FA97
:1007500008F73743C7604E68022E01D0122E13D11E
:10076000DE0800EB86060096366A5F07FF0E0CFA7D
:1007700007F926EA0906D1F8109009FA07F949EABB
:100780000609009EC6F820900668019FBE430F79B7
:1007900007F0030707FA08F7374307604E68F600CB
:1007A00065D5384E376E47F001073766366E23F051
:1007B000030706F001060096334E3E44B146B66884
:1007C0009F074FEA17780CFA08F7BE43B0F1904F35
:1007D00005D02E4FB84204D1012717E047E000278B
:1007E00014E02B4FB84201D102270FE0294FB84245
:1007F00001D103270AE0284FB84201D1042705E0C0
:10080000264FB84201D1052700E0062707FA08F76E
:100810003743C9F80870DAF800605746D1F8048009
:1008200096435FEAC83800D516433E60DBF80060A7
:100830005F46D1F8048096435FEA883800D51643B6
:100840003E60DEF800607746D1F8048096435FEAA8
:10085000C82800D516433E60094F0C373E68D1F8D2
:10086000048096435FEA882800D516433E605B1CEF
:100870000A6832FA03F67FF43DAFBDE8FC8F000052
:100880000004014000100240000001400004004844
:1008900000080048000C0048001000480014004800
:1008A0000069084000D0012070470AB1816170479B
:1008B0008162704701488068704700002C0000206A
:1008C0000248816842681144816070472C00002012
:1008D00010B50024032000F073F80F2000F008F892
:1008E00008B1012401E000F025F8204610BD000009
:1008F00070B50E4E05460024706898B14FF47A71B9
:10090000B1FBF0F00A490968B1FBF0F000F0FCFB24
:1009100040B9102D06D200222946501E00F030F8B2
:10092000356000E00124204670BD00002C0000204E
:10093000380000200A4882B0016E41F001010166D2
:10094000016E01F001010091816D41F080518165DE
:10095000806D00F08050009002B000F0A1B800005F
:1009600000100240002809DB00F01F020121914025
:100970004009800000F1E020C0F80011704700003D
:10098000F0B40E4B1B680C46C3F30223C3F10705FA
:10099000042D00D90425191D072901D2002300E0E8
:1009A000DB1E012606FA05F1491E214099409E40B2
:1009B000761E16403143F0BC02F030BE0CED00E074
:1009C000064900F0070208684FF6FF03184040EAA6
:1009D0000220034A10430860704700000CED00E05D
:1009E0000000FA052B492C4B0A6832214A432B4957
:1009F00040B1B0F5007F086829D020F4C06040F411
:100A000080602CE00868C0F34120022804D051F82F
:100A1000800F20F4807022E0D1F8800020F48070F4
:100A2000C1F88000086820F4C06040F400700860DD
:100A3000B2FBF3F0401C00E0401E4A69520501D5AC
:100A40000028F9D1486940050AD503207047C0F352
:100A50004120022806D051F8800F40F480700860D1
:100A600000207047D1F8800040F48070C1F8800009
:100A7000086820F4C06040F400700860B2FBF3F036
:100A8000401C00E0401E4A695205DBD50028F9D120
:100A9000D8E700003800002040420F0000700040FE
:100AA0000248816841F480418160704700700040D5
:100AB0002DE9F0470E4605004FF0000725D0DFF87E
:100AC000AC81D8F8000000F00F00B0420CD2D8F88A
:100AD000001021F00F013143C8F80010D8F80000D1
:100AE00000F00F00B04210D12968614CC80741F2F4
:100AF000883A5AD06868DFF87C91032808D0022829
:100B000020682DD0400500282CDB0120BDE8F087AF
:100B100020688001F9D5E06800F00302E068C0F3C6
:100B20000310401C032A19D0534A00BFB2FBF0F057
:100B3000E268C2F306225043E268C2F34162521CEB
:100B40005200B0FBF2F0484517D9A06810F0F00F42
:100B50000CD0880711D5A86840B10EE0474AE5E7F8
:100B60008003D0E700F092F8484506D9A06820F04D
:100B7000F00040F08000A0608027A068696820F045
:100B800003000843A060FFF795FE814606E000BF22
:100B9000FFF790FEA0EB090151453AD8A0686968BB
:100BA00000F00C00B0EB810FF2D12868810714D55A
:100BB000400703D5A06840F4E060A06028780007F3
:100BC00005D5A06820F4605040F4E060A060A06803
:100BD000A96820F0F000084304E0802F03D1A0684A
:100BE00020F0F000A060D8F80010404601F00F019E
:100BF000B14216D9016821F00F0131430160FFF7BE
:100C000059FE074607E000BFFFF754FEC11B5145E0
:100C100001D903207AE7D8F8000000F00F00B042B5
:100C2000F2D12878400705D5A068E96820F4E06093
:100C30000843A0602878000706D5A068296920F439
:100C4000605040EAC100A06000F020F8A1680C4AA2
:100C5000C1F30311515C01F01F01C840094908604C
:100C600009480068BDE8F047FFF742BE0020024097
:100C70000010024000B4C4040024F40000366E01E9
:100C800076480008380000202C000020184910B5D4
:100C90008868C0F381021748012A0BD08A68164B76
:100CA000C2F38102022A06D08A68C2F38102032AB3
:100CB00003D0002010BD184610BDCA6802F003041E
:100CC000CA68C2F30312521C032C02D0B0FBF2F02C
:100CD00001E0B3FBF2F0CA68C968C2F306225043D0
:100CE000C1F34161491C4900B0FBF1F010BD0000A7
:100CF000001002400024F40000366E012DE9F84394
:100D000004007AD02078FA4DC00747D0A868E96877
:100D100000F00C0001F003010C2802D0082817D0C5
:100D200001E0032914D06068B0F5803F17D0B0F51A
:100D3000A02F286817D020F480302860286820F47D
:100D4000802028606068E0B1FFF7B4FD064614E03B
:100D50002868800322D560680028D2D01EE0286869
:100D600040F48030EDE740F480202860F7E700BFD2
:100D7000FFF7A0FD801B642870D828688003F7D592
:100D80000CE0FFF797FD064605E000BFFFF792FD78
:100D9000801B6428F0D828688003F7D42078800767
:100DA0004CD5A868E96800F00C0001F003010C289C
:100DB00002D004280DD001E002290AD0E068002802
:100DC00028682BD040F480702860FFF773FD06463A
:100DD00019E02868400502D5E068002891D06868CD
:100DE000217C20F0FE4040EA01606860C148006854
:100DF000FFF77EFD002800D120E076E1FFF75AFDE5
:100E0000801B0228B8D828684005F7D56868217C7F
:100E100020F0FE4040EA016068600FE020F480703E
:100E20002860FFF747FD064605E000BFFFF742FDDB
:100E3000801B0228A0D828684005F7D42078000736
:100E400029D560690028D5F8940013D040F001003E
:100E5000C5F89400FFF72EFD064606E090E000BFBF
:100E6000FFF728FD801B022886D8D5F8940080075C
:100E7000F6D510E020F00100C5F89400FFF71AFD48
:100E8000064604E0FFF716FD801B022878D8D5F847
:100E900094008007F6D42078400761D5A86D00261D
:100EA000C00008D4A86D40F08050A865A86D012648
:100EB00000F08050009090480168C90511D4016885
:100EC000804641F480710160FFF7F4FC074604E0BE
:100ED000FFF7F0FCC01B022852D8D8F80000C0056C
:100EE000F6D5A068012815D00528D5F8900016D0B1
:100EF00020F00100C5F89000D5F8900020F0040023
:100F0000C5F89000A06841F28838B8B1FFF7D2FC6C
:100F100007460EE0D5F8900040F00100F0E740F001
:100F20000400C5F89000F5E7FFF7C4FCC11B41457C
:100F300026D8D5F890008007F6D50CE0FFF7BAFC6C
:100F4000074604E0FFF7B6FCC11B414518D8D5F8A9
:100F500090008007F6D41EB1A86D20F08050A865DF
:100F60002078800629D5A0690028D5F8980013D0EC
:100F700040F00100C5F89800FFF79CFC064606E02B
:100F800077E000BFFFF796FC801B022877D8D5F8E2
:100F900098008007F6D510E020F00100C5F8980011
:100FA000FFF788FC064604E0FFF784FC801B02285C
:100FB00065D8D5F898008007F6D4E069F0B3A96841
:100FC000C1F38101032961D00228286820F08070D4
:100FD00028600BD0E86820F00300E860E868474923
:100FE0000840E860FFF766FC04464BE0FFF762FC50
:100FF000064604E0FFF75EFC801B02283FD8286805
:101000008001F7D4F4E908016FF00F0202EB01113F
:101010000843218A5204490802EB4151A26841EA7F
:1010200002210843217D4FF07E42490802EB4161D5
:101030000843217B40EAC160E96800E062E0304A91
:1010400011400843E860286840F080702860E86834
:1010500040F08070E860FFF72DFC044605E000BF1B
:10106000FFF728FC001B022809D828688001F7D563
:1010700048E004E0FFF71EFC001B022802D9032011
:10108000BDE8F88328688001F4D43BE00128F7D05C
:10109000E868226A00F00301914226D1616A00F0FB
:1010A000F0020901103991421FD1A26A00F4FE41F9
:1010B000B1EB022F19D194F82C2000F07841B1EB5C
:1010C000C26F12D1218E00F4C00249084905A1F572
:1010D0000011914209D194F8341000F0C060490821
:1010E0004906A1F1007181420CD00120C8E700003F
:1010F000001002402C00002000700040FFFFEEFEB8
:101100000C809F010020BBE710B5401EB0F1807F2E
:1011100001D3012010BD4FF0E02460610F21601762
:1011200002F07CFA0020A06107202061002010BDA1
:101130007047704770470000F0B590F83C20012AD6
:101140004AD0012280F83C20CA688B6822F44072A1
:101150001A434B6822F480621A430B6822F400623F
:101160001A430B6922F480521A434B6922F400524D
:101170001A430B6B22F480421A430B8B22F4702229
:1011800042EA0342154C03680026154DA34201D0E4
:10119000AB4203D1CF6922F080523A43A34201D03F
:1011A000AB4214D10F8D22F4700242EA07520F6A4B
:1011B00022F080723A434F6A22F000723A43A3420F
:1011C00001D0AB4203D1C96A22F000520A435A64EB
:1011D00080F83C600020F0BD0220F0BD002C0140F2
:1011E000003401407047704770470000F0B590F838
:1011F0003C20012A3AD0012580F83C50022280F898
:101200003D2003685A689C68194E1A4FB34201D0BA
:10121000BB4204D122F4700C4A6842EA0C02DFF8A7
:1012200058C002EA0C02D1F800C04CEA020CC3F824
:1012300004C00268B2420DD0B2F1804F0AD00F4B09
:101240009A4207D00E4B9A4204D0BA4202D00D4BBC
:101250009A4204D1896824F080031943916080F890
:101260003D50002180F83C100846F0BD0220F0BD42
:10127000002C0140003401408FFFFFFD00040040BE
:101280000008004000400140704710B5040003D042
:1012900094F83D0010B107E0012010BD002084F853
:1012A0003C00204600F022F8022084F83D00211D79
:1012B000206801F02BFF012084F8480084F83E00EC
:1012C00084F83F0084F8400084F8410084F842002C
:1012D00084F8430084F8440084F8450084F846000C
:1012E00084F8470084F83D00002010BD08B501686F
:1012F0001F48B1F1804F0AD01E4A914216D1816D2C
:1013000041F002018165806D00F002002DE0816DE9
:1013100041F001018165806D002200F00100009024
:1013200011461C20FFF72CFB1C2010E0124A9142B2
:1013300011D1816D41F004018165806D002200F0C2
:101340000400009011461E20FFF71AFB1E20BDE886
:101350000840FFF707BB094A914207D1016E41F4EB
:1013600000310166006E00F40030009008BD0000FE
:10137000001002400004004000080040004401400A
:1013800090F83D10012901D001207047022180F81A
:101390003D1000680F4988420ED0B0F1804F0BD04D
:1013A0000D49884208D00D49884205D00C49884231
:1013B00002D00C49884207D181680B4A11400629A6
:1013C00006D0B1F5803F03D0016841F00101016012
:1013D00000207047002C014000040040000800403D
:1013E00000340140004001400700010090F83D102A
:1013F000012901D001207047022180F83D100168C9
:10140000CA6842F00102CA600068104988420ED0E2
:10141000B0F1804F0BD00E49884208D00D49884268
:1014200005D00D49884202D00C49884207D1816815
:101430000B4A1140062906D0B1F5803F03D0016860
:1014400041F001010160002070470000002C0140C4
:10145000000400400008004000340140004001400A
:10146000070001000168CA6822F00102CA60016831
:101470000A6A41F211131A4207D10A6A9B001A4202
:1014800003D10A6822F001020A60012180F83D10B0
:101490000020704770B5044690F83C00012814D035
:1014A000012584F83C50022084F83D0022689068B1
:1014B000344B184020F47F4090600868702827D093
:1014C00010DC10F00F0F03D04AE04FF0020070BDA7
:1014D0004FEA2012072A43D2DFE802F05050505062
:1014E00048313900284BC21A984247D009DCB0F580
:1014F000805F35D0B0F5005F15D0B0F1101F2FD14F
:101500003CE0102A3AD0202A38D0502A28D135E0A1
:10151000CB68D1E90121206801F05DFE2068816877
:1015200041F0770109E0CB68D1E90121206801F0A1
:1015300052FE2068816841F48041816010E0CA68F1
:101540004968206802F046F85021206806E0CA6821
:101550004968206802F04FF86021206801F046FEDB
:1015600084F83D50002084F83C0070BDCA6849688A
:10157000206802F02FF840212068EFE7226801463A
:101580001046EBE788FFCEFF20001000704770B5D3
:101590000446006801694FF00005C943890715D466
:1015A000C168C943890711D4E91E01610120207770
:1015B000206880698007204602D0FFF7E7FF04E03B
:1015C00000F00CF9204600F0CBF92577206801697E
:1015D000C943490717D4C168C943490713D46FF0F9
:1015E00004010161022020772068806910F4407FA7
:1015F000204602D0FFF7CAFF04E000F0EFF82046D3
:1016000000F0AEF9257720680169C943090716D4AF
:10161000C168C943090712D46FF0080101610420B1
:1016200020772068C0698007204602D0FFF7AEFF10
:1016300004E000F0D3F8204600F092F92577206806
:101640000169C943C90617D4C168C943C90613D47F
:101650006FF010010161082020772068C06910F444
:10166000407F204602D0FFF791FF04E000F0B6F87B
:10167000204600F075F9257720680169C943C9073C
:1016800008D1C168C943C90704D1891E0161204638
:1016900000F03CFA20680169C943090609D4C16811
:1016A000C943090605D46FF0800101612046FFF7A8
:1016B00040FD20680169C943C90509D4C168C9430F
:1016C000090605D46FF4807101612046FFF730FDF3
:1016D00020680169C943490609D4C168C94349065C
:1016E00005D46FF040010161204600F037FA206810
:1016F0000169C943890609D4C168C943890605D46B
:101700006FF0200101612046FFF714FD2068016998
:10171000C943C90209D4C168C943C90205D46FF4D9
:10172000801101612046FFF75EFD20680169C94311
:10173000890209D4C168C943890205D46FF4001134
:1017400001612046FFF74EFD20680169C943490247
:1017500009D4C168C943490205D46FF4800101610D
:101760002046FFF741FD20680169C94309020BD4F7
:10177000C168C943090207D46FF400010161204622
:10178000BDE87040FFF780BD70BD000010B586B0A9
:10179000044614216846FEF745FE0E49206888423B
:1017A00016D10D48C16C41F00101C164C06C69469D
:1017B00000F00100059040200090022001900020E0
:1017C00002900390012004904FF09040FEF784FFB8
:1017D00006B010BD0044014000100240704770B5D3
:1017E000044690F83C000D4601280BD0012084F8F7
:1017F0003C000C2A45D007DC5AB1042A1BD0082A29
:1018000078D12CE0022070BD102A4ED0142A71D15C
:101810005DE0206801F0F4FC2068816941F0080176
:1018200081612068816921F00401816120688169FA
:101830002A69114311E0206801F030FD20688169B8
:1018400041F4006181612068816921F480618161D6
:10185000206881692A6941EA022181614AE02068A1
:1018600001F064FD2068C16941F00801C161206890
:10187000C16921F00401C1612068C1692A6911436D
:1018800011E0206801F09AFD2068C16941F400610F
:10189000C1612068C16921F48061C1612068C169AA
:1018A0002A6941EA0221C16124E0206801F0CEFDED
:1018B0002068016D41F0080101652068016D21F08B
:1018C000040101652068016D2A69114311E0206857
:1018D00001F0F4FD2068016D41F4006101652068AC
:1018E000016D21F4806101652068016D2A6941EA7A
:1018F00002210165002084F83C0070BD10B5040091
:1019000003D094F83D0010B107E0012010BD002085
:1019100084F83C00204600F022F8022084F83D00C4
:10192000211D206801F0F2FB012084F8480084F8B2
:101930003E0084F83F0084F8400084F8410084F8B9
:10194000420084F8430084F8440084F8450084F899
:10195000460084F8470084F83D00002010BD704721
:101960007047000030B50446022269B1042912D044
:10197000082917D00C291CD0102921D094F8430035
:10198000012824D0012030BD94F83E000128F9D16F
:1019900084F83E201DE094F83F000128F2D184F83D
:1019A0003F2016E094F840000128EBD184F8402055
:1019B0000FE094F841000128E4D184F8412008E0C8
:1019C00094F842000128DDD184F8422001E084F837
:1019D00043200122206801F0F1FB194B20681949CE
:1019E000194A984209D0884207D0904205D0174D35
:1019F000A84202D0164DA84203D1456C45F40045DB
:101A00004564206898420CD0B0F1804F09D0114B4A
:101A1000984206D0104B984203D0884201D09042A1
:101A200007D181680D4A1140062906D0B1F5803FE3
:101A300003D0016841F001010160002030BD0000C9
:101A4000002C0140003401400040014000440140AE
:101A50000048014000040040000800400700010069
:101A600030B504460D460068002201F0A7FB224B6A
:101A700041F2111120688A0098420BD01F4B984206
:101A800008D01F4B984205D01E4B984202D01E4BE7
:101A9000984209D1036A0B4206D1036A134203D16B
:101AA000436C23F4004343642068036A0B4206D16D
:101AB000016A114203D1016821F001010160012096
:101AC0005DB1042D0CD0082D0DD00C2D0ED0102D95
:101AD0000FD084F84300002030BD84F83E00FAE7C0
:101AE00084F83F00F7E784F84000F4E784F8410009
:101AF000F1E784F84200EEE7002C01400034014099
:101B00000040014000440140004801400068B0F13D
:101B1000804F0BD00F4988420ED10F488178491E63
:101B2000CAB23B218270FF2A07D00AE00A48113866
:101B3000017B81F001010173704781704278521E70
:101B400042704278FF2AF7D141700178491E017036
:101B50007047000000080040190000207047FEE7B1
:101B600000B585B014216846FEF75CFCC0200090EB
:101B70000120019002900220039069460248FEF77E
:101B8000ABFD05B000BD00000004004870B508249E
:101B9000002501F039FA13E06806050E002001F077
:101BA0001BFA142001F04AFD142001F047FD01202A
:101BB00001F012FA142001F041FD01F019FA054379
:101BC000641EE4B2E8D2002001F006FA142001F00D
:101BD00035FD01F03BFA284670BD10B5002001F03C
:101BE00029FA142001F02AFD142001F027FD01201C
:101BF00001F0F2F9142001F021FD002001F0ECF9D0
:101C0000BDE81040142001F019BD70B50446082548
:101C100016E001F0E1F9142001F010FD04F080005D
:101C200001F008FA142001F009FD6006040E1420EA
:101C300001F004FD012001F0CFF9142001F0FEFCB9
:101C40006D1EEDB24FF00000E3D201F0C5F9BDE822
:101C50007040142001F0F2BC10B5012001F0EAF947
:101C6000142001F0EBFC142001F0E8FC012001F04D
:101C7000B3F9142001F0E2FC002001F0ADF9BDE859
:101C80001040142001F0DABC10B5012001F0D2F9A7
:101C9000142001F0D3FC012001F09EF9142001F082
:101CA000CDFC002001F0C6F9142001F0C7FC002093
:101CB00001F092F9BDE81040142001F0BFBC10B54E
:101CC000002001F089F9142001F0B8FC002001F097
:101CD000B1F9142001F0B2FC012001F07DF91420CB
:101CE00001F0ACFC012001F0A5F9BDE81040142082
:101CF00001F0A4BC10B5052401F086F9142001F010
:101D00009DFC012001F068F9142001F097FC05E02A
:101D1000641EA4B2142001F091FC64B101F068F9D2
:101D20000028F5D101F058F901F090F9142001F0E4
:101D300085FC002010BD01F089F9FFF7C0FF0120EC
:101D400010BD00002DE9F04100F014F9864C012689
:101D50002072E17A20EA0102A27281EA0002824343
:101D60006272A279E27101281FD1F1B92078401C7A
:101D7000C0B22070052801D926700AE0012808D0D9
:101D8000022808D0032808D0042808D0052808D045
:101D900008E0667006E0A67004E0E67002E02671D6
:101DA00000E06671002000F033F9A07A6F49002747
:101DB00010B1012800D00F6008686B4D1135B0F5E7
:101DC000FA5F43D2607A022804D003280CD004289A
:101DD00029D0C5E00320A071607B401CC0B26073B5
:101DE0000228F6D96773BBE0607B20B101280AD0D6
:101DF000022810D0B4E02878401CC0B22870172800
:101E000000D92F70ACE06878401CC0B268703B28E5
:101E100000D96F70A4E0A878401CC0B2A8703B281D
:101E200000D9AF709CE0A07920B1012803D002282E
:101E300007D095E0A671E079012801D10220A071B8
:101E40008EE0E079022800D1A67189E0207A02288C
:101E500055D12978A1736878E073A8782074207828
:101E600001280BD10020FEF708FCE17B0120FEF7E2
:101E700004FC217C0220FEF700FC6670207802281A
:101E80000CD1A17B0320FEF7F8FBE17B0420FEF7D9
:101E9000F4FB217C0520FEF7F0FBA67020780328D8
:101EA0000CD1A17B0620FEF7E8FBE17B0720FEF7C3
:101EB000E4FB217C0820FEF7E0FBE6702078042894
:101EC0000CD1A17B0920FEF7D8FBE17B0A20FEF7AD
:101ED000D4FB217C0B20FEF7D0FB2671207805284F
:101EE0000CD1A17B0C20FEF7C8FBE17B0D20FEF797
:101EF000C4FB217C0E20FEF7C0FB6671A771207A1F
:101F0000032822D028E000BF00F05CF9607B20B1FC
:101F100001280AD0022819D10FE02878401CC0B24D
:101F20002870172812D92F7010E06878401CC0B2B2
:101F300068703B280AD96F7008E0A878401CC0B2CE
:101F4000A8703B2802D9AF7000E0094E042130464A
:101F5000FEF7A6FC0028D7D0207A042800D1A7716C
:101F6000207AE072BDE8F0810800002024040040DF
:101F70000004004870B50E4D01212846FEF790FC84
:101F800000B9012402212846FEF78AFC00B9022488
:101F900004212846FEF784FC00B9032401214FF0F8
:101FA0009040FEF77DFC00B90424204670BD00007F
:101FB0000004004800B585B014216846FEF732FAE7
:101FC0004FF6FF70009000200321CDE9020101903F
:101FD00069460248FEF780FB05B000BD00080048D6
:101FE00000B585B014216846FEF71CFA4FF6FF7065
:101FF0000090012001900320039000200290694688
:102000000248FEF769FB05B000BD0000000800486B
:102010002DE9F0410A4E80463068002485B2214601
:10202000204600F02DFC00F06BFC4FF49637404644
:1020300000F03AFC641CBC42F9D33560BDE8F08185
:102040001408004870B586B014216846FEF7EAF916
:102050001E48C16C41F00401C164C16C01F004016F
:102060000591C16C41F00101C164C16C01F0010135
:102070000591C16C41F00201C164C06C032500F000
:10208000020005904FF448700124002603958DE866
:10209000510069460E48FEF71FFB200203958DE8AC
:1020A00051004FF0904469462046FEF715FBFFF7BC
:1020B00097FFA06940F48070A0610548183001685E
:1020C00041F40871016006B070BD000000100240CC
:1020D00000040048203AD2B2034B02EB420203EB69
:1020E000021200F023B80000A63600082DE9F043E4
:1020F000DFF8348081460E46D8F80000002587B20C
:1021000040F23F1407E021464846FFF7E3FF103C4A
:102110006D1CA4B2761C32780AB1142DF3D3C8F822
:102120000070BDE8F0830000140800482DE9F04776
:1021300091468A460026044600F0A2FBDFF8408064
:10214000012700BF00F0DCFB5FF0000539F8160046
:1021500007FA05F10842404601D1408800E00088B6
:1021600000F0A2FB6D1C102DF0D3641CE4B25146AC
:10217000204600F085FB761C182EE3D3BDE8F087DF
:102180000000002070B50D4E306885B2FFF75AFF91
:10219000002000F02DFB0A4CA080A088A0F5024191
:1021A000303907D000F016FE002000F021FBA0809F
:1021B000356070BD00F085FDF6E7000014080048AA
:1021C000000000202DE9F047DFF80C84002608F11C
:1021D000140798F80000FC1E0A254FF478490128DE
:1021E0007ED198F8010028B121460020FEF71BFAA5
:1021F00088F8016098F80020F8A1FE48FEF764F81E
:10220000FC493020FFF772FF98F80600FAA157F852
:102210002020F848FEF758F8F6499020FFF766FFAF
:1022200098F80600032802D198F80D00D0B10020DC
:1022300000F01EFB2078E021B0FBF5F03030C2B298
:102240006020FFF747FF2078B0FBF5F105FB110296
:10225000D02160203032FFF73DFF98F806000328B8
:1022600002D005E04846E3E798F80D0001281BD0AE
:102270005FF0000000F0FCFA6078B021B0FBF5F0F0
:102280003030C2B26020FFF725FF6078B0FBF5F177
:1022900005FB1102A02160203032FFF71BFF98F8E8
:1022A0000610032902D005E04846E3E798F80D0040
:1022B00002282AD05FF0000000F0DAFAA07880212E
:1022C000B0FBF5F03030C2B26020FFF703FFA0781A
:1022D000B0FBF5F105FB110270216020303200E007
:1022E0000EE0FFF7F7FE002000F0C2FA3A22C0210C
:1022F0006020FFF7EFFE3A2290216020FFF7EAFE10
:1023000098F80000022802D090E04846D4E798F8F8
:10231000020030B1B04903201131FEF784F988F88A
:10232000026098F80020ADA1B248FDF7CDFFB14999
:102330003020FFF7DBFE98F80600AFA157F8202009
:10234000AC48FDF7C1FFAB499020FFF7CFFE98F8EE
:102350000600032802D198F80D00D8B15FF0000004
:1023600000F086FA2078E021B0FBF5F03030C2B200
:102370006020FFF7AFFE2078B0FBF5F105FB1102FE
:10238000D02160203032FFF7A5FE98F80600032820
:1023900002D005E04846E3E798F80D0001281BD07D
:1023A0005FF0000000F064FA6078B021B0FBF5F057
:1023B0003030C2B26020FFF78DFE6078B0FBF5F1DF
:1023C00005FB1102A02160203032FFF783FE98F850
:1023D0000610032902D005E04846E3E798F80D000F
:1023E000022828D05FF0000000F042FAA078802197
:1023F000B0FBF5F03030C2B26020FFF76BFEA07882
:10240000B0FBF5F105FB1102702160203032FFF7BF
:1024100061FE002000F02CFA3A22C0216020FFF774
:1024200059FE3A2290216020FFF754FE98F80000F0
:10243000032802D090E04846D6E798F8030030B170
:10244000654906201131FEF7EEF888F8036098F828
:10245000002062A16748FDF737FF66493020FFF78B
:1024600045FE98F8060064A157F820206148FDF762
:102470002BFF60499020FFF739FE98F806000328EB
:1024800002D198F80D00D8B15FF0000000F0F0F92B
:102490002078E021B0FBF5F03030C2B26020FFF7C9
:1024A00019FE2078B0FBF5F105FB1102D021602068
:1024B0003032FFF70FFE98F80600032802D005E03F
:1024C0004846E3E798F80D0001281BD05FF00000B4
:1024D00000F0CEF96078B021B0FBF5F03030C2B238
:1024E0006020FFF7F7FD6078B0FBF5F105FB110206
:1024F000A02160203032FFF7EDFD98F80610032987
:1025000002D005E04846E3E798F80D00022828D0FD
:102510005FF0000000F0ACF9A0788021B0FBF5F08E
:102520003030C2B26020FFF7D5FDA078B0FBF5F1E6
:1025300005FB1102702160203032FFF7CBFD002037
:1025400000F096F93A22C0216020FFF7C3FD3A223D
:1025500090216020FFF7BEFD98F80000042802D00B
:10256000AAE04846D6E798F8040030B11A49092095
:102570001131FEF758F888F8046098F8002017A188
:102580001C48FDF7A1FE1B493020FFF7AFFD98F86E
:10259000060019A157F820201648FDF795FE1549A9
:1025A0009020FFF7A3FD98F80600032802D198F8C1
:1025B0000D0080B15FF0000000F05AF92078E021B2
:1025C000B0FBF5F03030C2B26020FFF783FD207819
:1025D000B0FBF5F118E023E00800002020202020C7
:1025E0004E6F202564202020202020202020202025
:1025F000200000003C000020202020202020257307
:10260000202020202020000005FB1102D021602086
:102610003032FFF75FFD98F80600032802D005E08E
:102620004846C9E798F80D0001281BD05FF000006C
:1026300000F01EF96078B021B0FBF5F03030C2B286
:102640006020FFF747FD6078B0FBF5F105FB110254
:10265000A02160203032FFF73DFD98F806100329D5
:1026600002D005E04846E3E798F80D0002284CD078
:102670005FF0000000F0FCF8A0788021B0FBF5F0DE
:102680003030C2B26020FFF725FDA078B0FBF5F135
:1026900005FB1102702160203032FFF71BFD002086
:1026A00000F0E6F83A22C0216020FFF713FD3A223D
:1026B00090216020FFF70EFD98F8001005297DD1CC
:1026C00098F8050028B148490C20FDF7ACFF88F8C0
:1026D000056098F800204646AFF200114348FDF728
:1026E000F3FD42493020FFF701FDB07957F8202073
:1026F000AFF2FC013D48FDF7E7FD3C499020FFF7B4
:10270000F5FCB079032802D003E04846B2E7707BBD
:10271000C8B1002000F0ACF82078E021B0FBF5F063
:102720003030C2B26020FFF7D5FC2078B0FBF5F165
:1027300005FB1102D02160203032FFF7CBFCB079CD
:10274000032802D004E04846E4E7707B01281AD051
:102750005FF0000000F08CF86078B021B0FBF5F07D
:102760003030C2B26020FFF7B5FC6078B0FBF5F105
:1027700005FB1102A02160203032FFF7ABFCB079DD
:10278000032802D004E04846E4E7707B022827D003
:102790005FF0000000F06CF8A0788021B0FBF5F04D
:1027A0003030C2B26020FFF795FCA078B0FBF5F1A5
:1027B00005FB110270216020303200E012E0FFF7CB
:1027C00089FC002000F054F83A22C0216020FFF775
:1027D00081FCBDE8F0473A2290216020FFF77ABCE7
:1027E0004846D7E7BDE8F087190000203C000020EC
:1027F00070B51D490A6842F400720A600A6842F422
:1028000080720A60184C103C226842F0200222605C
:10281000164A1060086840F02000086000BF00BF42
:1028200000BF206840F020002060206840F48070E5
:102830002060FFF7BFFB4FF09041886A40F4807042
:10284000886200BF00BF00BF0848001F006885B253
:10285000886940F480708861FFF7C2FB206840F40B
:1028600000702060284670BD280400481408004805
:1028700001B5BDF800000149488008BD00000020F6
:1028800010B50C460146202000F068F82146BDE84E
:102890001040212000F062B801B5BDF800000149E8
:1028A000088008BD00000020134A116841F400713F
:1028B0001160114910390B6843F480730B600B6889
:1028C00043F020030B600D4B1860106840F02000AF
:1028D000106000BF00BF00BF086840F02000086023
:1028E000086840F48070086000BF00BF00BF08683F
:1028F00040F400700860704728040048140800483D
:102900001449086840F400700860086840F480705A
:10291000086010481038026842F0200202600E4B36
:1029200022221A600A6842F020020A6000BF00BF3B
:1029300000BF016841F020010160016841F480712D
:10294000016000BF00BF00BF016841F40071016079
:10295000704700002804004814080048184B10B5C0
:102960001A6842F400721A601A6842F480721A609F
:10297000134A103A146844F020041460114C20608B
:10298000186840F02000186000BF00BF00BF10684A
:1029900040F020001060106840F4807010602160EA
:1029A000186840F02000186000BF00BF00BF10682A
:1029B00040F020001060106840F48070106010BD7E
:1029C00028040048140800482DE9F0410E4F0E4637
:1029D000054601224FF47E413846FDF766FF0B4C59
:1029E00029020EB1002200E001223846FDF75DFF0A
:1029F000012204212046FDF758FF2046BDE8F041A2
:102A000000220421FDF751BF00080048000C0048D7
:102A1000F0B587B014216846FDF704FD2D48C16C60
:102A200041F00401C164C16C01F004010591C16C65
:102A300041F02001C164C16C01F020010591C16C1D
:102A400041F00101C164C16C01F001010591C16C4B
:102A500041F00201C164C16C01F002010591C16C39
:102A600041F00801C164C06C1B4E00F008004FF437
:102A70007F440590012221463046FDF716FF174F8F
:102A8000002204213846FDF710FF0125CDE900455D
:102A900000240294694630460394FDF71DFECDE9FB
:102AA000005469464FF090400295FDF715FE07204F
:102AB0008DE8310069460A48FDF70EFE04200090BB
:102AC000CDE90154694638460394FDF705FE07B089
:102AD000F0BD00000010024000080048000C004853
:102AE0000004004810B594B01C210DA8FDF79AFC15
:102AF00034216846FDF796FC1F481E4900240160FA
:102B000040F21F31C0E901146321C0E9031444619C
:102B10008461FEF7BAFB08B1FDF7CAFD1648FEF75F
:102B2000EDFE08B1FDF7C4FD6020CDE90D040F9462
:102B300010941194129400220DA90F481394FEF7DB
:102B40004EFE08B1FDF7B4FD00944FF40050CDE9FE
:102B500004400194029403940694694606480C9438
:102B6000FEF7EAFA08B1FDF7A3FD0348FEF70EFEF3
:102B700014B010BD004401403401002010B588B0ED
:102B8000002417480094019402940394049405943B
:102B90004FF080410694016040F69F71C0E9011436
:102BA00042F20F71C0E903148461FEF76EFB08B1B5
:102BB000FDF77EFD4FF48050009069460848FEF70F
:102BC00069FC08B1FDF774FD049404A90448069457
:102BD000FEF70CFB002801D0FDF76AFD08B010BD20
:102BE0005000002010B588B00024184800940194CB
:102BF000029403940494059413490694016041F6E9
:102C00003F71C0E901144FF6FF71C0E903148461FC
:102C1000FEF73BFB08B1FDF74BFD4FF480500090F1
:102C200069460A48FEF736FC08B1FDF741FD0494F9
:102C300004A906480694FEF7D9FA002801D0FDF74A
:102C400037FD08B010BD0000000400409C000020CB
:102C500010B588B00024184800940194029403949D
:102C60000494059413490694016041F63F71C0E94C
:102C7000011442F20F71C0E903148461FEF705FBF1
:102C800008B1FDF715FD4FF48050009069460A48E1
:102C9000FEF700FC08B1FDF70BFD049404A90648FB
:102CA0000694FEF7A3FA002801D0FDF701FD08B055
:102CB00010BD000000080040E8000020FEE7FEE72D
:102CC000704730B501210020FFF748FE4FF47A70BD
:102CD000FDF79BFC00210120FFF740FE41F29071BF
:102CE0001020FFF73BFE4FF41C516020FFF736FE2B
:102CF00001216120FFF732FE02214620FFF72EFE60
:102D000048F210011320FFF729FE48F2FE011220BD
:102D1000FFF724FE4FF4A0610220FFF71FFE41F2EF
:102D200030010320FFF71AFE40F203342146302021
:102D3000FFF714FE21463120FFF710FE2146322016
:102D4000FFF70CFEE51E29463320FFF707FE03219F
:102D50003420FFF703FE21463520FFF7FFFD142145
:102D60003620FFF7FBFD21463720FFF7F7FD214610
:102D70003820FFF7F3FD21463920FFF7EFFD294604
:102D80003A20FFF7EBFD03213B20FFF7E7FD21464B
:102D90003C20FFF7E3FD4FF4A0513D20FFF7DEFD9F
:102DA0004FF400719220FFF7D9FD21469320FFF7E1
:102DB000D5FD40F60D019020FFF7D0FD41F218013E
:102DC0000320FFF7CBFDBDE8304040F27311072030
:102DD000FFF7C4BD10B543F20801E320FFF7BEFDC5
:102DE0001221E720FFF7BAFD41F23121EF20FFF772
:102DF000B5FD00210120FFF7B1FD4FF4E061022095
:102E0000FFF7ACFD41F230010320FFF7A7FD0021E1
:102E10000420FFF7A3FD40F207210820FFF79EFDE5
:102E200000210920FFF79AFD00210A20FFF796FDF7
:102E300000210C20FFF792FD00210D20FFF78EFDF1
:102E400000210F20FFF78AFD00211020FFF786FDEB
:102E500007211120FFF782FD00211220FFF77EFDE0
:102E600000211320FFF77AFDC820FDF723FC41F273
:102E700090611020FFF772FD40F227211120FFF72B
:102E80006DFD3220FDF716FC1D211220FFF766FDB7
:102E90003220FDF70FFC4FF400611320FFF75EFDB9
:102EA00014212920FFF75AFD0B212B20FFF756FD97
:102EB0003220FDF7FFFB00212020FFF74FFD00210E
:102EC0002120FFF74BFD07213020FFF747FD40F29F
:102ED00007713120FFF742FD06213220FFF73EFD4A
:102EE00040F204713520FFF739FD41F604713620B8
:102EF000FFF734FD04213720FFF730FD0021382093
:102F0000FFF72CFD40F206713920FFF727FD40F254
:102F100001713C20FFF722FD0F213D20FFF71EFD30
:102F200000215020FFF71AFDEF215120FFF716FD79
:102F300000215220FFF712FD40F23F115320FFF70E
:102F40000DFD4FF41C516020FFF708FD01216120A9
:102F5000FFF704FD00216A20FFF700FD002180201B
:102F6000FFF7FCFC00218120FFF7F8FC0021822004
:102F7000FFF7F4FC00218320FFF7F0FC0021842000
:102F8000FFF7ECFC00218520FFF7E8FC10219020E2
:102F9000FFF7E4FC00219220FFF7E0FC03219320DF
:102FA000FFF7DCFC4FF488719520FFF7D7FC002178
:102FB0009720FFF7D3FC00219820FFF7CFFC41F2C8
:102FC00018010320FFF7CAFCBDE8104040F273115E
:102FD0000720FFF7C3BC000008B1044801E0034824
:102FE0001030016841F0400101607047180400484A
:102FF00010B580210348FDF753FC012800D00020C4
:1030000010BD00000004004800B585B014216846DA
:10301000FDF708FA80200090002001900120029026
:103020000220039069460248FDF756FB05B000BD3B
:103030000004004808B1044801E00348103001686A
:1030400041F08001016070471804004800B585B068
:1030500014216846FDF7E6F98020009011200190C8
:10306000002002900220039069460248FDF734FBDD
:1030700005B000BD000400487047FDF721BC10B545
:1030800094B038216846FDF7CDF914210EA8FDF75C
:10309000C9F94FF40070FDF7A5FC01200090000471
:1030A000019002200324CDE907041421CDE90A1080
:1030B0000C900D9009946846FDF720FE08B172B699
:1030C000FEE70F20CDE90E04002010901190129021
:1030D00002210EA8FDF7ECFC002801D072B6FEE735
:1030E00014B010BD0248016841F4700101607047DE
:1030F00088ED00E00148FEF74ABA000050000020C9
:103100000148FEF744BA0000E80000202DE9F04332
:103110000268234B234D244E244C4FF080499842A3
:1031200007D0484505D0A84203D0B04201D0A04204
:1031300003D122F070074A683A431D4FDFF874C08C
:10314000DFF8748098420DD048450BD0A84209D0D2
:10315000B04207D0A04205D0B84203D0604501D0AC
:10316000404503D122F44075CA682A434D6922F0D4
:1031700080022A4302608A68C2620A6882629842B8
:1031800007D0A04205D0B84203D0604501D04045E9
:1031900001D10969016301214161BDE8F0830000AB
:1031A000002C0140000400400008004000340140B1
:1031B00000400140004401400048014010B501F0CA
:1031C0001F030121046A99408C430462016A9A40FA
:1031D0001143016210BD10B5846842EA032224F451
:1031E0007F440A432243826010BD00008268034B83
:1031F0001A400A4342F00701816070478FFFCFFFFA
:103200002DE9F043026A22F001020262056A436876
:1032100082691C4C25F0020522400C6822F0030252
:1032200014438A68194E2A43174D194FDFF864C0BA
:10323000DFF86490A84207D0B04205D0B84203D06E
:10324000604501D0484506D122F00808CA6842EA24
:10325000080222F00402A84207D0B04205D0B842CA
:1032600003D0604501D0484505D14D6923F4407332
:103270001D438B692B43436084614968416302624B
:10328000BDE8F0838FFFFEFF002C014000340140B9
:10329000004001400044014000480140F0B5026A8E
:1032A00022F010020262056A42688369194C1B4EC3
:1032B00023400C6823F4407343EA042425F02003E0
:1032C0008D6843EA0513144DA84201D0B04206D1DF
:1032D000CF6823F0800343EA071323F04003A8429A
:1032E0000AD0B04208D00E4DA84205D00D4DA842DC
:1032F00002D00D4DA84207D14D6922F4406242EA46
:1033000085028D6942EA8502426084614968816371
:103310000362F0BDFF8FFFFE002C0140003401402E
:10332000004001400044014000480140F0B5026AFD
:1033300022F480720262056A4368C269194C1B4E0E
:1033400022400C6822F00302144325F400728D68B9
:1033500042EA0522144DA84201D0B04206D1CF68FE
:1033600022F4006242EA072222F48062A8420AD0D4
:10337000B04208D00E4DA84205D00E4DA84202D052
:103380000D4DA84207D14D6923F4405343EA05137C
:103390008D6943EA05134360C4614968C1630262F1
:1033A000F0BD00008FFFFEFF002C01400034014003
:1033B000004001400044014000480140F0B5026A6D
:1033C00022F480520262056A4268C369194C1B4E9E
:1033D00023400C6823F4407343EA042425F400538B
:1033E0008D6843EA0533144DA84201D0B04206D19E
:1033F000CF6823F4004343EA073323F48043A84211
:103400000AD0B04208D00E4DA84205D00D4DA842BA
:1034100002D00D4DA84207D14D6922F4404242EA44
:1034200085128D6942EA85124260C461496801646F
:103430000362F0BDFF8FFFFE002C0140003401400D
:1034400000400140004401400048014030B5026A9C
:1034500022F480320262046A4268036D114D2B40EF
:103460000D681D4324F400330C8943EA04430E4CD9
:10347000A0420BD00D4CA04208D00D4CA04205D06C
:103480000C4CA04202D00C4CA04204D14C6922F456
:10349000803242EA04224260056549688164036221
:1034A00030BD00008FFFFEFF002C014000340140C2
:1034B00000400140004401400048014030B5026A2C
:1034C00022F480120262046A4268036D114D24F4F2
:1034D00000142B400D6843EA05230D8944EA055486
:1034E0000D4DA8420BD00D4DA84208D00C4DA8425E
:1034F00005D00C4DA84202D00B4DA84204D14D6915
:1035000022F4802242EA8522426003654968C16450
:10351000046230BDFF8FFFFE002C014000340140EB
:1035200000400140004401400048014070B5244C77
:1035300000254FF08046A07901282DD02148FDF7C5
:1035400091FF00210120FFF73FFA257375620021EA
:103550001D48FEF785FA1D48FDF784FF1848113015
:10356000017800292AD14178002927D180780028C4
:1035700024D1A5711348FDF775FF00210120FFF745
:1035800023FA2573756200210F48FEF769FABDE83A
:1035900070400E48FDF766BF0C48FDF727FF09484D
:1035A000FDF724FF217B0120FFF70EFA00210648DA
:1035B000FEF7D8F9064950200860CFE770BD00003B
:1035C000080000205000002034010020E800002006
:1035D0003444014010B5036A046A24F00104046213
:1035E000846924F0F00444EA021423F00A020A4336
:1035F0008461026210BD10B5036A23F010030362F8
:103600008369046A23F4704343EA023224F0A0037E
:1036100043EA01118261016210BDFEE70907090E4C
:10362000002804DB00F1E02080F80014704700F06F
:103630000F0000F1E02080F8141D7047002100E029
:10364000491C8142FCD37047FDF742F9FFF717FD93
:10365000FFF7DEF9FFF792FAFFF7C4FAFFF742FA35
:10366000FFF7F6FAFEF78EFD0020FEF7D1FC0020F2
:10367000FFF7FEF84FF6FF70FFF70EF9FEF770FA4E
:103680000548FDF77DFE00BFFEF79CFDFEF75AFBE7
:10369000FFF74CFFF8E700009C0000204FF040705F
:1036A000E1EE100A7047000000000000000000007A
:1036B000000000000000000000000000000000000A
:1036C00000000000000000000000000000000000FA
:1036D00000000000000000008001800180018001E6
:1036E00080018001800180018001800180018001D2
:1036F0008001000000008001800100000000000047
:1037000000000000000000000000CC00CC00CC0055
:10371000CC00CC00CC000000000000000000000045
:103720000000000000000000000000000000000099
:103730000000000000000000000000000000000089
:103740000000600C600C600C30063006FE1FFE1F8F
:10375000300638071803FE1FFE1F180318038C01DC
:103760008C018C01000000008000E003F80F9C0E2B
:103770008C1C8C188C009800F801E007800E801CCF
:103780008C188C189C18B80CF00FE0038000800097
:103790000000000000000000000000000E181B0CDC
:1037A000110C11061106110311039B018E01C03883
:1037B000C06C60446044304430441844186C0C3889
:1037C0000000000000000000E001F00338071806C8
:1037D00018063003F001F000F8009C310E33061E8D
:1037E000061C061C063FFC73F021000000000000D0
:1037F000000000000000000000000C000C000C00A5
:103800000C000C000C000000000000000000000094
:1038100000000000000000000000000000000000A8
:103820000000000000000000000200038001C00052
:10383000C000600060003000300030003000300018
:1038400030003000300060006000C000C000800127
:10385000000300020000000020006000C0008001A2
:1038600080010003000300060006000600060006B3
:103870000006000600060003000380018001C0006E
:1038800060002000000000000000000000000000B8
:103890000000C000C000D806F807E0013003380778
:1038A0000000000000000000000000000000000018
:1038B0000000000000000000000000000000000008
:1038C000000080018001800180018001FC3FFC3FFD
:1038D0008001800180018001800100000000000063
:1038E00000000000000000000000000000000000D8
:1038F00000000000000000000000000000000000C8
:1039000000000000000000008001800100010001B3
:103910008000000000000000000000000000000027
:103920000000000000000000000000000000E007B0
:10393000E0070000000000000000000000000000A0
:103940000000000000000000000000000000000077
:103950000000000000000000000000000000000067
:103960000000000000000000C000C00000000000D7
:103970000000000000000000000C000C0006000623
:103980000006000300030003800380018001800122
:10399000C000C000C0006000600000000000000027
:1039A0000000000000000000E003F007380E180CD3
:1039B0000C180C180C180C180C180C180C180C18E7
:1039C0000C18180C380EF007E0030000000000008F
:1039D000000000000000000000018001C001F001B3
:1039E00098018801800180018001800180018001AF
:1039F0008001800180018001800100000000000042
:103A00000000000000000000E003F80F180C0C1884
:103A10000C1800180018000C000600038001C000FC
:103A2000600030001800FC1FFC1F000000000000B8
:103A30000000000000000000E001F807180E0C0C68
:103A40000C0C000C0006C003C007000C0018001886
:103A50000C180C18180CF807E00300000000000018
:103A60000000000000000000000C000E000F000F1E
:103A7000800DC00C600C600C300C180C0C0CFC3F62
:103A8000FC3F000C000C000C000C000000000000CB
:103A90000000000000000000F80FF80F18001800E8
:103AA0000C00EC03FC071C0E001C0018001800188A
:103AB0000C181C0C180EF807E003000000000000B2
:103AC0000000000000000000C007F00F381C1818AC
:103AD00018000C00CC03EC0F3C0E1C1C0C180C182E
:103AE0000C18181C380EF007E0030000000000005E
:103AF0000000000000000000FC1FFC1F000C00067E
:103B00000006000380038001C001C000E0006000E7
:103B10006000700030003000300000000000000045
:103B20000000000000000000E003F007380E180C51
:103B3000180C180C3806F007F007180C0C180C18A5
:103B40000C180C18380CF80FE003000000000000FF
:103B50000000000000000000E003F007380E1C0C1D
:103B60000C180C180C181C1C381EF81BE019001837
:103B7000000C000C1C0EF807F00100000000000013
:103B80000000000000000000000000000000000035
:103B90000000800180010000000000000000000023
:103BA0000000000000008001800100000000000013
:103BB0000000000000000000000000000000000005
:103BC00000008001800100000000000000000000F3
:103BD0000000000000008001800100010001800061
:103BE00000000000000000000000000000000000D5
:103BF0000000000000000010001C800FE003F8002F
:103C00001800F800E003800F001C00100000000006
:103C100000000000000000000000000000000000A4
:103C2000000000000000F81F000000000000F81F66
:103C30000000000000000000000000000000000084
:103C40000000000000000000000000000000000074
:103C500000000000000008003800F001C007001F4D
:103C60000018001FC007F001380008000000000025
:103C70000000000000000000E003F80F180C0C1812
:103C80000C180018000C000600038001C000C000E2
:103C9000C00000000000C000C000000000000000E4
:103CA00000000000000000000000E00718180420D9
:103CB000C229224A11440944094409440922111322
:103CC000E20C024004201818E00700000000000089
:103CD000000000000000000080038003C006C00652
:103CE000C006600C600C301830183018F83FF83FF0
:103CF0001C700C600C6006C006C0000000000000D4
:103D00000000000000000000FC03FC0F0C0C0C186D
:103D10000C180C180C0CFC07FC0F0C180C300C3099
:103D20000C300C300C18FC1FFC07000000000000D9
:103D30000000000000000000C007F01F38381C30F1
:103D40000C7006600600060006000600060006006D
:103D500006600C701C30F01FE0070000000000003F
:103D60000000000000000000FE03FE0F060E061813
:103D700006180630063006300630063006300630AB
:103D800006180618060EFE0FFE03000000000000D5
:103D90000000000000000000FC3FFC3F0C000C0095
:103DA0000C000C000C00FC1FFC1F0C000C000C0095
:103DB0000C000C000C00FC3FFC3F00000000000069
:103DC0000000000000000000F83FF83F1800180055
:103DD000180018001800F81FF81F18001800180025
:103DE000180018001800180018000000000000005B
:103DF0000000000000000000E00FF83F3C780E607B
:103E000006E007C00300030003FE03FE03C007C073
:103E100006C00EC03CF0F83FE00F000000000000BC
:103E200000000000000000000C300C300C300C30A2
:103E30000C300C300C30FC3FFC3F0C300C300C30A4
:103E40000C300C300C300C300C3000000000000046
:103E5000000000000000000080018001800180015E
:103E6000800180018001800180018001800180014A
:103E700080018001800180018001000000000000BD
:103E8000000000000000000000060006000600061A
:103E900000060006000600060006000600060006F2
:103EA000180618063807F003E001000000000000C3
:103EB000000000000000000006300618060C060690
:103EC00006038601C60066007600DE008E0106034A
:103ED0000606060C0618063006600000000000000A
:103EE0000000000000000000180018001800180072
:103EF0001800180018001800180018001800180002
:103F0000180018001800F81FF81F0000000000003B
:103F100000000000000000000EE01EF01EF01EF089
:103F200036D836D836D836D866CC66CC66CCC6C637
:103F3000C6C6C6C6C6C686C386C30000000000004B
:103F400000000000000000000C301C303C303C3011
:103F50006C306C30CC30CC308C310C330C330C36B4
:103F60000C360C3C0C3C0C380C30000000000000FF
:103F70000000000000000000E007F81F1C380E7071
:103F8000066003C003C003C003C003C003C003C076
:103F900006600E701C38F81FE007000000000000EB
:103FA0000000000000000000FC0FFC1F0C380C306B
:103FB0000C300C300C300C18FC1FFC070C000C00F3
:103FC0000C000C000C000C000C00000000000000B5
:103FD0000000000000000000E007F81F1C380E7011
:103FE000066003E003C003C003C003C003C007E0D2
:103FF00006630E3F1C3CF83FE0F700C000000000E5
:104000000000000000000000FE0FFE1F0638063012
:10401000063006300638FE1FFE0706030606060CAD
:104020000618061806300630066000000000000082
:104030000000000000000000E003F80F1C0C0C184A
:104040000C180C001C00F803E00F001E00380630AE
:1040500006300E301C1CF80FE007000000000000C6
:104060000000000000000000FE7FFE7F8001800154
:104070008001800180018001800180018001800138
:1040800080018001800180018001000000000000AB
:1040900000000000000000000C300C300C300C3030
:1040A0000C300C300C300C300C300C300C300C3030
:1040B0000C300C301818F81FE0070000000000005A
:1040C00000000000000000000360063006300630EB
:1040D0000C180C180C18180C180C380E300630067A
:1040E000700760036003C001C00100000000000011
:1040F00000000000000000000360C361C361C361F1
:104100006633663366336633663366336C1B6C1B0B
:104110006C1B2C1A3C1E380E380E000000000000EC
:1041200000000000000000000FE00C701830301894
:10413000700C600EC00780038003C003E006700CA3
:10414000301C18180C300E6007E000000000000062
:10415000000000000000000003C006600C301C38A6
:104160003818300C6006E007C00380018001800130
:1041700080018001800180018001000000000000BA
:104180000000000000000000FC7FFC7F00600030A9
:104190000018000C000600038001C0006000300021
:1041A00018000C000600FE7FFE7F000000000000EB
:1041B0000000000000000000E003E0036000600079
:1041C00060006000600060006000600060006000EF
:1041D00060006000600060006000600060006000DF
:1041E000E003E003000000003000300060006000E9
:1041F0006000C000C000C000C001800180018001DB
:104200000003000300030006000600000000000099
:104210000000000000000000E003E00300030003D2
:104220000003000300030003000300030003000376
:104230000003000300030003000300030003000366
:10424000E003E003000000000000C001C0016003C3
:104250006003600330063006180C180C00000000E4
:10426000000000000000000000000000000000004E
:10427000000000000000000000000000000000003E
:10428000000000000000000000000000000000002E
:104290000000000000000000FFFFFFFF0000000022
:1042A00000000000000000000C000C000C000C00DE
:1042B0000C000C00000000000000000000000000E6
:1042C00000000000000000000000000000000000EE
:1042D00000000000000000000000000000000000DE
:1042E0000000F003F8071C0C0C0C000FF00FF80C8A
:1042F0000C0C0C0C1C0FF80FF01800000000000054
:10430000000000000000000018001800180018004D
:104310001800D803F80F380C18181818181818189F
:1043200018181818380CF80FD80300000000000007
:10433000000000000000000000000000000000007D
:104340000000C003F007300E180C18001800180009
:104350001800180C300EF007C00300000000000029
:1043600000000000000000000018001800180018ED
:104370000018C01BF01F301C18181818181818182F
:1043800018181818301CF01FC01B00000000000097
:10439000000000000000000000000000000000001D
:1043A0000000C003F00F300C1818F81FF81F180099
:1043B00018003818301CF00FC00700000000000083
:1043C0000000000000000000800FC00FC000C0000F
:1043D000C000F007F007C000C000C000C000C0006F
:1043E000C000C000C000C000C0000000000000000D
:1043F00000000000000000000000000000000000BD
:104400000000E00DF80F180E0C0C0C0C0C0C0C0C32
:104410000C0C0C0C180EF80FE00D000C0C0C1C060C
:10442000F807F0010000000018001800180018003C
:104430001800D807F80F381C18181818181818186A
:10444000181818181818181818180000000000007C
:104450000000000000000000C000C00000000000DC
:104460000000C000C000C000C000C000C000C0000C
:10447000C000C000C000C000C0000000000000007C
:104480000000000000000000C000C00000000000AC
:104490000000C000C000C000C000C000C000C000DC
:1044A000C000C000C000C000C000C000C000C0000C
:1044B000F8007800000000000C000C000C000C005C
:1044C0000C000C0C0C060C038C01CC006C00FC00E6
:1044D0009C018C030C030C060C0C00000000000077
:1044E0000000000000000000C000C000C000C000CC
:1044F000C000C000C000C000C000C000C000C000BC
:10450000C000C000C000C000C000000000000000EB
:10451000000000000000000000000000000000009B
:1045200000007C3CFF7EC7E383C183C183C183C19C
:1045300083C183C183C183C183C100000000000027
:10454000000000000000000000000000000000006B
:1045500000009807F80F381C1818181818181818A1
:10456000181818181818181818180000000000005B
:10457000000000000000000000000000000000003B
:104580000000C003F00F300C18181818181818186D
:1045900018181818300CF00FC003000000000000BD
:1045A000000000000000000000000000000000000B
:1045B0000000D803F80F380C181818181818181815
:1045C00018181818380CF80FD8031800180018001D
:1045D00018001800000000000000000000000000AB
:1045E0000000C01BF01F301C1818181818181818D5
:1045F00018181818301CF01FC01B001800180018DD
:10460000001800180000000000000000000000007A
:104610000000B007F00370003000300030003000C0
:10462000300030003000300030000000000000009A
:10463000000000000000000000000000000000007A
:104640000000E003F003380E180C3800F003C00738
:10465000000C180C380EF007E0030000000000000A
:10466000000000000000000000008000C000C0004A
:10467000C000F007F007C000C000C000C000C000CC
:10468000C000C000C000C00780070000000000009C
:10469000000000000000000000000000000000001A
:1046A00000001818181818181818181818181818BA
:1046B00018181818381CF01FE0190000000000003E
:1046C00000000000000000000000000000000000EA
:1046D00000000C18180C180C180C300630063006A8
:1046E000600360036003C001C0010000000000001F
:1046F00000000000000000000000000000000000BA
:104700000000C141C141C3616363636363633636C3
:10471000363636361C1C1C1C1C1C00000000000019
:104720000000000000000000000000000000000089
:1047300000001C38381C300C600660036003600306
:1047400060036006300C381C1C38000000000000BC
:104750000000000000000000000000000000000059
:1047600000001830301830187018600C600CE00C25
:10477000C006C00680038003800380018001C00161
:10478000F0007000000000000000000000000000C9
:104790000000FC1FFC1F000C000600038001C0008D
:1047A000600030001800FC1FFC1F0000000000002B
:1047B000000000000000000000038001C000C000F5
:1047C000C000C000C000C000600060003000600099
:1047D0004000C000C000C000C000C000C000800198
:1047E00000030000000000008001800180018001C2
:1047F00080018001800180018001800180018001B1
:1048000080018001800180018001800180018001A0
:1048100080018001000000006000C000C001800134
:104820008001800180018001000300030006000375
:104830000001800180018001800180018001C000B1
:104840006000000000000000000000000000000008
:10485000000000000000F010F81F080F000000002A
:104860000000000000000000000000000000000048
:104870000000000000000000000000000000010235
:104880000304060708090000506175736500000005
:1048900052756E6E696E670053657474696E670059
:1048A0005374616E64627900C848000800000020FB
:1048B0003C00000014020008044900083C000020ED
:1048C000A4070000300200080000FFFF0000000005
:1048D00001010101010100000000000000000000D2
:1048E00000000000A0480008904800088848000820
:1048F00098480008100000000100000000000000BF
:044900000024F4009B
:04000005080001D915
:00000001FF
