:03000000020003F8
:0C000300787FE4F6D8FD75811902004AF0
:1001130010083F065B4F666D7D077F6F777C395E06
:020123007971F0
:0B012600EF1FAC0670011E4C70F622AB
:10008F00E4F518F519F518F51974082519F8E6F5BA
:10009F0080E5187054E519B40800504D9000B2F87F
:1000AF002828730200CA0200CE0200D20200D60234
:1000BF0000DA0200E20200EA0200F2D2A4800ED2BD
:1000CF00A48012D2A48016D2A4801AC2A4D2A3D222
:1000DF00A28016C2A4D2A3C2A2800EC2A4C2A3D26F
:1000EF00A28006C2A4C2A3C2A27F507EC312012661
:1000FF000519E51970020518C39408E51894004016
:04010F008802008FD3
:10000F0002008FE493A3F8E493A34003F68001F278
:10001F0008DFF48029E493A3F85407240CC8C333F2
:10002F00C4540F4420C8834004F456800146F6DFC1
:10003F00E4800B0102040810204080900113E47E3D
:10004F00019360BCA3FF543F30E509541FFEE493B6
:10005F00A360010ECF54C025E060A840B8E493A37D
:10006F00FAE493A3F8E493A3C8C582C8CAC583CAA8
:10007F00F0A3C8C582C8CAC583CADFE9DEE780BE60
:0101250000D9
:00000001FF
