:020000040800F2
:10000000C808002049010008BD280008C1180008E0
:10001000B9280008B10D00083941000800000000AF
:100020000000000000000000000000004D36000845
:1000300019100008000000006D340008BD390008E8
:100040006301000863010008630100086301000800
:1000500063010008630100086301000863010008F0
:1000600063010008630100086301000863010008E0
:1000700063010008630100086301000863010008D0
:1000800063010008630100086301000863010008C0
:1000900063010008630100086301000863010008B0
:1000A00063010008630100086301000863010008A0
:1000B0006301000863010008630100086301000890
:1000C0006301000863010008630100086301000880
:1000D00063010008AD3D000863010008793E000897
:1000E0006301000863010008630100086301000860
:1000F0006301000863010008630100086301000850
:10010000630100086301000863010008630100083F
:10011000630100086301000863010008630100082F
:10012000630100086301000863010008630100081F
:10013000DFF810D000F06EFC00480047854E000844
:10014000AFF30080C80800200648804706480047F3
:10015000FEE7FEE7FEE7FEE7FEE7FEE7FEE7FEE777
:10016000FEE7FEE7FD39000831010008A0F141017A
:10017000192900D82030704740EA01039B0703D0BB
:1001800009E008C9121F08C0042AFAD203E011F8D6
:10019000013B00F8013B521EF9D27047D2B201E098
:1001A00000F8012B491EFBD270470022F6E710B57C
:1001B00013460A4604461946FFF7F0FF204610BDD5
:1001C00030B505462A460B4612F8010B13F8014BD1
:1001D00008B1A042F8D01CB1002802D06D1CF1E794
:1001E000284630BDCAB2401E10F8011F8A4202D014
:1001F0000029F9D100207047421C10F8011B00298A
:10020000FBD1801A704710B5044600E0401C03780B
:10021000002BFBD100E0401C521E04D311F8013B1F
:100220000370002BF7D100210170204610BD30B5BE
:1002300005460020034600E05B1C934205D2EC5CBF
:10024000C85C201A01D1002CF6D130BD70B506462D
:1002500003F0F4FF046805460A220021304600F04E
:10026000DDFA2C6070BD30B480EA010202F0004576
:1002700030F0004221F0004013D090B1C30DD40DF6
:10028000C2F31601C0F31600E41A41F4000140F471
:1002900000027D34914201D3641C00E04900002C2F
:1002A00002DA30BC002070474FF400000023914276
:1002B00001D3891A034340084FEA4101F7D151B1F4
:1002C000914202D14FF0004105E002D24FF001010E
:1002D00001E06FF0010103EBC450284430BC00F092
:1002E000D5BA2DE9FE4F804681EA0300C00F0C46C7
:1002F000009021F0004123F00045B8EB0200A94135
:1003000005D24046214690461C460B46024623F045
:100310000040104347D0270DC7F30A00C3F30A512A
:100320000290401A019040286BDAC3F3130040F4A6
:10033000801B0098924620B10023D2EB030A63EBA6
:100340000B0B01985946C0F14002504600F035FAB7
:1003500006460D4650465946019A00F04DFA10EBFC
:1003600008006141002487EA115284EAE7731A43C6
:1003700040D0009A62B3019A012A4FEA075215DC75
:10038000001B61EB02014FF0004202EA0752CDE987
:100390000042001C41F5801132462B4600F0BCFAA9
:1003A00003B0BDE8F08F40462146F9E7001B61EB42
:1003B0000201001C41F5801300185B412018A2F5D2
:1003C000001747EB030140EAD570B6196D4111E003
:1003D0006D084FEA360645EAC0754FEA0752001B22
:1003E00061EB0201001C41F5801149084FEA300021
:1003F0000019514132462B4603B0BDE8F04F00F0E2
:100400007CBA0098012240000023D0EB020263EB8B
:10041000E073009821464FEAE074B8EB000061EB0E
:100420000401E9E783F000435BE781F0004158E70E
:100430002DE9FE4F81EA030404F0004421F000415D
:1004400000944FF0000B23F0004350EA01045ED00B
:1004500052EA03045BD0C3F30A54C1F30A552C4497
:10046000A4F2F3340194A0FB0254C1F3130141F44C
:100470008011C3F3130343F4801301FB024400FB18
:10048000034E840A970A44EA815447EA8357A4FB3F
:10049000076802958D0A05FB07854FEA932C04FB3C
:1004A0000C542705029D4FEA065847EA1637B5EB6C
:1004B00008056EEB070C870E920E47EA811742EA99
:1004C0008312A7FB0201B6EB0B0164EB00042B0DBA
:1004D00043EA0C335E1844EB1C50DA465146E7FB06
:1004E0000201C5F313044FEA0B3343EA14534FEAF6
:1004F0000432019C43EA0603A4F10C040294009C1C
:10050000CDE900B400F008FA03B0BDE8F08F002098
:100510000146F9E72DE9F04D81EA030404F0004BB0
:1005200021F0004514464FF0000A23F0004150EA44
:10053000050220D054EA01021DD0C5F30A57024635
:10054000C5F31303C1F31300C1F30A5640F4801539
:1005500043F48013A7EB0608101BD64608F2FD38BB
:1005600073EB050002D308F1010801E092185B412A
:10057000B8F1000F03DA00200146BDE8F08D00203D
:100580004FF48011064684460EE0171B73EB0507F7
:1005900005D3121B63EB050306434CEA010C490823
:1005A0004FEA300092185B4150EA0107EDD152EA60
:1005B000030012D082EA040083EA0501084305D053
:1005C000101BAB4106D20122002306E000224FF0AF
:1005D000004302E06FF0010253101AEB06004CEBEF
:1005E000085110EB0A0041EB0B01BDE8F04D00F0A3
:1005F00084B9C10F80EAE0700844CA07962300213D
:1006000000F04DB996230022114600F048B90EB50E
:10061000C10F80EAE0700844CA07002140F233436A
:100620008DE80E000A460B4600F076F903B000BDD7
:100630000EB540F2334102910021CDE900110A4686
:100640000B4600F069F903B000BD70B5C1F30A5262
:1006500001F000450024C1F3130140F2FF3341F4DF
:1006600080119A4201DA002070BD40F233439A4271
:10067000A2F2334203DC524200F0AEF800E09040B8
:100680002C43F1D0404270BD00F0004230F00040F9
:100690000AD0C10D01F56071C0F3160042EA0151A4
:1006A000C208400711437047002001467047000010
:1006B00030B5041E71F1000404DB4FF000444042E9
:1006C00064EB0101141E73F1000405DB1C464FF0BE
:1006D0000043524263EB0403994208BF904230BD8D
:1006E00001F0004330B421F0004150EA010206D08D
:1006F0000A0DA2F56072C1F31301002A02DC30BCBE
:1007000000207047440F44EAC104C100E01830BC27
:1007100000EBC25000F0BAB8002801DBC0F1004085
:10072000002901DBC1F100418842704730B50B461A
:10073000014600202022012409E021FA02F59D4211
:1007400005D303FA02F5491B04FA02F52844151EE5
:10075000A2F10102F1DC30BD2DE9F05F0546002079
:1007600092469B4688460646814640241BE0284622
:1007700041464746224600F02FF853465A46C01AD3
:10078000914110D311461846224600F016F82D1A52
:1007900067EB01084F4622460120002100F00DF8CA
:1007A00017EB00094E41201EA4F10104DFDC48468E
:1007B00031462A464346BDE8F09F202A04DB203A12
:1007C00000FA02F1002070479140C2F1200320FAA4
:1007D00003F3194390407047202A04DB203A21FAA2
:1007E00002F00021704721FA02F3D040C2F120024A
:1007F0009140084319467047202A06DBCB17203A60
:1008000041FA02F043EAE07306E041FA02F3D04015
:10081000C2F1200291400843194670472DE9F04784
:1008200091460F4680460446002614F8015B2DB120
:1008300000F002F90068405DC007F6D12B2D02D010
:100840002D2D18D0641E4A463946204600F0F8F88F
:1008500027B13968A14201D1C7F8008071054FF076
:1008600002040BD54042002803DD03F0E7FC0460DE
:10087000A007BDE8F08746F48066E4E70028F8DAD0
:1008800003F0DCFC04606FF00040F2E70029A8BF31
:100890007047401C490008BF20F00100704710B4A9
:1008A000B0FA80FC00FA0CF050EA010404BF10BC5E
:1008B000704749B1CCF1200421FA04F411FA0CF18B
:1008C00018BF012121430843A3EB0C01CB1D4FEAC4
:1008D00000614FEA102042BF002010BC704700EBBF
:1008E000C35010440029A4BF10BC7047401C4900ED
:1008F00008BF20F0010010BC704710B5141E73F142
:10090000000408DA401C41F1000192185B411A43CF
:1009100001D120F0010010BD2DE9F04D92469B461B
:1009200011B1B1FA81F202E0B0FA80F220329046C1
:10093000FFF743FF04460F4640EA0A0041EA0B0175
:1009400053465A46084313D0114653EA010019D0C2
:10095000C8F140025046FFF73FFF05460E4650469D
:1009600059464246FFF729FF084305D0012004E01D
:1009700020463946BDE8F08D0020054346EAE07682
:100980002C4337430A986305E40AA0EB08000022D1
:10099000FD0A44EA47540A3002D500200146E9E73F
:1009A000010510196941DDE9084500196941BDE8F3
:1009B000F04DA2E770B521F0004303430CD0C1F322
:1009C0000A550024D5EB040564EB0403D617AD1AD1
:1009D000B34102DB0020014670BD201841EB0251FB
:1009E00070BDC1F30A52C1F3130140F2FF3341F469
:1009F00080119A4202DA00200146704740F23343E8
:100A00009A42A2F2334202DC5242FFF7E5BEFFF700
:100A1000D4BE0000064C074D06E0E06840F001033C
:100A200094E8070098471034AC42F6D3FFF784FBF4
:100A3000E8B8000808B900080048704764B8000822
:100A40002DE9F05F82460078002715468B460AF1B3
:100A50000104B946302801D09DB113E014F8010B10
:100A60000127782803D0582801D045B10AE00DB1FC
:100A7000102D07D10027102514F8010B02E00825DE
:100A800000E00A250026B0460EE005FB080005FB45
:100A900006F1012701EB10461FFA80F8B6F5803FFA
:100AA00000D3B94614F8010B294600F069F8002874
:100AB000EBDABBF1000F05D00FB1641E00E0544625
:100AC000CBF80040B9F1000F06D003F0B7FB0221CC
:100AD0000160C81EBDE8F09F48EA0640FAE72DE92C
:100AE000F04D00231A461B1A8A4103DB0020014601
:100AF000BDE8F08DC1F30A52C1F3130141F4801532
:100B00004FF0000BD10702D100186D41521E002793
:100B1000044640F2FF11384601EB620A3E46804629
:100B2000024600204FF48011FFF756FEC2197141B2
:100B3000BB1846EB0100B4EB030C75EB000C04D3BF
:100B4000E41A65EB000517460E46241908F101006A
:100B50006D4180463428E3DDF91946EB0600091B98
:100B6000A84103D24FF0FF32134601E000221346A2
:100B70001BEB070046EB0A51BDE8F04DFFF7BDBE89
:100B80003A2800D2303820F02002412A01D3A2F1C5
:100B90003700884201D34FF0FF30704721B182689F
:100BA00042F00102826003E0826822F0010282606A
:100BB000704721B1826842F48072826003E08268EB
:100BC00022F4807282607047014600208A6802F039
:100BD00004020AB1012000E0002070470146C86C01
:100BE00080B270470246002013680B400BB1012011
:100BF00000E000207047014600208A6802F00802E9
:100C00000AB1012000E000207047000030B5024624
:100C10000020002350680F4C20400D790C6844EAF6
:100C200005242043506090680B4C2040D1E90254C9
:100C30002C434D7944EA450420439060D06A20F467
:100C400070000C7C641EE4B2234340EA0350D0627F
:100C500030BD0000FFFEF0FFFDF7F1FFF0B50446E8
:100C60000D4600200021092D11DDE068A5F10A06DE
:100C700006EB4607072606FA07F18843A5F10A06A0
:100C800006EB460603FA06F10843E0600CE0206933
:100C900005EB4507072606FA07F1884305EB4506ED
:100CA00003FA06F108432061072A0FDA606B561E2B
:100CB00006EB86071F2606FA07F18843561E06EB49
:100CC000860605FA06F10843606322E00D2A0FDA72
:100CD000206BD61F06EB86071F2606FA07F188430E
:100CE000D61F06EB860605FA06F10843206310E0DE
:100CF000E06AA2F10D0606EB86071F2606FA07F149
:100D00008843A2F10D0606EB860605FA06F10843B4
:100D1000E062F0BD816841F008018160704721B157
:100D2000826842F4A002826003E0826822F4A0029A
:100D300082607047816841F0040181607047000063
:100D400008B50121082002F0BFFB4FF48070ADF818
:100D5000000010208DF8030003208DF80200694682
:100D6000044800F0DFFB4FF48071024800F0B7FC4C
:100D700008BD0000000C014010B58021024800F0C1
:100D8000A5FC0446204610BD000C014008B5012119
:100D9000082002F099FB8020ADF8000028208DF893
:100DA00003006946014800F0BDFB08BD000C01408E
:100DB00000BFFEE710B5002400F024F804E0601C3A
:100DC000C4B2012004F010F80D48006808B1642C8A
:100DD000F5DB642C01DB012010BD002404E0601C65
:100DE000C4B2012004F000F80548006808B9642C7A
:100DF000F5DB642C01DB0120EEE70020ECE70000CE
:100E00002C01244208B54FF40060ADF800004820E2
:100E10008DF803006946024800F084FB08BD00001D
:100E20000020014008B54FF40060ADF8000010202C
:100E30008DF8030003208DF802006946014800F098
:100E400071FB08BD0020014008B50121080202F035
:100E50003BFB4FF40060ADF8000010208DF803005C
:100E600003208DF802006946064800F05BFB4FF452
:100E70000061044800F035FC00F068F8FFF79AFFC5
:100E800008BD00000020014010B5002404E0601CF3
:100E9000C4B2012003F0A8FF0D48006808B1642C1B
:100EA000F5DB002404E0601CC4B2012003F09CFFC9
:100EB0000748006808B9642CF5DB282003F094FF8C
:100EC0000348006808B1012010BD0020FCE70000C5
:100ED0002C01244270B50024002506E06006040EB3
:100EE000FFF7D2FF0443681CC5B2082DF6DB20468D
:100EF00070BD7CB505460E4600F028F8FFF75AFF96
:100F0000F8B9002405E0FFF7E5FF0DF80400601CC8
:100F1000C4B2052CF7DB9DF800009DF801100844D1
:100F20009DF8021008449DF8031008449DF8041031
:100F3000884208D19DF8000030709DF802002870AA
:100F400001E001207CBD0020FCE7000010B5FFF7A8
:100F500069FF002006490860142003F01FFF0120EC
:100F60000449C1F8AC011E2003F03EFF10BD000093
:100F7000AC0124420000244200F0805111B1034929
:100F8000086001E002494860704700000404024024
:100F90000000024021B1026842F00102026004E058
:100FA00002684FF6FE731A40026070470146002047
:100FB000002201F0805313B1054B1A6801E0054B84
:100FC0001A6802EA01030BB1012000E0002070471B
:100FD000000402400000024010B50022026847F6FB
:100FE000F0739A430C6A8B6823430C6923434C6962
:100FF00023438C692343CC6923434C6A23438C6A83
:1010000023431A430260CB6843600B6883604B68DC
:10101000C36010BD416070477047000010B580216B
:101020000348FFF7C2F800200249088010BD000005
:10103000430200204C00002070B50546002400BF8C
:1010400000F08AF980B90DA10E48FFF7B9F80446FF
:1010500054B13A212046FFF7C5F8044614B1641C88
:10106000204670BD0020FCE7052003F097FE681EB7
:1010700085B2002DE4DC0020F3E700004950442C49
:10108000000000004302002008B50121042002F006
:101090001BFA0121084602F017FA01213F4800F02F
:1010A000CDFA48F21000ADF8000010208DF80300D2
:1010B00003208DF802006946394800F033FA102108
:1010C000374800F00EFB4FF40041354800F009FBB3
:1010D000FFF7A4FF33A1354803F030F803E04FF4E5
:1010E000FA7003F05BFE32A132A000F0E7F80028AE
:1010F000F5D132A12D4803F021F82FA132A000F044
:10110000DDF834A1294803F019F84FF4FA7003F020
:1011100045FE29A132A000F0D1F84FF4FA7003F097
:101120003DFE03E04FF4FA7003F038FE20A130A03A
:1011300000F0C4F80028F5D131A11C4802F0FEFFF0
:1011400003E04FF4FA7003F029FE19A130A000F07B
:10115000B5F80028F5D132A1144802F0EFFF03E002
:101160004FF4FA7003F01AFE30A132A000F0A6F896
:101170000028F5D13AA10D4802F0E0FF03E04FF45A
:10118000FA7003F00BFE3AA13BA000F097F800289C
:10119000F5D144A1054802F0D1FF08BD000230009E
:1011A00000080140302E2041540D0A000038014053
:1011B0004F4B000041540D0A00000000312E205218
:1011C00053540D0A0000000041542B5253540D0A91
:1011D00000000000322E2043574D4F44450D0A00B9
:1011E00041542B434950434C4F53450D0A000000D6
:1011F00041542B43574D4F44453D310D0A000000EB
:10120000332E2041542B4357444843500D0A0000CD
:1012100041542B4357444843503D312C310D0A0073
:10122000342E2043574A41500D0A0000474F5420A6
:101230004950000041542B43574A41503D224F50E2
:10124000504F2052656E6F382050726F2035472204
:101250002C223132333435363738220D0A00000063
:10126000352E2043495053544152540D0A0000007A
:10127000434F4E4E4543540041542B434950535421
:101280004152543D22544350222C2262726F6B65AE
:10129000722E656D71782E696F222C313838330DBE
:1012A0000A000000362E2045535038323636204989
:1012B0006E6974204F4B0D0A000000002DE9F041CB
:1012C00004460D46C8262046FEF796FF87B23A46EA
:1012D00021460D4802F056FF0FE000F03DF848B9F6
:1012E00029460A48FEF76CFF20B1FFF797FE002061
:1012F000BDE8F0810A2003F051FD301EA6F1010186
:10130000CEB2EAD10120F3E70048004043020020BA
:1013100030B589B004460D46FFF780FE2A4608A185
:1013200001A802F049FF0AA101A8FFF7C7FF20B9F1
:101330002A462146074802F025FF09B030BD0000CB
:1013400041542B43495053454E443D25640D0A00FA
:101350003E000000004800400A48008808B901200B
:1013600070470848008808490988884203D100204E
:1013700004490880F4E703480088034908800120F5
:10138000EEE700004C0000204E00002051B182002A
:10139000A2F1C042126842F001038200A2F1C042F1
:1013A000136009E08200A2F1C0421268034B1A40A8
:1013B0008300A3F1C0431A6070470000FEFF0F00D6
:1013C000D0E901121143C268114302691143426915
:1013D000114382691143C2691143026A1143426A8F
:1013E0001143826A1143C26A1143026B11430268BE
:1013F0009200A2F1C0421160816808290BD10168F6
:101400008900A1F1C041096841F0400201688900EA
:10141000A1F1C0410A60416B0968426B526841EA20
:101420000211426B926841EA0221426B928941EAC1
:101430000241426B128A41EA0251426B127D41EA3B
:101440000261426B926911430268521C9200A2F140
:10145000C0421160C16AB1F5804F1BD1816B096830
:10146000826B526841EA0211826B926841EA022162
:10147000826B128A41EA0251826B127D41EA02615B
:10148000826B9269114302689200A2F1C042C2F8D5
:10149000041107E06FF0704201688900A1F1C041BA
:1014A000C1F80421704700002DE9F04105460C46C3
:1014B000002700260723012229461048FFF7CEFB0C
:1014C00000BF13E001210D48FFF729FC00BF0221F6
:1014D0000A48FFF787FB0028F9D00848FFF77EFB92
:1014E0000644052003F05AFC781CC7B2A742E9DB8A
:1014F000B6FBF4F080B2BDE8F0810000003C014092
:1015000010B50A210620FFF7CFFF0446B4F57A6F25
:1015100001DD4FF47A64282094FBF0F0C0F1640000
:10152000C0B210BD2DE9F041024600250026002082
:1015300000230024002791F803C00CF00F0591F858
:1015400003C00CF0100CBCF1000F03D091F802C0E6
:101550004CEA050591F800C0BCF1000F31D01468C9
:1015600000202BE04FF0010C0CFA00F3B1F800C0A2
:101570000CEA03069E4220D183004FF00F0C0CFAB8
:1015800003F7BC4305FA03FC4CEA040491F803C0DA
:10159000BCF1280F06D14FF0010C0CFA00FCC2F888
:1015A00014C00AE091F803C0BCF1480F05D14FF018
:1015B000010C0CFA00FCC2F810C0401C0828D1D362
:1015C0001460B1F800C0BCF1FF0F34DD5468002096
:1015D0002EE000F1080C4FF0010808FA0CF3B1F806
:1015E00000C00CEA03069E4221D183004FF00F0C8D
:1015F0000CFA03F7BC4305FA03FC4CEA040491F827
:1016000003C0BCF1280F05D100F1080C08FA0CF852
:10161000C2F8148091F803C0BCF1480F07D100F163
:10162000080C4FF0010808FA0CF8C2F81080401CB2
:101630000828CED35460BDE8F0810000F0B50A461A
:10164000002300240021002500F00046B6F1004FE1
:1016500002D11D4EF16901E01B4E7168C0F30345D4
:1016600083B200F44016B6F5401F08D121F0706136
:10167000154E766826F07066134F7E6012E000F417
:101680008016B6F5801F06D1032606FA05F4A1439D
:1016900041F0706106E0460D360103FA06F6B143EB
:1016A00041F0706122B1460D360103FA06F631436E
:1016B00000F00046B6F1004F02D1034EF16101E0A7
:1016C000014E7160F0BD00000000014002460020A4
:1016D00093680B400BB1012000E00020704741618E
:1016E00070470161704700002DE9F14F84B0049804
:1016F000FEF79EFF80464FF066321F4BFEF798FEC6
:10170000064600221D4BFEF705FF0446FEF7E8FFE4
:1017100003900398FEF7B8FF064632460B460020BA
:101720001749FEF7F7FE80460022164BFEF77AFEB9
:1017300004460022134BFEF77BFE8246FEF7D0FFE5
:10174000029011480190DDE90110FEF78CFD824600
:10175000FEF79AFF06464FF066320C4B04F038F95C
:1017600004464FF060420A4BFEF762FE8046FEF7E9
:10177000B7FF05B0BDE8F08F66660A4000FEAF40D7
:10178000000014400000F03FE17A744066E608C0B3
:10179000B7B748402DE9F14F84B00498FEF748FFF1
:1017A00080464FF066321F4BFEF742FE064600228F
:1017B0001D4BFEF7AFFE0446FEF792FF0390039821
:1017C000FEF762FF064632460B4600201749FEF739
:1017D000A1FE80460022164BFEF724FE044600229E
:1017E000134BFEF725FE8246FEF77AFF0290114862
:1017F0000190DDE90110FEF736FD8246FEF744FF59
:1018000006464FF0C0420C4B04F0E2F804464FF09D
:1018100000520A4BFEF70CFE8046FEF761FF05B052
:10182000BDE8F08F66660A4000FEAF40000014403D
:101830000000F03F7B14CE3F128300C05C59834010
:101840002DE9F04104460025002601211948FFF743
:1018500066FA002722E000211748FFF79BFB0221D0
:101860001548FFF7D7FB01211348FFF793FB012130
:101870001048FFF754FA00BF0220FFF797FB00283B
:10188000FAD00220FFF778FB0C480088284485B284
:101890000A484088304486B2781CC7B2A742DADBD7
:1018A00095FBF4F00549088096FBF4F04880BDE80C
:1018B000F081000000240140080002406800002080
:1018C00000BFFEE770B506460F484088401E83B251
:1018D0000D480088401E82B20021084600F04EF8F4
:1018E00000240CE0002504E0304600F0B5F9681C47
:1018F00085B205484088A842F6DC601C84B20248E4
:101900000088A042EEDC70BD6000002000B50246F9
:101910000F4882716AB9362000F092F94C2000F02D
:1019200095F94FF4F0700A4948804FF4A070088090
:101930000CE0362000F084F92C2000F087F94FF4F9
:10194000A070034948804FF4F070088000BD00008B
:101950006000002070B504460D4616462B46224610
:101960002946204600F00AF8304600F075F970BDAF
:1019700001480088704700000008006C30B504463C
:101980000D462A2000F05CF9201200F05FF9E0B269
:1019900000F05CF9101200F059F9D0B200F056F9DD
:1019A0002B2000F04DF9281200F050F9E8B200F0B9
:1019B0004DF9181200F04AF9D8B200F047F92C207E
:1019C00000F03EF930BD00002DE9F84F80460E468C
:1019D00017461C46B3462046E31704EB5373DB104F
:1019E00021464FEAE47C04EB5C7C4FEAEC0CA4EB70
:1019F000CC0CBCF1000F02D04FF0010C01E04FF015
:101A0000000C6344224604EBD27C4FEA6C0C03FBCF
:101A10000CF3DBB20093A7F12000C7B2002556E01B
:101A20000C2C07D107EB47002B4901EB800010F885
:101A3000059013E0102C05D1284800EB071010F892
:101A400005900BE0182C07D107EBC700244901EBE8
:101A5000800010F8059001E0BDE8F88F4FF0000A13
:101A60002FE009F0800030B11E4802883146404620
:101A7000FFF770FF07E00A9828B91B480288314633
:101A80004046FFF767FF4FEA49604FEA1069701C54
:101A900086B216484088B04200DCDDE7A6EB0B00BA
:101AA000A0420AD15E4608F101001FFA80F80F48F3
:101AB0000088404500DCCFE706E00AF1010000F0B5
:101AC000FF0ABAF1080FCCDB00BF681CC5B2009852
:101AD0008542A5DB00BFBFE70D64000881680008F0
:101AE000716E00085C0000205E0000206000002095
:101AF0002DE9F84F04460F461546A346009760E0CF
:101B0000002657E006EB8600C0EB86102F4911F83F
:101B10001000297888424BD106EB8600C0EB861076
:101B20002A4901EB400040786978884240D14FF063
:101B300000083AE006EB8600C0EB8610234901EB73
:101B40004000801C10F808A04FF0000926E00AF0C1
:101B50008000802806D11E48028839462046FFF7BB
:101B6000F9FE05E01B48028839462046FFF7F2FEE1
:101B70004FF6FF7000EA4A0A601C84B2A4EB0B0027
:101B8000202807D15C46781C87B20098381A1D2897
:101B900000D1009F09F1010000F0FF09B9F1080F21
:101BA000D5DB08F1010000F0FF08B8F1740FC1DBCC
:101BB000701CC6B2FF2EA5DBAD1C04F1200084B260
:101BC000A346287800289BD1BDE8F88F4DAB0008CC
:101BD0005C0000205E0000202DE9F84704460D4619
:101BE00090469946DDE9096704F0FF0A08EB040016
:101BF0001FFA80F809EB05001FFA80F916E044454A
:101C000002DB5446A81985B24D4500DB14E00020E4
:101C100000903A78334629462046FFF7D5FE3046F5
:101C200006EBD07104EB61018CB27F1C38787E2802
:101C300002DC38782028E2DA00BFBDE8F88700002F
:101C40000149088070470000FE07006C01490880C8
:101C5000704700000008006C0112024A1180C1B2F6
:101C6000118070470008006C08B50121482001F080
:101C70002BFC2020ADF8000010208DF8030003207D
:101C80008DF8020069460948FFF74CFC20210748FF
:101C9000FFF727FD2020ADF8000069460448FFF754
:101CA00041FC20210248FFF71CFD08BD000C01404B
:101CB0000018014000B587B0012148F2800001F012
:101CC00003FC4FF48070ADF8180000208DF81B0065
:101CD00006A91848FFF726FC002001908DF808009F
:101CE00004904FF46020039001208DF81400002030
:101CF0008DF8090001A91048FEF788FF01210E4860
:101D0000FEF74CFF0C48FFF705F800BF0A48FEF746
:101D100072FF0028FAD10848FFF70CF800BF064808
:101D2000FEF752FF0028FAD101210448FEF7F7FF21
:101D300007B000BD001C0140003C014000240140F0
:101D400010B50446207B012802D1206803F072F808
:101D5000002020606060A060207310BD0246002358
:101D600001230DE002F07F000870D2092AB1087843
:101D700040F080000870491C01E0184670475B1C69
:101D8000042BEFDD4FF0FF30F8E770B504460E4648
:101D90000025206898B901202073304603F056FAD8
:101DA00020602068E0B100206060A66003E00020B1
:101DB000216848556D1CA068A842F8D810E00220A0
:101DC000207303E00020216848556D1CA068A842DC
:101DD000F8D800206060A068B04201D200202060E6
:101DE00070BD00002DE9FF4F83B082468B469146BF
:101DF000159C0025002002900F2701904846FEF711
:101E0000FBF90FFA80F8B9F1000F03D1012007B0F8
:101E1000BDE8F08F08F10200384487B2109808B18D
:101E200045F00205129878B145F004051298FEF7C6
:101E3000E3F9C0B202901398FEF7DEF9014602986A
:101E4000001D0844384487B2119820B1012804D0FD
:101E5000022808D104E000BF07E045F00C0504E0CB
:101E600045F0140501E00220D1E700BF149808B145
:101E700045F02405BAF1000F02D0BBF1000F01D1EB
:101E80000320C4E745F0C0055046FEF7B5F9064605
:101E90005846FEF7B1F93044001D384487B2394640
:101EA0002046FFF772FF206808B90420AFE73946E3
:101EB0002068FEF77AF910216268501C6060206883
:101EC0008154D4E90023D118781FFFF747FF00B2EF
:101ED00001900198002804DA2046FFF731FF052021
:101EE00095E7616801980844606000216268501CB1
:101EF00060602068815404216268501C6060206822
:101F000081544D216268501C6060206881545121C9
:101F10006268501C60602068815454216268501CC3
:101F20006060206881546268501C60602068815441
:101F300004216268501C6060206881546168481CFC
:101F40006060206845540698010A6268501C606011
:101F5000206881540698C1B26268501C6060206895
:101F60008154C8F307216268501C60602068815466
:101F70006268501C6060206800F80280D4E900129A
:101F8000881842464946FEF73EF960684044606062
:101F900005F00400B8B30026139808B938A01390D0
:101FA0001298FEF729F986B2310A6268501C606007
:101FB000206881546268501C606020688654D4E9AF
:101FC0000012881832461299FEF71DF960683044F5
:101FD00060601398FEF710F986B2310A6268501CEF
:101FE0006060206881546268501C6060206886547C
:101FF000D4E90012881832461399FEF704F9606894
:102000003044606000BF05F08000C8B15046FEF764
:10201000F3F886B2310A6268501C6060206881540F
:102020006268501C606020688654D4E900128818E9
:1020300032465146FEF7E7F860683044606000BF02
:1020400005F04000C8B15846FEF7D6F886B2310A0E
:102050006268501C6060206881546268501C606037
:1020600020688654D4E90012881832465946FEF793
:10207000CAF860683044606000BF0020C7E6000016
:10208000000000002DE9FF4F83B0834617469946B4
:10209000139C002500260020029001908046BBF191
:1020A000000F03D1012007B0BDE8F08F00260AE041
:1020B0000498805D232803D00498805D2B2801D1EB
:1020C0000220F0E7761C0498805D0028F0D148F0EB
:1020D0003008119808B148F0010806EB0900851C8A
:1020E000109820B1012804D002280AD105E000BFD1
:1020F00009E048F00208AD1C05E048F00408AD1CFA
:1021000001E00320CFE700BF8FB33878022821D148
:102110004FF0000A00BF50460AF1010A385C7D28E2
:10212000F9D1AAF1030A0AF1070002900298A9EB7B
:10213000000AE81CA0EB0A012046FFF726FE2068F3
:1021400008B90420AFE7EA1CA2EB0A012068FEF7F9
:102150002CF819E0691D2046FFF717FE206808B922
:102160000420A0E7691D2068FEF71FF80CE0FFE7D8
:10217000691D2046FFF709FE206808B9042092E790
:10218000691D2068FEF711F86168481C60602068CE
:1021900000F80180D4E9000281182846FFF7DEFD2F
:1021A00001900198002804DA2046FFF7C9FD0520B8
:1021B00079E76168019808446060C6F307216268A6
:1021C000501C6060206881546268501C6060206808
:1021D0008654D4E90012881832460499FEF713F8A1
:1021E000606830446060109860B14FEA1B216268FB
:1021F000501C6060206881546268501C60602068D8
:1022000000F802B0C7B1387802280BD1D4E9001227
:1022100088183946029AFDF7AFFF616802980844B2
:10222000606009E0D4E9001288184A463946FDF793
:10223000A3FF606848446060002034E770B505463D
:102240000C4604212046FFF7A0FD206808B90120B4
:1022500070BD70216268501C60602068815402214A
:102260006268501C60602068815429126268501CAA
:102270006060206881546268501C606020688554EA
:102280000020E5E770B505460C4604212046FFF71F
:102290007CFD206808B9012070BD62216268501C75
:1022A00060602068815402216268501C6060206870
:1022B000815429126268501C6060206881546268F1
:1022C000501C6060206885540020E5E72DE9FF5F21
:1022D0008046174699460E9C0026B246B346002516
:1022E000B8F1000F03D1012004B0BDE8F09F0BE06E
:1022F00057F8250008B90220F6E757F82500FDF742
:102300007BFF0644681CC5B24D45F1DB09EB490073
:10231000801C00EB060A0AF105012046FFF735FD97
:10232000206808B90320DFE782216268501C6060E2
:1023300020688154D4E9000281185046FFF70EFD51
:102340000FFA80FBBBF1000F04DA2046FFF7F8FC20
:102350000420C9E76068584460604FEA1821626849
:10236000501C6060206881546268501C6060206866
:1023700000F80280002524E057F82500FDF73CFF17
:102380000646C6F307216268501C606020688154CD
:102390006268501C606020688654D4E90023D0181D
:1023A00057F825103246FDF72EFF60683044606014
:1023B0000198C1B26268501C606020688154681C3A
:1023C000C5B24D45D8DB00208EE7F0B504460D467A
:1023D0002646012300201060002114E0775C07F0FE
:1023E0007F07106807FB03001060705C00F080003E
:1023F00008B9481CF0BDDB01B3F5001F02D36FF034
:102400000100F7E7491CA942E8DB4FF0FF30F1E794
:102410002DE9F84380460C4615461E462F2108F14B
:102420000600FDF7DFFE07460020009017B90120E7
:10243000BDE8F8837F1C6A46042108F10100FFF71C
:10244000C4FF252002F002FF2060206808B90220A6
:10245000EEE725212068FDF7A8FE242239462068F2
:10246000FDF78AFE243700982C3830803188481CCC
:1024700002F0ECFE2860286820B9206802F0DAFC3F
:102480000320D5E73288511C2868FDF78EFE32887C
:1024900039462868FDF770FE0020C9E701464878F4
:1024A000022801D001207047887810B1887801286F
:1024B00001D1C878F7E7FF20F5E700002DE9FC5FC0
:1024C00081460D4614461E46DDE90C8B99F8000046
:1024D00000F00F0A002001900AF008000090CAF3F3
:1024E00041008BF8000001AA042109F10100FFF767
:1024F0006CFF4844471C0198022802D30AF00100EF
:1025000010B1FF20BDE8FC9F7878397840EA0120BF
:1025100020802088801C0199884201D9FF20F1E7A2
:1025200054A1B81CFDF74CFE08B10F20EAE79BF858
:10253000000020B101283DD0022877D13BE000986F
:1025400008B1FF20DEE72188481C02F07FFE2860EA
:10255000286808B9FF20D5E72288511C2868FDF7B4
:1025600024FE2288B91C2868FDF706FE0198801E0B
:102570002188401AA8F80000B8F80010481C02F0A2
:1025800065FE3060306820B9286802F053FCFF20F7
:10259000B8E7B8F80020511C3068FDF706FEB8F81F
:1025A0000020B4F800C0BB1C0CEB03013068FDF741
:1025B000E3FD4FE000BF2088801C0199884201D9CB
:1025C000FF209FE72088C01C395C2088801C385C75
:1025D00041EA00210E9801800E9808B9FF2091E78A
:1025E0002188481C02F032FE2860286808B9FF20C4
:1025F00088E72288511C2868FDF7D7FD2288B91C7E
:102600002868FDF7B9FD0198001F2188401AA8F835
:102610000000B8F80010481C02F018FE3060306866
:1026200028B9286802F006FCFF206BE710E0B8F834
:102630000020511C3068FDF7B8FDB8F80020B4F850
:1026400000C03B1D0CEB03013068FDF795FD01E078
:10265000FF2057E700BF2B212846FDF7C3FD20B917
:1026600023212846FDF7BEFD08B1FF204AE70020E0
:1026700048E7000024637265710000000146487855
:10268000022801D001207047887820B9C8780A282C
:1026900001D10020F7E70120F5E70146487802283C
:1026A00001D001207047887820B9C8780A2801D164
:1026B0000020F7E70120F5E701464878022801D01D
:1026C00001207047887820B9C8780A2801D10020F5
:1026D000F7E70120F5E702465078022801D00120F3
:1026E00070479078B0EB112F05D1D078CBB29842DB
:1026F00001D10020F4E70120F2E70000F8B504461C
:10270000FF2720780511012D01DB0E2D01DD384654
:10271000F8BD032D24D1002000906A460421601CDE
:10272000FFF753FE2044461C0098022803D320786C
:1027300000F0010008B1FF20EAE77078317840EA44
:102740000120801C0099884201D9FF20E0E706A102
:10275000B01CFDF735FD08B10F2700E0032700E0AE
:102760002F463846D4E700002463726571000000EC
:102770000146FF208A78A2B9CA78142A11D10A79B1
:1027800032B1012A05D0022A04D0802A06D103E002
:1027900000BF00BF002003E0012001E0022000BFD5
:1027A00000BF7047014601208A781AB9CA781E2AEC
:1027B00000D100207047000000B587B001214FF420
:1027C000017000F081FE0320ADF8040000208DF8B8
:1027D000070001A92148FEF7A5FE072301220021D9
:1027E0001F48FEF73BFA0723022201211C48FEF78F
:1027F00035FA4FF4004000F03BFE0020029001202B
:102800008DF80C00002005904FF460200490022009
:102810008DF8180000208DF80D0002A91048FEF771
:10282000F5F901210E48FEF7C4F901210C48FEF725
:10283000B5F90B48FEF76EFA00BF0948FEF7DBF961
:102840000028FAD10648FEF775FA00BF0448FEF7E3
:10285000BBF90028FAD107B000BD00000008014014
:102860000024014010B58CB004460121084600F058
:102870000BFE0E4801900E48029000200390049435
:102880004FF4807007900020059080200690C000D3
:102890000890002009904FF480500A9000200B907F
:1028A00001A90448FEF798FB0CB010BD4C24014070
:1028B000680000200800024000BFFEE770470000EB
:1028C00070B5002100230F22C47804B3154C24688E
:1028D00004F4E064C4F5E064210AC1F10403CA40D1
:1028E000447804FA03F184781440214309010E4C22
:1028F0000678A155047804F01F050124AC40057842
:102900006D11AD0005F1E025C5F8004109E004783E
:1029100004F01F050124AC40044D0678761145F8FB
:10292000264070BD0CED00E000E400E080E100E036
:1029300002490143024A1160704700000000FA0595
:102940000CED00E030B58BB00020079008900990A6
:102950000A90012530A032A333A235A1009040484F
:1029600001F0ECFB07A8002102910391CDE90410CE
:1029700000912B0228A2019129A12BA0FFF732FA86
:10298000002842D1089A91B20798FEF7C1FCFA20BC
:10299000FEF752FB0446002C33D02046FFF7AEFE74
:1029A00002282ED12046FFF779FD062823D2DFE842
:1029B00000F003090E13181D2AA1294801F0BEFBDF
:1029C00000251DE02CA1264801F0B8FB18E031A13C
:1029D000234801F0B3FB13E037A1214801F0AEFB1F
:1029E0000EE03DA11E4801F0A9FB09E043A11C48EF
:1029F00001F0A4FB04E04CA1194801F09FFB00BFCB
:102A000000BF07A8FFF79CF903E04EA1144801F0AE
:102A100095FB28460BB030BD35363136383339009A
:102A200074657374000000003737323437000000DB
:102A30004F6E654E65745F4465764C696E6B0D0A2A
:102A400050524F49443A2025732C09415549463A82
:102A50002025732C0944455649443A25730D0A0034
:102A600000380140546970733A09C1ACBDD3B3C991
:102A7000B9A60D0A000000005741524E3A09C1ACF8
:102A8000BDD3CAA7B0DCA3BAD0ADD2E9B4EDCEF3C2
:102A90000D0A00005741524E3A09C1ACBDD3CAA736
:102AA000B0DCA3BAB7C7B7A8B5C4636C69656E7468
:102AB00069640D0A000000005741524E3A09C1AC4A
:102AC000BDD3CAA7B0DCA3BAB7FECEF1C6F7CAA77A
:102AD000B0DC0D0A000000005741524E3A09C1AC6B
:102AE000BDD3CAA7B0DCA3BAD3C3BBA7C3FBBBF299
:102AF000C3DCC2EBB4EDCEF30D0A00005741524ED9
:102B00003A09C1ACBDD3CAA7B0DCA3BAB7C7B7A84E
:102B1000C1B4BDD328B1C8C8E7746F6B656EB7C7C1
:102B2000B7A8290D0A0000004552523A09C1ACBDB0
:102B3000D3CAA7B0DCA3BACEB4D6AAB4EDCEF30DF7
:102B40000A0000005741524E3A094D5154545F500B
:102B500061636B6574436F6E6E6563742046616973
:102B60006C65640D0A00000070B588B005460C461F
:102B70000020049005900690079023462A4610A155
:102B8000174801F0DBFA2046FDF736FB064604A89D
:102B90000121002200923346CDE901210390224613
:102BA00029460A20FFF76EFA38B9059A91B20498BF
:102BB000FEF7AEFB04A8FFF7C3F808B070BD000035
:102BC0005075626C69736820546F7069633A202590
:102BD000732C204D73673A2025730D0A0000000006
:102BE000003801402DE9F04790B0814600200C905C
:102BF0000D900E900F900B900A900990089000266F
:102C000007900027002482464846FFF777FD0646D6
:102C1000032E49D13C4807A908AA0BABCDE90021F6
:102C2000029009AA0AA94846FFF748FC0746002F68
:102C300039D1BDF820000B99CDE90010BDF8243042
:102C400032A141480A9A01F079FA0B9802F02EF865
:102C50008046B8F1000F05D13C4A3DA13A4801F049
:102C60006DFA1DE03FA1404602F000F805463FA185
:102C700035482A6A01F062FA3CA133482A6901F01A
:102C80005DFA3FA12869FDF79BFA48B13EA1404695
:102C900001F0ECFF0546686910B901203C49086065
:102CA000404601F0B1FF00E000BF00BFFEF7B6F9FB
:102CB000781C10B910B0BDE8F0877D210B98FDF7A6
:102CC00091FA0446A4B1781C90B1641C06E014F893
:102CD000012B50460AF1010A04A90A542078302831
:102CE00002DB20783928F2DD04A8FDF7AFFA82462E
:102CF0000F2E01D0032E05D10A9802F09BF80B98F5
:102D000002F098F800BFD5E748000020746F7069A2
:102D1000633A2025732C20746F7069635F6C656E55
:102D20003A2025642C207061796C6F61643A20250B
:102D3000732C207061796C6F61645F6C656E3A20F2
:102D400025640D0A0000000000380140614C0008B5
:102D50004552524F52204245464F52453A205B253C
:102D6000735D0A0074617267657400006A736F6E48
:102D70005F76616C75653A205B25735D0A00000023
:102D80006375727461696E0076616C756500000030
:102D9000400000202DE9F04F8FB0824600200B90BC
:102DA0000C900D900E900A900990089007900027C3
:102DB00006900026002583465046FFF79FFC0746F5
:102DC000F81E0D286FD2DFE800F01CFDFCFBFA6E48
:102DD000F96EF86E6E6E070007AB0AAA09A9504695
:102DE000FFF716FB06465EB9BDF81C000090F6A181
:102DF000FE48DDE9092301F0A1F90BA8FEF7A0FFC9
:102E0000BCE1FB4806A907AA0AABCDE90021029064
:102E100008AA09A95046FFF751FB0646002E7CD1AF
:102E2000BDF81C000A99CDE90010BDF82030F1A1D1
:102E3000EE48099A01F082F90A9801F037FF8046BE
:102E4000B8F1000F05D1FA4AFAA1E84801F076F985
:102E500029E1FDA1404601F009FF0446FCA1E34839
:102E6000226A01F06BF9FAA1E048226901F066F9E3
:102E7000FCA12069FDF7A4F9B0B1FBA1404601F027
:102E8000F5FE04466069012806D10020F849086073
:102E90000120F849086006E10120F549086000209A
:102EA000F4490860FFE066E1F3A12069FDF788F9C5
:102EB00070B1EDA1404601F0D9FE0446606918B139
:102EC0000120EF490860EEE00020ED490860EAE0EB
:102ED000ECA12069FDF774F958B3E3A1404601F075
:102EE000C5FE0446002CB3D06069FDF782FBE949BA
:102EF0000860E9480078FDF785FB8146E7480078DF
:102F0000FDF780FB4946029001F030FF48B10120F7
:102F1000DB4908600020E24900E0C7E0C1F8940105
:102F2000C1E00020D64908600120DD49C1F89401C4
:102F3000B9E0DCA12069FDF743F948B3CAA14046D6
:102F400001F094FE0446002CA5D06069FDF751FB0A
:102F5000D8490860D0480078FDF754FB8146CF4837
:102F60000078FDF74FFB4946029001F0FFFE38B1B3
:102F70000120C34908600020C949C1F8940192E0CA
:102F80000020BF4908600120C549C1F894018AE0CA
:102F9000C9A12069FDF714F9002870D0B2A14046FC
:102FA00001F064FE0446002C7DD0C54960690860CC
:102FB0000846006801282DD105E0CEE0BFE0B5E06D
:102FC00098E07DE073E04FF0DA0916E00122114647
:102FD000002000F0B1FBA9F101090320FEF72CF855
:102FE000B84908600846006818B108460068FFF74D
:102FF000F9FDB548006800B102E0B9F1000FE5D174
:1030000000BF0020B049086000220121104600F0F6
:1030100093FB48E0AA48006828B900220121104625
:1030200000F08AFB3FE0A6480068401C28BB4FF038
:10303000DA0916E001221146104600F07DFBA9F1E5
:1030400001090320FDF7F8FF9E4908600846006863
:1030500018B108460068FFF7C5FD9B48006800B13D
:1030600002E0B9F1000FE5D100BF002096490860E9
:1030700000220121104600F05FFB14E0FFE793A15E
:103080002069FDF79DF870B177A1404601F0EEFD93
:10309000044644B1606918B101208E49086002E01D
:1030A00000208C490860404601F0AEFD66E05046C5
:1030B000FFF7E4FA18B988A14C4801F03FF85DE049
:1030C0005046FFF7F9FAA0B98BA1484801F036F84D
:1030D0000BA90A20FFF7D6F858B98DA1434801F093
:1030E0002DF80C9A91B20B98FEF712F90BA8FEF787
:1030F00027FE43E03E4801885046FFF7ECFAA0B9AE
:1031000089A13A4801F01AF80BA90A20FFF796F8AE
:1031100058B98BA1354801F011F80C9A91B20B986F
:10312000FEF7F6F80BA8FEF70BFE27E05046FFF778
:10313000B4FA18B989A12D4801F000F81EE05046F4
:10314000FFF716FB20B98BA1284800F0F7FF03E03A
:103150008FA1264800F0F2FF10E05046FFF722FB57
:1031600020B992A1214800F0E9FF03E096A11F4891
:1031700000F0E4FF02E04FF0FF3600BF00BFFDF7B4
:103180004DFF701C10B90FB0BDE8F08F7D210A987B
:10319000FDF728F80546A5B1701C90B16D1C06E03E
:1031A00015F8012B59460BF1010B03A8425428785E
:1031B000302802DB28783928F2DD03A8FDF746F82D
:1031C00083460F2F10E10000636D6469643A202587
:1031D000732C207265713A2025732C207265715F03
:1031E0006C656E3A2025640D0A000000003801402D
:1031F0004A000020746F7069633A2025732C207494
:103200006F7069635F6C656E3A2025642C20706175
:10321000796C6F61643A2025732C207061796C6F32
:1032200061645F6C656E3A2025640D0A0000000041
:10323000614C00084552524F52204245464F52457C
:103240003A205B25735D0A00746172676574000043
:103250006A736F6E5F76616C75653A205B25735D8E
:103260000A0000006C65640076616C756500000002
:10327000940123421C00002062656570000000007C
:10328000A081214254656D705468726573686F6CDB
:103290006400000038000020090000200800002021
:1032A0000080214248756D5468726573686F6C6464
:1032B000000000003C0000206375727461696E00BC
:1032C000140000204400002040000020657869734D
:1032D000745F700020000020546970733A094D51EA
:1032E0005454205075626C6973682053656E642075
:1032F0004F4B0D0A00000000546970733A09526583
:1033000076205075626C6973685265630D0A00001F
:10331000546970733A0953656E64205075626C6924
:10332000736852656C0D0A00546970733A095265EE
:1033300076205075626C69736852656C0D0A0000E6
:10334000546970733A0953656E64205075626C69F4
:103350007368436F6D700D0A00000000546970734C
:103360003A09526576205075626C697368436F6DD7
:10337000700D0A00546970733A094D51545420532A
:103380007562736372696265204F4B0D0A0000001D
:10339000546970733A094D515454205375627363E4
:1033A00072696265204572720D0A0000546970737B
:1033B0003A094D51545420556E53756273637269C6
:1033C0006265204F4B0D0A00546970733A094D51E4
:1033D000545420556E53756273637269626520455B
:1033E00072720D0A0000000001D0032F05D1099868
:1033F00001F020FD0A9801F01DFD00BFC3E60000AA
:1034000070B586B004460D46002600200290039059
:103410000490059007E054F826200DA1124800F012
:103420008DFE701CC6B2AE42F5DB02A82B462246CA
:10343000022100901420FEF749FF38B9039A91B297
:103440000298FDF765FF02A8FEF77AFC06B070BD92
:1034500053756273637269626520546F7069633A71
:103460002025730D0A00000000380140704700005D
:1034700001460020034A506820F440400843506051
:10348000704700000010024029B1064A5269024309
:10349000044B5A6104E0034A52698243014B5A616A
:1034A000704700000010024029B1064AD269024369
:1034B000044BDA6104E0034AD2698243014BDA61CA
:1034C000704700000010024029B1064A9269024389
:1034D000044B9A6104E0034A92698243014B9A616A
:1034E000704700000010024030B500210022002487
:1034F00000232D4D6D6805F00C0121B1042905D084
:10350000082923D105E0294D056022E0274D0560FB
:103510001FE0254D6D6805F47012234D6D6805F4AC
:103520008034022505EB92421CB9214D55430560BC
:103530000BE01D4D6D6805F400351DB11C4D554364
:10354000056002E0194D5543056002E0174D056026
:1035500000BF00BF144D6D6805F0F0010909154D5D
:103560006B5C0568DD4045600F4D6D6805F4E061FA
:10357000090A104D6B5C4568DD4085600A4D6D6839
:1035800005F46051C90A0B4D6B5C4568DD40C560B0
:10359000054D6D6805F44041890B074D6B5CC568AE
:1035A000B5FBF3F5056130BD0010024000127A0052
:1035B00000093D00240000203400002008B501214E
:1035C0004020FFF781FF01214020FFF77DFF01210F
:1035D0004020FFF779FF01214020FFF775FF102001
:1035E0008DF803000220ADF8000003208DF80200E2
:1035F00069461548FDF796FF10208DF8030004205A
:10360000ADF8000003208DF8020069460E48FDF772
:1036100089FF10208DF803000820ADF8000003207A
:103620008DF8020069460848FDF77CFF10208DF8F0
:103630000300ADF8000003208DF80200694602483F
:10364000FDF770FF08BD000000180140704710B57D
:1036500000F002F810BD00000CB5002001900090B1
:103660003348006840F480303149086000BF30487A
:10367000006800F4003000900198401C0190009810
:1036800018B90198B0F5A06FF1D12948006800F48D
:10369000003010B10120009001E00020009000985F
:1036A000012843D12348006840F0100021490860F8
:1036B0000846006820F0030008600846006840F0F3
:1036C000020008601A484068194948600846406886
:1036D00048600846406840F480604860084640689A
:1036E00020F47C1048600846406840F4E8104860C8
:1036F0000846006840F08070086000BF0C48006811
:1037000000F000700028F9D00948406820F003005C
:10371000074948600846406840F00200486000BF22
:103720000348406800F00C000828F9D10CBD0000E7
:1037300000100240002002402DE9F04105460E46EF
:1037400017460024012F70D1002D6FD100BF83E0F8
:10375000082C7BD2DFE804F00412202F3E4D5B6B77
:1037600001208A49086000208949C1F888018749F9
:10377000083108608649C1F8900167E0012083495B
:1037800008608349C1F88801002080490831086039
:103790007F49C1F8900159E000207C490860012070
:1037A0007B49C1F8880100207849083108607849D0
:1037B000C1F890014AE00020744908600120744972
:1037C000C1F8880171490831086000207049C1F8CA
:1037D00090013BE000206D4908606D49C1F8880107
:1037E00001206A490831086000206949C1F8900148
:1037F0002CE00020654908606549C1F88801012076
:103800006249083108606249C1F890011EE0002059
:103810005E4908605E49C1F888015C49083108606A
:1038200001205B49C1F8900110E0A1E018E00120FF
:103830005649086000205649C1F8880153490831AB
:10384000086001205249C1F8900100BF00BF304616
:1038500001F0A4FA601CC4B2082CFFF679AF93E023
:10386000002481E0082C79D2DFE804F00413212F32
:103870003E4D5C6A01204549086000204449C1F87A
:10388000880142490831086001204149C1F890018E
:1038900064E000203D4908603D49C1F888013B498A
:1038A0000831086001203A49C1F8900156E0002033
:1038B000364908603649C1F888010120334908318A
:1038C00008603349C1F8900148E000202F490860A2
:1038D0002F49C1F8880101202C49083108600020D7
:1038E0002B49C1F8900139E00020284908600120E7
:1038F0002749C1F88801254908310860002024497A
:10390000C1F890012AE000202049086001202049E8
:10391000C1F8880100201D49083108601C49C1F820
:1039200090011BE00120194908601949C1F888017C
:1039300000201649083108601549C1F890010DE0D2
:1039400001201249086000201149C1F888010F497F
:10395000083108600E49C1F8900100BF00BF304631
:1039600001F01CFA601CC4B2082CFFF67BAF0BE020
:103970000020064908600649C1F88801034908315A
:1039800008600349C1F89001BDE8F0818401234239
:1039900000002342042808D14FF0E021096941F0DA
:1039A00004014FF0E022116107E04FF0E0210969C6
:1039B00021F004014FF0E0221161704770470000D0
:1039C00010B504466FF00400FFF7E4FFE11704EBC5
:1039D0005171C1F3C701074A11701046007800EB1E
:1039E0004001C1EBC0104FF6FF7101EAC00002496F
:1039F000088010BD6C0000206E00002010B5134838
:103A0000006840F00100114908600846406810490C
:103A100008400E494860084600680E4908400B49B6
:103A200008600846006820F4802008600846406866
:103A300020F4FE0048604FF41F008860FFF707FE87
:103A40004FF000600449086010BD00000010024003
:103A50000000FFF8FFFFF6FE08ED00E000B59DB0A6
:103A600001210802FFF710FD0120079000200890B7
:103A70000F20099000200A900B900C900D901520BB
:103A80000090019005200290002003900490059082
:103A9000069006200E9000200F901090102011909C
:103AA0000020129014901390159016904FF48050AF
:103AB0001790002018904FF48040199000201A9021
:103AC00007A81B90CDF870D00EA8FDF779FC012156
:103AD0000620FDF75BFC1DB000BD000008B501210C
:103AE0004FF4B470FFF7F0FC4CF23370ADF8000007
:103AF00018208DF8030003208DF80200694618484D
:103B0000FDF710FD4FF68070ADF8000018208DF81D
:103B1000030003208DF8020069461248FDF702FDFC
:103B200041F20100ADF8000018208DF803000320D9
:103B30008DF8020069460C48FDF7F4FC0120ADF851
:103B4000000010208DF8030003208DF80200694664
:103B50000648FDF7E7FC01200549086008BD0000A4
:103B6000001401400018014000200140000C0140F9
:103B70008081214210B5FFF7B1FFFFF76FFF3220C0
:103B800001F00CF9D020FEF75BF8FDF7F1FE864955
:103B90008880FDF7EDFE844988801120FEF750F8FB
:103BA0004FF4FA7401E0601E84B2002CFBDCB920F3
:103BB000FEF746F8FF20FEF749F88320FEF746F8A7
:103BC0005720FEF743F84FF4FA7401E0601E84B208
:103BD000002CFBDCB120FEF733F80020FEF736F8AE
:103BE0001420FEF733F81C20FEF730F81C20FEF7F7
:103BF0002DF8C320FEF72AF84420FEF727F870209E
:103C0000FEF724F84FF4FA7401E0601E84B2002C31
:103C1000FBDCB420FEF714F82220FEF717F8402052
:103C2000FEF714F80020FEF711F82A20FEF70EF830
:103C30002A20FEF70BF82020FEF708F89120FEF767
:103C400005F84FF4FA7401E0601E84B2002CFBDC2E
:103C50003620FDF7F5FF4C20FDF7F8FFC020FDF7FB
:103C6000EFFF5020FDF7F2FF5020FDF7EFFF01209E
:103C7000FDF7ECFF3C20FDF7E9FFC820FDF7E6FF6C
:103C80000820FDF7E3FF0020FDF7E0FF0820FDF727
:103C9000DDFF0420FDF7DAFF4FF4FA7401E0601E47
:103CA00084B2002CFBDC4FF4FA7401E0601E84B295
:103CB000002CFBDCE020FDF7C3FF0B20FDF7C6FF67
:103CC0001120FDF7C3FF1E20FDF7C0FF3020FDF7D8
:103CD000BDFF3A20FDF7BAFF4320FDF7B7FF4E20A6
:103CE000FDF7B4FF5620FDF7B1FF4520FDF7AEFF0D
:103CF0003F20FDF7ABFF3920FDF7A8FF3220FDF78D
:103D0000A5FF2F20FDF7A2FF2A20FDF79FFF292006
:103D1000FDF79CFF2120FDF799FF0B20FDF796FF93
:103D20001120FDF793FF1E20FDF790FF3020FDF7D7
:103D30008DFF3A20FDF78AFF4320FDF787FF4E20D5
:103D4000FDF784FF5620FDF781FF4520FDF77EFF3C
:103D50003F20FDF77BFF3920FDF778FF3220FDF78C
:103D600075FF2F20FDF772FF2A20FDF76FFF292036
:103D7000FDF76CFF2120FDF769FF0020FDF766FFCE
:103D80000120FDF763FF3A20FDF75AFF0520FDF7FC
:103D90005DFF2920FDF754FF0020FDF7B7FD4FF62A
:103DA000FF70FDF78FFD10BD6000002010B540F2E0
:103DB0002551044800F000F918B12021014800F015
:103DC000D9F810BD0038014010B586B00446012175
:103DD0000420FFF779FB01218803FFF775FB4FF4FF
:103DE0000070ADF8140003208DF8160018208DF82F
:103DF000170005A91E48FDF795FB4FF48060ADF84C
:103E0000140004208DF8170005A91948FDF78AFB56
:103E100001940020ADF80800ADF80A00ADF80C00E0
:103E2000ADF810000C20ADF80E0001A9114800F00B
:103E300013F901210F4800F0A6F840210D4800F0C9
:103E400099F8012240F225510A4800F0DFF82520B8
:103E50008DF8000000208DF8010002208DF802008E
:103E600001208DF803006846FEF72AFD06B010BD5C
:103E7000000801400038014010B540F225510E48BD
:103E800000F09AF8B0B10D480088802802D30020D5
:103E90000A4908800848001D0088C1B20748028806
:103EA0000088401C054B1880054881542021024899
:103EB00000F060F810BD0000004800404C000020F9
:103EC0004302002010B586B0044601218804FFF7A4
:103ED000EBFA01210820FFF7F7FA4FF48060ADF804
:103EE000140003208DF8160018208DF8170005A97E
:103EF0001E48FDF717FB4FF40060ADF814000420D6
:103F00008DF8170005A91948FDF70CFB0194002056
:103F1000ADF80800ADF80A00ADF80C00ADF81000DF
:103F20000C20ADF80E0001A9114800F095F84021D1
:103F30000F4800F01FF8012240F225510C4800F014
:103F400065F827208DF8000000208DF801008DF81D
:103F5000020001208DF803006846FEF7B1FC012144
:103F6000034800F010F806B010BD0000000C01403E
:103F70000048004001F40072B2F5007F00D100BF9C
:103F8000CA430280704721B1828942F40052828183
:103F900004E082894DF6FF731A4082817047024621
:103FA0000020B1F5007F00D100BF13880B400BB19A
:103FB000012000E00020704770B502460024002375
:103FC0000025002040F66A16B14200D100BFC1F3BF
:103FD000421501F01F03012606FA03F3012D02D159
:103FE0009689334006E0022D02D1168A334001E063
:103FF000968A33400C12012606FA04F416883440DF
:1040000013B10CB1012000E0002070BDF0B50346F3
:10401000002400260025002040F66A17B94200D18E
:1040200000BF1846C1F3421401F01F06012707FA2A
:1040300006F5012C01D10C3004E0022C01D1103026
:1040400000E014301AB107682F43076002E00768E8
:10405000AF430760F0BD00002DE9F04786B005468C
:104060000E460024A24600BFA1460027B08900B139
:1040700000BF2F462C8A4CF6FF700440F0880443A2
:104080002C82AC894EF6F3100440B0883189084385
:10409000718908430443AC81AC8A4FF6FF40044069
:1040A000B0890443AC8201A8FFF71EFA1F4887427B
:1040B00002D1DDF810A001E0DDF80CA0A88900F421
:1040C000004040B10AEBCA0000EB0A103168490019
:1040D000B0FBF1F807E00AEBCA0000EB0A10316808
:1040E0008900B0FBF1F86420B8FBF0F0040120096E
:1040F000642101FB1089A88900F4004040B13220FE
:1041000000EBC900B0FBF1F000F00700044308E049
:10411000322000EB09106421B0FBF1F000F00F0039
:1041200004432C8106B0BDE8F08700000038014050
:10413000C1F308028280704700BFFEE70FB430B5BC
:10414000CBB0054601AC50A800904FF4947101A883
:10415000009B4F9A00F044F8002000900BE014F808
:10416000011B2846FFF7E4FF00BF40212846FFF768
:1041700016FF0028F9D020780028F0D14BB030BCD1
:104180005DF814FB2DE9F04107460C461546002664
:104190000DE014F8011B3846FFF7CAFF00BF4021AD
:1041A0003846FFF7FCFE0028F9D0701C86B2AE42FC
:1041B000EFDBBDE8F08100000FB4084B10B504A997
:1041C00002AA039800F08CF9044602A9002000F02E
:1041D00015FD204610BC5DF814FB0000FD4B0008E7
:1041E0007CB50C001D461646014601D0601E00E05D
:1041F0000020CDE90010064B6A462946304600F003
:104200006FF9002C02D0009A002111707CBD0000D3
:10421000E74B0008490050EAC12018BF04204A0DAE
:1042200018BF40F0010040F2FF72B2EB515F08BFCF
:1042300040F00200012808BF052070470048704781
:10424000780000202DE9F0414F1E00EBC701044625
:10425000D1E9000115461E4637F006020DD02A4668
:104260003346FCF7E5F87F1E04EBC703D3E90023D0
:10427000FCF737F837F00602F1D1022F25D0042FD2
:1042800013D0062F18BFBDE8F0812A463346FCF74D
:10429000CFF8D4E90A23FCF724F82A463346FCF782
:1042A000C7F8D4E90823FCF71CF82A463346FCF784
:1042B000BFF8D4E90623FCF714F82A463346FCF786
:1042C000B7F8D4E90423FCF70CF82A463346FCF788
:1042D000AFF8D4E90223FCF704F82A463346FCF78A
:1042E000A7F8D4E90023BDE8F041FBF7FABF0000CE
:1042F0000022134610460149FCF70CB90000F03FBC
:10430000FBF7EFBF0022134610461146FCF702B937
:1043100040F2013200204FF0E041FCF74BBB0000BF
:10432000024A00201107FCF745BB000001FDFFFF1A
:1043300002E008C8121F08C1002AFAD1704770476E
:10434000002001E001C1121F002AFBD170470000CC
:104350000149086070470000780000202DE9FF5FE8
:1043600082B00021DDE90430020DDDF840B00343E6
:1043700018D044F61050A2F2FF324243151411989F
:1043800001281FD0A5EB0B00401C5FEA000A4FF08C
:1043900000064E4FDFF83891B046504615D5CAF1A9
:1043A000000413E0119801244AA3012801D16FEA07
:1043B0000B010298119AC0E90031C0E9024206B02F
:1043C000BDE8F09FCBF10000DFE704460021404A42
:1043D000491842EB0450CDE9001012E0E00707D085
:1043E00032463B4640464946FCF722F8804689461D
:1043F00032463B4610461946FCF71AF806460F4669
:104400006410002CEAD1DDE90401DDE90023BAF1F2
:10441000000F06DAFCF70CF842464B46FCF708F8AA
:1044200005E0FCF777F842464B46FCF773F8044684
:104430000E460022284BFCF73BF903D84FF0FF3023
:10444000014607E00022254B20463146FBF749FF95
:10445000FCF7C7FA102409E0002C0ADB0A2200232B
:10446000FCF77AF9039B30321A55641E50EA0102B8
:10447000F2D1641C039AC4F111031444119A012A65
:1044800003D0012208430DD10AE0084304D00020E4
:104490004FF0110B119072E7A3EB0B056D1E0DE0B1
:1044A0005B4504DD4FF0000205F1010504E003DA8D
:1044B0004FF00002A5F10105002AECD002981199F5
:1044C000C0E90231C0E9004579E70000000014406E
:1044D0000000F03F300000000000F0430000E03F2B
:1044E0002DE9FF4F95B09A46884606460025EEE135
:1044F000252877D100242746F94A0121039400E0BA
:10450000044316F8013F203B01FA03F01042F7D1B3
:1045100030782A2811D06FF02F033078A0F13002C4
:10452000092A16D8039A44F0020402EB820203EB34
:1045300042021044761C0390EFE758F8042B0392D4
:10454000002A03DA504244F40054039044F0020479
:10455000761C30782E2816D116F8010F44F004048A
:104560002A280DD06FF02F023078A0F13003092BEC
:1045700009D807EB870302EB4303C718761CF3E760
:1045800058F8047B761C30786C280FD006DC4C2859
:1045900017D068280DD06A2814D104E0742810D0F0
:1045A0007A280FD10DE044F400140AE044F480149A
:1045B00001E044F440147278824202D104F5801480
:1045C000761C761C307866280BD013DC582877D000
:1045D00009DC002875D04528F6D04628F4D04728B5
:1045E0001AD193E118E0632835D0642879D0652882
:1045F00012D18BE1702873D008DC6728F1D06928CC
:104600006FD06E280DD06F2806D1ACE073282CD067
:10461000752874D0782853D05246179990476D1C4E
:1046200054E1C4F30250022809D003280DD0D8F871
:10463000001004280DD00D6008F1040846E1D8F8F8
:104640000010EA17C1E90052F6E7D8F800100D8013
:10465000F2E70D70F0E718F8041B8DF80010002049
:104660008DF80100EB46012003E058F804BB4FF041
:10467000FF3061074FF0000102D40DE009F10101A4
:104680008946B9420FDA8145F8DB1BF80910002989
:10469000F4D108E009F1010189468142FADB1BF8F7
:1046A00009100029F6D103985346A0EB09072146CB
:1046B0003846179A00F080FA284400EB090507E015
:1046C00044E008E10DE01BF8010B524617999047B2
:1046D000B9F10109F7D2534621463846179AF2E05C
:1046E00039E00A21C4F302524FF0000B0091022A74
:1046F00006D058F8040BC117032A09D00AE023E0BA
:1047000008F1070020F00702F2E80201904605E0F8
:1047100000B2C117042A01D140B2C117002906DA3C
:104720000A460021404261EB02012D2202E02205EF
:1047300004D52B228DF80420012203E0E20701D0EA
:104740002022F7E7914657E00A2100E010214FF0C0
:10475000000B00910BE010214FF0000B44F004041B
:104760000827009103E008204FF0000B0090C4F3ED
:104770000252022A05D058F8040B0021032A08D05F
:1047800008E008F1070020F00702F2E80201904675
:1047900003E080B2042A00D1C0B24FF00009220722
:1047A0002AD53278702A07D0DDF800C08CF0100CC2
:1047B0005CEA0B0C05D00EE040228DF804200122AB
:1047C00008E050EA010306D030238DF804308DF85C
:1047D000052002229146009B83F0080353EA0B0355
:1047E0000AD150EA010201D1620705D530228DF8C5
:1047F00004204FF001097F1E3278582A04D039A2D4
:104800000C920CAA02920BE03BA2F9E75B46009ADD
:10481000FBF7A2FF0C9B9B5C029A521E0292137044
:1048200050EA0102F2D1029804A9081A00F1200B03
:10483000600702D524F4803400E001275F4502DDE3
:10484000A7EB0B0000E0002000EB0B0100900398A9
:104850004944401A0390E00306D453462146179A70
:10486000039800F0A9F90544002706E001A8524684
:10487000C05D179990476D1C7F1C4F45F6DBE00328
:104880000CD553462146179A039800F095F9054434
:1048900004E030205246179990476D1C0099481E3D
:1048A00000900029F5DC08E0029802995246007851
:1048B000491C0291179990476D1CBBF10001ABF1A7
:1048C000010BF1DC5BE100F065F90544761C307802
:1048D00000287FF40DAE19B02846BDE8F08F000027
:1048E00009280100303132333435363738396162C6
:1048F000636465660000000030313233343536378A
:10490000383941424344454600000000600700D466
:10491000062708F1070020F00700F0E80223804690
:1049200003F0004C5FEA0C0001D097A009E02005DD
:1049300001D596A005E0E00701D095A001E0AFF217
:104940004C001390307823F0004365280CD006DC2F
:10495000452809D046281DD047287FD13BE066284E
:1049600018D067287AD136E00021112F01DB112001
:1049700000E0781CCDE9000104A90CA8FFF7EEFCCB
:10498000DDE90D010C9A4FF0000B07F101091092BF
:1049900000914EE04FF000400097CDE9011004A9CE
:1049A0000CA8FFF7DBFCDDE90D020C9B0F994FF023
:1049B000000B91461093009211B9791C00EB01098C
:1049C000B7EB090003D4C0F1FF3B07F10109A9EBE4
:1049D0000700019042E0012F00DA01270021112F8A
:1049E00001DD112000E03846CDE9000104A90CA842
:1049F000FFF7B4FCDDE90D010C9A00914FF0000BBC
:104A0000B946109221070FD4009A4A4503DA91461D
:104A100001E0A9F10109B9F1010F05DD109AA9F131
:104A20000101515C3029F4D0B84202DA10F1040FD0
:104A300003DA0121CDE9011010E0002803DC8344F2
:104A4000A9EB000102E0411C494500DD8946A0EBCD
:104A50000B00401C01904FF000400290200705D44D
:104A60000198484502DB4FF0FF30019000208DF89F
:104A70004B0002980DF14B07B0F1004F25D00220FA
:104A80000C902B200D90029800280CDA40420290E6
:104A90002D200D9007E00A210298FBF747FE3031E8
:104AA000029007F8011D0C99481E0C900029F2DCB9
:104AB00002980028EFD1791E0D980870307800F028
:104AC000200040F0450007F8020D11A8C01BC01DD2
:104AD00002901398007800B1012000EB09010198C1
:104AE00001EBE071029801440398401A401E0390C4
:104AF000E00306D453462146179A039800F05CF869
:104B000005441398007818B15246179990476D1CC8
:104B1000E00323D553462146179A039800F04CF83A
:104B200005441BE0BBF1000F07DB0098584504DD8E
:104B30001098179910F80B0001E017993020524691
:104B4000904701980BF1010B401E05F10105019002
:104B500004D12E205246179990476D1CB9F10001DF
:104B6000A9F10109DEDC05E017F8010B524617999F
:104B700090476D1C0299481E02900029F4DC5346B0
:104B80002146179A03989EE62D0000002B00000096
:104B9000200000002DE9F041044600251E4617467E
:104BA000880404D405E039462020B0476D1C641EFB
:104BB000F9D52846BDE8F0812DE9F04104460025ED
:104BC0001E469046C80301D5302700E02027880400
:104BD00004D505E041463846B0476D1C641EF9D542
:104BE0002846BDE8F0814A68002A06D00A68531CAE
:104BF0000B6010704868401E486070470A68531C7C
:104C00000B6010707047000070B5044622E0256804
:104C1000A08900F4807020B9A06810B1A068FFF7E7
:104C2000F3FFA08900F4807028B9206918B10B49FE
:104C3000206909688847A08900F4007028B9206AB3
:104C400018B10649206A096888472046034909685F
:104C500088472C46002CDAD170BD00005800002097
:104C600001480068704700005000002070B50546FC
:104C70000E46AC6800E024682CB13146206A00F092
:104C80004FF80028F7D1204670BD000010B528204D
:104C900005490968884704461CB128212046FBF7CE
:104CA00084FA204610BD00005400002010B50446D0
:104CB00000221146204600F001F810BD2DE9F04712
:104CC00080460D4616460024FFF7E0FF0746002009
:104CD000124908600FB9BDE8F087404601F064FB57
:104CE00081464946384600F015FE044624B9384648
:104CF000FFF78AFF0020EEE766B1204601F054FB83
:104D00000446207830B13846FFF77EFF0348046040
:104D10000020E0E705B12C603846DCE750000020B9
:104D200070B504460D462CB9AC4201D0012070BDCF
:104D30000020FCE70DB90120F9E705E0207808B96B
:104D40000020F4E7641C6D1C2078FBF70FFA064680
:104D50002878FBF70BFA8642F0D02078FBF706FAAA
:104D600006462878FBF702FA301AE0E770B50546E8
:104D70000C46084801682846FBF7CEFC05D90648D2
:104D800001682046FBF7C8FC01D8012070BD002057
:104D9000FCE70000380000203C0000200146114ADA
:104DA00012884A434FF0E0235A6100229A611A4662
:104DB000126942F001021A6100BF4FF0E02210694F
:104DC00000F001021AB100F48032002AF5D04FF051
:104DD000E022126922F001024FF0E0231A61002262
:104DE0009A6170476E0000200146114A12784A43CA
:104DF0004FF0E0235A6100229A611A46126942F08C
:104E000001021A6100BF4FF0E022106900F00102B8
:104E10001AB100F48032002AF5D04FF0E022126976
:104E200022F001024FF0E0231A6100229A617047DC
:104E30006C00002010B5002821D0114B0022001F6B
:104E4000196803E0814203D80A4649680029F9D16C
:104E500052B11368841A9C4204D10068184410604F
:104E6000104602E0506000E0186039B102680B1A89
:104E7000934203D10B681A4402604968416010BD37
:104E8000700000208AB00024A1464820FEF798FD5B
:104E90004FF4A060FDF74CFDFCF7E6FEFBF7D4FFF6
:104EA000FBF74EFFFCF706FFFDF786FC0220FDF73F
:104EB000D9FCFBF76BFFFEF781FBFEF75BFE4FF4BF
:104EC000E130FEF781FF4FF4E130FEF7FBFFA1A1D7
:104ED000A548FFF733F9FCF7D7F803E04FF4FA7071
:104EE000FFF75CFFFDF72EFD0028F7D101219F4859
:104EF000FEF786FA2DE1FBF73FFF9D4908609D48CC
:104F0000006801280AD19C48006838B90846006842
:104F1000012803D10020994908600CE095480068F9
:104F2000012808D19248006828B99348006810B950
:104F3000012092490860282094FBF0F100FB114009
:104F4000002876D18E498F48FBF7D3FFFCF7D8FABB
:104F50008D4908700A20FCF773FC8C490888FCF71F
:104F6000C3FB8B49086089494888FCF713FC8949D1
:104F7000086089A250210A20FCF7BAFD8148027816
:104F800087A18A48FFF718F988481821CDE9001051
:104F900087484388028850215520FCF71DFE85A2D2
:104FA00078210A20FCF7A4FD7548027883A17F4888
:104FB000FFF702F97D481821CDE900107C484388AD
:104FC000028878215020FCF707FE7EA2A0210A204B
:104FD000FCF78EFD6F480068FBF756FB05462A4636
:104FE0000B467BA17148FFF7E7F870481821CDE91F
:104FF00000106F4843880288A0219620FCF7ECFD42
:1050000076A2C8210A20FCF773FD77A01821CDE90C
:105010000010674843880288C8218C20FCF7DCFD1B
:105020005348006830B16EA2C8219620FCF760FD9D
:1050300005E048E06DA2C8219620FCF759FD6DA25D
:10504000F0210A20FCF754FD51480068FBF71CFBD7
:1050500005462A460B465EA15448FFF7ADF8534873
:105060001821CDE90010524843880288F02196208B
:10507000FCF7B2FD62A24FF48C710A20FCF738FDF8
:1050800059A01821CDE900104948438802884FF4FF
:105090008C71AA20FCF7A0FD3D480068FBF7F4FAEC
:1050A00005465A4A5A4BFBF703FB06D259A24FF466
:1050B0008C71B420FCF71CFD05E058A24FF48C71F4
:1050C000B420FCF715FD601C80B20446C82833DB11
:1050D00054A12548FFF732F82D480068FBF7D4FAB1
:1050E00005460E462B480068FBF7CEFA07462048D7
:1050F000CDE908560068CDE9047106902248017890
:105100004D4800684D4AD2F894210AB9012200E0C6
:105110000022CDE90020029119480378194802784D
:1051200047494848FFF748F8464947480068FDF7AF
:105130001BFD0024FBF772FF0320FBF77DFF814678
:10514000B9F1000F02D04846FDF724FE0A20FFF710
:1051500025FED0E6486172647761726520696E69E8
:1051600074204F4B0D0A0000003801400000002061
:1051700018000020200000201C0000209401234281
:1051800009000020080000200A000020680000201C
:10519000100000200C000020CEC2B6C800000000A5
:1051A0003A20256420A1E3430000000044010020D0
:1051B00060000020CAAAB6C8000000003A2025649A
:1051C00020250000B6A1CDE9C5A8B6C800000000A2
:1051D0003A20252E32662070706D0000CAC7B7F1E4
:1051E000D3D0C8CB000000003A000000CEDEC8CB10
:1051F00000000000BFD5C6F8D6CAC1BF000000003D
:10520000BFD5C6F8BEBBBBAFC6F700009A99999947
:105210009999C93FBFAAC6F400000000B9D8B1D51A
:10522000000000004F6E654E65745F5075626C69DA
:1052300073680D0A00000000A08121420000234293
:1052400078B800087C00002004000020F0B50B3086
:10525000154D20F007010024144A0FE003688B422B
:105260000BD38B4205D95E1A43184768C3E9006720
:1052700000E04368136002C004E0021D10680028CB
:10528000ECD12046002802D1286808B10020F0BDEA
:10529000064A07481060074A121A22F00702C0E9BE
:1052A000002401202860D7E774000020700000204F
:1052B000CC020020C80400202DE9F04705460C462A
:1052C00020785B2804D0264804600020BDE8F087E1
:1052D0000520E860601C01F067F8044620785D282E
:1052E00001D1601CF2E7FFF7D1FC0646A860A86870
:1052F00008B90020EAE7204601F056F8804641460A
:10530000304600F007FB074601F04EF804460CB9A2
:105310000020DBE717E0FFF7B9FC071E00D1D5E757
:1053200037607E603E46601C01F03EF8814649468B
:10533000304600F0EFFA804601F036F804460CB92A
:105340000020C3E700BF20782C28E4D020785D2817
:1053500001D1601CBAE7024804600020B6E70000F3
:1053600050000020014600220878302806DB08782B
:10537000392803DC08783038024415E008784128E1
:1053800006DB0878462803DC0878373802440BE04F
:105390000878612806DB0878662803DC0878573827
:1053A000024401E0002070471201491C08783028AF
:1053B00006DB0878392803DC08783038024415E029
:1053C0000878412806DB0878462803DC0878373857
:1053D00002440BE00878612806DB0878662803DCC5
:1053E00008785738024401E00020DCE71201491C2C
:1053F0000878302806DB0878392803DC087830384C
:10540000024415E00878412806DB0878462803DCCA
:105410000878373802440BE00878612806DB087802
:10542000662803DC08785738024401E00020BAE718
:105430001201491C0878302806DB0878392803DC7B
:1054400008783038024415E00878412806DB0878EF
:10545000462803DC0878373802440BE008786128D6
:1054600006DB0878662803DC08785738024401E038
:10547000002098E7104696E72DE9F04F8BB0834661
:105480008A460020044605460026674F00218846CC
:1054900089460990012008909AF800002D2802D131
:1054A000624F0AF1010A9AF80000302801D10AF18E
:1054B000010A9AF80000312822DB9AF80000392806
:1054C0001EDC00BF1AF8011BA1F13000FBF79FF8AA
:1054D0000022574BCDE9060120462946FAF7A8FFDE
:1054E000CDE90401DDE90623FAF7FBFE04460D468B
:1054F0009AF80000302803DB9AF800003928E1DD33
:105500009AF800002E2830D19AF8010030282CDBC0
:105510009AF80100392828DC0AF1010A00BF1AF8BC
:10552000011BA1F13000FBF772F80022404BCDE9DE
:10553000060120462946FAF77BFFCDE90401DDE9A3
:105540000623FAF7CEFE04460D460022364B4046AF
:105550004946FAF767FF804689469AF800003028E6
:1055600003DB9AF800003928D9DD9AF80000652895
:1055700003D09AF80000452823D10AF1010A9AF8CD
:1055800000002B2802D10AF1010A08E09AF8000075
:105590002D2804D14FF0FF3008900AF1010A08E0ED
:1055A0001AF8010B3038099901EB810100EB410039
:1055B00009909AF80000302803DB9AF80000392897
:1055C000EEDDDDE9082101FB02F0FBF720F84246A1
:1055D0004B46CDE90001FAF784FE02460B46CDE9C1
:1055E00002010020124900F0F3F922462B46CDE9D2
:1055F000060130463946FAF71BFFCDE90401DDE923
:105600000623FAF715FF04460D46CBE9064520466A
:105610002946FBF71AF8CBF814000320CBF80C004E
:1056200050460BB0BDE8F08F0000F03F0000F0BF27
:10563000000024402DE9F04706460C4620787B28E0
:1056400004D0404804600020BDE8F0870620F060E8
:10565000601C00F0A9FE044620787D2801D1601C62
:10566000F2E7FFF713FB0546B060B06808B9002009
:10567000EAE7204600F098FE80464146284600F0C2
:1056800063F8074600F090FE04460CB90020DBE703
:10569000286928620020286120783A2803D0294808
:1056A00004600020D0E7601C00F07EFE804641468A
:1056B000284600F02FF9074600F076FE04460CB9A4
:1056C0000020C1E731E0FFF7E1FA071E00D1BBE798
:1056D0002F607D603D46601C00F066FE81464946B5
:1056E000284600F031F8804600F05EFE04460CB912
:1056F0000020A9E7286928620020286120783A283C
:1057000003D01048046000209EE7601C00F04CFEAF
:1057100081464946284600F0FDF8804600F044FEE8
:1057200004460CB900208FE700BF20782C28CAD08F
:1057300020787D2801D1601C86E7024804600020A3
:1057400082E70000500000202DE9F05F8346884684
:1057500008F10104002798F80000222805D06A48C3
:10576000C0F800800020BDE8F09F04E014F8011BA1
:105770005C2900D1641C2078222804D0207810B144
:10578000781C071EF2D1781C604909688847814659
:10579000B9F1000F01D10020E5E708F101044D4601
:1057A0009EE020785C2804D014F8010B05F8010B6A
:1057B00096E0641C2078722818D006DC622809D094
:1057C00066280BD06E287DD10CE0742812D0752885
:1057D000F9D113E0082005F8010B7FE00C2005F853
:1057E000010B7BE00A2005F8010B77E00D2005F89E
:1057F000010B73E0092005F8010B6FE0601CFFF757
:10580000B1FD0646241DB6F55C4F02D3B6F5604FD8
:1058100000D306B962E0B6F5584F1CD3B6F55C4F1D
:1058200019D260785C2802D1A078752800D055E0A4
:10583000E01CFFF797FD8246A41DBAF55C4F02D32A
:10584000BAF5604F00D349E0C6F30901504661F351
:105850009F2000F580360427802E01D2012708E022
:10586000B6F5006F01D2022703E0B6F5803F00D203
:1058700003273D44012F20D0022F15D0032F0AD03B
:10588000042F24D106F0BF0040F08001681E0546B9
:105890000170B60900BF06F0BF0040F08001681E2D
:1058A00005460170B60900BF06F0BF0040F0800158
:1058B000681E05460170B60900BF1548C05D30433B
:1058C000C1B200E006E0681E0546017000BF00BFDF
:1058D0003D4403E0207805F8010B00BF00BF641CC5
:1058E0002078222803D0207800287FF45AAF0020A7
:1058F00028702078222800D1641CCBF81090042056
:10590000CBF80C0020462EE7500000205400002069
:105910000664000870B505460C460CB9002070BD41
:10592000042224A12046FAF782FC18B90220E8607C
:10593000201DF4E7052221A12046FAF778FC18B9CA
:105940000020E860601DEAE704221EA12046FAF765
:105950006EFC20B90120E8606861201DDFE7207837
:10596000222804D121462846FFF7EEFED7E720780B
:105970002D2805D02078302807DB2078392804DC52
:1059800021462846FFF778FDC9E720785B2804D137
:1059900021462846FFF790FCC1E720787B2804D1F8
:1059A00021462846FFF746FEB9E708480460002074
:1059B000B5E700006E756C6C0000000066616C73EA
:1059C0006500000074727565000000005000002042
:1059D0002DE9F04D1D460C4698B0174621F00041C8
:1059E00023F00043002814BF4FF0010C4FF0000CCF
:1059F0000CEB440CFE4A0CEB02064FEA620C6645C7
:105A00002BD33E0018BF012606EB45061644F94A83
:105A1000964222D3F84A53EA070C02D0944205D1A9
:105A200048B918B000201146BDE8F08D002808BF25
:105A30004FF0000C01D04FF0010C0CEB440212F5BA
:105A4000001F0AD8002F14BF4FF0010C4FF0000CBC
:105A50000CEB450212F5001F07D918B03A462B4649
:105A60002146BDE8F04DFEF74BBC0022DFF88CA3C9
:105A7000002CB8BF534526DADFF884C36345A8BFBE
:105A8000022220DADFF870C39C451CDCDFF874C307
:105A90000CEB235CBCF1140F08DDCCF1340627FAC3
:105AA00006FC0CFA06F6BE420DD108E05FB9CCF157
:105AB000140623FA06FC0CFA06F69E4203D10CF0FB
:105AC0000102C2F1020251EA000C19D1002D17DACD
:105AD000002C18BF022A01D0012A07D00220FEF7AD
