:020000040800F2
:100000000804002049010008950300084103000886
:100010009103000891010008DD07000800000000BE
:10002000000000000000000000000000F1030008D4
:100030009501000800000000AD0300080505000858
:100040006301000863010008630100086301000800
:1000500063010008630100086301000863010008F0
:1000600063010008630100086301000863010008E0
:1000700063010008630100086301000863010008D0
:1000800063010008630100086301000863010008C0
:1000900063010008630100086301000863010008B0
:1000A00063010008630100086301000863010008A0
:1000B0006301000863010008630100086301000890
:1000C0006301000863010008630100086301000880
:1000D0006301000863010008630100086301000870
:1000E0006301000863010008630100086301000860
:1000F0006301000863010008630100086301000850
:10010000630100086301000863010008630100083F
:10011000630100086301000863010008630100082F
:10012000630100086301000863010008630100081F
:10013000DFF810D000F01AF8004800474D0800081A
:10014000AFF30080080400200648804706480047B7
:10015000FEE7FEE7FEE7FEE7FEE7FEE7FEE7FEE777
:10016000FEE7FEE74505000831010008064C074D93
:1001700006E0E06840F0010394E807009847103477
:10018000AC42F6D3FFF7D8FF9C080008BC08000873
:1001900000BFFEE770472DE9F0410246002500262A
:1001A000002000230024002791F803C00CF00F0565
:1001B00091F803C00CF0100CBCF1000F03D091F8C3
:1001C00002C04CEA050591F800C0BCF1000F31D027
:1001D000146800202BE04FF0010C0CFA00F3B1F88A
:1001E00000C00CEA03069E4220D183004FF00F0CA2
:1001F0000CFA03F7BC4305FA03FC4CEA040491F83B
:1002000003C0BCF1280F06D14FF0010C0CFA00FC22
:10021000C2F814C00AE091F803C0BCF1480F05D140
:100220004FF0010C0CFA00FCC2F810C0401C08286A
:10023000D1D31460B1F800C0BCF1FF0F34DD5468B5
:1002400000202EE000F1080C4FF0010808FA0CF332
:10025000B1F800C00CEA03069E4221D183004FF0A2
:100260000F0C0CFA03F7BC4305FA03FC4CEA040438
:1002700091F803C0BCF1280F05D100F1080C08FA71
:100280000CF8C2F8148091F803C0BCF1480F07D1F4
:1002900000F1080C4FF0010808FA0CF8C2F81080C1
:1002A000401C0828CED35460BDE8F081F0B50A4662
:1002B000002300240021002500F00046B6F1004F85
:1002C00002D11D4EF16901E01B4E7168C0F3034578
:1002D00083B200F44016B6F5401F08D121F07061DA
:1002E000154E766826F07066134F7E6012E000F4BB
:1002F0008016B6F5801F06D1032606FA05F4A14341
:1003000041F0706106E0460D360103FA06F6B1438E
:1003100041F0706122B1460D360103FA06F6314311
:1003200000F00046B6F1004F02D1034EF16101E04A
:10033000014E7160F0BD0000000001400161704796
:1003400000BFFEE708B50121482000F041F8202059
:10035000ADF8000010208DF8030003208DF8020096
:1003600069460948FFF717FF20210748FFF7E6FF16
:100370002020ADF8000069460448FFF70CFF20215B
:100380000248FFF7DBFF08BD000C014000180140E8
:1003900000BFFEE77047000002490143024A1160B6
:1003A000704700000000FA050CED00E07047000007
:1003B00029B1064AD2690243044BDA6104E0034AD8
:1003C000D2698243014BDA6170470000001002409D
:1003D00029B1064A92690243044B9A6104E0034A38
:1003E00092698243014B9A617047000000100240FD
:1003F000704710B500F002F810BD00000CB50020E9
:10040000019000903348006840F480303149086022
:1004100000BF3048006800F4003000900198401C94
:100420000190009818B90198B0F5A06FF1D1294852
:10043000006800F4003010B10120009001E00020BD
:1004400000900098012843D12348006840F0100034
:10045000214908600846006820F00300086008464B
:10046000006840F0020008601A4840681949486076
:100470000846406848600846406840F4806048602C
:100480000846406820F47C1048600846406840F404
:10049000E81048600846006840F08070086000BFBF
:1004A0000C48006800F000700028F9D00948406846
:1004B00020F00300074948600846406840F0020009
:1004C000486000BF0348406800F00C000828F9D1DC
:1004D0000CBD00000010024000200240042808D19A
:1004E0004FF0E021096941F004014FF0E022116171
:1004F00007E04FF0E021096921F004014FF0E0220C
:10050000116170477047000010B504466FF0040099
:10051000FFF7E4FFE11704EB5171C1F3C701074A8C
:1005200011701046007800EB4001C1EBC0104FF68F
:10053000FF7101EAC0000249088010BD00000020E0
:100540000200002010B51348006840F00100114976
:10055000086008464068104908400E49486008464F
:1005600000680E4908400B4908600846006820F4FE
:10057000802008600846406820F4FE0048604FF480
:100580001F008860FFF735FF4FF0006004490860E6
:1005900010BD0000001002400000FFF8FFFFF6FE53
:1005A00008ED00E030B589B005460C460121022077
:1005B000FFF7FEFE01210820FFF70AFF0121084690
:1005C000FFF706FF01211C48FFF770FE18208DF889
:1005D00023002020ADF8200003208DF8220008A978
:1005E0001648FFF7D8FDADF81850ADF814400020BC
:1005F000ADF81A00ADF8160005A9114800F09CF8F6
:100600006020ADF804000220ADF80C000120ADF828
:10061000060001A90A4800F02DF80821084800F05A
:100620007BF80121064800F00DF80121044800F094
:1006300015F809B030BD000000081A00000C014098
:100640000004004021B1028842F08002028004E0F0
:1006500002884FF67F731A400280704721B10288EA
:1006600042F00102028004E002884FF6FE731A4055
:100670000280704770B5002400220023058C4FF6DD
:10068000EF7635400584028C8388048B48F6FF752D
:100690002C404FF6FF452C400D884FF6FF7606EABA
:1006A00005252C434FF6DF752A400D8906EA05150E
:1006B0002A434D8806EA05152A43154DA84202D063
:1006C000144DA8421DD14FF67F752A404D894FF633
:1006D000FF7606EA05152A434FF6BF752A408D8836
:1006E00006EA05152A434FF6FF352B404FF2FF75FA
:1006F0002B408D8906EA85052B43CD8906EA8505C1
:100700002B4383800483CD880587028470BD00005D
:10071000002C0140003401400A460021018B4FF2B9
:10072000FF7319404FF6FF7303EA02231943018355
:100730007047018770470000002202881D4B9842D5
:100740000ED01D4B98420BD0B0F1804F08D01B4B00
:10075000984205D01A4B984202D01A4B984204D1C5
:100760004FF68F731A404B881A43174B984207D0A5
:10077000164B984204D04FF6FF431A40CB881A43D9
:1007800002808B8883850B8803850A4B98420BD0A7
:10079000094B984208D00E4B984205D00D4B984219
:1007A00002D00D4B984201D10B7A0386012383823C
:1007B00070470000002C014000340140000400405C
:1007C00000080040000C00400010004000140040F1
:1007D00000400140004401400048014000BFFEE7E6
:1007E00002E008C8121F08C1002AFAD170477047FA
:1007F000002001E001C1121F002AFBD17047000058
:100800000146114A12884A434FF0E0235A61002200
:100810009A611A46126942F001021A6100BF4FF054
:10082000E022106900F001021AB100F48032002ABF
:10083000F5D04FF0E022126922F001024FF0E023E0
:100840001A6100229A6170470200002000240025EE
:100850004820FFF759FE4FF4A060FFF79DFDFFF71A
:1008600071FD47214FF4FA70FFF79CFE12E035B995
:10087000601C84B2B4F5967F05D1012503E0601EAB
:1008800084B204B9002521460348FFF752FF0A202D
:10089000FFF7B6FFEBE7000000040040BC080008CB
:1008A0000000002004000000E0070008C008000865
:1008B0000400002004040000F0070008000000000D
:0400000508000131BD
:00000001FF
