:020000040800F2
:100000002808002081020008372B0008032100087F
:10001000352B0008DB06000817340008000000003C
:100020000000000000000000000000001D2F00087C
:10003000DD06000800000000392B00081F2F000813
:100040009B0200089B0200089B0200089B0200081C
:100050009B0200089B0200089B0200089B0200080C
:100060009B0200089B0200089B0200089B020008FC
:100070009B0200089B0200089B0200089B020008EC
:100080009B020008000000009B0200089B02000881
:100090009B0200089B0200089B0200089B020008CC
:1000A0009B0200089B0200089B0200089B020008BC
:1000B000992F0008A52F00089B0200089B0200084A
:1000C0009B0200089B0200089B0200089B0200089C
:1000D0009B0200089B0200089B0200089B0200088C
:1000E0009B0200089B0200089B0200089B0200087C
:1000F0009B0200089B0200089B0200080000000011
:10010000000000009B020008000000009B020008A5
:100110009B020008000000009B0200089B020008F0
:100120009B0200089B0200089B0200089B0200083B
:100130009B02000800000000000000009B02000875
:100140009B0200089B020008000000000000000065
:10015000000000000000000000000000000000009F
:100160000000000000000000000000009B020008EA
:100170009B020008000000000000000000000000DA
:10018000000000009B0200080000000000000000CA
:10019000000000000000000000000000000000005F
:1001A00000000000000000009B0200089B02000805
:1001B0009B0200089B0200089B0200080000000050
:1001C000000000009B02000800000000000000008A
:1001D0009B0200089B02000800F002F800F041F8C2
:1001E0000AA090E8000C82448344AAF10107DA4592
:1001F00001D100F036F8AFF2090EBAE80F0013F0A3
:10020000010F18BFFB1A43F0010318479448000080
:10021000B4480000103A24BF78C878C1FAD8520711
:1002200024BF30C830C144BF04680C607047000070
:100230000023002400250026103A28BF78C1FBD8EF
:10024000520728BF30C148BF0B607047642900F0D7
:100250007380002070471FB503F024FB1FBD10B54D
:1002600010BD00F000FA1146FFF7F5FF03F0BCFAED
:1002700000F01EFA03B4FFF7F2FF03BC00F026FA09
:100280000948804709480047FEE7FEE7FEE7FEE72A
:10029000FEE7FEE7FEE7FEE7FEE7FEE70448054966
:1002A000054A064B70470000892F0008D901000855
:1002B000280200202808002028040020280400200C
:1002C0000FB41CB5074B06AA7B44694600900598FD
:1002D00000F0B1F90020694600F0C0F91CBC5DF8DF
:1002E00014FB00009103000070B5044685690068A6
:1002F000C10601D5302600E02026C00707D070BD1A
:10030000D4E9012130469047206A401C20626D1ECE
:10031000F6D570BD70B5044685690078C00707D171
:1003200070BDD4E9012120209047206A401C206242
:100330006D1EF6D570BD00002DE9F0410646002483
:1003400010687529314616A510D0AFF3008000283B
:1003500002DA404213A507E031688A0701D512A5E9
:1003600002E0490704D511A5012401E0AFF30080A4
:1003700000210A2206F1240709E0B0FBF2FCB0FBE1
:10038000F2F302FB1C00303078541846491C002858
:10039000F3D123462A463046BDE8F04100F0EDB8DF
:1003A000000000002D0000002B00000020000000D5
:1003B0002DE9F05F894604464FF0000ADFF824B1CA
:1003C000FB44C0F820A02046E168884700287DD083
:1003D000252806D0D4E901219047206A401C2062DC
:1003E000F1E700255F462046E16888472028064659
:1003F00007DB312E05D2B81910F8200C08B10543DF
:10040000F1E7A80701D525F00405C4F81CA00027D2
:10041000C4F818A02A2E09D0304603F00DF838B3DE
:1004200004EB8708303EC8F8186019E059F8041B3F
:10043000204604EB87029161E1688847012F064658
:1004400018D1E069002820DA25F020051DE0D8F851
:10045000180000EB800006EB40003038C8F81800A8
:100460002046E1688847064602F0E6FF0028EED104
:10047000012F0AD02E2E08D12046E16888477F1C24
:100480000646022F45F02005C4DBA069002803DAE8
:10049000404245F00105A061E80701D025F01005B4
:1004A000A6B1A6F14100192802D8203645F400650E
:1004B0004A463146204625604D46FFF7C7FE60B1EB
:1004C000012807D0ED1D25F0070000E007E000F14E
:1004D000080978E705F1040975E730467AE7206AEC
:1004E000BDE8F09FCA46000010B5431C02E010F8BA
:1004F000011B71B18107FAD14FF0013202C88C1A89
:100500008C4314EAC211F9D0C01A0A0603D0C01EE7
:1005100010BDC01A10BD0A0401D0801E10BD090212
:10052000FCD0401E10BD4FF0000200B513469446AB
:100530009646203922BFA0E80C50A0E80C50B1F13B
:100540002001BFF4F7AF090728BFA0E80C5048BF4F
:100550000CC05DF804EB890028BF40F8042B08BFED
:10056000704748BF20F8022B11F0804F18BF00F8E9
:10057000012B70477047704770472DE9F0470D46D3
:1005800099469246044600F124080168880604D57D
:10059000E06921F01001216000E00120A84201DDA6
:1005A000471B00E00027A1697A1902EB0900081A2D
:1005B000A0612078C00602D42046FFF795FE0026F1
:1005C00008E0D4E901211AF806009047206A401C8F
:1005D000761C20624E45F4DB2078C0060AD5204602
:1005E000FFF782FE06E0D4E9012130209047206A1F
:1005F000401C2062381EA7F10107F4DC07E0D4E9B3
:10060000012118F805009047206A401C2062281E2E
:10061000A5F10105F3DC2046FFF77CFE20780006FB
:1006200002D50220BDE8F0870120FBE701694A1CE2
:1006300002610878704700B58FB0CDE90131002123
:10064000059105497944CDE9031011466846FFF745
:10065000AFFE0FB000BD0000E5FFFFFF0A6802F823
:10066000010B0A607047754600F02CF8AE46050095
:100670006946534620F00700854618B020B5FFF7BD
:100680000DFEBDE820404FF000064FF000074FF090
:1006900000084FF0000B21F00701AC46ACE8C009A0
:1006A000ACE8C009ACE8C009ACE8C0098D467047A9
:1006B00010B50446AFF300802046BDE81040FFF7B8
:1006C000D9BD000000487047C4010020014918202E
:1006D000ABBEFEE7260002007047FEE7704700222F
:1006E00040F6B83306E00021491C89B29942FBD399
:1006F000521C92B28242F6D3704772B6FEE70000F7
:1007000070B5044600F0FCF80546601C02D00448B1
:100710004068044400F0F4F8401BA042FAD370BDD6
:10072000340000202DE9FC4FDFF8A0A100230125B3
:100730000AF1040B03244FF00F0C0BF1040EBDE083
:1007400005FA03F632406FD04F68012F05D0022F13
:1007500003D0112F01D0122F17D1D0F808905F00CD
:1007600004FA07F829EA08090097D1F80C8008FA7A
:1007700007F848EA0908C0F808804768B7430E79C7
:10078000C6F300169E403E434660C6684FEA4308E3
:1007900004FA08F7BE4301978F6807FA08F7374352
:1007A000C7604E68022E01D0122E13D1DE0800EB76
:1007B00086060096366A5F07FF0E0CFA07F926EAEE
:1007C0000906D1F8109009FA07F949EA0609009ECE
:1007D000C6F820900668019FBE430F7907F0030713
:1007E00007FA08F7374307604E68F60065D5384EBC
:1007F000376E47F001073766366E23F0030706F0C1
:1008000001060096334E3E44B146B6689F074FEA54
:1008100017780CFA08F7BE43B0F1904F05D02E4F71
:10082000B84204D1012717E047E0002714E02B4F1E
:10083000B84201D102270FE0294FB84201D1032766
:100840000AE0284FB84201D1042705E0264FB842FC
:1008500001D1052700E0062707FA08F73743C9F852
:100860000870DAF800605746D1F8048096435FEAD2
:10087000C83800D516433E60DBF800605F46D1F80B
:10088000048096435FEA883800D516433E60DEF860
:1008900000607746D1F8048096435FEAC82800D507
:1008A00016433E60094F0C373E68D1F804809643EA
:1008B0005FEA882800D516433E605B1C0A6832FA5E
:1008C00003F67FF43DAFBDE8FC8F0000000401405B
:1008D00000100240000001400004004800080048E9
:1008E000000C00480010004800140048006908404F
:1008F00000D0012070470AB1816170478162704762
:100900000148806870470000340000200248816878
:1009100042681144816070473400002010B5002403
:10092000032000F073F80F2000F008F808B101244C
:1009300001E000F025F8204610BD000070B50E4E15
:1009400005460024706898B14FF47A71B1FBF0F05D
:100950000A490968B1FBF0F000F0DEFE40B9102D45
:1009600006D200222946501E00F030F8356000E023
:100970000124204670BD000034000020400000200B
:100980000A4882B0016E41F001010166016E01F07A
:1009900001010091816D41F080518165806D00F011
:1009A0008050009002B000F0A1B80000001002409A
:1009B000002809DB00F01F0201219140400980005E
:1009C00000F1E020C0F8001170470000F0B40E4BB9
:1009D0001B680C46C3F30223C3F10705042D00D99D
:1009E0000425191D072901D2002300E0DB1E012682
:1009F00006FA05F1491E214099409E40761E164098
:100A00003143F0BC02F008BD0CED00E0064900F0F7
:100A1000070208684FF6FF03184040EA0220034A25
:100A200010430860704700000CED00E00000FA057C
:100A30002B492C4B0A6832214A432B4940B1B0F56F
:100A4000007F086829D020F4C06040F480602CE06A
:100A50000868C0F34120022804D051F8800F20F428
:100A6000807022E0D1F8800020F48070C1F880000E
:100A7000086820F4C06040F400700860B2FBF3F036
:100A8000401C00E0401E4A69520501D50028F9D1FA
:100A9000486940050AD503207047C0F34120022869
:100AA00006D051F8800F40F4807008600020704735
:100AB000D1F8800040F48070C1F88000086820F40C
:100AC000C06040F400700860B2FBF3F0401C00E02E
:100AD000401E4A695205DBD50028F9D1D8E700004D
:100AE0004000002040420F00007000400248816832
:100AF00041F4804181607047007000402DE9F84367
:100B00000446006800269D4D00035ED5A86D0027B1
:100B1000C00008D4A86D40F08050A865A86D0127DA
:100B200000F080500090DFF85892D9F8001041F49E
:100B30008071C9F80010FFF7E3FE804606E000BFB1
:100B4000FFF7DEFEA0EB080002282BD8D9F8000042
:100B5000C005F5D5D5F8900010F4407014D0216C84
:100B6000814211D0D5F89000D5F8901020F4407053
:100B700041F48031C5F89010D5F8901021F48031FF
:100B8000C5F89010C5F89000C00711D0FFF7B8FE67
:100B9000804641F2883907E0FFF7B2FEA0EB08017A
:100BA000494501D903260BE0D5F890008007F3D51D
:100BB000D5F89000216C20F440700843C5F89000EF
:100BC0001FB1A86D20F08050A8652078C00707D01D
:100BD000D5F88800616820F003000843C5F8880054
:100BE0002078800707D5D5F88800A16820F00C0090
:100BF0000843C5F888002078400707D5D5F8880055
:100C0000E16820F030000843C5F88800207800072C
:100C100007D5D5F88800216920F0C0000843C5F841
:100C200088002078800607D5D5F88800616920F40F
:100C300040600843C5F888002078400607D5D5F8FD
:100C40008800A16920F440500843C5F88800207846
:100C5000000607D5D5F88800E16920F44040084334
:100C6000C5F888002088C00507D5D5F88800216A16
:100C700020F440300843C5F888002088800507D557
:100C8000D5F88800616A20F440200843C5F8880040
:100C9000208840050FD5D5F88800A16A20F44010BF
:100CA0000843C5F88800A06AB0F5801F03D1E86842
:100CB00040F48010E860208800050FD5D5F8880042
:100CC000E16A20F440000843C5F88800E06AB0F506
:100CD000800F03D1E86840F48010E8602088C004E9
:100CE0000FD5D5F88800216B20F040700843C5F877
:100CF0008800206BB0F1807F03D1E86840F4801059
:100D0000E86020884FF0006180040ED5D5F8880097
:100D1000626B20F040601043C5F88800606B884229
:100D200003D1E86840F48010E860208840040ED5C4
:100D3000D5F88800A26B20F040601043C5F8880009
:100D4000A06B884203D1E86840F48010E8602088F6
:100D500000040FD5D5F88800E16B20F0405008431F
:100D6000C5F88800E06BB0F1805F03D1E86840F41B
:100D70008030E8603046BDE8F88300000010024093
:100D8000007000402DE9F0470E4605004FF00007C7
:100D900025D0DFF8AC81D8F8000000F00F00B04299
:100DA0000CD2D8F8001021F00F013143C8F8001020
:100DB000D8F8000000F00F00B04210D12968614C53
:100DC000C80741F2883A5AD06868DFF87C91032856
:100DD00008D0022820682DD0400500282CDB0120F7
:100DE000BDE8F08720688001F9D5E06800F00302D3
:100DF000E068C0F30310401C032A19D0534A00BF17
:100E0000B2FBF0F0E268C2F306225043E268C2F39C
:100E10004162521C5200B0FBF2F0484517D9A0685D
:100E200010F0F00F0CD0880711D5A86840B10EE083
:100E3000474AE5E78003D0E700F092F8484506D935
:100E4000A06820F0F00040F08000A0608027A0683B
:100E5000696820F003000843A060FFF751FD814658
:100E600006E000BFFFF74CFDA0EB090151453AD861
:100E7000A068696800F00C00B0EB810FF2D128681F
:100E8000810714D5400703D5A06840F4E060A06056
:100E90002878000705D5A06820F4605040F4E06091
:100EA000A060A068A96820F0F000084304E0802F4B
:100EB00003D1A06820F0F000A060D8F800104046F0
:100EC00001F00F01B14216D9016821F00F01314341
:100ED0000160FFF715FD074607E000BFFFF710FDB3
:100EE000C11B514501D903207AE7D8F8000000F072
:100EF0000F00B042F2D12878400705D5A068E96814
:100F000020F4E0600843A0602878000706D5A068B8
:100F1000296920F4605040EAC100A06000F020F888
:100F2000A1680C4AC1F30311515C01F01F01C840D4
:100F30000949086009480068BDE8F047FFF7FEBCB2
:100F4000002002400010024000B4C4040024F40059
:100F500000366E017E4A0008400000203400002068
:100F6000184910B58868C0F381021748012A0BD0D0
:100F70008A68164BC2F38102022A06D08A68C2F33D
:100F80008102032A03D0002010BD184610BDCA6894
:100F900002F00304CA68C2F30312521C032C02D0ED
:100FA000B0FBF2F001E0B3FBF2F0CA68C968C2F32B
:100FB00006225043C1F34161491C4900B0FBF1F0E6
:100FC00010BD0000001002400024F40000366E0145
:100FD0002DE9F84304007AD02078FA4DC00747D0B5
:100FE000A868E96800F00C0001F003010C2802D0A9
:100FF000082817D001E0032914D06068B0F5803FBD
:1010000017D0B0F5A02F286817D020F480302860C2
:10101000286820F4802028606068E0B1FFF770FC49
:10102000064614E02868800322D560680028D2D0E4
:101030001EE0286840F48030EDE740F4802028600E
:10104000F7E700BFFFF75CFC801B642870D82868B6
:101050008003F7D50CE0FFF753FC064605E000BF20
:10106000FFF74EFC801B6428F0D828688003F7D473
:10107000207880074CD5A868E96800F00C0001F0E2
:1010800003010C2802D004280DD001E002290AD067
:10109000E068002828682BD040F480702860FFF7B3
:1010A0002FFC064619E02868400502D5E0680028B4
:1010B00091D06868217C20F0FE4040EA01606860C1
:1010C000C1480068FFF73AFC002800D120E076E133
:1010D000FFF716FC801B0228B8D828684005F7D512
:1010E0006868217C20F0FE4040EA016068600FE003
:1010F00020F480702860FFF703FC064605E000BF7F
:10110000FFF7FEFB801B0228A0D828684005F7D413
:101110002078000729D560690028D5F8940013D0FD
:1011200040F00100C5F89400FFF7EAFB064606E030
:1011300090E000BFFFF7E4FB801B022886D8D5F8BB
:1011400094008007F6D510E020F00100C5F8940067
:10115000FFF7D6FB064604E0FFF7D2FB801B022810
:1011600078D8D5F894008007F6D42078400761D568
:10117000A86D0026C00008D4A86D40F08050A86576
:10118000A86D012600F08050009090480168C905C4
:1011900011D40168804641F480710160FFF7B0FB13
:1011A000074604E0FFF7ACFBC01B022852D8D8F872
:1011B0000000C005F6D5A068012815D00528D5F88F
:1011C000900016D020F00100C5F89000D5F89000EE
:1011D00020F00400C5F89000A06841F28838B8B14A
:1011E000FFF78EFB07460EE0D5F8900040F00100B7
:1011F000F0E740F00400C5F89000F5E7FFF780FB4A
:10120000C11B414526D8D5F890008007F6D50CE0E3
:10121000FFF776FB074604E0FFF772FBC11B414571
:1012200018D8D5F890008007F6D41EB1A86D20F02C
:101230008050A8652078800629D5A0690028D5F8B7
:10124000980013D040F00100C5F89800FFF758FB54
:10125000064606E077E000BFFFF752FB801B02283E
:1012600077D8D5F898008007F6D510E020F0010077
:10127000C5F89800FFF744FB064604E0FFF740FB83
:10128000801B022865D8D5F898008007F6D4E0695D
:10129000F0B3A968C1F38101032961D0022828684D
:1012A00020F0807028600BD0E86820F00300E86030
:1012B000E86847490840E860FFF722FB04464BE036
:1012C000FFF71EFB064604E0FFF71AFB801B02280F
:1012D0003FD828688001F7D4F4E908016FF00F02C5
:1012E00002EB01110843218A5204490802EB4151E3
:1012F000A26841EA02210843217D4FF07E4249085D
:1013000002EB41610843217B40EAC160E96800E0EB
:1013100062E0304A11400843E860286840F080707D
:101320002860E86840F08070E860FFF7E9FA04465A
:1013300005E000BFFFF7E4FA001B022809D828687F
:101340008001F7D548E004E0FFF7DAFA001B022835
:1013500002D90320BDE8F88328688001F4D43BE07B
:101360000128F7D0E868226A00F00301914226D1F3
:10137000616A00F0F0020901103991421FD1A26A9E
:1013800000F4FE41B1EB022F19D194F82C2000F0AB
:101390007841B1EBC26F12D1218E00F4C00249082E
:1013A0004905A1F50011914209D194F8341000F0DB
:1013B000C06049084906A1F1007181420CD00120AA
:1013C000C8E7000000100240340000200070004018
:1013D000FFFFEEFE0C809F010020BBE70F4810B519
:1013E0000B4601680E480140080CD870C1F3042474
:1013F0005C7001F03F049C70C1F34231197052B926
:1014000001F025FDD870587801F021FD58709878CA
:1014100001F01DFD9870002010BD00000428004060
:101420003FFFFF00144810B500680B4648601248A3
:1014300008300068C0F30E0088600F480838016863
:101440000E480140C1F305401870C1F306245C70DA
:1014500001F07F049C70890DD97052B901F0F7FC3E
:101460001870587801F0F3FC5870987801F0EFFC90
:101470009870002010BD0000082800407F7F7F008A
:1014800070B504004FF001003ED094F8250028B953
:10149000002084F82400204600F03CF8022084F864
:1014A00025001A4ECA20306053203060204601F0DB
:1014B000E3FC10BB154D0C3D286815490840286019
:1014C00028686168A26908432169114308432860BC
:1014D0002189E06840EA01400C491439086020463F
:1014E00001F0F0FC48B9D4E90721114362692B6887
:1014F00023F060431A4311432960FF213160002823
:1015000002D1012184F8251070BD0000242800407C
:10151000BFFF8FFB10B592B0044644216846FFF729
:1015200002F81049206888421AD14FF40020009038
:101530004FF4407010906846FFF7E0FA08B1FFF7EB
:10154000DCF8094850F8901F41F4004140F8381980
:10155000016841F480610160006800F480601190CE
:1015600012B010BD00280040001002402DE9F041EB
:10157000044690F824000B4601281AD0012684F86E
:101580002460022084F82500B2B19878D97840EA26
:10159000014558781978000240EA413005431B4F55
:1015A000CA20386053203860204601F065FCD8B16D
:1015B00022E00220BDE8F0815878C10603D500F092
:1015C000EF000A305870D87801F04AFC05045878CA
:1015D00001F046FC45EA0025987801F041FC0543FE
:1015E000187845EA4035DAE70948054007482038C9
:1015F0000560204601F066FCFF21396008B984F8D7
:101600002560002184F82410D4E70000242800403D
:101610003FFFFF002DE9F047054690F824001746EC
:101620000C46012814D04FF0010985F824900220BF
:1016300085F82500DFF8A480CA21C8F800105321DE
:10164000C8F80010284601F017FC002618B127E062
:101650000220BDE8F087214B0C3B18684FEA406040
:101660001FB3002800DBE670A0782178E27840EA1A
:1016700001406178090241EA825108431849084053
:10168000164924390860186820F480201860D4E9CD
:1016900003010843196808431860284601F012FC4A
:1016A000FF22C8F80020A0B115E0002800DBE6709A
:1016B000207801F0D5FB0704607801F0D1FB47EA00
:1016C0000027A07801F0CCFB0743E07847EA805080
:1016D000D4E785F8259085F82460BAE724280040EF
:1016E0007F7F7F0070B50B4D286820F020002860B8
:1016F000FFF706F904464FF47A7606E0FFF700F9A3
:10170000001BB04201D9032070BD28688006F5D5C2
:10171000002070BD0C28004010B5401EB0F1807F45
:1017200001D3012010BD4FF0E02460610F2160174C
:1017300001F072FE0020A06107202061002010BD92
:101740007047704770470000F0B590F83C20012AC0
:101750004AD0012280F83C20CA688B6822F440728B
:101760001A434B6822F480621A430B6822F4006229
:101770001A430B6922F480521A434B6922F4005237
:101780001A430B6B22F480421A430B8B22F4702213
:1017900042EA0342154C03680026154DA34201D0CE
:1017A000AB4203D1CF6922F080523A43A34201D029
:1017B000AB4214D10F8D22F4700242EA07520F6A35
:1017C00022F080723A434F6A22F000723A43A342F9
:1017D00001D0AB4203D1C96A22F000520A435A64D5
:1017E00080F83C600020F0BD0220F0BD002C0140DC
:1017F000003401407047704770470000F0B590F822
:101800003C20012A3AD0012580F83C50022280F881
:101810003D2003685A689C68194E1A4FB34201D0A4
:10182000BB4204D122F4700C4A6842EA0C02DFF891
:1018300058C002EA0C02D1F800C04CEA020CC3F80E
:1018400004C00268B2420DD0B2F1804F0AD00F4BF3
:101850009A4207D00E4B9A4204D0BA4202D00D4BA6
:101860009A4204D1896824F080031943916080F87A
:101870003D50002180F83C100846F0BD0220F0BD2C
:10188000002C0140003401408FFFFFFD00040040A8
:101890000008004000400140704710B5040003D02C
:1018A00094F83D0010B107E0012010BD002084F83D
:1018B0003C00204600F022F8022084F83D00211D63
:1018C000206801F075FB012084F8480084F83E0090
:1018D00084F83F0084F8400084F8410084F8420016
:1018E00084F8430084F8440084F8450084F84600F6
:1018F00084F8470084F83D00002010BD08B5016859
:101900001F48B1F1804F14D01E4A914220D1816D01
:1019100041F002018165806D002200F0020000901C
:1019200011461D20FFF752F81D20BDE80840FFF7C3
:101930003FB8816D41F001018165806D002200F0AA
:101940000100009011461C20FFF740F81C20ECE736
:101950000D4A914207D1016E41F400310166006EDB
:1019600000F4003009E0094A914207D1016E41F4C8
:1019700080210166006E00F48020009008BD000008
:1019800000100240000400400044014000480140B3
:1019900090F83D10012901D001207047022180F804
:1019A0003D100168CA6842F00102CA60006810492F
:1019B00088420ED0B0F1804F0BD00E49884208D03B
:1019C0000D49884205D00D49884202D00C49884211
:1019D00007D181680B4A1140062906D0B1F5803F36
:1019E00003D0016841F00101016000207047000050
:1019F000002C014000040040000800400034014079
:101A000000400140070001000168CA6822F001029D
:101A1000CA6001680A6A41F211131A4207D10A6AC0
:101A20009B001A4203D10A6822F001020A600121D8
:101A300080F83D100020704770B5044690F83C00D7
:101A4000012814D0012584F83C50022084F83D0080
:101A500022689068344B184020F47F4090600868FA
:101A6000702827D010DC10F00F0F03D04AE04FF0A1
:101A7000020070BD4FEA2012072A43D2DFE802F0CD
:101A80005050505048313900284BC21A984247D024
:101A900009DCB0F5805F35D0B0F5005F15D0B0F14E
:101AA000101F2FD13CE0102A3AD0202A38D0502ADB
:101AB00028D135E0CB68D1E90121206801F0DDFAB9
:101AC0002068816841F0770109E0CB68D1E9012104
:101AD000206801F0D2FA2068816841F48041816079
:101AE00010E0CA684968206801F072FC5021206843
:101AF00006E0CA684968206801F07BFC6021206824
:101B000001F0C6FA84F83D50002084F83C0070BD16
:101B1000CA684968206801F05BFC40212068EFE753
:101B2000226801461046EBE788FFCEFF2000100038
:101B3000704770B50446006801694FF00005C9435D
:101B4000890715D4C168C943890711D4E91E016109
:101B500001202077206880698007204602D0FFF7A7
:101B6000E7FF04E000F01CF9204600F0DBF92577E0
:101B700020680169C943490717D4C168C9434907A7
:101B800013D46FF00401016102202077206880697E
:101B900010F4407F204602D0FFF7CAFF04E000F0B7
:101BA000FFF8204600F0BEF9257720680169C94397
:101BB000090716D4C168C943090712D46FF0080198
:101BC0000161042020772068C0698007204602D088
:101BD000FFF7AEFF04E000F0E3F8204600F0A2F9C2
:101BE000257720680169C943C90617D4C168C9436C
:101BF000C90613D46FF01001016108202077206816
:101C0000C06910F4407F204602D0FFF791FF04E046
:101C100000F0C6F8204600F085F9257720680169B4
:101C2000C943C90708D1C168C943C90704D1891E7E
:101C30000161204600F04CFA20680169C943090699
:101C400009D4C168C943090605D46FF08001016158
:101C50002046FFF776FD20680169C943C90509D40C
:101C6000C168C943090605D46FF48071016120463B
:101C7000FFF766FD20680169C943490609D4C168B8
:101C8000C943490605D46FF040010161204600F0C8
:101C900037FA20680169C943890609D4C168C94374
:101CA000890605D46FF0200101612046FFF74AFD47
:101CB00020680169C943C90209D4C168C943C9027E
:101CC00005D46FF4801101612046FFF794FD206870
:101CD0000169C943890209D4C168C943890205D48D
:101CE0006FF4001101612046FFF784FD206801694F
:101CF000C943490209D4C168C943490205D46FF4F4
:101D0000800101612046FFF777FD20680169C94322
:101D100009020BD4C168C943090207D46FF400015A
:101D200001612046BDE87040FFF7B6BD70BD000000
:101D300070B586B0044614216846FEF7F4FB154ED4
:101D4000256800221449022401234FF09040B54237
:101D500009D1CD6C45F00105CD64C96C01F00101DC
:101D6000059140210BE00D4EB54210D1CD6C45F0F0
:101D70000105CD64C96C01F001010591802100913C
:101D8000CDE901426946CDE90323FEF7CBFC06B05D
:101D900070BD0000004401400010024000480140B6
:101DA000704770B5044690F83C000D4601280BD0F2
:101DB000012084F83C000C2A45D007DC5AB1042AE3
:101DC0001BD0082A78D12CE0022070BD102A4ED0FA
:101DD000142A71D15DE0206801F064F920688169FE
:101DE00041F0080181612068816921F0040181616D
:101DF000206881692A69114311E0206801F0A0F987
:101E00002068816941F4006181612068816921F461
:101E100080618161206881692A6941EA02218161CA
:101E20004AE0206801F0D4F92068C16941F0080156
:101E3000C1612068C16921F00401C1612068C169E4
:101E40002A69114311E0206801F00AFA2068C1698B
:101E500041F40061C1612068C16921F48061C16100
:101E60002068C1692A6941EA0221C16124E0206831
:101E700001F03EFA2068016D41F00801016520681B
:101E8000016D21F0040101652068016D2A6911438B
:101E900011E0206801F064FA2068016D41F40061EE
:101EA00001652068016D21F4806101652068016D84
:101EB0002A6941EA02210165002084F83C0070BDD6
:101EC00010B5040003D094F83D0010B107E00120E4
:101ED00010BD002084F83C00204600F022F80220CB
:101EE00084F83D00211D206801F062F8012084F88B
:101EF000480084F83E0084F83F0084F8400084F8ED
:101F0000410084F8420084F8430084F8440084F8D7
:101F1000450084F8460084F8470084F83D0000201E
:101F200010BD70477047000030B50446022269B109
:101F3000042912D0082917D00C291CD0102921D02F
:101F400094F84300012824D0012030BD94F83E00CD
:101F50000128F9D184F83E201DE094F83F000128C3
:101F6000F2D184F83F2016E094F840000128EBD12C
:101F700084F840200FE094F841000128E4D184F86F
:101F8000412008E094F842000128DDD184F8422085
:101F900001E084F843200122206801F061F8194B28
:101FA00020681949194A984209D0884207D09042BE
:101FB00005D0174DA84202D0164DA84203D1456C5A
:101FC00045F400454564206898420CD0B0F1804F3C
:101FD00009D0114B984206D0104B984203D088424A
:101FE00001D0904207D181680D4A1140062906D0E0
:101FF000B1F5803F03D0016841F00101016000208C
:1020000030BD0000002C0140003401400040014080
:102010000044014000480140000400400008004026
:102020000700010030B504460D460068002201F0AB
:1020300017F8224B41F2111120688A0098420BD008
:102040001F4B984208D01F4B984205D01E4B984218
:1020500002D01E4B984209D1036A0B4206D1036A93
:10206000134203D1436C23F4004343642068036AA2
:102070000B4206D1016A114203D1016821F001012E
:10208000016001205DB1042D0CD0082D0DD00C2D68
:102090000ED0102D0FD084F84300002030BD84F8FE
:1020A0003E00FAE784F83F00F7E784F84000F4E7E1
:1020B00084F84100F1E784F84200EEE7002C01408B
:1020C000003401400040014000440140004801400C
:1020D000026801200849B2F1804F04D0074B9A42B0
:1020E00000D1487670470876CA7D521CD2B2CA75B4
:1020F000062AF7D1887670470600002000040040C9
:102100007047FEE72DE9F05F764CA07800287AD181
:10211000811E7548006801617348FFF739FC4FF074
:1021200080460025756225766574A574E5746F4F49
:1021300025754FF0010804F1250B04F11B0A04F189
:102140001E0900BF01F010FA01213846FEF7CEFB50
:10215000607102213846FEF7C9FBE0710421384660
:10216000FEF7C4FB607201214FF09040FEF7BEFB0A
:10217000E0726079A0B9A079012811D160780128B6
:102180000ED0607C60B9A17B09F80180491CA17365
:1021900084F8118075629BF80000012100F0E6FAD6
:1021A000E079E8B9207A01281AD16078022817D09E
:1021B000A17CA9B94FF0020105D9A07B09F8001054
:1021C000401CA07304E0607B0AF80010401C6073A0
:1021D00084F8128075629BF80100012100F0C6FAB4
:1021E000607AF0B9A07A01281BD16078032818D052
:1021F000E17CB1B94FF0030106D2607B0AF8001010
:10220000401C607305E06BE0A07B09F80010401CE7
:10221000A07384F8138075629BF80200012100F01E
:10222000A5FAE07AA8B9207B012812D160780428A9
:102230000FD0207D68B9607B04220AF80020401C82
:10224000607384F8148075629BF80300012100F02C
:102250008DFA6079A071E0792072607AA072E07ADC
:102260002073207E01287FF46DAF1E481B30FEF7DF
:102270003BF930B91B481E30FEF736F900283FF411
:1022800061AF1948FFF7C0FB7562257684F80280BC
:102290000020667B52460DE0451CE9B207E0135C66
:1022A000575CBB4201D917545354491CC9B2B142BF
:1022B000F5D3E8B2B042EFD30020A27B4B460DE04D
:1022C000451CE9B207E01C5C5E5CB44201D21E54BE
:1022D0005C54491CC9B29142F5D3E8B29042EFD3A5
:1022E000BDE8F09F06000020940000200004004894
:1022F00000B585B014216846FEF715F94FF6FF705A
:10230000009000200321CDE90201019069460248B6
:10231000FEF708FA05B000BD0008004800B585B01A
:1023200014216846FEF7FFF84FF6FF700090012079
:102330000190032003900020029069460248FEF7B6
:10234000F1F905B000BD0000000800482DE9F0419A
:102350000A4E80463068002485B22146204600F0AF
:1023600027F900F09FF94FF49637404600F06EF9D8
:10237000641CBC42F9D33560BDE8F0811408004804
:1023800001A100F061B800002020202020202020A2
:1023900020202020202020202020202000000000BD
:1023A00070B586B014216846FEF7BDF81E48C16CB2
:1023B00041F00401C164C16C01F004010591C16CDC
:1023C00041F00101C164C16C01F001010591C16CD2
:1023D00041F00201C164C06C032500F002000590C9
:1023E0004FF448700124002603958DE8510069469A
:1023F0000E48FEF797F9200203958DE851004FF043
:10240000904469462046FEF78DF9FFF787FFA069E3
:1024100040F48070A06105481830016841F40871EB
:10242000016006B070BD00000010024000040048CA
:10243000203AD2B2034B02EB420203EB021200F04D
:1024400023B80000AE3800082DE9F043DFF83480EF
:1024500081460E46D8F80000002587B240F23F14AE
:1024600007E021464846FFF7E3FF103C6D1CA4B28D
:10247000761C32780AB1142DF3D3C8F80070BDE889
:10248000F0830000140800482DE9F04791468A4681
:102490000026044600F08CF8DFF84080012700BFDA
:1024A00000F000F95FF0000539F8160007FA05F1B1
:1024B0000842404601D1408800E0008800F0C6F89C
:1024C0006D1C102DF0D3641CE4B25146204600F080
:1024D0006FF8761C182EE3D3BDE8F08700000020CB
:1024E00070B50D4E306885B2FFF75AFF002000F03E
:1024F00017F80A4CA080A088A0F50241303907D017
:1025000000F0A4FB002000F00BF8A080356070BD47
:1025100000F013FBF6E7000014080048000000205C
:1025200070B51D490A6842F400720A600A6842F4F4
:1025300080720A60184C103C226842F0200222602F
:10254000164A1060086840F02000086000BF00BF15
:1025500000BF206840F020002060206840F48070B8
:102560002060FFF7C5FE4FF09041886A40F480700C
:10257000886200BF00BF00BF0848001F006885B226
:10258000886940F480708861FFF7C8FE206840F4D5
:1025900000702060284670BD2804004814080048D8
:1025A00001B5BDF800000149488008BD00000020C9
:1025B00010B50C460146202000F0A2F82146BDE8E7
:1025C0001040212000F09CB801B5BDF80000014981
:1025D000088008BD0000002070B5144D002414A12F
:1025E0006A781948FDF76CFE17496020FFF72CFF49
:1025F00000F0BAFFFA20FEF783F800F0B5FF602084
:10260000FFF7BEFEFA20FEF77BF800F0ADFF641C7A
:10261000022CE4DB6A7806A10B48FDF751FEBDE809
:10262000704009496020FFF70FBF0000060000203E
:102630002020202020202020202025642020202051
:10264000202020202000000058000020134A11689C
:1026500041F400711160114910390B6843F4807323
:102660000B600B6843F020030B600D4B1860106883
:1026700040F02000106000BF00BF00BF086840F0BD
:1026800020000860086840F48070086000BF00BF48
:1026900000BF086840F400700860704728040048D4
:1026A000140800481449086840F40070086008687D
:1026B00040F48070086010481038026842F0200230
:1026C00002600E4B22221A600A6842F020020A6061
:1026D00000BF00BF00BF016841F020010160016838
:1026E00041F48071016000BF00BF00BF016841F488
:1026F0000071016070470000280400481408004879
:10270000184B10B51A6842F400721A601A6842F445
:1027100080721A60134A103A146844F0200414605E
:10272000114C2060186840F02000186000BF00BF06
:1027300000BF106840F020001060106840F4807006
:1027400010602160186840F02000186000BF00BFD2
:1027500000BF106840F020001060106840F48070E6
:10276000106010BD280400481408004810B50A463F
:102770000B4B0C4C0102012A0FD001221846FEF728
:10278000BAF8012204212046FEF7B5F820460022BF
:10279000BDE810400421FEF7AEB80022EEE70000CD
:1027A00000080048000C00482DE9F04186B01421D3
:1027B0006846FDF7B8FE3648C16C41F00401C164BB
:1027C000C16C01F004010591C16C41F02001C164AC
:1027D000C16C01F020010591C16C41F00101C1649F
:1027E000C16C01F001010591C16C41F00201C164AD
:1027F000C16C01F002010591C16C41F00801C16496
:10280000C06C244E00F008004FF47F440590012274
:1028100021463046FEF76FF84FF0904700223021F6
:102820003846FEF768F8DFF8708000220421404641
:10283000FEF761F80125CDE90045002402946946C0
:1028400030460394FDF76EFFCDE9005469463846E3
:102850000295FDF767FF30200090CDE901546946ED
:1028600038460394FDF75EFF07208DE83100694686
:102870000A48FDF757FF04200090CDE9015469464E
:1028800040460394FDF74EFF06B0BDE8F08100001E
:102890000010024000080048000C004800040048F6
:1028A00010B586B014216846FDF73DFE1F48002490
:1028B0001D490594C0E900147D21816041F27071C9
:1028C000C0E903144FF080414461C0E9064104624D
:1028D000FEF7D6FD08B1FDF710FF0C208DF80000C3
:1028E0001E208DF801008DF802400194039400220F
:1028F00069460E480494FEF78DFE08B1FDF7FDFE13
:1029000001208DF814008DF815008DF816008DF853
:102910001740002205A90548FEF728FE002801D02F
:10292000FDF7EBFE06B010BD002800406C00002053
:1029300010B594B01C210DA8FDF7F5FD34216846B3
:10294000FDF7F1FD1F481E490024016040F21F31D0
:10295000C0E901146321C0E9031444618461FEF7F6
:102960009CFF08B1FDF7C9FE1648FFF7A9FA08B1A8
:10297000FDF7C3FE6020CDE90D040F94109411946F
:10298000129400220DA90F481394FFF70AFA08B118
:10299000FDF7B3FE00944FF40050CDE904400194DC
:1029A000029403940694694606480C94FEF7CCFE04
:1029B00008B1FDF7A2FE0348FFF7BAF914B010BD45
:1029C000004401402C01002010B594B01C210DA83A
:1029D000FDF7A9FD34216846FDF7A5FD1F481E49F6
:1029E0000024016040F28F11C0E901146321C0E9A5
:1029F000031444618461FEF750FF08B1FDF77DFECA
:102A00001648FFF75DFA08B1FDF777FE6020CDE9C3
:102A10000D040F9410941194129400220DA90F48E4
:102A20001394FFF7BEF908B1FDF767FE00944FF469
:102A30000050CDE904400194029403940694694641
:102A400006480C94FEF780FE08B1FDF756FE0348D9
:102A5000FFF76EF914B010BD004801407801002066
:102A600010B588B000241748009401940294039490
:102A7000049405944FF080410694016041F63F7143
:102A8000C0E9011442F20F71C0E903148461FEF73A
:102A900004FF08B1FDF731FE4FF480500090694605
:102AA0000848FEF7C9FF08B1FDF727FE049404A902
:102AB00004480694FEF7A2FE002801D0FDF71DFE93
:102AC00008B010BD9400002010B588B0002418484C
:102AD0000094019402940394049405941349069479
:102AE000016043F67F61C0E9011442F20F71C0E951
:102AF00003148461FEF7D1FE08B1FDF7FEFD4FF42B
:102B00008050009069460A48FEF796FF08B1FDF72D
:102B1000F4FD049404A906480694FEF76FFE00280D
:102B200001D0FDF7EAFD08B010BD00000004004030
:102B3000E0000020FEE7FEE7704730B501210020ED
:102B4000FFF7DEFD4FF47A70FDF7C9FD002101208B
:102B5000FFF7D6FD41F290711020FFF7D1FD4FF441
:102B60001C516020FFF7CCFD01216120FFF7C8FD5B
:102B700002214620FFF7C4FD48F210011320FFF7A1
:102B8000BFFD48F2FE011220FFF7BAFD4FF4A0612D
:102B90000220FFF7B5FD41F230010320FFF7B0FD41
:102BA00040F2033421463020FFF7AAFD21463120B0
:102BB000FFF7A6FD21463220FFF7A2FDE51E2946BC
:102BC0003320FFF79DFD03213420FFF799FD2146B7
:102BD0003520FFF795FD14213620FFF791FD2146A2
:102BE0003720FFF78DFD21463820FFF789FD21466C
:102BF0003920FFF785FD29463A20FFF781FD0321A3
:102C00003B20FFF77DFD21463C20FFF779FD4FF487
:102C1000A0513D20FFF774FD4FF400719220FFF7A3
:102C20006FFD21469320FFF76BFD40F60D019020CC
:102C3000FFF766FD41F218010320FFF761FDBDE8D3
:102C4000304040F273110720FFF75ABD10B543F230
:102C50000801E320FFF754FD1221E720FFF750FDA4
:102C600041F23121EF20FFF74BFD00210120FFF75A
:102C700047FD4FF4E0610220FFF742FD41F23001D1
:102C80000320FFF73DFD00210420FFF739FD40F24E
:102C900007210820FFF734FD00210920FFF730FD50
:102CA00000210A20FFF72CFD00210C20FFF728FD52
:102CB00000210D20FFF724FD00210F20FFF720FD4C
:102CC00000211020FFF71CFD07211120FFF718FD40
:102CD00000211220FFF714FD00211320FFF710FD43
:102CE000C820FDF70DFD41F290611020FFF708FDAF
:102CF00040F227211120FFF703FD3220FDF700FDF0
:102D00001D211220FFF7FCFC3220FDF7F9FC4FF4E7
:102D100000611320FFF7F4FC14212920FFF7F0FCD9
:102D20000B212B20FFF7ECFC3220FDF7E9FC002102
:102D30002020FFF7E5FC00212120FFF7E1FC07211F
:102D40003020FFF7DDFC40F207713120FFF7D8FC9F
:102D500006213220FFF7D4FC40F204713520FFF742
:102D6000CFFC41F604713620FFF7CAFC042137205E
:102D7000FFF7C6FC00213820FFF7C2FC40F20671C5
:102D80003920FFF7BDFC40F201713C20FFF7B8FC91
:102D90000F213D20FFF7B4FC00215020FFF7B0FCCD
:102DA000EF215120FFF7ACFC00215220FFF7A8FCD7
:102DB00040F23F115320FFF7A3FC4FF41C51602059
:102DC000FFF79EFC01216120FFF79AFC00216A2099
:102DD000FFF796FC00218020FFF792FC0021812064
:102DE000FFF78EFC00218220FFF78AFC0021832060
:102DF000FFF786FC00218420FFF782FC002185205C
:102E0000FFF77EFC10219020FFF77AFC0021922032
:102E1000FFF776FC03219320FFF772FC4FF48871D3
:102E20009520FFF76DFC00219720FFF769FC00213A
:102E30009820FFF765FC41F218010320FFF760FCC2
:102E4000BDE8104040F273110720FFF759BC01099B
:102E500001EB810100F00F0000EB4100C0B27047B0
:102E60000022014602E00A39C9B2521C0A29FAD2EC
:102E7000100741EA106070472DE9F047104C814679
:102E800000252068400618D4206840F080002060AB
:102E9000FDF736FD06464FF47A78032708E000BFB9
:102EA000FDF72EFD801B404502D9032589F82570CA
:102EB0002068400601D4032DF2D12846BDE8F087F2
:102EC0000C2800402DE9F041064613480025016812
:102ED00021F080010160104C0C3420684FF0030792
:102EE000800607D43046FEF7FDFB90B186F82570CA
:102EF00003250EE0206820F0200020603046FEF719
:102F0000F1FB10B186F825700325206840F0200001
:102F100020602846BDE8F0810C2800407047FDF78E
:102F2000F5BC10B594B038216846FDF7FCFA1421C1
:102F30000EA8FDF7F8FA4FF40070FDF779FD0120B7
:102F400000900004019002200324CDE9070414211D
:102F5000CDE90A100C900D9009946846FEF738F8F8
:102F600008B172B6FEE70F20CDE90E0400201090E4
:102F70001190129002210EA8FDF704FF002801D045
:102F800072B6FEE714B010BD0248016841F470014A
:102F90000160704788ED00E00148FEF7CABD0000FF
:102FA000940000200148FEF7C4BD0000E0000020AE
:102FB0002DE9F0430268234B234D244E244C4FF05F
:102FC0008049984207D0484505D0A84203D0B04276
:102FD00001D0A04203D122F070074A683A431D4F46
:102FE000DFF874C0DFF8748098420DD048450BD0EC
:102FF000A84209D0B04207D0A04205D0B84203D0C1
:10300000604501D0404503D122F44075CA682A4387
:103010004D6922F080022A4302608A68C2620A680F
:103020008262984207D0A04205D0B84203D06045E2
:1030300001D0404501D10969016301214161BDE829
:10304000F0830000002C0140000400400008004014
:10305000003401400040014000440140004801406C
:1030600010B501F01F030121046A99408C430462EA
:10307000016A9A401143016210BD10B5846842EAAA
:10308000032224F47F440A432243826010BD0000DF
:103090008268034B1A400A4342F00701816070477F
:1030A0008FFFCFFF2DE9F043026A22F00102026296
:1030B000056A436882691C4C25F0020522400C68B1
:1030C00022F0030214438A68194E2A43174D194F00
:1030D000DFF864C0DFF86490A84207D0B04205D0A2
:1030E000B84203D0604501D0484506D122F0080817
:1030F000CA6842EA080222F00402A84207D0B0429D
:1031000005D0B84203D0604501D0484505D14D698E
:1031100023F440731D438B692B43436084614968EA
:1031200041630262BDE8F0838FFFFEFF002C014087
:10313000003401400040014000440140004801408B
:10314000F0B5026A22F010020262056A42688369E1
:10315000194C1B4E23400C6823F4407343EA0424AB
:1031600025F020038D6843EA0513144DA84201D0D1
:10317000B04206D1CF6823F0800343EA071323F05F
:103180004003A8420AD0B04208D00E4DA84205D054
:103190000D4DA84202D00D4DA84207D14D6922F431
:1031A000406242EA85028D6942EA8502426084619A
:1031B000496881630362F0BDFF8FFFFE002C014070
:1031C00000340140004001400044014000480140FB
:1031D000F0B5026A22F480720262056A4368C2692D
:1031E000194C1B4E22400C6822F00302144325F4B4
:1031F00000728D6842EA0522144DA84201D0B04207
:1032000006D1CF6822F4006242EA072222F48062EB
:10321000A8420AD0B04208D00E4DA84205D00E4DAB
:10322000A84202D00D4DA84207D14D6923F4405366
:1032300043EA05138D6943EA05134360C461496895
:10324000C1630262F0BD00008FFFFEFF002C014051
:10325000003401400040014000440140004801406A
:10326000F0B5026A22F480520262056A4268C369BC
:10327000194C1B4E23400C6823F4407343EA04248A
:1032800025F400538D6843EA0533144DA84201D05C
:10329000B04206D1CF6823F4004343EA073323F456
:1032A0008043A8420AD0B04208D00E4DA84205D0B3
:1032B0000D4DA84202D00D4DA84207D14D6922F410
:1032C000404242EA85128D6942EA85124260C46139
:1032D000496801640362F0BDFF8FFFFE002C0140CE
:1032E00000340140004001400044014000480140DA
:1032F00030B5026A22F480320262046A4268036DC9
:10330000114D2B400D681D4324F400330C8943EA12
:1033100004430E4CA0420BD00D4CA04208D00D4CE3
:10332000A04205D00C4CA04202D00C4CA04204D1CB
:103330004C6922F4803242EA042242600565496801
:103340008164036230BD00008FFFFEFF002C01404E
:103350000034014000400140004401400048014069
:1033600030B5026A22F480120262046A4268036D78
:10337000114D24F400142B400D6843EA05230D89F8
:1033800044EA05540D4DA8420BD00D4DA84208D07B
:103390000C4DA84205D00C4DA84202D00B4DA842BE
:1033A00004D14D6922F4802242EA852242600365FD
:1033B0004968C164046230BDFF8FFFFE002C0140EC
:1033C00000340140004001400044014000480140F9
:1033D00010B5036A046A24F001040462846924F0CD
:1033E000F00444EA021423F00A020A4384610262F0
:1033F00010BD10B5036A23F0100303628369046AE9
:1034000023F4704343EA023224F0A00343EA01119B
:103410008261016210BDFEE70907090E002804DB86
:1034200000F1E02080F80014704700F00F0000F178
:10343000E02080F8141D704730380A2801D201209E
:10344000704700207047000070B5124E00242246DD
:10345000747620214FF09040FDF74DFA00210E4880
:10346000FEF762FD0D49322008600D49A01E096873
:1034700008610B48FEF78CFA0A4D2C6002E000BF91
:1034800000F072F8707E0028FAD00548FEF7BCFA0A
:103490002C6070BD060000207801002034480140F7
:1034A000E00000202404004070B5124E00240122E8
:1034B000747620214FF09040FDF71DFA00210E4850
:1034C000FEF732FD0D493C2008600D49A01E096839
:1034D00008610B48FEF75CFA0A4D2C6002E000BF61
:1034E00000F042F8707E0028FAD00548FEF78CFA0A
:1034F0002C6070BD06000020780100203448014097
:10350000E00000202404004070B50C48FCF7ECFFFC
:103510000A4C012600251B3C08B166750CE00748E3
:10352000FCF7E2FF38B90548C01CFCF7DDFF10B11D
:103530006575A67570BD6575A57570BD2100002007
:1035400010B5002205490648FDF76CFFBDE81040A4
:10355000002204490248FDF741BF0000440000205A
:103560006C0000202700002008B5FFF7E9FF0CA140
:103570001148FCF7A5FE10493020FEF765FF0E4804
:10358000143881780091437802780CA11430FCF74C
:1035900097FEBDE808400849A820FEF755BF000087
:1035A000202020204E6F7720506C616E74666F7201
:1035B0006D20202000000000580000202020202046
:1035C00025303264203A2025303264203A202530DC
:1035D00032642020202000002DE9F047774CA078AD
:1035E00001287DD12078002510B12570FFF72CFF30
:1035F0007349E575A57609686FF0010008617048A8
:10360000FEF7C6F94FF080477D626C4E4FF090494F
:10361000DFF8B08116F12506FFF7A6FF607D0128CF
:1036200020D1A07DF0BBE178705C491CE1700121E4
:10363000FFF79CF80A20FDF763F80021F020FFF760
:1036400095F8E078072800D90420E07001221021C5
:103650004846FDF750F900215B48FEF765FC502114
:10366000C8F80010607DE8B9A07D012820D121793B
:10367000705C491E21710121FFF778F80A20FDF7DF
:103680003FF80021F020FFF771F82079042800D2DC
:1036900007202071002210214846FDF72CF9002157
:1036A000494800E004E0FEF73FFC3C21C8F8001068
:1036B000A07E0128B0D141481B30FCF715FF28B986
:1036C0003E481E30FCF710FF0028A5D000213E48E0
:1036D000FEF7A8FC607D012830D16078401C00E036
:1036E0006AE0C2B2627039A13E48FCF7E9FD3D498B
:1036F0006020FEF7A9FE3149E07B1B31085C617850
:10370000884211D1FEF768FF60780021304410F83C
:10371000010CFFF72BF8E07B401CE073FFF7C4FEC1
:1037200000F0A2F8FFF790FEE17B607B814205D1BB
:10373000A4F81B5065776575E5736573A07D012856
:103740002ED1607821A1401EC2B262702548FCF7DC
:10375000B7FD24496020FEF777FE1849207C1E3112
:10376000095C6078814211D1FEF736FF6078002154
:10377000304410F8010CFEF7F9FF207C401C207447
:10378000FFF792FE00F070F8FFF75EFE207CA17B51
:10379000884205D1E58384F82050A575A57325746A
:1037A000E17B207C014303D07D62E575A57633E79C
:1037B0000348FEF729F9A570BDE8F0870600002050
:1037C00094000020344401402C01002020202020BF
:1037D00020202020202025642020202020202020A0
:1037E0002000000058000020FDF798F8FFF799FB33
:1037F000FEF7DAFFFFF754F8FFF732F9FFF764F945
:10380000FFF796F8FFF7E0F8FEF76AFE0020FEF7F4
:103810009DFD0020FEF7C4FE4FF6FF70FEF7D4FEBC
:1038200009480AA142780F48FCF74AFD0D4960207B
:10383000FEF70AFEFFF798FEFEF764FCFFF764FE52
:10384000FFF7CAFEF6E70000060000202020202037
:10385000202020202020256420202020202020201F
:10386000200000005800002070B50B4E0B490024CA
:1038700074760968A01E08610848FEF789F8084DAB
:103880002C6001E0FFF770FE707E0028FAD003483C
:10389000FEF7BAF82C6070BD06000020E0000020A2
:1038A000240400404FF04070E1EE100A7047000021
:1038B0000000000000000000000000000000000008
:1038C00000000000000000000000000000000000F8
:1038D00000000000000000000000000000000000E8
:1038E00080018001800180018001800180018001D0
:1038F00080018001800180018001000000008001C2
:103900008001000000000000000000000000000036
:103910000000CC00CC00CC00CC00CC00CC000000DF
:103920000000000000000000000000000000000097
:103930000000000000000000000000000000000087
:1039400000000000000000000000600C600C600C33
:1039500030063006FE1FFE1F300638071803FE1F14
:10396000FE1F180318038C018C018C01000000005D
:103970008000E003F80F9C0E8C1C8C188C009800C3
:10398000F801E007800E801C8C188C189C18B80C6D
:10399000F00FE00380008000000000000000000045
:1039A000000000000E181B0C110C1106110611036B
:1039B00011039B018E01C038C06C604460443044E8
:1039C00030441844186C0C3800000000000000005F
:1039D000E001F0033807180618063003F001F00084
:1039E000F8009C310E33061E061C061C063FFC73B5
:1039F000F0210000000000000000000000000000B6
:103A000000000C000C000C000C000C000C0000006E
:103A100000000000000000000000000000000000A6
:103A20000000000000000000000000000000000096
:103A3000000200038001C000C00060006000300090
:103A400030003000300030003000300030006000C6
:103A50006000C000C0008001000300020000000000
:103A600020006000C0008001800100030003000608
:103A70000006000600060006000600060006000319
:103A8000000380018001C0006000200000000000F1
:103A900000000000000000000000C000C000D806C8
:103AA000F807E001300338070000000000000000C4
:103AB0000000000000000000000000000000000006
:103AC0000000000000000000000080018001800173
:103AD00080018001FC3FFC3F80018001800180016A
:103AE0008001000000000000000000000000000055
:103AF00000000000000000000000000000000000C6
:103B000000000000000000000000000000000000B5
:103B10008001800100010001800000000000000021
:103B20000000000000000000000000000000000095
:103B3000000000000000E007E007000000000000B7
:103B40000000000000000000000000000000000075
:103B50000000000000000000000000000000000065
:103B60000000000000000000000000000000000055
:103B7000C000C000000000000000000000000000C5
:103B8000000C000C00060006000600030003000302
:103B90008003800180018001C000C000C00060007F
:103BA00060000000000000000000000000000000B5
:103BB000E003F007380E180C0C180C180C180C1831
:103BC0000C180C180C180C180C18180C380EF007E0
:103BD000E003000000000000000000000000000002
:103BE00000018001C001F00198018801800180017D
:103BF00080018001800180018001800180018001BD
:103C00008001000000000000000000000000000033
:103C1000E003F80F180C0C180C1800180018000C12
:103C2000000600038001C000600030001800FC1F87
:103C3000FC1F000000000000000000000000000069
:103C4000E001F807180E0C0C0C0C000C0006C00369
:103C5000C007000C001800180C180C18180CF807F6
:103C6000E003000000000000000000000000000071
:103C7000000C000E000F000F800DC00C600C600CDB
:103C8000300C180C0C0CFC3FFC3F000C000C000C22
:103C9000000C000000000000000000000000000018
:103CA000F80FF80F180018000C00EC03FC071C0EAE
:103CB000001C0018001800180C181C0C180EF8072F
:103CC000E003000000000000000000000000000011
:103CD000C007F00F381C181818000C00CC03EC0FAC
:103CE0003C0E1C1C0C180C180C18181C380EF00775
:103CF000E0030000000000000000000000000000E1
:103D0000FC1FFC1F000C000600060003800380015E
:103D1000C001C000E00060006000700030003000B2
:103D20003000000000000000000000000000000063
:103D3000E003F007380E180C180C180C3806F007C2
:103D4000F007180C0C180C180C180C18380CF80F7D
:103D5000E003000000000000000000000000000080
:103D6000E003F007380E1C0C0C180C180C181C1C67
:103D7000381EF81BE0190018000C000C1C0EF80788
:103D8000F001000000000000000000000000000042
:103D90000000000000000000000080018001000021
:103DA0000000000000000000000000000000800192
:103DB0008001000000000000000000000000000082
:103DC00000000000000000000000800180010000F1
:103DD0000000000000000000000000000000800162
:103DE00080010001000180000000000000000000D0
:103DF00000000000000000000000000000000010B3
:103E0000001C800FE003F8001800F800E003800FAA
:103E1000001C001000000000000000000000000076
:103E20000000000000000000000000000000F81F7B
:103E3000000000000000F81F00000000000000006B
:103E40000000000000000000000000000000000072
:103E5000000000000000000000000000000008005A
:103E60003800F001C007001F0018001FC007F00154
:103E70003800080000000000000000000000000002
:103E8000E003F80F180C0C180C180018000C0006B2
:103E900000038001C000C000C00000000000C0009E
:103EA000C000000000000000000000000000000052
:103EB0000000E00718180420C229224A11440944CE
:103EC0000944094409221113E20C02400420181885
:103ED000E0070000000000000000000000000000FB
:103EE00080038003C006C006C006600C600C30185A
:103EF00030183018F83FF83F1C700C600C6006C09A
:103F000006C00000000000000000000000000000EB
:103F1000FC03FC0F0C0C0C180C180C180C0CFC07F8
:103F2000FC0F0C180C300C300C300C300C18FC1F33
:103F3000FC0700000000000000000000000000007E
:103F4000C007F01F38381C300C70066006000600F1
:103F5000060006000600060006600C701C30F01F0C
:103F6000E00700000000000000000000000000006A
:103F7000FE03FE0F060E0618061806300630063041
:103F8000063006300630063006180618060EFE0FFC
:103F9000FE03000000000000000000000000000020
:103FA000FC3FFC3F0C000C000C000C000C00FC1F44
:103FB000FC1F0C000C000C000C000C000C00FC3F63
:103FC000FC3F0000000000000000000000000000B6
:103FD000F83FF83F18001800180018001800F81FE4
:103FE000F81F180018001800180018001800180012
:103FF00018000000000000000000000000000000A9
:10400000E00FF83F3C780E6006E007C003000300B5
:1040100003FE03FE03C007C006C00EC03CF0F83F1D
:10402000E00F0000000000000000000000000000A1
:104030000C300C300C300C300C300C300C30FC3FA1
:10404000FC3F0C300C300C300C300C300C300C3091
:104050000C30000000000000000000000000000024
:104060008001800180018001800180018001800148
:104070008001800180018001800180018001800138
:1040800080010000000000000000000000000000AF
:1040900000060006000600060006000600060006F0
:1040A0000006000600060006180618063807F0038A
:1040B000E00100000000000000000000000000001F
:1040C00006300618060C060606038601C6006600C2
:1040D0007600DE008E0106030606060C0618063082
:1040E000066000000000000000000000000000006A
:1040F0001800180018001800180018001800180000
:104100001800180018001800180018001800F81FF0
:10411000F81F000000000000000000000000000088
:104120000EE01EF01EF01EF036D836D836D836D83F
:1041300066CC66CC66CCC6C6C6C6C6C6C6C686C370
:1041400086C3000000000000000000000000000026
:104150000C301C303C303C306C306C30CC30CC30CF
:104160008C310C330C330C360C360C3C0C3C0C38BC
:104170000C30000000000000000000000000000003
:10418000E007F81F1C380E70066003C003C003C0B0
:1041900003C003C003C003C006600E701C38F81FC4
:1041A000E007000000000000000000000000000028
:1041B000FC0FFC1F0C380C300C300C300C300C1881
:1041C000FC1FFC070C000C000C000C000C000C0089
:1041D0000C000000000000000000000000000000D3
:1041E000E007F81F1C380E70066003E003C003C030
:1041F00003C003C003C007E006630E3F1C3CF83F4A
:10420000E0F700C000000000000000000000000017
:10421000FE0FFE1F06380630063006300638FE1F39
:10422000FE0706030606060C0618061806300630BA
:104230000660000000000000000000000000000018
:10424000E003F80F1C0C0C180C180C001C00F803F1
:10425000E00F001E0038063006300E301C1CF80F30
:10426000E007000000000000000000000000000067
:10427000FE7FFE7F8001800180018001800180013E
:104280008001800180018001800180018001800126
:10429000800100000000000000000000000000009D
:1042A0000C300C300C300C300C300C300C300C302E
:1042B0000C300C300C300C300C300C301818F81F4F
:1042C000E007000000000000000000000000000007
:1042D00003600630063006300C180C180C18180C49
:1042E000180C380E30063006700760036003C001FA
:1042F000C0010000000000000000000000000000FD
:104300000360C361C361C36166336633663366337A
:10431000663366336C1B6C1B6C1B2C1A3C1E380EF0
:10432000380E000000000000000000000000000047
:104330000FE00C7018303018700C600EC00780034E
:104340008003C003E006700C301C18180C300E609F
:1043500007E0000000000000000000000000000076
:1043600003C006600C301C383818300C6006E007BB
:10437000C0038001800180018001800180018001F3
:1043800080010000000000000000000000000000AC
:10439000FC7FFC7F006000300018000C000600036A
:1043A0008001C0006000300018000C000600FE7F95
:1043B000FE7F000000000000000000000000000080
:1043C000E003E003600060006000600060006000E7
:1043D00060006000600060006000600060006000DD
:1043E0006000600060006000E003E0030000000087
:1043F00030003000600060006000C000C000C000FD
:10440000C001800180018001000300030003000659
:104410000006000000000000000000000000000096
:10442000E003E003000300030003000300030003B4
:104430000003000300030003000300030003000364
:104440000003000300030003E003E003000000009A
:104450000000C001C0016003600360033006300645
:10446000180C180C00000000000000000000000004
:10447000000000000000000000000000000000003C
:10448000000000000000000000000000000000002C
:10449000000000000000000000000000000000001C
:1044A000FFFFFFFF00000000000000000000000010
:1044B0000C000C000C000C000C000C0000000000B4
:1044C00000000000000000000000000000000000EC
:1044D00000000000000000000000000000000000DC
:1044E00000000000000000000000F003F8071C0CB2
:1044F0000C0C000FF00FF80C0C0C0C0C1C0FF80F30
:10450000F0180000000000000000000000000000A3
:1045100018001800180018001800D803F80F380CFD
:10452000181818181818181818181818380CF80F20
:10453000D8030000000000000000000000000000A0
:1045400000000000000000000000C003F007300E73
:10455000180C1800180018001800180C300EF0077E
:10456000C003000000000000000000000000000088
:1045700000180018001800180018C01BF01F301C8D
:10458000181818181818181818181818301CF01FB0
:10459000C01B000000000000000000000000000040
:1045A00000000000000000000000C003F00F300C0D
:1045B0001818F81FF81F180018003818301CF00FD2
:1045C000C007000000000000000000000000000024
:1045D000800FC00FC000C000C000F007F007C0008F
:1045E000C000C000C000C000C000C000C000C000CB
:1045F000C0000000000000000000000000000000FB
:1046000000000000000000000000E00DF80F180E90
:104610000C0C0C0C0C0C0C0C0C0C0C0C180EF80FDD
:10462000E00D000C0C0C1C06F807F0010000000067
:1046300018001800180018001800D807F80F381CC8
:1046400018181818181818181818181818181818EA
:10465000181800000000000000000000000000002A
:10466000C000C000000000000000C000C000C0008A
:10467000C000C000C000C000C000C000C000C0003A
:10468000C00000000000000000000000000000006A
:10469000C000C000000000000000C000C000C0005A
:1046A000C000C000C000C000C000C000C000C0000A
:1046B000C000C000C000C000F8007800000000008A
:1046C0000C000C000C000C000C000C0C0C060C0375
:1046D0008C01CC006C00FC009C018C030C030C06CC
:1046E0000C0C0000000000000000000000000000B2
:1046F000C000C000C000C000C000C000C000C000BA
:10470000C000C000C000C000C000C000C000C000A9
:10471000C0000000000000000000000000000000D9
:10472000000000000000000000007C3CFF7EC7E3AA
:1047300083C183C183C183C183C183C183C183C159
:1047400083C1000000000000000000000000000025
:10475000000000000000000000009807F80F381C5F
:1047600018181818181818181818181818181818C9
:104770001818000000000000000000000000000009
:1047800000000000000000000000C003F00F300C2B
:10479000181818181818181818181818300CF00FBE
:1047A000C003000000000000000000000000000046
:1047B00000000000000000000000D803F80F380CD3
:1047C000181818181818181818181818380CF80F7E
:1047D000D803180018001800180018000000000086
:1047E00000000000000000000000C01BF01F301C93
:1047F000181818181818181818181818301CF01F3E
:10480000C01B001800180018001800180000000055
:1048100000000000000000000000B007F00370007E
:104820003000300030003000300030003000300008
:104830003000000000000000000000000000000048
:1048400000000000000000000000E003F003380E4C
:10485000180C3800F003C007000C180C380EF007D5
:10486000E003000000000000000000000000000065
:1048700000008000C000C000C000F007F007C000CA
:10488000C000C000C000C000C000C000C000C00721
:104890008007000000000000000000000000000091
:1048A0000000000000000000000018181818181878
:1048B000181818181818181818181818381CF01F75
:1048C000E0190000000000000000000000000000EF
:1048D000000000000000000000000C18180C180C6C
:1048E000180C300630063006600360036003C00118
:1048F000C0010000000000000000000000000000F7
:1049000000000000000000000000C141C141C3617F
:104910006363636363633636363636361C1C1C1C91
:104920001C1C00000000000000000000000000004F
:10493000000000000000000000001C38381C300C93
:10494000600660036003600360036006300C381C7F
:104950001C38000000000000000000000000000003
:10496000000000000000000000001830301830186F
:104970007018600C600CE00CC006C0068003800359
:10498000800380018001C001F00070000000000081
:1049900000000000000000000000FC1FFC1F000CD5
:1049A000000600038001C000600030001800FC1FFA
:1049B000FC1F0000000000000000000000000000DC
:1049C00000038001C000C000C000C000C000C000E3
:1049D00060006000300060004000C000C000C00007
:1049E000C000C000C0008001000300000000000003
:1049F00080018001800180018001800180018001AF
:104A0000800180018001800180018001800180019E
:104A10008001800180018001800180010000000090
:104A20006000C000C0018001800180018001800120
:104A300000030003000600030001800180018001E3
:104A4000800180018001C0006000000000000000C3
:104A50000000000000000000000000000000F01056
:104A6000F81F080F00000000000000000000000018
:104A70000000000000000000000000000000000036
:104A800000000000000001020304060708090400FA
:104A900000080000000000000002000100001000FB
:104AA000C04A000800000020440000001402000872
:104AB000044B000844000020E40700003002000816
:104AC0000000FFFF000001010004070000000000DB
:104AD00000000000000000000000000000000000D6
:104AE00000000000000000000000000102040810A7
:104AF00020408000100000000100000000000000C5
:044B00000024F40099
:04000005080001D915
:00000001FF
