:020000040800F2
:10000000700A002089020008FF2D0008F72400086C
:10001000FD2D0008F7070008453D0008000000001E
:100020000000000000000000000000001731000880
:10003000F907000800000000012E0008193100082F
:10004000A3020008A3020008A3020008A3020008FC
:10005000A3020008A3020008A3020008A3020008EC
:10006000A3020008A3020008A3020008A3020008DC
:10007000A3020008A3020008A3020008A3020008CC
:10008000A302000800000000A3020008A302000869
:10009000A3020008A3020008A3020008A3020008AC
:1000A000A3020008A3020008A3020008A30200089C
:1000B00095310008A1310008A3020008A30200083E
:1000C000A3020008A3020008A3020008A30200087C
:1000D000A3020008493C0008A3020008A30200088C
:1000E000A3020008A3020008A3020008A30200085C
:1000F000A3020008A3020008A302000800000000F9
:1001000000000000A302000800000000A302000895
:10011000A302000800000000AD310008A30200089F
:10012000A3020008A3020008A3020008A30200081B
:10013000A30200080000000000000000A302000865
:10014000A3020008A3020008000000000000000055
:10015000000000000000000000000000000000009F
:10016000000000000000000000000000A3020008E2
:10017000A3020008000000000000000000000000D2
:1001800000000000A30200080000000000000000C2
:10019000000000000000000000000000000000005F
:1001A0000000000000000000A3020008A3020008F5
:1001B000A3020008A3020008A30200080000000038
:1001C00000000000A3020008000000000000000082
:1001D000A3020008A302000800F002F800F044F8AF
:1001E0000AA090E8000C82448344AAF10107DA4592
:1001F00001D100F039F8AFF2090EBAE80F0013F0A0
:10020000010F18BFFB1A43F001031847944E00007A
:10021000B44E0000103A24BF78C878C1FAD852070B
:1002200024BF30C830C144BF04680C607047000070
:100230000023002400250026103A28BF78C1FBD8EF
:10024000520728BF30C148BF0B607047642900F0D7
:100250002581732900F09182002070471FB503F0BB
:100260000BFE1FBD10B510BD00F08BFA1146FFF755
:10027000F5FF03F079FD00F0A9FA03B4FFF7F2FFF0
:1002800003BC00F0B1FA0000094880470948004764
:10029000FEE7FEE7FEE7FEE7FEE7FEE7FEE7FEE736
:1002A000FEE7FEE704480549054A064B7047000093
:1002B00085310008D901000870040020700A002070
:1002C000700600207006002053EA020C00F06980DE
:1002D0002DE9F04B4FF00006002B1FBFB3FA83F55A
:1002E00003FA05F424FA05F65E4012BF1643B2FA8B
:1002F00082F502FA05F4C5F120051EBF22FA05FCBD
:1003000044EA0C04203556EA044C4FEA144418BF62
:10031000641C4FF000084FF00009904271EB030C91
:1003200039D3002919BFB1FA81F701FA07F6B0FAFB
:1003300080F700FA07F6C7F120071EBF20FA07FC76
:1003400046EA0C062037B6FBF4FCA7EB0507103F86
:1003500007F01F0BCBF120060CFA0BFB2CFA06F66C
:1003600044BFB3460026202FA4BF5E464FF0000BCB
:100370005BEA060C08BF4FF0010B19EB0B09ABFB56
:10038000027C48EB0608C01B06FB02CC0BFB03CC2F
:1003900071EB0C01C1E70B46024641464846BDE8F9
:1003A000F08B13B54FF000004FF00001AFF3008069
:1003B000BDE81C40704700000FB41CB5074B06AAEF
:1003C0007B4469460090059800F0ADF9002069462D
:1003D00000F0BCF91CBC5DF814FB000089030000B0
:1003E0002DE9F0410E460446002020622046E168D7
:1003F000884730B3252805D0D4E901219047206AE9
:10040000401CF2E7E168204600278847050018D025
:10041000A5F14100192802D820354FF40067324673
:10042000294620462760FFF711FF40B1012804D07C
:10043000F61D26F007060836D8E7361DD6E728460B
:10044000DAE7206ABDE8F08170B50C460546012A5E
:1004500005D02878800600D5EA69002302E0012350
:1004600005E05B1C934202D2E05C0028F9D1A86948
:10047000E618C01AA861286A184428622846AFF313
:10048000008004E0D5E9012114F8010B9047B44243
:10049000F8D32846AFF3008070BD00002DE9F0418D
:1004A0000646002410687529314616A510D0AFF312
:1004B0000080002802DA404213A507E031688A076D
:1004C00001D512A502E0490704D511A5012401E0D8
:1004D000AFF3008000210A2206F1240709E0B0FBF7
:1004E000F2FCB0FBF2F302FB1C00303078541846EB
:1004F000491C0028F3D123462A463046BDE8F04186
:1005000000F0B3B8000000002D0000002B00000038
:100510002000000010B5431C02E010F8011B71B16F
:100520008107FAD14FF0013202C88C1A8C4314EAC9
:10053000C211F9D0C01A0A0603D0C01E10BDC01ADD
:1005400010BD0A0401D0801E10BD0902FCD0401E5F
:1005500010BD4FF000020429C0F0128010F0030C0F
:1005600000F01B80CCF1040CBCF1020F18BF00F8A6
:10057000012BA8BF20F8022BA1EB0C0100F00DB855
:100580005FEAC17C24BF00F8012B00F8012B48BFB3
:1005900000F8012B70474FF0000200B51346944657
:1005A0009646203922BFA0E80C50A0E80C50B1F1CB
:1005B0002001BFF4F7AF090728BFA0E80C5048BFDF
:1005C0000CC05DF804EB890028BF40F8042B08BF7D
:1005D000704748BF20F8022B11F0804F18BF00F879
:1005E000012B70474FF0013C50F8042B51F8043BAD
:1005F0009A4221D1A2EB0C03934313EACC1317D1F7
:1006000050F8042B51F8043B9A4215D1A2EB0C038D
:10061000934313EACC130BD150F8042B51F8043B4D
:100620009A4209D1A2EB0C03934313EACC13DBD01B
:100630004FF00000704700BFD01A01BAB1FA81F143
:1006400001F0180122FA01F0CB40C1F12001DBB228
:10065000C0B2C01A2CFA01F3D11A914311EAC311A6
:10066000E6D170477047704770472DE9F0470D4657
:1006700099469246044600F124080168880604D58C
:10068000E06921F01001216000E00120A84201DDB5
:10069000471B00E00027A1697A1902EB0900081A3C
:1006A000A0612078C00602D42046AFF30080002667
:1006B00008E0D4E901211AF806009047206A401C9E
:1006C000761C20624E45F4DB2078C0060AD5204611
:1006D000AFF3008006E0D4E9012130209047206A82
:1006E000401C2062381EA7F10107F4DC07E0D4E9C2
:1006F000012118F805009047206A401C2062281E3E
:10070000A5F10105F3DC2046AFF300802078000658
:1007100002D50220BDE8F0870120FBE701694A1CF1
:1007200002610878704700B58FB0CDE90131002132
:10073000059105497944CDE9031011466846FFF754
:100740004FFE0FB000BD0000E5FFFFFF0A6802F892
:10075000010B0A60704710B5436913B1AFF3008015
:1007600001E0FFF771FE012010BD127800F12401B5
:100770000A7000224A700122EDE711684FF0FF3243
:10078000E9E7754600F02CF8AE4605006946534689
:1007900020F00700854618B020B5FFF783FDBDE8BF
:1007A00020404FF000064FF000074FF000084FF0D8
:1007B000000B21F00701AC46ACE8C009ACE8C00969
:1007C000ACE8C009ACE8C0098D46704710B50446D6
:1007D000AFF300802046BDE81040FFF74EBD00009B
:1007E000004870471004002001491820ABBEFEE706
:1007F000260002007047FEE77047002240F6B8333B
:1008000006E00021491C89B29942FBD3521C92B2E6
:100810008242F6D3704772B6FEE710B590F82530E5
:1008200000210122022B03D00421C163012122E017
:1008300003681C6824F00E041C60836C1C6824F49C
:1008400080741C6003681C6824F001041C6090F82C
:100850004430046C03F01F0302FA03F36360D0E931
:1008600013345C60436D33B11C6824F480741C60E5
:10087000D0E916345C6080F82520002280F824201E
:10088000084610BD70B590F82520002401212346AC
:10089000022A07D00422C26380F8251080F8243091
:1008A000012429E00268156825F00E05156002682C
:1008B000156825F001051560826C156825F48075B2
:1008C000156090F84420056C02F01F0201FA02F254
:1008D0006A60D0E913255560426D32B1156825F480
:1008E00080751560D0E91625556080F8251080F8D0
:1008F0002430816B01B18847204670BD70B5044635
:1009000000F0FCF80546601C02D00448406804442E
:1009100000F0F4F8401BA042FAD370BD2C00002078
:100920002DE9FC4FDFF8A0A1002301250AF1040BFB
:1009300003244FF00F0C0BF1040EBDE005FA03F693
:1009400032406FD04F68012F05D0022F03D0112FF6
:1009500001D0122F17D1D0F808905F0004FA07F8E1
:1009600029EA08090097D1F80C8008FA07F848EA44
:100970000908C0F808804768B7430E79C6F3001627
:100980009E403E434660C6684FEA430804FA08F7B3
:10099000BE4301978F6807FA08F73743C7604E6870
:1009A000022E01D0122E13D1DE0800EB860600962F
:1009B000366A5F07FF0E0CFA07F926EA0906D1F836
:1009C000109009FA07F949EA0609009EC6F8209036
:1009D0000668019FBE430F7907F0030707FA08F77F
:1009E000374307604E68F60065D5384E376E47F0DE
:1009F00001073766366E23F0030706F001060096FE
:100A0000334E3E44B146B6689F074FEA17780CFA5A
:100A100008F7BE43B0F1904F05D02E4FB84204D135
:100A2000012717E047E0002714E02B4FB84201D11F
:100A300002270FE0294FB84201D103270AE0284FCF
:100A4000B84201D1042705E0264FB84201D105275D
:100A500000E0062707FA08F73743C9F80870DAF804
:100A600000605746D1F8048096435FEAC83800D545
:100A700016433E60DBF800605F46D1F80480964381
:100A80005FEA883800D516433E60DEF8006077469E
:100A9000D1F8048096435FEAC82800D516433E602B
:100AA000094F0C373E68D1F8048096435FEA8828E6
:100AB00000D516433E605B1C0A6832FA03F67FF4E9
:100AC0003DAFBDE8FC8F0000000401400010024073
:100AD000000001400004004800080048000C0048E5
:100AE00000100048001400480069084000D00120B0
:100AF00070470AB181617047816270470148806820
:100B0000704700002C0000200248816842681144B0
:100B1000816070472C00002010B50024032000F0F5
:100B200073F80F2000F008F808B1012401E000F08C
:100B300025F8204610BD000070B50E4E0546002475
:100B4000706898B14FF47A71B1FBF0F00A49096806
:100B5000B1FBF0F000F064FD40B9102D06D2002288
:100B60002946501E00F030F8356000E00124204690
:100B700070BD00002C000020380000200A4882B020
:100B8000016E41F001010166016E01F00101009169
:100B9000816D41F080518165806D00F08050009042
:100BA00002B000F0A1B8000000100240002809DBEC
:100BB00000F01F02012191404009800000F1E02077
:100BC000C0F8001170470000F0B40E4B1B680C46D3
:100BD000C3F30223C3F10705042D00D90425191D11
:100BE000072901D2002300E0DB1E012606FA05F1E9
:100BF000491E214099409E40761E16403143F0BC6C
:100C000003F0A1B80CED00E0064900F00702086807
:100C10004FF6FF03184040EA0220034A10430860E1
:100C2000704700000CED00E00000FA052B492C4B4A
:100C30000A6832214A432B4940B1B0F5007F086869
:100C400029D020F4C06040F480602CE00868C0F334
:100C50004120022804D051F8800F20F4807022E057
:100C6000D1F8800020F48070C1F88000086820F47A
:100C7000C06040F400700860B2FBF3F0401C00E07C
:100C8000401E4A69520501D50028F9D1486940053E
:100C90000AD503207047C0F34120022806D051F83E
:100CA000800F40F48070086000207047D1F8800009
:100CB00040F48070C1F88000086820F4C06040F4FF
:100CC00000700860B2FBF3F0401C00E0401E4A696F
:100CD0005205DBD50028F9D1D8E700003800002004
:100CE00040420F00007000400248816841F480419A
:100CF00081607047007000402DE9F84304460068A9
:100D000000269D4D00035ED5A86D0027C00008D4C5
:100D1000A86D40F08050A865A86D012700F08050B4
:100D20000090DFF85892D9F8001041F48071C9F8AA
:100D30000010FFF7E3FE804606E000BFFFF7DEFE8F
:100D4000A0EB080002282BD8D9F80000C005F5D583
:100D5000D5F8900010F4407014D0216C814211D06D
:100D6000D5F89000D5F8901020F4407041F480310F
:100D7000C5F89010D5F8901021F48031C5F8901086
:100D8000C5F89000C00711D0FFF7B8FE804641F2C9
:100D9000883907E0FFF7B2FEA0EB0801494501D909
:100DA00003260BE0D5F890008007F3D5D5F8900026
:100DB000216C20F440700843C5F890001FB1A86D65
:100DC00020F08050A8652078C00707D0D5F88800AB
:100DD000616820F003000843C5F888002078800788
:100DE00007D5D5F88800A16820F00C000843C5F8A5
:100DF00088002078400707D5D5F88800E16820F002
:100E000030000843C5F888002078000707D5D5F8DA
:100E10008800216920F0C0000843C5F888002078C8
:100E2000800607D5D5F88800616920F44060084342
:100E3000C5F888002078400607D5D5F88800A16954
:100E400020F440500843C5F888002078000607D5F4
:100E5000D5F88800E16920F440400843C5F88800CF
:100E60002088C00507D5D5F88800216A20F44030D5
:100E70000843C5F888002088800507D5D5F8880084
:100E8000616A20F440200843C5F8880020884005A6
:100E90000FD5D5F88800A16A20F440100843C5F8A2
:100EA0008800A06AB0F5801F03D1E86840F4801084
:100EB000E860208800050FD5D5F88800E16A20F4A5
:100EC00040000843C5F88800E06AB0F5800F03D100
:100ED000E86840F48010E8602088C0040FD5D5F899
:100EE0008800216B20F040700843C5F88800206B13
:100EF000B0F1807F03D1E86840F48010E86020887A
:100F00004FF0006180040ED5D5F88800626B20F0A8
:100F100040601043C5F88800606B884203D1E868E0
:100F200040F48010E860208840040ED5D5F8880091
:100F3000A26B20F040601043C5F88800A06B884287
:100F400003D1E86840F48010E860208800040FD5E1
:100F5000D5F88800E16B20F040500843C5F88800C0
:100F6000E06BB0F1805F03D1E86840F48030E86066
:100F70003046BDE8F88300000010024000700040D9
:100F80002DE9F0470E4605004FF0000725D0DFF8A9
:100F9000AC81D8F8000000F00F00B0420CD2D8F8B5
:100FA000001021F00F013143C8F80010D8F80000FC
:100FB00000F00F00B04210D12968614CC80741F21F
:100FC000883A5AD06868DFF87C91032808D0022854
:100FD00020682DD0400500282CDB0120BDE8F087DB
:100FE00020688001F9D5E06800F00302E068C0F3F2
:100FF0000310401C032A19D0534A00BFB2FBF0F083
:10100000E268C2F306225043E268C2F34162521C16
:101010005200B0FBF2F0484517D9A06810F0F00F6D
:101020000CD0880711D5A86840B10EE0474AE5E723
:101030008003D0E700F0B6F8484506D9A06820F054
:10104000F00040F08000A0608027A068696820F070
:1010500003000843A060FFF751FD814606E000BF92
:10106000FFF74CFDA0EB090151453AD8A06869682B
:1010700000F00C00B0EB810FF2D12868810714D585
:10108000400703D5A06840F4E060A060287800071E
:1010900005D5A06820F4605040F4E060A060A0682E
:1010A000A96820F0F000084304E0802F03D1A06875
:1010B00020F0F000A060D8F80010404601F00F01C9
:1010C000B14216D9016821F00F0131430160FFF7E9
:1010D00015FD074607E000BFFFF710FDC11B514596
:1010E00001D903207AE7D8F8000000F00F00B042E1
:1010F000F2D12878400705D5A068E96820F4E060BF
:101100000843A0602878000706D5A068296920F464
:10111000605040EAC100A06000F044F8A1680C4AA9
:10112000C1F30311515C01F01F01C8400949086077
:1011300009480068BDE8F047FFF7FEBC0020024008
:101140000010024000B4C4040024F40000366E0114
:101150007A500008380000202C000020054806497D
:1011600000688968054AC1F30221515C01F01F0142
:10117000C840704738000020001002408A50000824
:101180000548064900688968054AC1F3C221515CD7
:1011900001F01F01C84070473800002000100240D5
:1011A0008A500008184910B58868C0F381021748B2
:1011B000012A0BD08A68164BC2F38102022A06D09C
:1011C0008A68C2F38102032A03D0002010BD1846AA
:1011D00010BDCA6802F00304CA68C2F30312521CAD
:1011E000032C02D0B0FBF2F001E0B3FBF2F0CA68CE
:1011F000C968C2F306225043C1F34161491C49004A
:10120000B0FBF1F010BD0000001002400024F4001B
:1012100000366E012DE9F84304007AD02078FA4DAB
:10122000C00747D0A868E96800F00C0001F003018E
:101230000C2802D0082817D001E0032914D06068D8
:10124000B0F5803F17D0B0F5A02F286817D020F454
:1012500080302860286820F4802028606068E0B131
:10126000FFF74CFC064614E02868800322D560682E
:101270000028D2D01EE0286840F48030EDE740F42A
:1012800080202860F7E700BFFFF738FC801B642848
:1012900070D828688003F7D50CE0FFF72FFC0646CE
:1012A00005E000BFFFF72AFC801B6428F0D82868FF
:1012B0008003F7D4207880074CD5A868E96800F04F
:1012C0000C0001F003010C2802D004280DD001E02D
:1012D00002290AD0E068002828682BD040F48070EA
:1012E0002860FFF70BFC064619E02868400502D588
:1012F000E068002891D06868217C20F0FE4040EA38
:1013000001606860C1480068FFF716FC002800D142
:1013100020E076E1FFF7F2FB801B0228B8D82868AE
:101320004005F7D56868217C20F0FE4040EA016066
:1013300068600FE020F480702860FFF7DFFB06464E
:1013400005E000BFFFF7DAFB801B0228A0D8286861
:101350004005F7D42078000729D560690028D5F822
:10136000940013D040F00100C5F89400FFF7C6FBCD
:10137000064606E090E000BFFFF7C0FB801B022896
:1013800086D8D5F894008007F6D510E020F001004B
:10139000C5F89400FFF7B2FB064604E0FFF7AEFB8A
:1013A000801B022878D8D5F894008007F6D42078DE
:1013B000400761D5A86D0026C00008D4A86D40F094
:1013C0008050A865A86D012600F0805000909048DC
:1013D0000168C90511D40168804641F4807101603B
:1013E000FFF78CFB074604E0FFF788FBC01B0228D1
:1013F00052D8D8F80000C005F6D5A068012815D04D
:101400000528D5F8900016D020F00100C5F890000E
:10141000D5F8900020F00400C5F89000A06841F2D3
:101420008838B8B1FFF76AFB07460EE0D5F89000A0
:1014300040F00100F0E740F00400C5F89000F5E747
:10144000FFF75CFBC11B414526D8D5F8900080070B
:10145000F6D50CE0FFF752FB074604E0FFF74EFB22
:10146000C11B414518D8D5F890008007F6D41EB1AD
:10147000A86D20F08050A8652078800629D5A06945
:101480000028D5F8980013D040F00100C5F8980066
:10149000FFF734FB064606E077E000BFFFF72EFBC0
:1014A000801B022877D8D5F898008007F6D510E081
:1014B00020F00100C5F89800FFF720FB064604E085
:1014C000FFF71CFB801B022865D8D5F89800800721
:1014D000F6D4E069F0B3A968C1F38101032961D0B2
:1014E0000228286820F0807028600BD0E86820F07F
:1014F0000300E860E86847490840E860FFF7FEFA43
:1015000004464BE0FFF7FAFA064604E0FFF7F6FA66
:10151000801B02283FD828688001F7D4F4E908012D
:101520006FF00F0202EB01110843218A52044908AF
:1015300002EB4151A26841EA02210843217D4FF0AC
:101540007E42490802EB41610843217B40EAC160C9
:10155000E96800E062E0304A11400843E86028682A
:1015600040F080702860E86840F08070E860FFF725
:10157000C5FA044605E000BFFFF7C0FA001B0228C9
:1015800009D828688001F7D548E004E0FFF7B6FAEB
:10159000001B022802D90320BDE8F88328688001D7
:1015A000F4D43BE00128F7D0E868226A00F0030198
:1015B000914226D1616A00F0F0020901103991428E
:1015C0001FD1A26A00F4FE41B1EB022F19D194F8A9
:1015D0002C2000F07841B1EBC26F12D1218E00F4C3
:1015E000C00249084905A1F50011914209D194F8BA
:1015F000341000F0C06049084906A1F10071814231
:101600000CD00120C8E70000001002402C00002090
:1016100000700040FFFFEEFE0C809F010020BBE742
:1016200010B5401EB0F1807F01D3012010BD4FF0F6
:10163000E02460610F21601702F085FB0020A061AB
:1016400007202061002010BD704770477047704729
:1016500070477047F0B590F83C20012A3AD0012538
:1016600080F83C50022280F83D2003685A689C684C
:10167000194E1A4FB34201D0BB4204D122F4700C70
:101680004A6842EA0C02DFF858C002EA0C02D1F8BC
:1016900000C04CEA020CC3F804C00268B2420DD08C
:1016A000B2F1804F0AD00F4B9A4207D00E4B9A42AC
:1016B00004D0BA4202D00D4B9A4204D1896824F07A
:1016C00080031943916080F83D50002180F83C1060
:1016D0000846F0BD0220F0BD002C0140003401405E
:1016E0008FFFFFFD00040040000800400040014063
:1016F000704710B5040003D094F83D0010B107E026
:10170000012010BD002084F83C00204600F022F8A3
:10171000022084F83D00211D206801F04DFD0120CC
:1017200084F8480084F83E0084F83F0084F84000C4
:1017300084F8410084F8420084F8430084F84400AF
:1017400084F8450084F8460084F8470084F83D009A
:10175000002010BD08B5114A01681148914211D10D
:10176000816D41F010018165806D002200F0100054
:10177000009011463620FFF727FABDE808403620D2
:10178000FFF714BA074A914207D1816D41F0200159
:101790008165806D00F02000009008BD00100040C1
:1017A000001002400014004090F83D10012901D0C3
:1017B00001207047022180F83D1000680F498842DF
:1017C0000ED0B0F1804F0BD00D49884208D00D49A2
:1017D000884205D00C49884202D00C49884207D182
:1017E00081680B4A1140062906D0B1F5803F03D02D
:1017F000016841F00101016000207047002C0140A8
:101800000004004000080040003401400040014056
:101810000700010090F83D10012901D00120704718
:10182000022180F83D100168CA6842F00102CA60D6
:101830000068104988420ED0B0F1804F0BD00E499D
:10184000884208D00D49884205D00D49884202D00F
:101850000C49884207D181680B4A1140062906D0FD
:10186000B1F5803F03D0016841F001010160002023
:1018700070470000002C01400004004000080040B8
:101880000034014000400140070001000168CA68BF
:1018900022F00102CA6001680A6A41F211131A4279
:1018A00007D10A6A9B001A4203D10A6822F001029A
:1018B0000A60012180F83D10002070472DE9F041B9
:1018C000044600684FF0804800250E4E0E4F4045FC
:1018D00008D10021204600F025FBC8F82450B6FBB3
:1018E000F0F0B86109492068884209D100212046FA
:1018F00000F018FB054924310D60B6FBF0F078616B
:10190000BDE8F08140420F000800002000040040C4
:101910002DE9F041054690F83C000C46012836D0F0
:10192000012085F83C008AB3042A42D02868082A9E
:1019300051D0D4E90023E168066A26F48056066295
:10194000C669076A26F4407646EA03234FF6FF7617
:1019500006EA013123F4704319434FF4204627F47B
:10196000204306EA02321A43C16102622868C16953
:1019700021F44061C1612868C169A26841EA02217D
:10198000C161002085F83C00BDE8F08101E0022043
:10199000FAE7D4E90012E368286801F073FC2868CC
:1019A000816921F00C01816128688169A268114375
:1019B0000FE0D4E90012E368286801F099FC286878
:1019C000816921F44061816128688169A26841EAE6
:1019D00002218161D5E7D4E90027267B016A21F441
:1019E00080710162C169036A21F00301394321F06A
:1019F000F00731074FF4206647EA116123F42063B2
:101A000006EA02221A43C16102622868C16921F014
:101A10000C01C1612868C169A2681143B0E710B523
:101A2000040003D094F83D0010B107E0012010BD80
:101A3000002084F83C00204600F022F8022084F8C0
:101A40003D00211D206801F0B7FB012084F848000B
:101A500084F83E0084F83F0084F8400084F8410098
:101A600084F8420084F8430084F8440084F8450078
:101A700084F8460084F8470084F83D00002010BD3B
:101A800010B586B0044614216846FEF784FD23682D
:101A9000002128480222B3F1804F27D0264CA342D0
:101AA00022D1836D43F002038365836D03F002034B
:101AB0000593C36C43F00203C364C06C00F00200E2
:101AC000059010200090CDE90121CDE9031269466F
:101AD0001A48FEF725FF002211461D20FFF774F873
:101AE0005FF01D00FFF762F806B010BD836D43F094
:101AF00001038365836D03F001030593C36C43F019
:101B00000103C364C06C00F0010005904FF4004075
:101B10000090CDE901210120CDE9031069464FF085
:101B20009040FEF7FDFE002211461C20FFF74CF806
:101B30001C20D7E7001002400004004000040048C9
:101B400010B5044679B1042912D0082915D00C2902
:101B500018D0102919D094F8430000BF94F84720FA
:101B6000012817D114E094F83E0094F84420F7E7D8
:101B700094F83F0094F84520F2E794F8400094F878
:101B80004620EDE794F84100E8E794F84200E5E7E5
:101B9000012A01D0012010BD022071B1042915D005
:101BA00008291CD00C2948D0102949D084F84300BA
:101BB00084F847000C291BD145E084F83E0084F8E6
:101BC00044002068C26842F0020210E084F83F003E
:101BD00084F845002068C26842F0040207E084F8F7
:101BE000400084F846002068C26842F00802C260E3
:101BF0000122206801F038FB1549206888420ED088
:101C0000B0F1804F0BD01349884208D01249884266
:101C100005D01249884202D01149884207D1816813
:101C2000104A1140062906D0B1F5803F03D0016863
:101C300041F001010160002010BD84F84100B7E7C8
:101C400084F84200B4E72068C26842F01002CEE790
:101C5000002C014000040040000800400034014016
:101C6000004001400700010030B5044600680D0047
:101C700006D0042D08D0082D2ED00C2D08D12FE031
:101C8000C16821F0020102E0C16821F00401C160D5
:101C900000222946206801F0E7FA2068016A41F233
:101CA0001112114207D1016A9200114203D1016859
:101CB00021F0010101600120B5B1042D17D0082DDC
:101CC00018D00C2D1AD0102D1BD084F8430000BF63
:101CD00084F84700002030BDC16821F00801D6E734
:101CE000C16821F01001D2E704F83E0F04E004F8C7
:101CF0003F0F01E004F8400FA071EBE784F84100CA
:101D0000E6E784F84200E3E770B50446006801693D
:101D10004FF00005C943890715D4C168C943890735
:101D200011D4E91E016101202077206880698007B5
:101D3000204602D0FFF7C2FD04E000F0E3F82046A1
:101D400000F0E1F8257720680169C943490717D4F5
:101D5000C168C943490713D46FF00401016102202F
:101D600020772068806910F4407F204602D0FFF77A
:101D7000A5FD04E000F0C6F8204600F0C4F8257781
:101D800020680169C943090716D4C168C943090716
:101D900012D46FF008010161042020772068C06927
:101DA0008007204602D0FFF789FD04E000F0AAF882
:101DB000204600F0A8F8257720680169C943C906C4
:101DC00017D4C168C943C90613D46FF0100101616B
:101DD000082020772068C06910F4407F204602D098
:101DE000FFF76CFD04E000F08DF8204600F08BF862
:101DF000257720680169C943C90708D1C168C9436B
:101E0000C90704D1891E0161204600F07DF82068D1
:101E10000169C943090609D4C168C943090605D443
:101E20006FF0800101612046FFF70FFC2068016917
:101E3000C943C90509D4C168C943090605D46FF46B
:101E4000807101612046FFF7FFFB20680169C943EB
:101E5000490609D4C168C943490605D46FF0400159
:101E60000161204600F073F820680169C9438906C2
:101E700009D4C168C943890605D46FF02001016106
:101E80002046FFF7E3FB20680169C943C90209D472
:101E9000C168C943C90205D46FF4801101612046AD
:101EA000FFF7D6FB20680169C943890209D4C168DC
:101EB000C943890205D46FF4001101612046FFF780
:101EC000C6FB20680169C943490209D4C168C943F6
:101ED000490205D46FF4800101612046FFF7B9FB88
:101EE00020680169C94309020BD4C168C9430902CA
:101EF00007D46FF4000101612046BDE87040FFF790
:101F0000F7BB70BD7047704700680449884204D130
:101F10000348817881F00101817070470010004012
:101F2000080000200246002041B1042909D00829F8
:101F30000AD00C2901D11068006C70471068406B02
:101F400070471068806B70471068C06B70477047AF
:101F500090F88010012918D0012180F880102421E8
:101F6000C0F8841050F8641B0A680B6823F0010362
:101F70000B6022F000510022026050F8643C1960AE
:101F80002021016202771046704702207047704797
:101F9000704770B5044690F8800001281DD00120DC
:101FA00084F880002420C4F8840020680568026852
:101FB00022F0010202602068826822F060620A4317
:101FC0008260204601F0B0F9206805602020C4F846
:101FD0008400002084F8800070BD022070BD70B5C0
:101FE000044690F8800001281DD0012084F880006C
:101FF0002420C4F8840020680568026822F00102E9
:1020000002602068826822F060420A4382602046B3
:1020100001F08AF9206805602020C4F884000020BF
:1020200084F8800070BD022070BD70477047704713
:102030002DE9F04103680446D86919689A6840F6AA
:102040000F0528424FF0000509D186067ED501F024
:10205000200602F080573E4378D0216FFFE0924E79
:10206000924F16400F40374370D0C70709D0CF05B5
:1020700007D501271F62D4F88C3043F00103C4F860
:102080008C3083070AD5D30708D0276802233B6228
:10209000D4F88C3043F00403C4F88C3043070AD5DD
:1020A000D30708D0276804233B62D4F88C3043F070
:1020B0000203C4F88C3003070CD501F0200333432E
:1020C00008D0266808233362D4F88C3043F0080324
:1020D000C4F88C3003050BD54B0109D526684FF4A5
:1020E00000633362D4F88C3043F02003C4F88C30A2
:1020F000D4F88C30002B34D0800609D501F02000B4
:1021000002F08051084303D0216F09B1204688476F
:10211000D4F88C0021688968490602D410F0280F91
:1021200021D0204601F0C0F920688168490615D504
:10213000816821F040018160E06F78B15C49816382
:10214000E06FFEF79FFB00280BD000E011E0E06F8E
:10215000816B00E02046BDE8F04108472046FFF7CC
:1021600066FFBDE8F0812046FFF761FFC4F88C50A0
:10217000F7E7E76E2026012F5CD1C7065AD5CF06B8
:1021800058D5102018622068816849062FD5E26F63
:10219000116849680904090CE3D0B4F85C308B423B
:1021A000DFD9A4F85E1011680968890618D401689F
:1021B00021F4807101602068816821F00101816053
:1021C0002068816821F040018160C4F88860E5667C
:1021D0002068016821F010010160E06FFEF71DFB2F
:1021E000B4F85C00B4F85E10401A81B21EE0B4F896
:1021F0005C10B4F85E20891AB4F85E2089B2002A17
:10220000AFD00029ADD0026822F49072026020683D
:102210008268254BDB431A408260C4F88860E5661B
:1022200025672068026822F0100202602046FFF74E
:10223000AEFE96E7C70209D5570207D54FF48010C6
:1022400018622046BDE8F041FFF7F0BE07060AD548
:1022500001F0800702F40002174304D0616F0029E7
:102260007FF478AF7DE742060CD54A060AD5196897
:10227000204621F040011960C4F88460656700F0D1
:1022800039F96EE7020206D54A0004D52046BDE8BA
:10229000F041FFF7CABEC001CBD50029C9DA2046FC
:1022A000BDE8F041FFF774BE0100001020010004FA
:1022B0009534000810B5040003D0D4F8840010B1A0
:1022C00007E0012010BD002084F88000204600F0C7
:1022D00027F82420C4F884002068016821F0010157
:1022E0000160204601F0B8FA0128EBD0A06A10B1D5
:1022F000204601F03BF82068416821F4904141609C
:102300002068816821F02A0181602068016841F01D
:10231000010101602046BDE8104001F08BB80000CB
:1023200010B598B00446142111A8FEF734F94421E1
:102330006846FEF730F91B492068884230D10120F9
:102340000024CDE900046846FEF7D6FC08B1FEF78C
:1023500062FA1548016E41F480410166016E01F494
:1023600080411691C16C41F00101C164C06C11A99A
:1023700000F0010016904FF4C06011900220CDE9EA
:1023800012040720CDE914404FF09040FEF7C8FA40
:10239000002211462520FEF717FC2520FEF706FC3B
:1023A00018B010BD003801400010024010B4D0F841
:1023B0008830202B1BD1B9B1B2B190F88030012BFD
:1023C00015D0012380F880300023C366094C0368D0
:1023D000A34206D05C68240203D51C6844F08064E4
:1023E0001C6010BC01F072BB012010BC70470220C1
:1023F000FBE700000080004030B40B4A01689142C6
:102400000FD10A490A4CCA7A8B7AA354521C094B41
:10241000CA7200221A6001220A7330BC0A31FFF727
:10242000C5BF30BC704700000038014008000020E4
:102430004F010020241400402DE9F8430446D0F851
:1024400084001F4616460D46202851D1DDB1D6B175
:1024500094F8800001284BD0012084F880004FF0D0
:102460000008C4F88C802120C4F884001834FEF7DA
:1024700045FBA6878146E68754F8100C183CB0F55A
:10248000805F03D004E00120BDE8F883206920B11B
:102490002E46002584F8808010E00026FAE780218F
:1024A000204601F07FFBB8B9C6B116F8010B2168D0
:1024B0008862B4F85600401EA4F85600B4F85600DE
:1024C0004B464FF0000200970028E8D14FF0400142
:1024D000204601F067FB30B10320D5E735F8020B49
:1024E000C0F30800E3E72020C4F884000020CBE715
:1024F0000220C9E77047FEE710B500F04BF8244C06
:10250000A071617A20EA0102414081432272E171A7
:102510006072012A06D1E07880F00100E0700020AE
:1025200000F086F8207A02280CD042F210714FF4A5
:102530007A7203280BD0042808D1E078237903436A
:1025400017D01AE0207980F00100207110BDE078EA
:102550002379034303D1237883F0010323700128F7
:10256000F4D1206900F57A7020618842EED92261A9
:1025700010BD637883F0010363700128F8D12069EE
:10258000A0F57A7020619042F2D2216110BD000066
:102590000800002070B50E4D01212846FEF7A4FA70
:1025A00000B9012402212846FEF79EFA00B9022450
:1025B00004212846FEF798FA00B9032401214FF0C0
:1025C0009040FEF791FA00B90424204670BD000047
:1025D0000004004800B585B014216846FDF7DBFF14
:1025E0004FF6FF70009000200321CDE90201019019
:1025F00069460248FEF794F905B000BD000800489E
:1026000000B585B014216846FDF7C5FF4FF6FF7091
:102610000090012001900320039000200290694661
:102620000248FEF77DF905B000BD00000008004833
:102630002DE9F0410A4E80463068002485B22146DB
:10264000204600F0A1F900F0DFF94FF4963740463C
:1026500000F0AEF9641CBC42F9D33560BDE8F081EE
:102660001408004870B586B014216846FDF793FF42
:102670001E48C16C41F00401C164C16C01F0040149
:102680000591C16C41F00101C164C16C01F001010F
:102690000591C16C41F00201C164C06C032500F0DA
:1026A000020005904FF448700124002603958DE840
:1026B000510069460E48FEF733F9200203958DE874
:1026C00051004FF0904469462046FEF729F9FFF784
:1026D00097FFA06940F48070A06105481830016838
:1026E00041F40871016006B070BD000000100240A6
:1026F0000004004830B5074D2B68203A9CB2D2B296
:10270000054B02EB420203EB021200F027F82C60AB
:1027100030BD000014080048823E00082DE9F04357
:10272000DFF8348081460E46D8F80000002587B2D5
:1027300040F23F1407E021464846FFF7DBFF103C1C
:102740006D1CA4B2761C32780AB1142DF3D3C8F8EC
:102750000070BDE8F0830000140800482DE9F04740
:1027600091468A460026044600F00EF9DFF84080C4
:10277000012700BF00F048F95FF0000539F81600A6
:1027800007FA05F10842404601D1408800E0008880
:1027900000F00EF96D1C102DF0D3641CE4B251460C
:1027A000204600F0F1F8761C182EE3D3BDE8F08740
:1027B0000000002070B50D4E306885B2FFF752FF63
:1027C000002000F099F80A4CA080A088A0F50241F2
:1027D000303907D000F09EFB002000F08DF8A0807B
:1027E000356070BD00F00DFBF6E7000014080048EE
:1027F0000000002010B51E4CE07890B11DA12348C8
:10280000FDF7DAFD21491820FFF788FF20A11F48B6
:102810002269FDF7D1FD1D494820BDE81040FFF7B2
:102820007DBF20A11948FDF7C7FD18491820FFF703
:1028300075FF22A115486269FDF7BEFD13494820C6
:10284000FFF76CFF22A11148A269FDF7B5FD0F4902
:102850006020FFF763FF064821791C3050F82120E3
:1028600020A10A48FDF7A8FD08497820D5E7000017
:10287000080000202020202020202020504152410C
:102880002020202020202020000000003C000020EC
:10289000202020202050463D2564485A202020201A
:1028A00020000000202020202020202044415441EE
:1028B0002020202020202020000000002020202098
:1028C0002046313D2564485A202020202000000069
:1028D000202020202046323D2564485A20202020F8
:1028E0002000000020202020204D4F44453D25732E
:1028F000202020202000000070B51D490A6842F405
:1029000000720A600A6842F480720A60184C103C37
:10291000226842F020022260164A1060086840F0E7
:102920002000086000BF00BF00BF206840F020000A
:102930002060206840F480702060FFF74BFE4FF06D
:102940009041886A40F48070886200BF00BF00BF79
:102950000848001F006885B2886940F4807088616B
:10296000FFF74EFE206840F400702060284670BDDE
:10297000280400481408004801B5BDF800000149CA
:10298000488008BD0000002010B50C4601462020FC
:1029900000F068F82146BDE81040212000F062B840
:1029A00001B5BDF800000149088008BD0000002005
:1029B000134A116841F400711160114910390B6814
:1029C00043F480730B600B6843F020030B600D4BE6
:1029D0001860106840F02000106000BF00BF00BF0A
:1029E000086840F020000860086840F480700860C3
:1029F00000BF00BF00BF086840F400700860704767
:102A000028040048140800481449086840F400707D
:102A10000860086840F48070086010481038026848
:102A200042F0200202600E4B22221A600A6842F035
:102A300020020A6000BF00BF00BF016841F0200112
:102A40000160016841F48071016000BF00BF00BFF8
:102A5000016841F4007101607047000028040048DB
:102A600014080048184B10B51A6842F400721A6036
:102A70001A6842F480721A60134A103A146844F0DB
:102A800020041460114C2060186840F02000186089
:102A900000BF00BF00BF106840F020001060106849
:102AA00040F4807010602160186840F020001860C9
:102AB00000BF00BF00BF106840F020001060106829
:102AC00040F48070106010BD2804004814080048CD
:102AD00010B5104CE078A0B10021012000F01CF8E6
:102AE0000121022000F018F8207901280FD00021E0
:102AF000802000F011F8A178BDE81040042000F01B
:102B00000BB80121084600F007F80021E9E7012190
:102B1000EEE700000800002010B50A000B4B0C4C3B
:102B20004FEA002101D0002200E001221846FDF703
:102B3000E0FF012204212046FDF7DBFF20460022B2
:102B4000BDE810400421FDF7D4BF00000008004894
:102B5000000C0048F0B587B014216846FDF71BFD56
:102B60002D48C16C41F00401C164C16C01F0040145
:102B70000591C16C41F02001C164C16C01F02001DC
:102B80000591C16C41F00101C164C16C01F001010A
:102B90000591C16C41F00201C164C16C01F00201F8
:102BA0000591C16C41F00801C164C06C1B4E00F07E
:102BB00008004FF47F440590012221463046FDF77E
:102BC00098FF174F002204213846FDF792FF012598
:102BD000CDE9004500240294694630460394FDF790
:102BE0009FFECDE9005469464FF090400295FDF7F5
:102BF00097FE07208DE8310069460A48FDF790FEF0
:102C000004200090CDE90154694638460394FDF74D
:102C100087FE07B0F0BD0000001002400008004829
:102C2000000C00480004004810B588B00024184883
:102C30000594069404940094019402944FF080410A
:102C4000039401604F21C0E90114611EC0E903141F
:102C50008461FEF7E4FE08B1FDF7DDFD049404A9EC
:102C60000B480694FEF7F6FC08B1FDF7D4FD0120F1
:102C7000CDE9004002940022694605480394FEF71E
:102C800047FE002801D0FDF7C6FD08B010BD0000CA
:102C90005002002010B588B000241948059406940D
:102CA00004940094019402941449039401604F2108
:102CB000C0E901144FF6FF71C0E903148461FEF707
:102CC000AEFE08B1FDF7A7FD049404A90C480694D4
:102CD000FEF7C0FC08B1FDF79EFD0120CDE90040E4
:102CE00002940022694606480394FEF711FE00286C
:102CF00001D0FDF790FD08B010BD000000040040B9
:102D00009C0200203EB500240F48009401940D4918
:102D10000294016041F63F71C0E90114C910846159
:102D2000C160FEF7E6FC08B1FDF775FD0094694649
:102D300005480294FEF78EFC002801D0FDF76BFDDC
:102D40003EBD000000100040E80200203EB5002417
:102D50000F48009401940D490294016041F63F71BF
:102D6000C0E901144FF6FF718461C160FEF7C1FC38
:102D700008B1FDF750FD0094694605480294FEF73E
:102D800069FC002801D0FDF746FD3EBD001400405F
:102D900034030020184810B5164901604FF416514D
:102DA0004160002181600C22C160C0E90412816190
:102DB000C161016241628162FFF77CFA08B1FDF7EF
:102DC0002AFD00210C48FFF70AF908B1FDF723FDA1
:102DD00000210948FFF7DDF808B1FDF71CFD0648A2
:102DE000FFF7B6F8002803D0BDE81040FDF713BD8B
:102DF00010BD00000038014080030020FEE7FEE720
:102E0000704730B501210020FFF72CFE4FF47A7097
:102E1000FDF7F3FC00210120FFF724FE41F2907141
:102E20001020FFF71FFE4FF41C516020FFF71AFE21
:102E300001216120FFF716FE02214620FFF712FE56
:102E400048F210011320FFF70DFE48F2FE01122098
:102E5000FFF708FE4FF4A0610220FFF703FE41F2E6
:102E600030010320FFF7FEFD40F2033421463020FD
:102E7000FFF7F8FD21463120FFF7F4FD214632200F
:102E8000FFF7F0FDE51E29463320FFF7EBFD032198
:102E90003420FFF7E7FD21463520FFF7E3FD14213D
:102EA0003620FFF7DFFD21463720FFF7DBFD214607
:102EB0003820FFF7D7FD21463920FFF7D3FD2946FB
:102EC0003A20FFF7CFFD03213B20FFF7CBFD214642
:102ED0003C20FFF7C7FD4FF4A0513D20FFF7C2FD96
:102EE0004FF400719220FFF7BDFD21469320FFF7BC
:102EF000B9FD40F60D019020FFF7B4FD41F2180135
:102F00000320FFF7AFFDBDE8304040F2731107200A
:102F1000FFF7A8BD10B543F20801E320FFF7A2FDBB
:102F20001221E720FFF79EFD41F23121EF20FFF74C
:102F300099FD00210120FFF795FD4FF4E06102208B
:102F4000FFF790FD41F230010320FFF78BFD0021D8
:102F50000420FFF787FD40F207210820FFF782FDDC
:102F600000210920FFF77EFD00210A20FFF77AFDEE
:102F700000210C20FFF776FD00210D20FFF772FDE8
:102F800000210F20FFF76EFD00211020FFF76AFDE2
:102F900007211120FFF766FD00211220FFF762FDD7
:102FA00000211320FFF75EFDC820FDF7A7FC41F2CA
:102FB00090611020FFF756FD40F227211120FFF706
:102FC00051FD3220FDF79AFC1D211220FFF74AFD2A
:102FD0003220FDF793FC4FF400611320FFF742FD10
:102FE00014212920FFF73EFD0B212B20FFF73AFD8E
:102FF0003220FDF783FC00212020FFF733FD002164
:103000002120FFF72FFD07213020FFF72BFD40F295
:1030100007713120FFF726FD06213220FFF722FD40
:1030200040F204713520FFF71DFD41F60471362092
:10303000FFF718FD04213720FFF714FD0021382089
:10304000FFF710FD40F206713920FFF70BFD40F24B
:1030500001713C20FFF706FD0F213D20FFF702FD27
:1030600000215020FFF7FEFCEF215120FFF7FAFC72
:1030700000215220FFF7F6FC40F23F115320FFF7EA
:10308000F1FC4FF41C516020FFF7ECFC01216120A2
:10309000FFF7E8FC00216A20FFF7E4FC0021802014
:1030A000FFF7E0FC00218120FFF7DCFC00218220FB
:1030B000FFF7D8FC00218320FFF7D4FC00218420F7
:1030C000FFF7D0FC00218520FFF7CCFC10219020D9
:1030D000FFF7C8FC00219220FFF7C4FC03219320D6
:1030E000FFF7C0FC4FF488719520FFF7BBFC00216F
:1030F0009720FFF7B7FC00219820FFF7B3FC41F2BF
:1031000018010320FFF7AEFCBDE8104040F2731138
:103110000720FFF7A7BC7047FDF7F6BC10B594B0C9
:1031200038216846FDF737FA14210EA8FDF733FA67
:103130004FF40070FDF77AFD01200090000401902B
:1031400002200324CDE907041421CDE90A100C90D4
:103150000D9009946846FEF75DF808B172B6FEE777
:103160000F20CDE90E040020109011901290022142
:103170000EA8FDF705FF002801D072B6FEE714B0D7
:1031800010BD00000248016841F470010160704701
:1031900088ED00E00148FEF7B7BD000050020020B6
:1031A0000148FEF7B1BD00009C0200200148FEF777
:1031B000ABBD0000E80200202DE9F0430268234B7C
:1031C000234D244E244C4FF08049984207D0484567
:1031D00005D0A84203D0B04201D0A04203D122F0D2
:1031E00070074A683A431D4FDFF874C0DFF87480F7
:1031F00098420DD048450BD0A84209D0B04207D024
:10320000A04205D0B84203D0604501D0404503D16B
:1032100022F44075CA682A434D6922F080022A438D
:1032200002608A68C2620A688262984207D0A0423D
:1032300005D0B84203D0604501D0404501D10969AD
:10324000016301214161BDE8F0830000002C0140D1
:1032500000040040000800400034014000400140EC
:10326000004401400048014010B501F01F03012156
:10327000046A99408C430462016A9A4011430162D6
:1032800010BD000070B5046A24F001040462846972
:10329000056A124EB0420ED0B0F1804F0BD0104EE6
:1032A000B04208D00F4EB04205D00F4EB04202D00F
:1032B0000E4EB04203D124F00304144301E044F065
:1032C00001041A0724F0F00444EA126225F00A030C
:1032D00001F00A0119438261016270BD002C0140B6
:1032E000000400400008004000340140004001405C
:1032F00030B5046A24F0100404628469056A24F479
:10330000407444EA022222F470444FF6FF7202EA4B
:1033100003322243A02425F0A00304EA011119433B
:103320008261016230BD000030B5416EB9B1026802
:1033300091689268C1F342610B4B520F9C5CE500AF
:1033400003F10804A25CB5FBF2F2A0F86A205A5C13
:10335000615CD200B2FBF1F1A0F8681030BD012130
:10336000A0F86A10F8E700006A50000890F82810EA
:10337000C90706D001684A68C36A22F400321A43BA
:103380004A6090F82810890706D501684A68036BDF
:1033900022F480321A434A6090F82810490706D573
:1033A00001684A68436B22F480221A434A6090F80D
:1033B0002810090706D501684A68836B22F4004289
:1033C0001A434A6090F82810C90606D501688A6831
:1033D000C36B22F480521A438A6090F82810890641
:1033E00006D501688A68036C22F400521A438A6089
:1033F00090F82810490611D501684A68436C22F4F8
:1034000080121A434A60416CB1F5801F06D10168F1
:103410004A68836C22F4C0021A434A6090F828106C
:10342000090606D501684A68C06C22F400220243EE
:103430004A607047F8B500260446C0F88C60FDF776
:103440005DFB0546206800686FF07E47000708D5E1
:103450002B4600224FF400112046009700F0A2FBFB
:1034600060B92068006840070AD52B4600224FF457
:1034700080012046009700F095FB08B10320F8BDBD
:103480002020C4F88400C4F8880044F86C6F002041
:103490002675F8BD10B5806A0021A0F85E10A0F86E
:1034A0005610FEF7C4FD10BD01680A6822F4907240
:1034B0000A6001688A68094B1A408A60C16E012956
:1034C00004D101680A6822F010020A602021C0F8C5
:1034D00088100021C166016770470000FEFFFFEF02
:1034E00070B5B0F86010D0F8882004460068222A31
:1034F00004D0816941F00801816170BD406AA26D0C
:1035000008401080A06D801CA065B4F85E00401ECD
:10351000A4F85E00B4F85E000028EED120680168CF
:1035200021F4907101602068816821F001018160BF
:103530002020C4F8880000252567E06E012804D00B
:103540002046FEF759FFE56670BD2068016821F04E
:1035500010010160B4F85C102046FEF718FDF2E798
:103560002DE9F0470446B0F860600068C569D0F8FE
:1035700000A0D0F80880D4F88810222905D08169ED
:1035800041F008018161BDE8F087B4F868704FF040
:1035900000095BE02068406AA16D30400880A06DA2
:1035A000801CA065B4F85E00401EA4F85E00206890
:1035B000C569690730D0E9070AD05FEACA5107D563
:1035C00001210162D4F88C0040F00100C4F88C00A5
:1035D000A8070BD55FEAC87008D0216802200862EE
:1035E000D4F88C0040F00400C4F88C0068070BD5B8
:1035F0005FEAC87008D0216804200862D4F88C0003
:1036000040F00200C4F88C00D4F88C0020B12046B1
:10361000FEF70DFDC4F88C90B4F85E00B0B92068D8
:10362000016821F48071016020688168194A1140A5
:1036300081602020C4F88800C4F87090E06E0128F2
:103640001CD02046FEF7D8FEC4F86C900FB1A80637
:10365000A0D4B4F85E00002895D0B4F86810814278
:1036600091D92068816821F0805181600A482067E3
:103670002068016841F02001016084E7206801684A
:1036800021F010010160B4F85C102046FEF77FFCC9
:10369000DAE70000FEFFFFEFE134000870B5B0F894
:1036A0006010D0F8882004460068222A04D081697E
:1036B00041F00801816170BD406A0840A16D087049
:1036C000A06D401CA065B4F85E00401EA4F85E002A
:1036D000B4F85E000028EED12068016821F49071F2
:1036E00001602068816821F0010181602020C4F818
:1036F000880000252567E06E012804D02046FEF7EB
:103700007BFEE56670BD2068016821F01001016054
:10371000B4F85C102046FEF73AFCF2E72DE9F047DA
:103720000446B0F860600068C569D0F800A0D0F821
:103730000880D4F88810222905D0816941F0080159
:103740008161BDE8F087B4F868704FF000095BE074
:103750002068406AA16D30400870A06D401CA065D3
:10376000B4F85E00401EA4F85E002068C5696907D1
:1037700030D0E9070AD05FEACA5107D501210162BA
:10378000D4F88C0040F00100C4F88C00A8070BD5D9
:103790005FEAC87008D0216802200862D4F88C0063
:1037A00040F00400C4F88C0068070BD55FEAC870CD
:1037B00008D0216804200862D4F88C0040F0020090
:1037C000C4F88C00D4F88C0020B12046FEF72FFC02
:1037D000C4F88C90B4F85E00B0B92068016821F498
:1037E0008071016020688168194A11408160202041
:1037F000C4F88800C4F87090E06E01281CD0204600
:10380000FEF7FAFDC4F86C900FB1A806A0D4B4F886
:103810005E00002895D0B4F86810814291D92068E4
:10382000816821F0805181600A4820672068016822
:1038300041F02001016084E72068016821F0100157
:103840000160B4F85C102046FEF7A1FBDAE7000047
:10385000FEFFFFEF9D3600082DE9F04104460168A8
:1038600080682269E3691043626900251A431043A6
:10387000DFF82CC20A688B4B1A4002430A602068AA
:103880004168E26821F44051114341602168A06918
:10389000614501D0226A10438A68834B1A40024373
:1038A0008A602068C16A626A21F00F011143C16217
:1038B0007E4923687E488B420DD1D0F8880010F0F5
:1038C000030006D0012855D0022842D003283FD15A
:1038D00052E001203DE077498B420BD1D0F88800BF
:1038E00010F00C0035D0042833D0082840D00C2824
:1038F0002ED141E070498B420BD1D0F8880010F0F6
:10390000300026D0102835D0202831D030281FD1C3
:1039100032E06A498B420BD1D0F8880010F0C00029
:1039200017D0402826D0802822D0C02810D123E0EC
:1039300063450DD1D0F8880010F4406009D0B0F58F
:10394000806F17D0B0F5006F12D0B0F5406F13D074
:1039500010205B4A5B4F00264FF40041634539D18C
:1039600060B102280DD004280DD0082831D10EE016
:103970000220EEE70420ECE70820EAE7FDF7EEFB83
:1039800003E0114603E0FDF70DFC01007DD0606A05
:1039900037F810206768B1FBF2F007EB470383426A
:1039A0006CD8B0EB073F69D8002308461946FCF7EE
:1039B0008BFC090241EA106102027808101871417B
:1039C0003A460023FCF780FC3F4AA0F54071914243
:1039D00059D953E0E3694FF6EF788B422DD109288E
:1039E0004CD2DFE800F005080D4B274B4B4B0E0087
:1039F000FDF7B4FB01E0FDF7C3FB010001D144E09A
:103A00001146606A37F81000B1FBF0F041006068C1
:103A100001EB5001B1FBF0F080B2A0F11001414583
:103A20002CD84FF6F0710140C0F3420001432068EA
:103A3000C1602AE0FDF7B6FBDFE709281ED2DFE808
:103A400000F005080D1D1F1D1D1D0E00FDF786FB56
:103A500001E0FDF795FB010001D116E01146606A17
:103A600037F81000B1FBF0F1606801EB5001B1FBD9
:103A7000F0F080B2A0F11001414504D9012504E025
:103A8000FDF790FBE7E72168C8600120A4F86A0011
:103A900024F8680F2846A660E660BDE8F0810000C3
:103AA00000800040F369FFCFFFF4FF1100380140B0
:103AB000001002400044004000480040004C00401C
:103AC0000024F40052500008FFFC0F0070B581651F
:103AD000A0F85C20A0F85E200021016783684FF405
:103AE0008056FF24B34204D10369D3B940F2FF13D7
:103AF0001DE07F259BB1B3F1805F15D0A0F8601069
:103B0000C0F88C102223C0F8883003689C6844F009
:103B100001049C60436EB3F1005F0ED027E003699F
:103B200043B9A0F86040EBE703691BB13F23A0F85D
:103B30006030E5E7A0F86050E2E7B0F86830934203
:103B400015D88268B24201D1026972B1114A026786
:103B500080F8801001680A6842F480720A60006888
:103B6000816841F0805181600FE00B4AEFE7826885
:103B7000B24201D1026952B1084A026780F880104E
:103B80000068016841F490710160002070BD044A32
:103B9000F3E700001D370008613500089D36000876
:103BA000E13400082DE9F0479A4617460E460446D0
:103BB0004FF000094FF02008089D39E0681C37D00D
:103BC000FCF79CFFA0EB0A00A84222D80DB32068A6
:103BD000016849072CD5C069C043000528D4216875
:103BE0004FF4006008622068016821F4D071016020
:103BF0002068816821F001018160C4F88480C4F8E4
:103C00008880C4F88C8000BF84F880900320BDE8D1
:103C1000F0872068016821F4D07101602068816814
:103C200021F001018160C4F88480C4F88880EBE74A
:103C30002068C06936EA000004D00020B842BDD038
:103C40000020E4E70120F9E70148FEF7F1B90000A0
:103C50008003002070B52B4C207B002850D02A48D0
:103C600000680F284CD92079002501281ED127A1F2
:103C70002748FCF7B7FC0126F0B126A12448FCF741
:103C8000B1FCD8B124A12248FCF7ACFCC0B123A1FF
:103C90001F48FCF7A7FCA8B121A11D48FCF7A2FC16
:103CA00090B120A11A48FCF79DFC80B118481EA1D4
:103CB000FF38FCF781FB10E0267019E0667017E012
:103CC000257015E0657013E019A1626901E0A26931
:103CD00019A10F48FF38FCF76FFB0D48FF38FCF7C0
:103CE00019FC0B4982B23223FF391548FEF7A4FBB9
:103CF0002573E572BDE87040FF210548FCF729BC3B
:103D000070BD00000800002024140040544631001B
:103D10004F010020544632005046310050463200D8
:103D200046310000463200004E554C4C0000000069
:103D300046313A2564485A0046323A2564485A00CA
:103D400080030020FEE70907090E002804DB00F1CC
:103D5000E02080F80014704700F00F0000F1E02030
:103D600080F8141D70470000FCF7D6FEFFF7D6F967
:103D7000FEF7F0FEFEF758FFFEF78CFFFEF7C2FFDE
:103D8000FEF7E4FFFFF706F8FEF714FD0020FEF74C
:103D90004FFC0020FEF7F0FD4FF6FF70FEF700FE2F
:103DA00000212C48FDF7CCFE00212B48FDF7C8FE72
:103DB0002A4E002575622A4805602A48FDF7F4FC62
:103DC000012229492948FEF7F1FA274CB4F10A04E7
:103DD000FEF792FB20784FF0000100281E4817D014
:103DE000FDF7AEFE60784FF000010028194814D0AE
:103DF000FDF7A6FEFFF72EFFFEF7FCFCD4E9040159
:103E000081421BD2A169814218D2607958B11EE06B
:103E1000FDF72AFF16480560E4E7FDF725FF4FF0A0
:103E200080404562E6E713496FF0010009680861C8
:103E30001048FDF7EFFC0120607108E0607901286F
:103E400005D1A5700B48FDF721FD75626571FEF780
:103E50003FFEBDE7500200209C0200200010004001
:103E600024140040340300201200002080030020AE
:103E700024040040E80200204FF04070E1EE100AF8
:103E8000704700000000000000000000000000007B
:103E90000000000000000000000000000000000022
:103EA0000000000000000000000000000000000012
:103EB00000000000800180018001800180018001FC
:103EC000800180018001800180018001800100006B
:103ED00000008001800100000000000000000000E0
:103EE000000000000000CC00CC00CC00CC00CC00D6
:103EF000CC000000000000000000000000000000F6
:103F000000000000000000000000000000000000B1
:103F10000000000000000000000000000000600C35
:103F2000600C600C30063006FE1FFE1F300638079E
:103F30001803FE1FFE1F180318038C018C018C014F
:103F4000000000008000E003F80F9C0E8C1C8C1811
:103F50008C009800F801E007800E801C8C188C18EB
:103F60009C18B80CF00FE0038000800000000000F7
:103F700000000000000000000E181B0C110C1106C0
:103F80001106110311039B018E01C038C06C6044FF
:103F90006044304430441844186C0C380000000071
:103FA00000000000E001F00338071806180630038F
:103FB000F001F000F8009C310E33061E061C061CB2
:103FC000063FFC73F021000000000000000000002C
:103FD0000000000000000C000C000C000C000C00A5
:103FE0000C000000000000000000000000000000C5
:103FF00000000000000000000000000000000000C1
:1040000000000000000200038001C000C00060004A
:1040100060003000300030003000300030003000F0
:10402000300060006000C000C0008001000300029A
:104030000000000020006000C0008001800100033B
:104040000003000600060006000600060006000643
:1040500000060003000380018001C0006000200012
:104060000000000000000000000000000000C00090
:10407000C000D806F807E001300338070000000050
:104080000000000000000000000000000000000030
:10409000000000000000000000000000000080019F
:1040A0008001800180018001FC3FFC3F8001800194
:1040B000800180018001000000000000000000007D
:1040C00000000000000000000000000000000000F0
:1040D00000000000000000000000000000000000E0
:1040E000000000008001800100010001800000004C
:1040F00000000000000000000000000000000000C0
:1041000000000000000000000000E007E0070000E1
:10411000000000000000000000000000000000009F
:10412000000000000000000000000000000000008F
:10413000000000000000000000000000000000007F
:1041400000000000C000C0000000000000000000EF
:1041500000000000000C000C000600060006000332
:10416000000300038003800180018001C000C000C3
:10417000C0006000600000000000000000000000BF
:1041800000000000E003F007380E180C0C180C18A3
:104190000C180C180C180C180C180C180C18180CFF
:1041A000380EF007E00300000000000000000000EF
:1041B0000000000000018001C001F00198018801A9
:1041C00080018001800180018001800180018001E7
:1041D000800180018001000000000000000000005C
:1041E00000000000E003F80F180C0C180C18001861
:1041F0000018000C000600038001C00060003000C1
:104200001800FC1FFC1F0000000000000000000060
:1042100000000000E001F807180E0C0C0C0C000C5C
:104220000006C003C007000C001800180C180C187A
:10423000180CF807E0030000000000000000000078
:1042400000000000000C000E000F000F800DC00CDD
:10425000600C600C300C180C0C0CFC3FFC3F000C8C
:10426000000C000C000C000000000000000000002A
:1042700000000000F80FF80F180018000C00EC0305
:10428000FC071C0E001C0018001800180C181C0C51
:10429000180EF807E0030000000000000000000016
:1042A00000000000C007F00F381C181818000C00A0
:1042B000CC03EC0F3C0E1C1C0C180C180C18181C12
:1042C000380EF007E00300000000000000000000CE
:1042D00000000000FC1FFC1F000C0006000600038D
:1042E00080038001C001C000E00060006000700039
:1042F000300030003000000000000000000000002E
:1043000000000000E003F007380E180C180C180C21
:104310003806F007F007180C0C180C180C180C18BD
:10432000380CF80FE003000000000000000000005F
:1043300000000000E003F007380E1C0C0C180C18ED
:104340000C181C1C381EF81BE0190018000C000C7F
:104350001C0EF807F0010000000000000000000043
:1043600000000000000000000000000000008001CC
:1043700080010000000000000000000000000000BC
:10438000000080018001000000000000000000002B
:10439000000000000000000000000000000080019C
:1043A000800100000000000000000000000000008C
:1043B0000000800180010001000180000000000079
:1043C00000000000000000000000000000000000ED
:1043D00000000010001C800FE003F8001800F80037
:1043E000E003800F001C001000000000000000002F
:1043F00000000000000000000000000000000000BD
:104400000000F81F000000000000F81F000000007E
:10441000000000000000000000000000000000009C
:10442000000000000000000000000000000000008C
:10443000000008003800F001C007001F0018001F2E
:10444000C007F00138000800000000000000000074
:1044500000000000E003F80F180C0C180C180018EE
:10446000000C000600038001C000C000C000000076
:104470000000C000C00000000000000000000000BC
:10448000000000000000E00718180420C229224A9A
:10449000114409440944094409221113E20C024061
:1044A00004201818E00700000000000000000000D1
:1044B0000000000080038003C006C006C006600C38
:1044C000600C301830183018F83FF83F1C700C6042
:1044D0000C6006C006C000000000000000000000E4
:1044E00000000000FC03FC0F0C0C0C180C180C183E
:1044F0000C0CFC07FC0F0C180C300C300C300C3082
:104500000C18FC1FFC070000000000000000000069
:1045100000000000C007F01F38381C300C70066027
:1045200006000600060006000600060006600C7085
:104530001C30F01FE0070000000000000000000039
:1045400000000000FE03FE0F060E061806180630D7
:1045500006300630063006300630063006180618DB
:10456000060EFE0FFE030000000000000000000029
:1045700000000000FC3FFC3F0C000C000C000C0095
:104580000C00FC1FFC1F0C000C000C000C000C00AD
:104590000C00FC3FFC3F0000000000000000000099
:1045A00000000000F83FF83F18001800180018003D
:1045B0001800F81FF81F180018001800180018003D
:1045C00018001800180000000000000000000000A3
:1045D00000000000E00FF83F3C780E6006E007C0E6
:1045E0000300030003FE03FE03C007C006C00EC0A5
:1045F0003CF0F83FE00F0000000000000000000069
:10460000000000000C300C300C300C300C300C3042
:104610000C30FC3FFC3F0C300C300C300C300C30BC
:104620000C300C300C3000000000000000000000D6
:104630000000000080018001800180018001800174
:104640008001800180018001800180018001800162
:1046500080018001800100000000000000000000D7
:104660000000000000060006000600060006000626
:1046700000060006000600060006000618061806DA
:104680003807F003E0010000000000000000000017
:104690000000000006300618060C06060603860118
:1046A000C60066007600DE008E0106030606060CD4
:1046B0000618063006600000000000000000000040
:1046C000000000001800180018001800180018005A
:1046D000180018001800180018001800180018001A
:1046E0001800F81FF81F0000000000000000000084
:1046F000000000000EE01EF01EF01EF036D836D886
:1047000036D836D866CC66CC66CCC6C6C6C6C6C653
:10471000C6C686C386C3000000000000000000007B
:10472000000000000C301C303C303C306C306C30F1
:10473000CC30CC308C310C330C330C360C360C3C7A
:104740000C3C0C380C3000000000000000000000A1
:1047500000000000E007F81F1C380E70066003C060
:1047600003C003C003C003C003C003C006600E70D3
:104770001C38F81FE00700000000000000000000E7
:1047800000000000FC0FFC1F0C380C300C300C300B
:104790000C300C18FC1FFC070C000C000C000C006B
:1047A0000C000C000C0000000000000000000000E5
:1047B00000000000E007F81F1C380E70066003E0E0
:1047C00003C003C003C003C003C007E006630E3F7D
:1047D0001C3CF83FE0F700C00000000000000000B3
:1047E00000000000FE0FFE1F0638063006300630BF
:1047F0000638FE1FFE0706030606060C06180618F6
:1048000006300630066000000000000000000000D6
:1048100000000000E003F80F1C0C0C180C180C0032
:104820001C00F803E00F001E0038063006300E3082
:104830001C1CF80FE0070000000000000000000052
:1048400000000000FE7FFE7F80018001800180016A
:104850008001800180018001800180018001800150
:1048600080018001800100000000000000000000C5
:10487000000000000C300C300C300C300C300C30D0
:104880000C300C300C300C300C300C300C300C3048
:104890001818F81FE00700000000000000000000EA
:1048A0000000000003600630063006300C180C18BB
:1048B0000C18180C180C380E300630067007600300
:1048C0006003C001C0010000000000000000000003
:1048D000000000000360C361C361C36166336633D7
:1048E00066336633663366336C1B6C1B6C1B2C1A89
:1048F0003C1E380E380E00000000000000000000D2
:10490000000000000FE00C7018303018700C600EC2
:10491000C00780038003C003E006700C301C181829
:104920000C300E6007E000000000000000000000F6
:104930000000000003C006600C301C383818300C32
:104940006006E007C00380018001800180018001D2
:1049500080018001800100000000000000000000D4
:1049600000000000FC7FFC7F006000300018000C9D
:10497000000600038001C0006000300018000C0039
:104980000600FE7FFE7F0000000000000000000027
:1049900000000000E003E0036000600060006000D1
:1049A0006000600060006000600060006000600007
:1049B000600060006000600060006000E003E003F1
:1049C0000000000030003000600060006000C000A7
:1049D000C000C000C001800180018001000300030D
:1049E00000030006000600000000000000000000B8
:1049F00000000000E003E0030003000300030003E5
:104A0000000300030003000300030003000300038E
:104A1000000300030003000300030003E003E003BE
:104A2000000000000000C001C001600360036003DB
:104A300030063006180C180C0000000000000000C2
:104A40000000000000000000000000000000000066
:104A50000000000000000000000000000000000056
:104A60000000000000000000000000000000000046
:104A700000000000FFFFFFFF00000000000000003A
:104A8000000000000C000C000C000C000C000C00DE
:104A90000000000000000000000000000000000016
:104AA0000000000000000000000000000000000006
:104AB0000000000000000000000000000000F00303
:104AC000F8071C0C0C0C000FF00FF80C0C0C0C0C65
:104AD0001C0FF80FF018000000000000000000009C
:104AE0000000000018001800180018001800D80373
:104AF000F80F380C1818181818181818181818184B
:104B0000380CF80FD803000000000000000000007F
:104B10000000000000000000000000000000C003D2
:104B2000F007300E180C1800180018001800180CA8
:104B3000300EF007C003000000000000000000007D
:104B40000000000000180018001800180018C01B12
:104B5000F01F301C181818181818181818181818DA
:104B6000301CF01FC01B000000000000000000000F
:104B70000000000000000000000000000000C00372
:104B8000F00F300C1818F81FF81F1800180038180C
:104B9000301CF00FC0070000000000000000000003
:104BA00000000000800FC00FC000C000C000F00770
:104BB000F007C000C000C000C000C000C000C000BE
:104BC000C000C000C00000000000000000000000A5
:104BD0000000000000000000000000000000E00DE8
:104BE000F80F180E0C0C0C0C0C0C0C0C0C0C0C0C08
:104BF000180EF80FE00D000C0C0C1C06F807F00165
:104C00000000000018001800180018001800D8074D
:104C1000F80F381C18181818181818181818181819
:104C200018181818181800000000000000000000F4
:104C300000000000C000C000000000000000C00034
:104C4000C000C000C000C000C000C000C000C00064
:104C5000C000C000C0000000000000000000000014
:104C600000000000C000C000000000000000C00004
:104C7000C000C000C000C000C000C000C000C00034
:104C8000C000C000C000C000C000C000F800780034
:104C9000000000000C000C000C000C000C000C0CC0
:104CA0000C060C038C01CC006C00FC009C018C03F6
:104CB0000C030C060C0C00000000000000000000BB
:104CC00000000000C000C000C000C000C000C00064
:104CD000C000C000C000C000C000C000C000C000D4
:104CE000C000C000C0000000000000000000000084
:104CF00000000000000000000000000000007C3CFC
:104D0000FF7EC7E383C183C183C183C183C183C1E4
:104D100083C183C183C100000000000000000000C7
:104D200000000000000000000000000000009807E4
:104D3000F80F381C181818181818181818181818F8
:104D400018181818181800000000000000000000D3
:104D50000000000000000000000000000000C00390
:104D6000F00F300C181818181818181818181818E8
:104D7000300CF00FC0030000000000000000000035
:104D80000000000000000000000000000000D80348
:104D9000F80F380C181818181818181818181818A8
:104DA000380CF80FD8031800180018001800180065
:104DB0000000000000000000000000000000C01B18
:104DC000F01F301C18181818181818181818181868
:104DD000301CF01FC01B0018001800180018001825
:104DE0000000000000000000000000000000B0070C
:104DF000F003700030003000300030003000300030
:104E00003000300030000000000000000000000012
:104E10000000000000000000000000000000E003AF
:104E2000F003380E180C3800F003C007000C180C03
:104E3000380EF007E0030000000000000000000052
:104E40000000000000008000C000C000C000F007AB
:104E5000F007C000C000C000C000C000C000C0001B
:104E6000C000C00780070000000000000000000034
:104E70000000000000000000000000000000181802
:104E800018181818181818181818181818181818A2
:104E9000381CF01FE01900000000000000000000B6
:104EA00000000000000000000000000000000C18DE
:104EB000180C180C180C300630063006600360031E
:104EC0006003C001C00100000000000000000000FD
:104ED0000000000000000000000000000000C141D0
:104EE000C141C36163636363636336363636363606
:104EF0001C1C1C1C1C1C000000000000000000000A
:104F000000000000000000000000000000001C384D
:104F1000381C300C600660036003600360036006A9
:104F2000300C381C1C38000000000000000000009D
:104F30000000000000000000000000000000183029
:104F4000301830187018600C600CE00CC006C006F9
:104F500080038003800380018001C001F0007000A5
:104F60000000000000000000000000000000FC1F26
:104F7000FC1F000C000600038001C0006000300030
:104F80001800FC1FFC1F00000000000000000000D3
:104F90000000000000038001C000C000C000C0008D
:104FA000C000C00060006000300060004000C00031
:104FB000C000C000C000C000C000800100030000AD
:104FC00000000000800180018001800180018001DB
:104FD00080018001800180018001800180018001C9
:104FE00080018001800180018001800180018001B9
:104FF000000000006000C000C0018001800180014D
:10500000800180010003000300060003000180010D
:1050100080018001800180018001C00060000000EB
:105020000000000000000000000000000000000080
:105030000000F010F81F080F000000000000000042
:105040000000000000000000000000000000000060
:105050000000010002000400060008000A000C0025
:105060001000200040008000000101010103070141
:105070000000080402040801010100000000000013
:1050800000000102030406070809000000000102F5
:105090000304000055534152540000004B45590091
:1050A000C0500008000000203C000000140200086E
:1050B000FC5000083C000020340A000030020008C8
:1050C0000000FFFF000000000101000000000000E0
:1050D0000000000000000000E803000000000000E5
:1050E000000000009C5000089450000810000000D0
:0C50F00001000000000000000024F4009B
:04000005080001D915
:00000001FF
