:020000040800F2
:10000000F809002081020008F3370008972F000844
:10001000F137000849080008D9490008000000002D
:100020000000000000000000000000000B3B000882
:100030004B08000800000000F53700080D3B0008E1
:100040009B0200089B0200089B0200089B0200081C
:100050009B0200089B0200089B0200089B0200080C
:100060009B0200089B0200089B0200089B020008FC
:100070009B0200089B0200089B0200089B020008EC
:100080009B020008000000009B0200089B02000881
:100090009B0200089B0200089B0200089B020008CC
:1000A0009B020008893B00089B0200089B02000895
:1000B0009B020008953B00089B0200089B02000879
:1000C0009B0200089B0200089B0200089B0200089C
:1000D0009B020008CD4900089B0200089B02000813
:1000E0009B0200089B0200089B0200089B0200087C
:1000F0009B0200089B0200089B0200080000000011
:10010000000000009B020008000000009B020008A5
:100110009B020008000000009B0200089B020008F0
:100120009B0200089B0200089B0200089B0200083B
:100130009B02000800000000000000009B02000875
:100140009B0200089B020008000000000000000065
:10015000000000000000000000000000000000009F
:100160000000000000000000000000009B020008EA
:100170009B020008000000000000000000000000DA
:10018000000000009B0200080000000000000000CA
:10019000000000000000000000000000000000005F
:1001A00000000000000000009B0200089B02000805
:1001B0009B0200089B0200089B0200080000000050
:1001C000000000009B02000800000000000000008A
:1001D0009B0200089B02000800F002F800F041F8C2
:1001E0000AA090E8000C82448344AAF10107DA4592
:1001F00001D100F036F8AFF2090EBAE80F0013F0A3
:10020000010F18BFFB1A43F001031847B05A000052
:10021000D05A0000103A24BF78C878C1FAD85207E3
:1002200024BF30C830C144BF04680C607047000070
:100230000023002400250026103A28BF78C1FBD8EF
:10024000520728BF30C148BF0B607047642900F0D7
:10025000EB80002070471FB504F022FC1FBD10B5D5
:1002600010BD00F044FA1146FFF7F5FF04F0CCFB97
:1002700000F062FA03B4FFF7F2FF03BC00F06AFA81
:100280000948804709480047FEE7FEE7FEE7FEE72A
:10029000FEE7FEE7FEE7FEE7FEE7FEE70448054966
:1002A000054A064B70470000793B0008D901000859
:1002B000F8030020F8090020F8050020F8050020C8
:1002C00053EA020C00F069802DE9F04B4FF0000674
:1002D000002B1FBFB3FA83F503FA05F424FA05F6E1
:1002E0005E4012BF1643B2FA82F502FA05F4C5F178
:1002F00020051EBF22FA05FC44EA0C04203556EA0C
:10030000044C4FEA144418BF641C4FF000084FF02F
:100310000009904271EB030C39D3002919BFB1FADF
:1003200081F701FA07F6B0FA80F700FA07F6C7F18D
:1003300020071EBF20FA07FC46EA0C062037B6FB52
:10034000F4FCA7EB0507103F07F01F0BCBF12006CD
:100350000CFA0BFB2CFA06F644BFB3460026202FFE
:10036000A4BF5E464FF0000B5BEA060C08BF4FF0DF
:10037000010B19EB0B09ABFB027C48EB0608C01B19
:1003800006FB02CC0BFB03CC71EB0C01C1E70B4667
:10039000024641464846BDE8F08B13B54FF00000D9
:1003A0004FF00001AFF30080BDE81C407047000033
:1003B0000FB41CB5074B06AA7B446946009005980C
:1003C00000F07DF90020694600F08CF91CBC5DF856
:1003D00014FB00002903000070B50446856900681D
:1003E000C10601D5302600E02026C00707D070BD29
:1003F000D4E9012130469047206A401C20626D1EDE
:10040000F6D570BD70B5044685690078C00707D180
:1004100070BDD4E9012120209047206A401C206251
:100420006D1EF6D570BD00002DE9F0410646002492
:1004300010687529314616A510D0AFF3008000284A
:1004400002DA404213A507E031688A0701D512A5F8
:1004500002E0490704D511A5012401E0AFF30080B3
:1004600000210A2206F1240709E0B0FBF2FCB0FBF0
:10047000F2F302FB1C00303078541846491C002867
:10048000F3D123462A463046BDE8F04100F0B9B822
:10049000000000002D0000002B00000020000000E4
:1004A0002DE9F0474FF0000A89460446C0F820A025
:1004B0002046E1688847002876D0252806D0D4E970
:1004C00001219047206A401C2062F1E7E168204644
:1004D00000258847C4F81CA006460027C4F818A0C9
:1004E0002A2E09D0304604F088FA38B304EB870886
:1004F000303EC8F8186019E059F8041B204604EB98
:1005000087029161E1688847012F064618D1E069AA
:10051000002820DA25F020051DE0D8F8180000EBAF
:10052000800006EB40003038C8F818002046E1682B
:100530008847064604F061FA0028EED1012F0AD060
:100540002E2E08D12046E16888477F1C0646022FE0
:1005500045F02005C4DBA069002803DA404245F0DD
:100560000105A061E80701D025F01005B6B1A6F19C
:100570004100192802D8203645F400654A46314624
:10058000204625604D46FFF761FE58B1012806D090
:10059000ED1D25F0070000F1080989E704E005F1E9
:1005A000040985E730468AE7206ABDE8F0874FF006
:1005B000000200B5134694469646203922BFA0E8B3
:1005C0000C50A0E80C50B1F12001BFF4F7AF0907BF
:1005D00028BFA0E80C5048BF0CC05DF804EB8900B0
:1005E00028BF40F8042B08BF704748BF20F8022BF3
:1005F00011F0804F18BF00F8012B7047704770470B
:1006000070472DE9F0470D4699469246044600F1A1
:1006100024080168880604D5E06921F010012160F2
:1006200000E00120A84201DD471B00E00027A1698E
:100630007A1902EB0900081AA0612078C00602D4DA
:100640002046FFF7C9FE002608E0D4E901211AF888
:1006500006009047206A401C761C20624E45F4DB61
:100660002078C0060AD52046FFF7B6FE06E0D4E99A
:10067000012130209047206A401C2062381EA7F1DB
:100680000107F4DC07E0D4E9012118F805009047E0
:10069000206A401C2062281EA5F10105F3DC2046DB
:1006A000FFF7B0FE2078000602D50220BDE8F087F3
:1006B0000120FBE701694A1C02610878704700B518
:1006C0008FB0CDE901310021059105497944CDE98B
:1006D000031011466846FFF7E3FE0FB000BD0000AF
:1006E000E5FFFFFF0A6802F8010B0A6070477546D4
:1006F00000F02CF8AE4605006946534620F007008E
:10070000854618B020B5FFF7C9FDBDE820404FF081
:1007100000064FF000074FF000084FF0000B21F0EB
:100720000701AC46ACE8C009ACE8C009ACE8C009B8
:10073000ACE8C0098D46704710B50446AFF30080A1
:100740002046BDE81040FFF795BD00000048704707
:100750009403002001491820ABBEFEE726000200EA
:100760007047000070B50446006881688268C1F374
:10077000400112F0010F28D039BB816801F00D0152
:10078000012914D18168124A1140891C81602168B5
:100790000320086000F08AFE054612E000F086FEA5
:1007A000401B02280DD920688068C00709D0E06D81
:1007B00040F01000E065206E40F00100206601204E
:1007C00070BD20688068C007E8D1002070BD0000BF
:1007D000C0FFFF7F70B504460068816811F0010F0B
:1007E0002DD18168174A11421AD18168D543294019
:1007F000491C816000F05AFE06461BE0816811F03A
:10080000010F03D181682940491C816000F04EFE30
:10081000801B02280ED920680068C043C00709D099
:10082000E06D40F01000E065206E40F001002066B1
:10083000012070BD20680168C943C907DED10020CE
:1008400070BD00003F000080FEE77047002240F6C8
:10085000B83306E00021491C89B29942FBD3521CEF
:1008600092B28242F6D3704772B6FEE7F8B5002620
:100870000446009690F858000D4601280BD0012040
:1008800084F858002046FFF76DFF0100E06D04D0AA
:1008900040F010002AE00220F8BD20F4885040F01B
:1008A0000200E06520688268134B1A4005F080431F
:1008B0001A4342F000428260104A20680EE0009B1A
:1008C0005B1C0093934209D3E06D20F0020040F0DE
:1008D0001000E06584F858600120F8BD8368DB0FE4
:1008E000EDD1E06D20F0020040F00100E06584F8F9
:1008F00058600846F8BD0000C0FFFF3F02DE04005C
:100900002DE9F047044690F858009CB00E464FF091
:100910000009012815D0012084F8580000251795FA
:10092000189520684FF0A04840450ED1284F0097F9
:10093000384602F07FFD8246206802F07BFD60B100
:100940000EE002201CB0BDE8F087E06D40F0200012
:10095000E06584F858500120F4E7BAF1000F09D09F
:10096000E06D40F02000E0654FF0010984F8585038
:100970004846E7E71748326840F61F71002A826848
:1009800022F4604216D094F8383042EA4332736859
:100990001A438260D8F80820BB6802F0010203F015
:1009A00001031A43E2D1B36832681A4383688B4368
:1009B0001A430BE08260D8F80820BB6802F00102FD
:1009C00003F001031A43D1D182688A438260CDE7E4
:1009D00000010050000300502DE9F84F00270446A5
:1009E000009790F85800DFF8E0930D46B8460128CC
:1009F00011D0012684F85860206802F017FD60B11C
:100A0000E06D40F02000E0655FF0010784F8588059
:100A10003846BDE8F88F0220FBE7D5E900210C231A
:100A2000206803EA91131844036B01F01F014FF093
:100A30001F0C0CFA01FCC2F3846223EA0C038A4007
:100A400013430363206802F0F1FC8246206802F041
:100A5000E9FC5AEA00003CD1AA6829682068B2F192
:100A6000004F37D002F0EAFC2068416921F00041D4
:100A7000416120686969C268C2F3C10252009140B5
:100A80002A69042A31D000EB82002B68026EDFF85D
:100A90003CC303F0F84302EA0C020B431A4342F052
:100AA0000041016620682A69A96900EB8200026E94
:100AB00022F080720A430266297F22682869012990
:100AC00010D0002102EB8000026E22F000720A4377
:100AD00002667DE0002202F0B1FC2068416941F02D
:100AE0000041C5E74FF00071ECE7002102F094FCF3
:100AF000400320684FF0000172D002F08DFC90FAA4
:100B0000A0F0B0FA80F1286842036ED090FAA0F00D
:100B1000B0FA80F0814204D100221146206802F030
:100B20009CFC0121206802F077FC400320684FF014
:100B300001015DD002F070FC90FAA0F0B0FA80F1F3
:100B40002868420359D090FAA0F0B0FA80F08142B0
:100B500004D100220121206802F07FFC02212068DC
:100B600002F05AFC400320684FF0020148D002F026
:100B700053FC90FAA0F0B0FA80F12868420344D008
:100B800090FAA0F0B0FA80F0814204D10022022154
:100B9000206802F062FC0321206802F03DFC400363
:100BA00020684FF0030133D002F036FC90FAA0F039
:100BB000B0FA80F1286842032FD090FAA0F0B0FA82
:100BC00080F0814204D100220321206802F045FC1C
:100BD0002068816811F0010F22D0ACE000E004E051
:100BE00002F01AFCC0F384618DE7C0F3846091E7E2
:100BF00002F012FCC0F38461A2E7C0F38460A6E7B0
:100C000002F00AFCC0F38461B7E7C0F38460BBE77D
:100C100002F002FCC0F38461CCE7C0F38460D0E74B
:100C20002A7B296850F8B03FC1F3120C23EA0C0369
:100C300002F0180C664A22FA0CF20A4013430360D1
:100C4000E968494577D1286841031CD090FAA0F1A2
:100C5000B1FA81F1491C01F01F0109294FEA403125
:100C600032D8002912D000BF90FAA0F1B1FA81F178
:100C700001F1010101F01F0106FA01F609D100BFDF
:100C8000C0F3846109E0C0F38461E3E7C0F38461E9
:100C9000EEE790FAA0F1B1FA81F101F1010101F062
:100CA0001F0146EA816102D1C0F3846003E090FA3B
:100CB000A0F0B0FA80F000F1010000F01F0000EB9E
:100CC000400041EA005132E000290ED090FAA0F134
:100CD000B1FA81F101F1010101F01F0106FA01F6FB
:100CE00006D100BFC0F3846106E0C0F38461F1E780
:100CF00090FAA0F1B1FA81F101F1010101F01F01B7
:100D000046EA816102D1C0F3846003E090FAA0F06A
:100D1000B0FA80F000F1010000F01F002D4A00EB56
:100D2000400002EB005041EA000141F00071AA6866
:100D3000206802F083FB28482A6802423FF466AE2E
:100D400026488168264B01F0E0719A4202D0254B7B
:100D50009A421CD10B021AD42268B2F1A04F7FF440
:100D600055AE826841F4000122F0E0720A438260CD
:100D70001D481E490068B0FBF1F0401C00EB40002C
:100D8000800000E0401E00900028FBD13EE6184D98
:100D9000184BAA4207D1CD0105D422689A42F5D05A
:100DA00041F0807109E0144DAA42EFD14A02EDD41E
:100DB00022689A42EAD041F48001826822F0E0720F
:100DC0000A43826022E6000000007F4000F0FF033B
:100DD000FFFF0700000020FE000008800003005015
:100DE000000021C31000C09030000020400D03001F
:100DF000000052C700010050000084CBF8B54FF04E
:100E0000000504002E46009502D0E06D10B107E009
:100E10000120F8BD204600F0EFF8266684F85860FF
:100E200020688168C1F3407119B181686A4A114034
:100E3000816020688168C1F3007189B98168674A5F
:100E4000114041F080518160654866490068B0FBFF
:100E5000F1F04000801C00E0401E00900028FBD113
:100E600020688168C1F3007141B9E16D41F0100162
:100E7000E165216E41F001012166012502F0D6FAFB
:100E8000E16DC90600D430B1E06D40F01000E065BE
:100E900001252846F8BDE06D20F4807040F0020086
:100EA000E0652068806810F0010F11D14FF0A0407C
:100EB00080684D4900F00100896801F00101084394
:100EC00006D14A486168826822F47C120A43826033
:100ED000E168E06B627F0843A16841EA4231084360
:100EE00094F8241040EA0140012904D1218D404AA0
:100EF00002EB41410843E16A29B101F47871226BA8
:100F0000014342EA01002168CA683A4B1A40024391
:100F1000CA6020680169626B21F040611143016180
:100F2000206802F083FA0646206802F07BFA30431C
:100F30002ED1207F94F83810800340EA41022068C7
:100F4000C16844F2020399431143C160206900283B
:100F5000206801690AD041F480310161206850F8AD
:100F6000C01F22696FF30D01114307E021F48031A6
:100F70000161206850F8C01F6FF30D01016094F803
:100F8000400001280CD02068016921F001010161B5
:100F9000606901282068016B21F00F0111D013E076
:100FA000D4E911010843D4E913121143084321681D
:100FB0000A6940F2FC739A43104340F00100086153
:100FC000E6E7226A521E11430163E06D20F0020041
:100FD00040F00100E0655CE7C0FFFF5FC0FFFF7FFE
:100FE00030000020400D03000001005000030050BD
:100FF0000000FEFF0740F0FF2DE9F04397B00446E4
:10100000142111A8FFF7D3FA44216846FFF7CFFA5D
:101010004FF0005021682D4D0327DFF8B490861360
:101020002C4C4FF00008B1F1A04F10D02A4A914249
:1010300048D100960F90684600F036FB08B1FFF7E4
:1010400013FC2868401C2860012824D02BE000965F
:101050000F90684600F028FB08B1FFF705FC2868F0
:10106000401C2860012807D1E06C40F40050E06487
:10107000E06C00F400501690E06C40F00200E06478
:10108000E06C11A900F0020016904FF4805081E846
:101090008101484614E0E06C40F40050E064E06CEC
:1010A00000F400501690E06C40F00200E064E06C48
:1010B00011AA00F00200169082E8C00111A948466A
:1010C00000F00AF917B0BDE8F0830000200000200E
:1010D0000004004800100240000100502DE9F041DA
:1010E00004463848806800F01F05206802F09EF929
:1010F00018B102210846BDE8F08194F85800012893
:101100000CD0012084F858002046FFF763FB010053
:101110004FF0000304D084F85830EBE70220EAE7F0
:10112000E06D40F60162904340F48070E065264A2D
:1011300020684FF0A046904201D1374600E00746B4
:10114000874200D01DB9E76D27F48017E765E76D8A
:10115000FF0404D5276E27F00607276600E0236604
:101160001C27076084F858302068904201D133462C
:1011700000E00346834215D0A5B1052D12D0092DFC
:1011800010D0E36D43F48013E365904200D1304604
:10119000C0688001AED5E06D20F4005040F480506E
:1011A000E065A7E7C268920105D5E26D22F400521E
:1011B00042F48052E2658268044B1A40121D82603C
:1011C00098E700000003005000010050C0FFFF7FBF
:1011D00010B590F8253000210122022B03D0042104
:1011E000C163012122E003681C6824F00E041C6026
:1011F000836C1C6824F480741C6003681C6824F0F1
:1012000001041C6090F84430046C03F01F0302FAE0
:1012100003F36360D0E913345C60436D33B11C6841
:1012200024F480741C60D0E916345C6080F82520BA
:10123000002280F82420084610BD70B590F82520C3
:10124000002401212346022A07D00422C26380F829
:10125000251080F82430012429E00268156825F063
:101260000E0515600268156825F001051560826C91
:10127000156825F48075156090F84420056C02F01F
:101280001F0201FA02F26A60D0E913255560426D2F
:1012900032B1156825F480751560D0E916255560C2
:1012A00080F8251080F82430816B01B188472046F2
:1012B00070BD000070B5044600F0F8F80546601CEB
:1012C00002D004484068044400F0F0F8401BA042FB
:1012D000FAD370BD240000202DE9FC4FDFF8A0A157
:1012E000002301250AF1040B03244FF00F0C0BF12E
:1012F000040EBDE005FA03F632406FD04F68012FAF
:1013000005D0022F03D0112F01D0122F17D1D0F802
:1013100008905F0004FA07F829EA08090097D1F855
:101320000C8008FA07F848EA0908C0F808804768FE
:10133000B7430E79C6F300169E403E434660C6682A
:101340004FEA430804FA08F7BE4301978F6807FA8B
:1013500008F73743C7604E68022E01D0122E13D112
:10136000DE0800EB86060096366A5F07FF0E0CFA71
:1013700007F926EA0906D1F8109009FA07F949EAAF
:101380000609009EC6F820900668019FBE430F79AB
:1013900007F0030707FA08F7374307604E68F600BF
:1013A00065D5384E376E47F001073766366E23F045
:1013B000030706F001060096334E3E44B146B66878
:1013C0009F074FEA17780CFA08F7BE43B0F1904F29
:1013D00005D02E4FB84204D1012717E047E000277F
:1013E00014E02B4FB84201D102270FE0294FB84239
:1013F00001D103270AE0284FB84201D1042705E0B4
:10140000264FB84201D1052700E0062707FA08F762
:101410003743C9F80870DAF800605746D1F80480FD
:1014200096435FEAC83800D516433E60DBF800609B
:101430005F46D1F8048096435FEA883800D51643AA
:101440003E60DEF800607746D1F8048096435FEA9C
:10145000C82800D516433E60094F0C373E68D1F8C6
:10146000048096435FEA882800D516433E605B1CE3
:101470000A6832FA03F67FF43DAFBDE8FC8F000046
:101480000004014000100240000001400004004838
:1014900000080048000C00480010004800140048F4
:1014A0000AB181617047816270470000014880681D
:1014B00070470000240000200248816842681144FF
:1014C000816070472400002010B50024032000F044
:1014D00073F80F2000F008F808B1012401E000F0D3
:1014E00025F8204610BD000070B50E4E05460024BC
:1014F000706898B14FF47A71B1FBF0F00A4909684D
:10150000B1FBF0F000F064FD40B9102D06D20022CE
:101510002946501E00F030F8356000E001242046D6
:1015200070BD000024000020300000200A4882B076
:10153000016E41F001010166016E01F001010091AF
:10154000816D41F080518165806D00F08050009088
:1015500002B000F0A1B8000000100240002809DB32
:1015600000F01F02012191404009800000F1E020BD
:10157000C0F8001170470000F0B40E4B1B680C4619
:10158000C3F30223C3F10705042D00D90425191D57
:10159000072901D2002300E0DB1E012606FA05F12F
:1015A000491E214099409E40761E16403143F0BCB2
:1015B00003F013BA0CED00E0064900F007020868DA
:1015C0004FF6FF03184040EA0220034A1043086028
:1015D000704700000CED00E00000FA052B492C4B91
:1015E0000A6832214A432B4940B1B0F5007F0868B0
:1015F00029D020F4C06040F480602CE00868C0F37B
:101600004120022804D051F8800F20F4807022E09D
:10161000D1F8800020F48070C1F88000086820F4C0
:10162000C06040F400700860B2FBF3F0401C00E0C2
:10163000401E4A69520501D50028F9D14869400584
:101640000AD503207047C0F34120022806D051F884
:10165000800F40F48070086000207047D1F880004F
:1016600040F48070C1F88000086820F4C06040F445
:1016700000700860B2FBF3F0401C00E0401E4A69B5
:101680005205DBD50028F9D1D8E700003000002052
:1016900040420F00007000400248816841F48041E0
:1016A00081607047007000402DE9F84304460068EF
:1016B00000269D4D00035ED5A86D0027C00008D40C
:1016C000A86D40F08050A865A86D012700F08050FB
:1016D0000090DFF85892D9F8001041F48071C9F8F1
:1016E0000010FFF7E3FE804606E000BFFFF7DEFED6
:1016F000A0EB080002282BD8D9F80000C005F5D5CA
:10170000D5F8900010F4407014D0216C814211D0B3
:10171000D5F89000D5F8901020F4407041F4803155
:10172000C5F89010D5F8901021F48031C5F89010CC
:10173000C5F89000C00711D0FFF7B8FE804641F20F
:10174000883907E0FFF7B2FEA0EB0801494501D94F
:1017500003260BE0D5F890008007F3D5D5F890006C
:10176000216C20F440700843C5F890001FB1A86DAB
:1017700020F08050A8652078C00707D0D5F88800F1
:10178000616820F003000843C5F8880020788007CE
:1017900007D5D5F88800A16820F00C000843C5F8EB
:1017A00088002078400707D5D5F88800E16820F048
:1017B00030000843C5F888002078000707D5D5F821
:1017C0008800216920F0C0000843C5F8880020780F
:1017D000800607D5D5F88800616920F44060084389
:1017E000C5F888002078400607D5D5F88800A1699B
:1017F00020F440500843C5F888002078000607D53B
:10180000D5F88800E16920F440400843C5F8880015
:101810002088C00507D5D5F88800216A20F440301B
:101820000843C5F888002088800507D5D5F88800CA
:10183000616A20F440200843C5F8880020884005EC
:101840000FD5D5F88800A16A20F440100843C5F8E8
:101850008800A06AB0F5801F03D1E86840F48010CA
:10186000E860208800050FD5D5F88800E16A20F4EB
:1018700040000843C5F88800E06AB0F5800F03D146
:10188000E86840F48010E8602088C0040FD5D5F8DF
:101890008800216B20F040700843C5F88800206B59
:1018A000B0F1807F03D1E86840F48010E8602088C0
:1018B0004FF0006180040ED5D5F88800626B20F0EF
:1018C00040601043C5F88800606B884203D1E86827
:1018D00040F48010E860208840040ED5D5F88800D8
:1018E000A26B20F040601043C5F88800A06B8842CE
:1018F00003D1E86840F48010E860208800040FD528
:10190000D5F88800E16B20F040500843C5F8880006
:10191000E06BB0F1805F03D1E86840F48030E860AC
:101920003046BDE8F883000000100240007000401F
:101930002DE9F0470E4605004FF0000725D0DFF8EF
:10194000AC81D8F8000000F00F00B0420CD2D8F8FB
:10195000001021F00F013143C8F80010D8F8000042
:1019600000F00F00B04210D12968614CC80741F265
:10197000883A5AD06868DFF87C91032808D002289A
:1019800020682DD0400500282CDB0120BDE8F08721
:1019900020688001F9D5E06800F00302E068C0F338
:1019A0000310401C032A19D0534A00BFB2FBF0F0C9
:1019B000E268C2F306225043E268C2F34162521C5D
:1019C0005200B0FBF2F0484517D9A06810F0F00FB4
:1019D0000CD0880711D5A86840B10EE0474AE5E76A
:1019E0008003D0E700F0B6F8484506D9A06820F09B
:1019F000F00040F08000A0608027A068696820F0B7
:101A000003000843A060FFF751FD814606E000BFD8
:101A1000FFF74CFDA0EB090151453AD8A068696871
:101A200000F00C00B0EB810FF2D12868810714D5CB
:101A3000400703D5A06840F4E060A0602878000764
:101A400005D5A06820F4605040F4E060A060A06874
:101A5000A96820F0F000084304E0802F03D1A068BB
:101A600020F0F000A060D8F80010404601F00F010F
:101A7000B14216D9016821F00F0131430160FFF72F
:101A800015FD074607E000BFFFF710FDC11B5145DC
:101A900001D903207AE7D8F8000000F00F00B04227
:101AA000F2D12878400705D5A068E96820F4E06005
:101AB0000843A0602878000706D5A068296920F4AB
:101AC000605040EAC100A06000F044F8A1680C4AF0
:101AD000C1F30311515C01F01F01C84009490860BE
:101AE00009480068BDE8F047FFF7FEBC002002404F
:101AF0000010024000B4C4040024F40000366E015B
:101B0000A25C00083000002024000020054806499F
:101B100000688968054AC1F30221515C01F01F0188
:101B2000C84070473000002000100240B25C00083E
:101B30000548064900688968054AC1F3C221515C1D
:101B400001F01F01C8407047300000200010024023
:101B5000B25C0008184910B58868C0F381021748C4
:101B6000012A0BD08A68164BC2F38102022A06D0E2
:101B70008A68C2F38102032A03D0002010BD1846F0
:101B800010BDCA6802F00304CA68C2F30312521CF3
:101B9000032C02D0B0FBF2F001E0B3FBF2F0CA6814
:101BA000C968C2F306225043C1F34161491C490090
:101BB000B0FBF1F010BD0000001002400024F40062
:101BC00000366E012DE9F84304007AD02078FA4DF2
:101BD000C00747D0A868E96800F00C0001F00301D5
:101BE0000C2802D0082817D001E0032914D060681F
:101BF000B0F5803F17D0B0F5A02F286817D020F49B
:101C000080302860286820F4802028606068E0B177
:101C1000FFF74CFC064614E02868800322D5606874
:101C20000028D2D01EE0286840F48030EDE740F470
:101C300080202860F7E700BFFFF738FC801B64288E
:101C400070D828688003F7D50CE0FFF72FFC064614
:101C500005E000BFFFF72AFC801B6428F0D8286845
:101C60008003F7D4207880074CD5A868E96800F095
:101C70000C0001F003010C2802D004280DD001E073
:101C800002290AD0E068002828682BD040F4807030
:101C90002860FFF70BFC064619E02868400502D5CE
:101CA000E068002891D06868217C20F0FE4040EA7E
:101CB00001606860C1480068FFF716FC002800D189
:101CC00020E076E1FFF7F2FB801B0228B8D82868F5
:101CD0004005F7D56868217C20F0FE4040EA0160AD
:101CE00068600FE020F480702860FFF7DFFB064695
:101CF00005E000BFFFF7DAFB801B0228A0D82868A8
:101D00004005F7D42078000729D560690028D5F868
:101D1000940013D040F00100C5F89400FFF7C6FB13
:101D2000064606E090E000BFFFF7C0FB801B0228DC
:101D300086D8D5F894008007F6D510E020F0010091
:101D4000C5F89400FFF7B2FB064604E0FFF7AEFBD0
:101D5000801B022878D8D5F894008007F6D4207824
:101D6000400761D5A86D0026C00008D4A86D40F0DA
:101D70008050A865A86D012600F080500090904822
:101D80000168C90511D40168804641F48071016081
:101D9000FFF78CFB074604E0FFF788FBC01B022817
:101DA00052D8D8F80000C005F6D5A068012815D093
:101DB0000528D5F8900016D020F00100C5F8900055
:101DC000D5F8900020F00400C5F89000A06841F21A
:101DD0008838B8B1FFF76AFB07460EE0D5F89000E7
:101DE00040F00100F0E740F00400C5F89000F5E78E
:101DF000FFF75CFBC11B414526D8D5F89000800752
:101E0000F6D50CE0FFF752FB074604E0FFF74EFB68
:101E1000C11B414518D8D5F890008007F6D41EB1F3
:101E2000A86D20F08050A8652078800629D5A0698B
:101E30000028D5F8980013D040F00100C5F89800AC
:101E4000FFF734FB064606E077E000BFFFF72EFB06
:101E5000801B022877D8D5F898008007F6D510E0C7
:101E600020F00100C5F89800FFF720FB064604E0CB
:101E7000FFF71CFB801B022865D8D5F89800800767
:101E8000F6D4E069F0B3A968C1F38101032961D0F8
:101E90000228286820F0807028600BD0E86820F0C5
:101EA0000300E860E86847490840E860FFF7FEFA89
:101EB00004464BE0FFF7FAFA064604E0FFF7F6FAAD
:101EC000801B02283FD828688001F7D4F4E9080174
:101ED0006FF00F0202EB01110843218A52044908F6
:101EE00002EB4151A26841EA02210843217D4FF0F3
:101EF0007E42490802EB41610843217B40EAC16010
:101F0000E96800E062E0304A11400843E860286870
:101F100040F080702860E86840F08070E860FFF76B
:101F2000C5FA044605E000BFFFF7C0FA001B02280F
:101F300009D828688001F7D548E004E0FFF7B6FA31
:101F4000001B022802D90320BDE8F883286880011D
:101F5000F4D43BE00128F7D0E868226A00F00301DE
:101F6000914226D1616A00F0F002090110399142D4
:101F70001FD1A26A00F4FE41B1EB022F19D194F8EF
:101F80002C2000F07841B1EBC26F12D1218E00F409
:101F9000C00249084905A1F50011914209D194F800
:101FA000341000F0C06049084906A1F10071814277
:101FB0000CD00120C8E700000010024024000020DF
:101FC00000700040FFFFEEFE0C809F010020BBE789
:101FD00010B5401EB0F1807F01D3012010BD4FF03D
:101FE000E02460610F21601702F0F7FC0020A0617F
:101FF00007202061002010BD704770477047704770
:1020000070477047F0B590F83C20012A3AD001257E
:1020100080F83C50022280F83D2003685A689C6892
:10202000194E1A4FB34201D0BB4204D122F4700CB6
:102030004A6842EA0C02DFF858C002EA0C02D1F802
:1020400000C04CEA020CC3F804C00268B2420DD0D2
:10205000B2F1804F0AD00F4B9A4207D00E4B9A42F2
:1020600004D0BA4202D00D4B9A4204D1896824F0C0
:1020700080031943916080F83D50002180F83C10A6
:102080000846F0BD0220F0BD002C014000340140A4
:102090008FFFFFFD000400400008004000400140A9
:1020A000704710B5040003D094F83D0010B107E06C
:1020B000012010BD002084F83C00204600F022F8EA
:1020C000022084F83D00211D206801F069FD0120F7
:1020D00084F8480084F83E0084F83F0084F840000B
:1020E00084F8410084F8420084F8430084F84400F6
:1020F00084F8450084F8460084F8470084F83D00E1
:10210000002010BD10B586B0044614216846FEF7C5
:102110004EFA1F4A21681F4891420ED1816D41F04D
:1021200002018165806D002200F0020005901146D9
:102130001D20FFF721FA1D2025E0174A914224D1E6
:10214000016E41F400310166016E01F40031059128
:10215000C16C41F00201C164C06C694600F002002C
:102160000590102000900220019000200290039022
:10217000012004900948FFF7AFF80022114619200A
:10218000FFF7FAF91920FFF7E9F906B010BD0000D2
:1021900000040040001002400044014000040048D8
:1021A00070B5044690F83C00012814D0012584F84D
:1021B0003C50022084F83D0022689068344B18405F
:1021C00020F47F4090600868702827D010DC10F061
:1021D0000F0F03D04AE04FF0020070BD4FEA20120B
:1021E000072A43D2DFE802F05050505048313900FE
:1021F000284BC21A984247D009DCB0F5805F35D031
:10220000B0F5005F15D0B0F1101F2FD13CE0102ABF
:102210003AD0202A38D0502A28D135E0CB68D1E9ED
:102220000121206801F021FD2068816841F07701DB
:1022300009E0CB68D1E90121206801F016FD206892
:10224000816841F48041816010E0CA684968206873
:1022500001F0B6FE5021206806E0CA68496820688F
:1022600001F0F6FE6021206801F00AFD84F83D507F
:10227000002084F83C0070BDCA684968206801F0FD
:102280009FFE40212068EFE7226801461046EBE7F9
:1022900088FFCEFF2000100010B50A4A0168914265
:1022A0000ED1002100F0F0FB064A0021243211601B
:1022B00000EB800004490001B1FBF0F00349C88144
:1022C00010BD00000044014000B4C4040800002018
:1022D0002DE9F041054690F83C000C46012836D027
:1022E000012085F83C008AB3042A42D02868082AD5
:1022F00051D0D4E90023E168066A26F480560662CC
:10230000C669076A26F4407646EA03234FF6FF764D
:1023100006EA013123F4704319434FF4204627F4B1
:10232000204306EA02321A43C16102622868C16989
:1023300021F44061C1612868C169A26841EA0221B3
:10234000C161002085F83C00BDE8F08101E0022079
:10235000FAE7D4E90012E368286801F043FE286830
:10236000816921F00C01816128688169A2681143AB
:102370000FE0D4E90012E368286801F07BFE2868CA
:10238000816921F44061816128688169A26841EA1C
:1023900002218161D5E7D4E90027267B016A21F477
:1023A00080710162C169036A21F00301394321F0A0
:1023B000F00731074FF4206647EA116123F42063E8
:1023C00006EA02221A43C16102622868C16921F04B
:1023D0000C01C1612868C169A2681143B0E710B55A
:1023E000040003D094F83D0010B107E0012010BDB7
:1023F000002084F83C00204600F022F8022084F8F7
:102400003D00211D206801F0CBFB012084F848002D
:1024100084F83E0084F83F0084F8400084F84100CE
:1024200084F8420084F8430084F8440084F84500AE
:1024300084F8460084F8470084F83D00002010BD71
:102440007047000010B5044679B1042912D008295C
:1024500015D00C2918D0102919D094F8430000BFCA
:1024600094F84720012817D114E094F83E0094F81E
:102470004420F7E794F83F0094F84520F2E794F8F9
:10248000400094F84620EDE794F84100E8E794F81E
:102490004200E5E7012A01D0012010BD022071B100
:1024A000042915D008291CD00C2948D0102949D05E
:1024B00084F8430084F847000C291BD145E084F8D8
:1024C0003E0084F844002068C26842F0020210E036
:1024D00084F83F0084F845002068C26842F0040296
:1024E00007E084F8400084F846002068C26842F0A3
:1024F0000802C2600122206801F0AAFB1549206889
:1025000088420ED0B0F1804F0BD01349884208D0DA
:102510001249884205D01249884202D011498842A6
:1025200007D18168104A1140062906D0B1F5803FD5
:1025300003D0016841F001010160002010BD84F862
:102540004100B7E784F84200B4E72068C26842F06F
:102550001002CEE7002C01400004004000080040BB
:1025600000340140004001400700010070B50446FE
:10257000006801694FF00005C943890715D4C16897
:10258000C943890711D4E91E016101202077206821
:1025900080698007204602D0FFF77EFE04E000F04D
:1025A00009F9204600F0DAF9257720680169C94366
:1025B000490717D4C168C943490713D46FF0040110
:1025C0000161022020772068806910F4407F204656
:1025D00002D0FFF761FE04E000F0ECF8204600F0C6
:1025E000BDF9257720680169C943090716D4C16878
:1025F000C943090712D46FF0080101610420207754
:102600002068C0698007204602D0FFF745FE04E03D
:1026100000F0D0F8204600F0A1F925772068016984
:10262000C943C90617D4C168C943C90613D46FF09A
:1026300010010161082020772068C06910F4407FF4
:10264000204602D0FFF728FE04E000F0B3F8204651
:1026500000F084F9257720680169C943C90708D1CA
:10266000C168C943C90704D1891E0161204600F031
:10267000F5F920680169C943090609D4C168C9434D
:10268000090605D46FF0800101612046FFF7B5FC13
:1026900020680169C943C90509D4C168C94309064D
:1026A00005D46FF4807101612046FFF7A5FC206816
:1026B0000169C943490609D4C168C943490605D41B
:1026C0006FF040010161204600F0F3F920680169D4
:1026D000C943890609D4C168C943890605D46FF086
:1026E000200101612046FFF789FC20680169C94388
:1026F000C90209D4C168C943C90205D46FF4801165
:1027000001612046FFF77CFC20680169C94389020A
:1027100009D4C168C943890205D46FF4001101616D
:102720002046FFF76CFC20680169C943490209D4BF
:10273000C168C943490205D46FF480010161204694
:10274000FFF75FFC20680169C94309020BD4C16827
:10275000C943090207D46FF4000101612046BDE8B6
:102760007040FFF79DBC70BD10B586B004461421C3
:102770006846FDF71CFF2068B0F1804F15D10C486A
:10278000C16C41F00101C164C06C694600F00100F8
:1027900005900220009001900020029003900120FB
:1027A00004904FF09040FEF797FD06B010BD00007A
:1027B00000100240704770B5044690F83C000D468A
:1027C00001280BD0012084F83C000C2A45D007DCFE
:1027D0005AB1042A1BD0082A78D12CE0022070BDFF
:1027E000102A4ED0142A71D15DE0206801F052FA0F
:1027F0002068816941F0080181612068816921F0C8
:1028000004018161206881692A69114311E020680F
:1028100001F08EFA2068816941F4006181612068CD
:10282000816921F480618161206881692A6941EAB6
:10283000022181614AE0206801F0C2FA2068C16982
:1028400041F00801C1612068C16921F00401C16142
:102850002068C1692A69114311E0206801F0F8FA83
:102860002068C16941F40061C1612068C16921F437
:102870008061C1612068C1692A6941EA0221C161A0
:1028800024E0206801F02CFB2068016D41F0080174
:1028900001652068016D21F0040101652068016D6A
:1028A0002A69114311E0206801F052FB2068016D94
:1028B00041F4006101652068016D21F480610165CA
:1028C0002068016D2A6941EA02210165002084F82F
:1028D0003C0070BD10B5040003D094F83D0010B169
:1028E00007E0012010BD002084F83C00204600F0E5
:1028F00023F8022084F83D00211D206801F050F9E2
:10290000012084F8480084F83E0084F83F0084F8F1
:10291000400084F8410084F8420084F8430084F8C1
:10292000440084F8450084F8460084F8470084F8A1
:102930003D00002010BD000008B50068B0F1804FD8
:1029400008D10548816D41F001018165806D00F07D
:102950000100009008BD0000001002407047000018
:1029600030B50446022269B1042912D0082917D0D3
:102970000C291CD0102921D094F84300012824D020
:10298000012030BD94F83E000128F9D184F83E20A2
:102990001DE094F83F000128F2D184F83F2016E0B2
:1029A00094F840000128EBD184F840200FE094F81F
:1029B00041000128E4D184F8412008E094F8420065
:1029C0000128DDD184F8422001E084F8432001226F
:1029D000206801F03DF9194B20681949194A9842BD
:1029E00009D0884207D0904205D0174DA84202D0A6
:1029F000164DA84203D1456C45F400454564206856
:102A000098420CD0B0F1804F09D0114B984206D0BB
:102A1000104B984203D0884201D0904207D1816880
:102A20000D4A1140062906D0B1F5803F03D0016858
:102A300041F001010160002030BD0000002C014088
:102A40000034014000400140004401400048014082
:102A50000004004000080040070001000168084829
:102A6000B1F1804F07D0074A914203D1417881F0FC
:102A7000010141707047017881F0010101707047D8
:102A800008000020000400400246002041B1042953
:102A900009D008290AD00C2901D11068006C7047B0
:102AA0001068406B70471068806B70471068C06B8F
:102AB0007047704790F88010012918D0012180F8E4
:102AC00080102421C0F8841050F8641B0A680B6839
:102AD00023F001030B6022F000510022026050F845
:102AE000643C196020210162027710467047022081
:102AF00070477047704770B5044690F88000012811
:102B00001DD0012084F880002420C4F884002068AF
:102B10000568026822F0010202602068826822F0E3
:102B200060620A438260204601F0C0FA20680560B6
:102B30002020C4F88400002084F8800070BD0220AA
:102B400070BD70B5044690F8800001281DD00120AA
:102B500084F880002420C4F8840020680568026896
:102B600022F0010202602068826822F060420A437B
:102B70008260204601F09AFA206805602020C4F89F
:102B80008400002084F8800070BD022070BD704772
:102B9000704770472DE9F04103680446D869196809
:102BA0009A6840F60F0528424FF0000509D18606C5
:102BB0007ED501F0200602F080573E4378D0216F89
:102BC000FFE0924E924F16400F40374370D0C70738
:102BD00009D0CF0507D501271F62D4F88C3043F008
:102BE0000103C4F88C3083070AD5D30708D02768BF
:102BF00002233B62D4F88C3043F00403C4F88C30D9
:102C000043070AD5D30708D0276804233B62D4F8CA
:102C10008C3043F00203C4F88C3003070CD501F06C
:102C20002003334308D0266808233362D4F88C305D
:102C300043F00803C4F88C3003050BD54B0109D5CC
:102C400026684FF400633362D4F88C3043F02003DD
:102C5000C4F88C30D4F88C30002B34D0800609D5E1
:102C600001F0200002F08051084303D0216F09B128
:102C700020468847D4F88C0021688968490602D428
:102C800010F0280F21D0204601F0D0FA206881688A
:102C9000490615D5816821F040018160E06F78B167
:102CA0005C498163E06FFEF7C8FA00280BD000E0B2
:102CB00011E0E06F816B00E02046BDE8F04108477D
:102CC0002046FFF766FFBDE8F0812046FFF761FF71
:102CD000C4F88C50F7E7E76E2026012F5CD1C706B9
:102CE0005AD5CF0658D51020186220688168490649
:102CF0002FD5E26F116849680904090CE3D0B4F8D4
:102D00005C308B42DFD9A4F85E101168096889062F
:102D100018D4016821F4807101602068816821F075
:102D2000010181602068816821F040018160C4F860
:102D30008860E5662068016821F010010160E06F9D
:102D4000FEF746FAB4F85C00B4F85E10401A81B29F
:102D50001EE0B4F85C10B4F85E20891AB4F85E2066
:102D600089B2002AAFD00029ADD0026822F4907257
:102D7000026020688268254BDB431A408260C4F8F9
:102D80008860E56625672068026822F0100202600C
:102D90002046FFF7AEFE96E7C70209D5570207D5D2
:102DA0004FF4801018622046BDE8F041FFF7F0BEF6
:102DB00007060AD501F0800702F40002174304D089
:102DC000616F00297FF478AF7DE742060CD54A0693
:102DD0000AD51968204621F040011960C4F88460C2
:102DE000656700F0D7F86EE7020206D54A0004D501
:102DF0002046BDE8F041FFF7CABEC001CBD500298F
:102E0000C9DA2046BDE8F041FFF774BE01000010AA
:102E1000200100041942000810B5040003D0D4F8C2
:102E2000840010B107E0012010BD002084F880006C
:102E3000204600F027F82420C4F8840020680168A8
:102E400021F001010160204601F0C8FB0128EBD010
:102E5000A06A10B1204601F04BF92068416821F4C6
:102E6000904141602068816821F02A0181602068DA
:102E7000016841F0010101602046BDE8104001F009
:102E80009BB9000010B598B00446142111A8FDF7B5
:102E90008EFB44216846FDF78AFB1B492068884267
:102EA00030D101200024CDE900046846FEF7FCFB88
:102EB00008B1FDF7D9FC1548016E41F48041016667
:102EC000016E01F480411691C16C41F00101C164B1
:102ED000C06C11A900F0010016904FF4C060119071
:102EE0000220CDE912040720CDE914404FF09040B4
:102EF000FEF7F2F9002211462520FEF73DFB2520C2
:102F0000FEF72CFB18B010BD003801400010024045
:102F100010B4D0F88830202B1BD1B9B1B2B190F8E1
:102F20008030012B15D0012380F880300023C36648
:102F3000094C0368A34206D05C68240203D51C68D0
:102F400044F080641C6010BC01F082BC012010BC05
:102F500070470220FBE700000080004030B40A4ABE
:102F6000016891420DD109490122094CCA728A7A3D
:102F70000B7BA354521C8A72012230BC0C31FFF728
:102F8000C7BF30BC70470000003801400800002077
:102F9000480000207047FEE700B585B01421684660
:102FA000FDF705FBC0200090012001900290022057
:102FB000039069460248FEF78FF905B000BD000096
:102FC0000004004800B585B014216846FDF7EFFA0B
:102FD0004FF6FF70009000200321CDE9020101901F
:102FE00069460248FEF778F905B000BD00080048C0
:102FF00000B585B014216846FDF7D9FA4FF6FF7089
:103000000090012001900320039000200290694667
:103010000248FEF761F905B000BD00000008004855
:103020002DE9F0410A4E80463068002485B22146E1
:10303000204600F04DF900F08BF94FF496374046EA
:1030400000F05AF9641CBC42F9D33560BDE8F08148
:103050001408004870B586B014216846FDF7A7FA39
:103060001E48C16C41F00401C164C16C01F004014F
:103070000591C16C41F00101C164C16C01F0010115
:103080000591C16C41F00201C164C06C032500F0E0
:10309000020005904FF448700124002603958DE846
:1030A000510069460E48FEF717F9200203958DE896
:1030B00051004FF0904469462046FEF70DF9FFF7A6
:1030C00097FFA06940F48070A0610548183001683E
:1030D00041F40871016006B070BD000000100240AC
:1030E0000004004830B5074D2B68203A9CB2D2B29C
:1030F000054B02EB420203EB021200F027F82C60B2
:1031000030BD000014080048AA4A00082DE9F04329
:10311000DFF8348081460E46D8F80000002587B2DB
:1031200040F23F1407E021464846FFF7DBFF103C22
:103130006D1CA4B2761C32780AB1142DF3D3C8F8F2
:103140000070BDE8F0830000140800482DE9F04746
:1031500091468A460026044600F0BAF8DFF840801F
:10316000012700BF00F0F4F85FF0000539F8160001
:1031700007FA05F10842404601D1408800E0008886
:1031800000F0BAF86D1C102DF0D3641CE4B2514667
:10319000204600F09DF8761C182EE3D3BDE8F0879A
:1031A0000000002070B50D4E306885B2FFF752FF69
:1031B000002000F045F80A4CA080A088A0F502414C
:1031C000303907D000F0A0FB002000F039F8A080D3
:1031D000356070BD00F00FFBF6E7000014080048F2
:1031E0000000002010B50AA10F48FDF7E1F80E49D4
:1031F0004820FFF78BFF0D480DA1C2890A48FDF753
:10320000D7F8BDE8104008496020FFF77FBF0000F5
:103210002020202020202020444154412020202014
:1032200020202020000000003400002008000020A2
:103230002020202020505233393A253464487A0027
:1032400070B51D490A6842F400720A600A6842F4C7
:1032500080720A60184C103C226842F02002226002
:10326000164A1060086840F02000086000BF00BFE8
:1032700000BF206840F020002060206840F480708B
:103280002060FFF79FFE4FF09041886A40F4807005
:10329000886200BF00BF00BF0848001F006885B2F9
:1032A000886940F480708861FFF7A2FE206840F4CE
:1032B00000702060284670BD2804004814080048AB
:1032C00001B5BDF800000149488008BD000000209C
:1032D00010B50C460146202000F068F82146BDE8F4
:1032E0001040212000F062B801B5BDF8000001498E
:1032F000088008BD00000020134A116841F40071E5
:103300001160114910390B6843F480730B600B682E
:1033100043F020030B600D4B1860106840F0200054
:10332000106000BF00BF00BF086840F020000860C8
:10333000086840F48070086000BF00BF00BF0868E4
:1033400040F40070086070472804004814080048E2
:103350001449086840F400700860086840F4807000
:10336000086010481038026842F0200202600E4BDC
:1033700022221A600A6842F020020A6000BF00BFE1
:1033800000BF016841F020010160016841F48071D3
:10339000016000BF00BF00BF016841F4007101601F
:1033A000704700002804004814080048184B10B566
:1033B0001A6842F400721A601A6842F480721A6045
:1033C000134A103A146844F020041460114C206031
:1033D000186840F02000186000BF00BF00BF1068F0
:1033E00040F020001060106840F480701060216090
:1033F000186840F02000186000BF00BF00BF1068D0
:1034000040F020001060106840F48070106010BD23
:10341000280400481408004800EB8100006E00F00A
:10342000F84070478068C0F3C00070478068C0F300
:10343000800070478068C0F380007047042303EA6F
:10344000D15310B518444369C1F3045107248C408B
:10345000A3438A401343436110BD00EB8100016E1A
:1034600021F00041114301667047000030B58BB078
:10347000002408940994202168460A94FDF797F8DF
:103480001C484FF0A041042501604FF40031C0E911
:103490000114C4600461C0E9054504774477012143
:1034A000016280F82440C462046380F83840C46339
:1034B00080F84040FDF7A2FC08B1FDF7D5F908A956
:1034C0000C480894FDF71CFA08B1FDF7CDF90A483D
:1034D00000900620CDE901047F200594CDE9030585
:1034E00069460448FDF778FA002801D0FDF7BCF9D9
:1034F0000BB030BD480100200008302E30B589B037
:1035000020216846FDF753F8194818490024016046
:103510004902C0E90114C46004250461C0E90545FD
:10352000047744770121016280F82440C462046377
:1035300080F83840C46380F84040FDF75FFC08B174
:10354000FDF792F90B4800900620CDE901047F2099
:103550000594CDE9030569460548FDF73DFA0028C5
:1035600001D0FDF781F909B030BD00000001005025
:10357000B40100200080F03EF0B587B01421684609
:10358000FDF715F82D48C16C41F00401C164C16C10
:1035900001F004010591C16C41F02001C164C16CCE
:1035A00001F020010591C16C41F00101C164C16CC1
:1035B00001F001010591C16C41F00201C164C16CCF
:1035C00001F002010591C16C41F00801C164C06CB9
:1035D0001B4E00F008004FF47F4405900122214665
:1035E0003046FDF75DFF174F002204213846FDF7F6
:1035F00057FF0125CDE90045002402946946304675
:103600000394FDF769FECDE9005469464FF0904000
:103610000295FDF761FE07208DE8310069460A48F2
:10362000FDF75AFE04200090CDE901546946384662
:103630000394FDF751FE07B0F0BD000000100240FA
:1036400000080048000C0048000400481FB5002492
:1036500015480094019402941249039401604F218B
:10366000C0E901144FF6FF71C0E90314446184619D
:10367000FEF717FD08B1FDF7F7F80B48FEF7AFFEB0
:1036800008B1FDF7F1F80120CDE9004002940022D5
:10369000694605480394FEF71BFE002801D0FDF79C
:1036A000E3F81FBD00440140B802002010B58AB005
:1036B0000024079408941C2168460994FCF777FFBE
:1036C00015484FF08041016040F21F31C0E90114FC
:1036D0006321C0E903148461FFF7FCF808B1FDF72A
:1036E000C3F8079407A90C480994FEF78BFC08B1AE
:1036F000FDF7BAF86020CDE900040294042269467F
:1037000005480494FFF757F808B1FDF7ADF80248F3
:10371000FFF72AF80AB010BD2002002010B588B0CB
:10372000002418480094019402940394049405948E
:1037300013490694016040F21F31C0E9011442F2BE
:103740000F71C0E903148461FEF7ABFC08B1FDF70B
:103750008BF84FF48050009069460A48FEF720FD30
:1037600008B1FDF781F8049404A906480694FEF711
:1037700049FC002801D0FDF777F808B010BD000023
:10378000000400406C020020184810B51649016082
:103790004FF416514160002181600C22C160C0E9E4
:1037A00004128161C161016241628162FFF734FBF1
:1037B00008B1FDF759F800210C48FFF7C2F908B12C
:1037C000FDF752F800210948FFF795F908B1FDF718
:1037D0004BF80648FFF76EF9002803D0BDE810400B
:1037E000FDF742B810BD000000380140040300207E
:1037F000FEE7FEE7704730B501210020FFF7D6FD58
:103800004FF47A70FDF722F800210120FFF7CEFD7A
:1038100041F290711020FFF7C9FD4FF41C51602058
:10382000FFF7C4FD01216120FFF7C0FD0221462002
:10383000FFF7BCFD48F210011320FFF7B7FD48F277
:10384000FE011220FFF7B2FD4FF4A0610220FFF746
:10385000ADFD41F230010320FFF7A8FD40F2033433
:1038600021463020FFF7A2FD21463120FFF79EFDC3
:1038700021463220FFF79AFDE51E29463320FFF747
:1038800095FD03213420FFF791FD21463520FFF7F8
:103890008DFD14213620FFF789FD21463720FFF7E3
:1038A00085FD21463820FFF781FD21463920FFF7AD
:1038B0007DFD29463A20FFF779FD03213B20FFF7E4
:1038C00075FD21463C20FFF771FD4FF4A0513D20CE
:1038D000FFF76CFD4FF400719220FFF767FD214662
:1038E0009320FFF763FD40F60D019020FFF75EFD8A
:1038F00041F218010320FFF759FDBDE8304040F2C6
:1039000073110720FFF752BD10B543F20801E32001
:10391000FFF74CFD1221E720FFF748FD41F231216E
:10392000EF20FFF743FD00210120FFF73FFD4FF49B
:10393000E0610220FFF73AFD41F230010320FFF77A
:1039400035FD00210420FFF731FD40F2072108205A
:10395000FFF72CFD00210920FFF728FD00210A2098
:10396000FFF724FD00210C20FFF720FD00210D2092
:10397000FFF71CFD00210F20FFF718FD002110208C
:10398000FFF714FD07211120FFF710FD0021122081
:10399000FFF70CFD00211320FFF708FDC820FDF7FD
:1039A00089FC41F290611020FFF700FD40F22721D1
:1039B0001120FFF7FBFC3220FDF77CFC1D211220BB
:1039C000FFF7F4FC3220FDF775FC4FF40061132083
:1039D000FFF7ECFC14212920FFF7E8FC0B212B203A
:1039E000FFF7E4FC3220FDF765FC00212020FFF703
:1039F000DDFC00212120FFF7D9FC07213020FFF753
:103A0000D5FC40F207713120FFF7D0FC06213220AF
:103A1000FFF7CCFC40F204713520FFF7C7FC41F6FC
:103A200004713620FFF7C2FC04213720FFF7BEFCEB
:103A300000213820FFF7BAFC40F206713920FFF769
:103A4000B5FC40F201713C20FFF7B0FC0F213D2096
:103A5000FFF7ACFC00215020FFF7A8FCEF2151201C
:103A6000FFF7A4FC00215220FFF7A0FC40F23F1119
:103A70005320FFF79BFC4FF41C516020FFF796FC8E
:103A800001216120FFF792FC00216A20FFF78EFCE4
:103A900000218020FFF78AFC00218120FFF786FCAF
:103AA00000218220FFF782FC00218320FFF77EFCAB
:103AB00000218420FFF77AFC00218520FFF776FCA7
:103AC00010219020FFF772FC00219220FFF76EFC7E
:103AD00003219320FFF76AFC4FF488719520FFF7CC
:103AE00065FC00219720FFF761FC00219820FFF77B
:103AF0005DFC41F218010320FFF758FCBDE81040BF
:103B000040F273110720FFF751BC7047FDF7D4BC9A
:103B100010B594B038216846FCF749FD14210EA871
:103B2000FCF745FD4FF40070FDF758FD01200090B3
:103B30000004019002200324CDE907041421CDE9FB
:103B40000A100C900D9009946846FEF73BF808B1F6
:103B500072B6FEE70F20CDE90E0400201090119000
:103B6000129002210EA8FDF7E3FE002801D072B6E4
:103B7000FEE714B010BD00000248016841F4700176
:103B80000160704788ED00E00148FEF7EFBC0000DF
:103B9000B80200200148FEF7E9BC00006C020020DA
:103BA0002DE9F0430268234B234D244E244C4FF063
:103BB0008049984207D0484505D0A84203D0B0427A
:103BC00001D0A04203D122F070074A683A431D4F4A
:103BD000DFF874C0DFF8748098420DD048450BD0F0
:103BE000A84209D0B04207D0A04205D0B84203D0C5
:103BF000604501D0404503D122F44075CA682A438C
:103C00004D6922F080022A4302608A68C2620A6813
:103C10008262984207D0A04205D0B84203D06045E6
:103C200001D0404501D10969016301214161BDE82D
:103C3000F0830000002C0140000400400008004018
:103C40000034014000400140004401400048014070
:103C500010B501F01F030121046A99408C430462EE
:103C6000016A9A401143016210BD10B5846842EAAE
:103C7000032224F47F440A432243826010BD0000E3
:103C80008268034B1A400A4342F007018160704783
:103C90008FFFCFFF2DE9F043026A22F0010202629A
:103CA000056A436882691C4C25F0020522400C68B5
:103CB00022F0030214438A68194E2A43174D194F04
:103CC000DFF864C0DFF86490A84207D0B04205D0A6
:103CD000B84203D0604501D0484506D122F008081B
:103CE000CA6842EA080222F00402A84207D0B042A1
:103CF00005D0B84203D0604501D0484505D14D6993
:103D000023F440731D438B692B43436084614968EE
:103D100041630262BDE8F0838FFFFEFF002C01408B
:103D2000003401400040014000440140004801408F
:103D3000F0B5026A22F010020262056A42688369E5
:103D4000194C1B4E23400C6823F4407343EA0424AF
:103D500025F020038D6843EA0513144DA84201D0D5
:103D6000B04206D1CF6823F0800343EA071323F063
:103D70004003A8420AD0B04208D00E4DA84205D058
:103D80000D4DA84202D00D4DA84207D14D6922F435
:103D9000406242EA85028D6942EA8502426084619E
:103DA000496881630362F0BDFF8FFFFE002C014074
:103DB00000340140004001400044014000480140FF
:103DC000F0B5026A22F480720262056A4368C26931
:103DD000194C1B4E22400C6822F00302144325F4B8
:103DE00000728D6842EA0522144DA84201D0B0420B
:103DF00006D1CF6822F4006242EA072222F48062F0
:103E0000A8420AD0B04208D00E4DA84205D00E4DAF
:103E1000A84202D00D4DA84207D14D6923F440536A
:103E200043EA05138D6943EA05134360C461496899
:103E3000C1630262F0BD00008FFFFEFF002C014055
:103E4000003401400040014000440140004801406E
:103E5000F0B5026A22F480520262056A4268C369C0
:103E6000194C1B4E23400C6823F4407343EA04248E
:103E700025F400538D6843EA0533144DA84201D060
:103E8000B04206D1CF6823F4004343EA073323F45A
:103E90008043A8420AD0B04208D00E4DA84205D0B7
:103EA0000D4DA84202D00D4DA84207D14D6922F414
:103EB000404242EA85128D6942EA85124260C4613D
:103EC000496801640362F0BDFF8FFFFE002C0140D2
:103ED00000340140004001400044014000480140DE
:103EE00030B5026A22F480320262046A4268036DCD
:103EF000114D2B400D681D4324F400330C8943EA17
:103F000004430E4CA0420BD00D4CA04208D00D4CE7
:103F1000A04205D00C4CA04202D00C4CA04204D1CF
:103F20004C6922F4803242EA042242600565496805
:103F30008164036230BD00008FFFFEFF002C014052
:103F4000003401400040014000440140004801406D
:103F500030B5026A22F480120262046A4268036D7C
:103F6000114D24F400142B400D6843EA05230D89FC
:103F700044EA05540D4DA8420BD00D4DA84208D07F
:103F80000C4DA84205D00C4DA84202D00B4DA842C2
:103F900004D14D6922F4802242EA85224260036501
:103FA0004968C164046230BDFF8FFFFE002C0140F0
:103FB00000340140004001400044014000480140FD
:103FC00010B5036A046A24F001040462846924F0D1
:103FD000F00444EA021423F00A020A4384610262F4
:103FE00010BD000070B5046A24F001040462846905
:103FF000056A124EB0420ED0B0F1804F0BD0104E79
:10400000B04208D00F4EB04205D00F4EB04202D0A1
:104010000E4EB04203D124F00304144301E044F0F7
:1040200001041A0724F0F00444EA126225F00A039E
:1040300001F00A0119438261016270BD002C014048
:1040400000040040000800400034014000400140EE
:1040500010B5036A23F0100303628369046A23F432
:10406000704343EA023224F0A00343EA0111826163
:10407000016210BD30B5046A24F010040462846942
:10408000056A24F4407444EA022222F470444FF694
:10409000FF7202EA03322243A02425F0A00304EABF
:1040A000011119438261016230BD000030B5416EDB
:1040B000B9B1026891689268C1F342610B4B520F2B
:1040C0009C5CE50003F10804A25CB5FBF2F2A0F8E9
:1040D0006A205A5C615CD200B2FBF1F1A0F8681072
:1040E00030BD0121A0F86A10F8E70000925C0008DA
:1040F00090F82810C90706D001684A68C36A22F4FC
:1041000000321A434A6090F82810890706D50168E2
:104110004A68036B22F480321A434A6090F82810F0
:10412000490706D501684A68436B22F480221A4386
:104130004A6090F82810090706D501684A68836B21
:1041400022F400421A434A6090F82810C90606D5A6
:1041500001688A68C36B22F480521A438A6090F81F
:104160002810890606D501688A68036C22F400527B
:104170001A438A6090F82810490611D501684A68E8
:10418000436C22F480121A434A60416CB1F5801FDF
:1041900006D101684A68836C22F4C0021A434A605F
:1041A00090F82810090606D501684A68C06C22F408
:1041B000002202434A607047F8B500260446C0F862
:1041C0008C60FDF773F90546206800686FF07E4744
:1041D000000708D52B4600224FF400112046009717
:1041E00000F0A2FB60B92068006840070AD52B46A2
:1041F00000224FF480012046009700F095FB08B1A3
:104200000320F8BD2020C4F88400C4F8880044F8D6
:104210006C6F00202675F8BD10B5806A0021A0F8EB
:104220005E10A0F85610FEF7B4FC10BD01680A68D5
:1042300022F490720A6001688A68094B1A408A6009
:10424000C16E012904D101680A6822F010020A60D7
:104250002021C0F888100021C16601677047000066
:10426000FEFFFFEF70B5B0F86010D0F8882004466C
:104270000068222A04D0816941F00801816170BD83
:10428000406AA26D08401080A06D801CA065B4F843
:104290005E00401EA4F85E00B4F85E000028EED177
:1042A0002068016821F4907101602068816821F024
:1042B000010181602020C4F8880000252567E06E98
:1042C000012804D02046FEF749FEE56670BD20684F
:1042D000016821F010010160B4F85C102046FEF77F
:1042E00008FCF2E72DE9F0470446B0F8606000688A
:1042F000C569D0F800A0D0F80880D4F88810222929
:1043000005D0816941F008018161BDE8F087B4F80A
:1043100068704FF000095BE02068406AA16D304092
:104320000880A06D801CA065B4F85E00401EA4F853
:104330005E002068C569690730D0E9070AD05FEAE6
:10434000CA5107D501210162D4F88C0040F0010068
:10435000C4F88C00A8070BD55FEAC87008D02168A4
:1043600002200862D4F88C0040F00400C4F88C00ED
:1043700068070BD55FEAC87008D02168042008627E
:10438000D4F88C0040F00200C4F88C00D4F88C0003
:1043900020B12046FEF7FDFBC4F88C90B4F85E0017
:1043A000B0B92068016821F48071016020688168DB
:1043B000194A114081602020C4F88800C4F8709028
:1043C000E06E01281CD02046FEF7C8FDC4F86C90B2
:1043D0000FB1A806A0D4B4F85E00002895D0B4F8B8
:1043E0006810814291D92068816821F080518160F4
:1043F0000A4820672068016841F02001016084E7D5
:104400002068016821F010010160B4F85C102046BA
:10441000FEF76FFBDAE70000FEFFFFEF65420008E2
:1044200070B5B0F86010D0F8882004460068222AE1
:1044300004D0816941F00801816170BD406A084083
:10444000A16D0870A06D401CA065B4F85E00401E10
:10445000A4F85E00B4F85E000028EED12068016880
:1044600021F4907101602068816821F00101816070
:104470002020C4F8880000252567E06E012804D0BC
:104480002046FEF76BFDE56670BD2068016821F0EF
:1044900010010160B4F85C102046FEF72AFBF2E739
:1044A0002DE9F0470446B0F860600068C569D0F8AF
:1044B00000A0D0F80880D4F88810222905D081699E
:1044C00041F008018161BDE8F087B4F868704FF0F1
:1044D00000095BE02068406AA16D30400870A06D63
:1044E000401CA065B4F85E00401EA4F85E00206881
:1044F000C569690730D0E9070AD05FEACA5107D514
:1045000001210162D4F88C0040F00100C4F88C0055
:10451000A8070BD55FEAC87008D02168022008629E
:10452000D4F88C0040F00400C4F88C0068070BD568
:104530005FEAC87008D0216804200862D4F88C00B3
:1045400040F00200C4F88C00D4F88C0020B1204662
:10455000FEF71FFBC4F88C90B4F85E00B0B9206879
:10456000016821F48071016020688168194A114056
:1045700081602020C4F88800C4F87090E06E0128A3
:104580001CD02046FEF7EAFCC4F86C900FB1A806D8
:10459000A0D4B4F85E00002895D0B4F86810814229
:1045A00091D92068816821F0805181600A48206794
:1045B0002068016841F02001016084E720680168FB
:1045C00021F010010160B4F85C102046FEF791FA6A
:1045D000DAE70000FEFFFFEF214400082DE9F0417B
:1045E0000446016880682269E36910436269002516
:1045F0001A431043DFF82CC20A688B4B1A4002435F
:104600000A6020684168E26821F44051114341602A
:104610002168A069614501D0226A10438A68834BF2
:104620001A4002438A602068C16A626A21F00F0161
:104630001143C1627E4923687E488B420DD1D0F878
:10464000880010F0030006D0012855D0022842D07F
:1046500003283FD152E001203DE077498B420BD146
:10466000D0F8880010F00C0035D0042833D008288A
:1046700040D00C282ED141E070498B420BD1D0F8AC
:10468000880010F0300026D0102835D0202831D0F6
:1046900030281FD132E06A498B420BD1D0F8880014
:1046A00010F0C00017D0402826D0802822D0C02883
:1046B00010D123E063450DD1D0F8880010F440609C
:1046C00009D0B0F5806F17D0B0F5006F12D0B0F5FB
:1046D000406F13D010205B4A5B4F00264FF400411F
:1046E000634539D160B102280DD004280DD00828C7
:1046F00031D10EE00220EEE70420ECE70820EAE7E3
:10470000FDF704FA03E0114603E0FDF723FA010088
:104710007DD0606A37F810206768B1FBF2F007EBD4
:10472000470383426CD8B0EB073F69D800230846A3
:104730001946FBF7C5FD090241EA1061020278083B
:10474000101871413A460023FBF7BAFD3F4AA0F525
:104750004071914259D953E0E3694FF6EF788B42AB
:104760002DD109284CD2DFE800F005080D4B274B6E
:104770004B4B0E00FDF7CAF901E0FDF7D9F9010036
:1047800001D144E01146606A37F81000B1FBF0F047
:104790004100606801EB5001B1FBF0F080B2A0F184
:1047A000100141452CD84FF6F0710140C0F3420092
:1047B00001432068C1602AE0FDF7CCF9DFE7092852
:1047C0001ED2DFE800F005080D1D1F1D1D1D0E0087
:1047D000FDF79CF901E0FDF7ABF9010001D116E00E
:1047E0001146606A37F81000B1FBF0F1606801EB28
:1047F0005001B1FBF0F080B2A0F11001414504D9A5
:10480000012504E0FDF7A6F9E7E72168C86001206B
:10481000A4F86A0024F8680F2846A660E660BDE8A0
:10482000F081000000800040F369FFCFFFF4FF112A
:1048300000380140001002400044004000480040A1
:10484000004C00400024F4007A5C0008FFFC0F00DC
:1048500070B58165A0F85C20A0F85E20002101679A
:1048600083684FF48056FF24B34204D10369D3B95F
:1048700040F2FF131DE07F259BB1B3F1805F15D09F
:10488000A0F86010C0F88C102223C0F888300368AC
:104890009C6844F001049C60436EB3F1005F0ED04D
:1048A00027E0036943B9A0F86040EBE703691BB157
:1048B0003F23A0F86030E5E7A0F86050E2E7B0F8E9
:1048C0006830934215D88268B24201D1026972B150
:1048D000114A026780F8801001680A6842F4807209
:1048E0000A600068816841F0805181600FE00B4AE6
:1048F000EFE78268B24201D1026952B1084A026709
:1049000080F880100068016841F490710160002017
:1049100070BD044AF3E70000A1440008E542000826
:1049200021440008654200082DE9F0479A461746E1
:104930000E4604464FF000094FF02008089D39E06C
:10494000681C37D0FCF7B2FDA0EB0A00A84222D8C1
:104950000DB32068016849072CD5C069C043000524
:1049600028D421684FF4006008622068016821F4AF
:10497000D07101602068816821F001018160C4F874
:104980008480C4F88880C4F88C8000BF84F880904C
:104990000320BDE8F0872068016821F4D071016030
:1049A0002068816821F001018160C4F88480C4F826
:1049B0008880EBE72068C06936EA000004D0002058
:1049C000B842BDD00020E4E70120F9E70148FEF736
:1049D000E1B8000004030020FEE70907090E0028E3
:1049E00004DB00F1E02080F80014704700F00F00B5
:1049F00000F1E02080F8141D704730380A2801D2F9
:104A00000120704700207047FCF75EFDFFF780F83B
:104A1000FEF7B2FDFEF74AFEFEF770FDFEF7B4FEAC
:104A2000FEF724FDFEF77AFEFEF710FE042116487D
:104A3000FDF796FF00211548FDF704FDFEF7B2FBD8
:104A40000020FEF7EDFA0020FEF73AFC4FF6FF706B
:104A5000FEF74AFC7F210E48FBF708FF0C48FCF7E5
:104A60003DFB7F210B48FBF701FF0A48FCF736FBB3
:104A7000012209490948FEF74BFAFEF78DFA00BFFB
:104A8000FEF7B0FBFCE7000020020020B802002087
:104A9000B40100204801002014000020040300207D
:104AA0004FF04070E1EE100A704700000000000077
:104AB00000000000000000000000000000000000F6
:104AC00000000000000000000000000000000000E6
:104AD00000000000000000000000000080018001D4
:104AE00080018001800180018001800180018001BE
:104AF0008001800180010000000080018001000031
:104B00000000000000000000000000000000CC00D9
:104B1000CC00CC00CC00CC00CC0000000000000099
:104B20000000000000000000000000000000000085
:104B30000000000000000000000000000000000075
:104B4000000000000000600C600C600C30063006B5
:104B5000FE1FFE1F300638071803FE1FFE1F180336
:104B600018038C018C018C01000000008000E00320
:104B7000F80F9C0E8C1C8C188C009800F801E00734
:104B8000800E801C8C188C189C18B80CF00FE00359
:104B90008000800000000000000000000000000015
:104BA0000E181B0C110C11061106110311039B01A9
:104BB0008E01C038C06C60446044304430441844B6
:104BC000186C0C380000000000000000E001F00349
:104BD0003807180618063003F001F000F8009C3181
:104BE0000E33061E061C061C063FFC73F021000057
:104BF00000000000000000000000000000000C00A9
:104C00000C000C000C000C000C0000000000000068
:104C10000000000000000000000000000000000094
:104C2000000000000000000000000000000200037F
:104C30008001C000C0006000600030003000300023
:104C40003000300030003000300060006000C000F4
:104C5000C00080010003000200000000200060008E
:104C6000C00080018001000300030006000600066A
:104C7000000600060006000600060003000380018F
:104C80008001C00060002000000000000000000063
:104C9000000000000000C000C000D806F807E001D6
:104CA0003003380700000000000000000000000092
:104CB00000000000000000000000000000000000F4
:104CC000000000000000800180018001800180015F
:104CD000FC3FFC3F800180018001800180010000D9
:104CE00000000000000000000000000000000000C4
:104CF00000000000000000000000000000000000B4
:104D000000000000000000000000000080018001A1
:104D10000001000180000000000000000000000011
:104D20000000000000000000000000000000000083
:104D30000000E007E00700000000000000000000A5
:104D40000000000000000000000000000000000063
:104D50000000000000000000000000000000000053
:104D6000000000000000000000000000C000C000C3
:104D7000000000000000000000000000000C000C1B
:104D80000006000600060003000300038003800104
:104D900080018001C000C000C00060006000000011
:104DA000000000000000000000000000E003F00729
:104DB000380E180C0C180C180C180C180C180C18B1
:104DC0000C180C180C18180C380EF007E003000033
:104DD0000000000000000000000000000001800151
:104DE000C001F001980188018001800180018001EB
:104DF000800180018001800180018001800100002C
:104E0000000000000000000000000000E003F80FB8
:104E1000180C0C180C1800180018000C00060003E1
:104E20008001C000600030001800FC1FFC1F000063
:104E3000000000000000000000000000E001F80792
:104E4000180E0C0C0C0C000C0006C003C007000C64
:104E5000001800180C180C18180CF807E0030000D4
:104E6000000000000000000000000000000C000E28
:104E7000000F000F800DC00C600C600C300C180C83
:104E80000C0CFC3FFC3F000C000C000C000C000064
:104E9000000000000000000000000000F80FF80F04
:104EA000180018000C00EC03FC071C0E001C001876
:104EB000001800180C181C0C180EF807E00300006E
:104EC000000000000000000000000000C007F00F1C
:104ED000381C181818000C00CC03EC0F3C0E1C1CDE
:104EE0000C180C180C18181C380EF007E003000002
:104EF000000000000000000000000000FC1FFC1F7C
:104F0000000C00060006000380038001C001C00001
:104F1000E0006000600070003000300030000000F1
:104F2000000000000000000000000000E003F007A7
:104F3000380E180C180C180C3806F007F007180C6F
:104F40000C180C180C180C18380CF80FE0030000A3
:104F5000000000000000000000000000E003F00777
:104F6000380E1C0C0C180C180C181C1C381EF81BC6
:104F7000E0190018000C000C1C0EF807F0010000EE
:104F80000000000000000000000000000000000021
:104F9000000000000000800180010000000000000F
:104FA00000000000000000000000800180010000FF
:104FB00000000000000000000000000000000000F1
:104FC00000000000000080018001000000000000DF
:104FD00000000000000000000000800180010001CE
:104FE0000001800000000000000000000000000040
:104FF000000000000000000000000010001C800FF6
:10500000E003F8001800F800E003800F001C001017
:105010000000000000000000000000000000000090
:1050200000000000000000000000F81F0000000069
:105030000000F81F00000000000000000000000059
:105040000000000000000000000000000000000060
:105050000000000000000000000008003800F0011F
:10506000C007001F0018001FC007F001380008002B
:10507000000000000000000000000000E003F80F46
:10508000180C0C180C180018000C00060003800106
:10509000C000C000C00000000000C000C000000050
:1050A0000000000000000000000000000000E00719
:1050B00018180420C229224A114409440944094409
:1050C00009221113E20C024004201818E007000026
:1050D00000000000000000000000000080038003CA
:1050E000C006C006C006600C600C301830183018BE
:1050F000F83FF83F1C700C600C6006C006C0000052
:10510000000000000000000000000000FC03FC0F95
:105110000C0C0C180C180C180C0CFC07FC0F0C18C1
:105120000C300C300C300C300C18FC1FFC0700004D
:10513000000000000000000000000000C007F01F99
:1051400038381C300C7006600600060006000600A9
:105150000600060006600C701C30F01FE00700001F
:10516000000000000000000000000000FE03FE0F31
:10517000060E0618061806300630063006300630D1
:105180000630063006180618060EFE0FFE03000055
:10519000000000000000000000000000FC3FFC3F99
:1051A0000C000C000C000C000C00FC1FFC1F0C0081
:1051B0000C000C000C000C000C00FC3FFC3F00003D
:1051C000000000000000000000000000F83FF83F71
:1051D00018001800180018001800F81FF81F180011
:1051E0001800180018001800180018001800000017
:1051F000000000000000000000000000E00FF83F89
:105200003C780E6006E007C00300030003FE03FEC7
:1052100003C007C006C00EC03CF0F83FE00F00001E
:105220000000000000000000000000000C300C3006
:105230000C300C300C300C300C30FC3FFC3F0C3090
:105240000C300C300C300C300C300C300C300000BA
:10525000000000000000000000000000800180014C
:105260008001800180018001800180018001800136
:1052700080018001800180018001800180010000A7
:105280000000000000000000000000000006000612
:1052900000060006000600060006000600060006DE
:1052A00000060006180618063807F003E0010000A3
:1052B000000000000000000000000000063006189A
:1052C000060C060606038601C60066007600DE00B0
:1052D0008E0106030606060C06180630066000005E
:1052E000000000000000000000000000180018008E
:1052F00018001800180018001800180018001800EE
:1053000018001800180018001800F81FF81F0000F7
:105310000000000000000000000000000EE01EF091
:105320001EF01EF036D836D836D836D866CC66CCC5
:1053300066CCC6C6C6C6C6C6C6C686C386C3000079
:105340000000000000000000000000000C301C30D5
:105350003C303C306C306C30CC30CC308C310C3349
:105360000C330C360C360C3C0C3C0C380C3000006A
:10537000000000000000000000000000E007F81F2F
:105380001C380E70066003C003C003C003C003C016
:1053900003C003C006600E701C38F81FE007000051
:1053A000000000000000000000000000FC0FFC1FD7
:1053B0000C380C300C300C300C300C18FC1FFC0777
:1053C0000C000C000C000C000C000C000C00000089
:1053D000000000000000000000000000E007F81FCF
:1053E0001C380E70066003E003C003C003C003C096
:1053F00003C007E006630E3F1C3CF83FE0F700C027
:10540000000000000000000000000000FE0FFE1F72
:1054100006380630063006300638FE1FFE07060343
:105420000606060C06180618063006300660000050
:10543000000000000000000000000000E003F80F82
:105440001C0C0C180C180C001C00F803E00F001EBC
:105450000038063006300E301C1CF80FE007000044
:10546000000000000000000000000000FE7FFE7F42
:105470008001800180018001800180018001800124
:105480008001800180018001800180018001000095
:105490000000000000000000000000000C300C3094
:1054A0000C300C300C300C300C300C300C300C301C
:1054B0000C300C300C300C301818F81FE0070000CE
:1054C0000000000000000000000000000360063043
:1054D000063006300C180C180C18180C180C380E66
:1054E00030063006700760036003C001C001000091
:1054F0000000000000000000000000000360C36125
:10550000C361C361663366336633663366336633BD
:105510006C1B6C1B6C1B2C1A3C1E380E380E0000CA
:105520000000000000000000000000000FE00C7010
:1055300018303018700C600EC00780038003C00361
:10554000E006700C301C18180C300E6007E00000EC
:1055500000000000000000000000000003C0066022
:105560000C301C383818300C6006E007C00380018E
:1055700080018001800180018001800180010000A4
:10558000000000000000000000000000FC7FFC7F25
:10559000006000300018000C000600038001C0000D
:1055A0006000300018000C000600FE7FFE7F000047
:1055B000000000000000000000000000E003E00325
:1055C00060006000600060006000600060006000DB
:1055D00060006000600060006000600060006000CB
:1055E00060006000E003E0030000000030003000D5
:1055F000600060006000C000C000C000C001800109
:105600008001800100030003000300060006000083
:10561000000000000000000000000000E003E003C4
:105620000003000300030003000300030003000362
:105630000003000300030003000300030003000352
:1056400000030003E003E003000000000000C001CD
:10565000C00160036003600330063006180C180CAC
:10566000000000000000000000000000000000003A
:10567000000000000000000000000000000000002A
:10568000000000000000000000000000000000001A
:10569000000000000000000000000000FFFFFFFF0E
:1056A0000000000000000000000000000C000C00E2
:1056B0000C000C000C000C000000000000000000BA
:1056C00000000000000000000000000000000000DA
:1056D00000000000000000000000000000000000CA
:1056E000000000000000F003F8071C0C0C0C000F79
:1056F000F00FF80C0C0C0C0C1C0FF80FF01800003D
:105700000000000000000000000000001800180069
:10571000180018001800D803F80F380C18181818BB
:105720001818181818181818380CF80FD803000093
:105730000000000000000000000000000000000069
:10574000000000000000C003F007300E180C180025
:10575000180018001800180C300EF007C0030000E5
:105760000000000000000000000000000018001809
:10577000001800180018C01BF01F301C181818184B
:105780001818181818181818301CF01FC01B000023
:105790000000000000000000000000000000000009
:1057A000000000000000C003F00F300C1818F81FB4
:1057B000F81F180018003818301CF00FC007000040
:1057C000000000000000000000000000800FC00F7B
:1057D000C000C000C000F007F007C000C000C0005B
:1057E000C000C000C000C000C000C000C000000079
:1057F00000000000000000000000000000000000A9
:10580000000000000000E00DF80F180E0C0C0C0C4E
:105810000C0C0C0C0C0C0C0C180EF80FE00D000C02
:105820000C0C1C06F807F00100000000180018001E
:10583000180018001800D807F80F381C1818181886
:105840001818181818181818181818181818000008
:10585000000000000000000000000000C000C000C8
:10586000000000000000C000C000C000C000C00078
:10587000C000C000C000C000C000C000C0000000E8
:10588000000000000000000000000000C000C00098
:10589000000000000000C000C000C000C000C00048
:1058A000C000C000C000C000C000C000C000C000F8
:1058B000C000C000F8007800000000000C000C00E0
:1058C0000C000C000C000C0C0C060C038C01CC0022
:1058D0006C00FC009C018C030C030C060C0C0000FB
:1058E000000000000000000000000000C000C00038
:1058F000C000C000C000C000C000C000C000C000A8
:10590000C000C000C000C000C000C000C000000057
:105910000000000000000000000000000000000087
:105920000000000000007C3CFF7EC7E383C183C110
:1059300083C183C183C183C183C183C183C100008B
:105940000000000000000000000000000000000057
:105950000000000000009807F80F381C18181818ED
:1059600018181818181818181818181818180000E7
:105970000000000000000000000000000000000027
:10598000000000000000C003F00F300C18181818B9
:105990001818181818181818300CF00FC003000049
:1059A00000000000000000000000000000000000F7
:1059B000000000000000D803F80F380C1818181861
:1059C0001818181818181818380CF80FD8031800D9
:1059D0001800180018001800000000000000000067
:1059E000000000000000C01BF01F301C1818181821
:1059F0001818181818181818301CF01FC01B001899
:105A00000018001800180018000000000000000036
:105A1000000000000000B007F0037000300030000C
:105A20003000300030003000300030003000000026
:105A30000000000000000000000000000000000066
:105A4000000000000000E003F003380E180C3800DE
:105A5000F003C007000C180C380EF007E00300003C
:105A600000000000000000000000000000008000B6
:105A7000C000C000C000F007F007C000C000C000B8
:105A8000C000C000C000C000C000C0078007000008
:105A90000000000000000000000000000000000006
:105AA0000000000000001818181818181818181806
:105AB0001818181818181818381CF01FE0190000CA
:105AC00000000000000000000000000000000000D6
:105AD0000000000000000C18180C180C180C300600
